:020000040800F2
:1000000000000220B1540008754B0008834B000823
:10001000894B00088F4B0008954B0008000000003A
:100020000000000000000000000000009B4B0008E2
:10003000A94B000800000000B74B0008C54B0008A2
:100040000155000801550008015500080155000838
:100050000155000801550008015500080155000828
:1000600001550008D54B0008E34B00080155000876
:100070000155000801550008015500080155000808
:1000800001550008015500080155000801550008F8
:1000900001550008015500080155000801550008E8
:1000A00001550008015500080155000801550008D8
:1000B00001550008015500080155000801550008C8
:1000C00001550008015500080155000801550008B8
:1000D000015500080155000801550008F14B0008C2
:1000E000054C00080155000801550008015500089D
:1000F0000155000801550008015500080155000888
:100100000155000801550008015500080155000877
:100110000155000801550008015500081D4C000854
:100120000155000801550008015500080155000857
:100130000155000801550008015500080155000847
:100140000155000801550008015500080155000837
:100150000155000801550008015500080155000827
:100160000155000801550008015500080155000817
:100170000155000801550008015500080000000065
:080180000155000801550008BB
:1001880010B5054C237833B9044B13B10448AFF3C9
:1001980000800123237010BDDC0100200000000056
:1001A800E86F000808B5034B1BB103490348AFF3D8
:1001B800008008BD00000000E0010020E86F000892
:1001C800034613F8012B002AFBD1181A013870478F
:1001D80081F0004102E000BF83F0004330B54FEAF0
:1001E80041044FEA430594EA050F08BF90EA020F5D
:1001F8001FBF54EA000C55EA020C7FEA645C7FEAF0
:10020800655C00F0E2804FEA5454D4EB5555B8BF12
:100218006D420CDD2C4480EA020281EA030382EA83
:10022800000083EA010180EA020281EA0303362D15
:1002380088BF30BD11F0004F4FEA01314FF4801CE8
:100248004CEA113102D0404261EB410113F0004FFA
:100258004FEA03334CEA133302D0524263EB4303B1
:1002680094EA050F00F0A780A4F10104D5F1200E4F
:100278000DDB02FA0EFC22FA05F2801841F10001AA
:1002880003FA0EF2801843FA05F359410EE0A5F17E
:1002980020050EF1200E012A03FA0EFC28BF4CF0AF
:1002A800020C43FA05F3C01851EBE37101F0004565
:1002B80007D54FF0000EDCF1000C7EEB00006EEB72
:1002C8000101B1F5801F1BD3B1F5001F0CD34908FC
:1002D8005FEA30004FEA3C0C04F101044FEA445253
:1002E80012F5800F80F09A80BCF1004F08BF5FEADA
:1002F800500C50F1000041EB045141EA050130BDBA
:100308005FEA4C0C404141EB010111F4801FA4F15C
:100318000104E9D191F0000F04BF01460020B1FAB1
:1003280081F308BF2033A3F10B03B3F120020CDAE9
:100338000C3208DD02F1140CC2F10C0201FA0CF0C7
:1003480021FA02F10CE002F11402D8BFC2F1200C2C
:1003580001FA02F120FA0CFCDCBF41EA0C019040E2
:10036800E41AA2BF01EB0451294330BD6FEA04042B
:100378001F3C1CDA0C340EDC04F11404C4F1200216
:1003880020FA04F001FA02F340EA030021FA04F328
:1003980045EA030130BDC4F10C04C4F1200220FA7F
:1003A80002F001FA04F340EA0300294630BD21FABD
:1003B80004F0294630BD94F0000F83F4801306BF83
:1003C80081F480110134013D4EE77FEA645C18BF77
:1003D8007FEA655C29D094EA050F08BF90EA020F0E
:1003E80005D054EA000C04BF1946104630BD91EA06
:1003F800030F1EBF0021002030BD5FEA545C05D109
:100408004000494128BF41F0004130BD14F5800447
:100418003CBF01F5801130BD01F0004545F0FE41BB
:1004280041F470014FF0000030BD7FEA645C1ABFF0
:10043800194610467FEA655C1CBF0B46024650EA27
:10044800013406BF52EA033591EA030F41F4002153
:1004580030BD00BF90F0000F04BF0021704730B5D9
:100468004FF4806404F132044FF000054FF00001AE
:1004780050E700BF90F0000F04BF0021704730B56F
:100488004FF4806404F1320410F0004548BF404244
:100498004FF000013EE700BF42004FEAE2014FEA99
:1004A80031014FEA02701FBF12F07F4393F07F4F74
:1004B80081F06051704792F0000F14BF93F07F4FA6
:1004C800704730B54FF4607401F0004521F00041E9
:1004D80020E700BF50EA010208BF704730B54FF06F
:1004E80000050AE050EA010208BF704730B511F074
:1004F800004502D5404261EB41014FF4806404F1AC
:1005080032045FEA915C3FF4DCAE4FF003025FEA2D
:10051800DC0C18BF03325FEADC0C18BF033202EBB5
:10052800DC02C2F1200300FA03FC20FA02F001FA0F
:1005380003FE40EA0E0021FA02F11444C1E600BFAE
:1005480070B54FF0FF0C4CF4E06C1CEA11541DBF61
:100558001CEA135594EA0C0F95EA0C0F00F0DEF82C
:100568002C4481EA030621EA4C5123EA4C5350EA11
:10057800013518BF52EA033541F4801143F4801362
:1005880038D0A0FB02CE4FF00005E1FB02E506F0F3
:100598000042E0FB03E54FF00006E1FB03569CF048
:1005A800000F18BF4EF0010EA4F1FF04B6F5007F4E
:1005B80064F5407404D25FEA4E0E6D4146EB0606C0
:1005C80042EAC62141EA55514FEAC52040EA5E5049
:1005D8004FEACE2EB4F1FD0C88BFBCF5E06F1ED8F3
:1005E800BEF1004F08BF5FEA500E50F1000041EB2A
:1005F800045170BD06F0004646EA010140EA0200D7
:1006080081EA0301B4EB5C04C2BFD4EB0C0541EAF8
:10061800045170BD41F480114FF0000E013C00F30D
:10062800AB8014F1360FDEBF002001F0004170BD31
:10063800C4F10004203C35DA0C341BDC04F114044A
:10064800C4F1200500FA05F320FA04F001FA05F2D6
:1006580040EA020001F0004221F0004110EBD370A3
:1006680021FA04F642EB06015EEA430E08BF20EACF
:10067800D37070BDC4F10C04C4F1200500FA04F372
:1006880020FA05F001FA04F240EA020001F0004104
:1006980010EBD37041F100015EEA430E08BF20EA77
:1006A800D37070BDC4F1200500FA05F24EEA020EBF
:1006B80020FA04F301FA05F243EA020321FA04F0EE
:1006C80001F0004121FA04F220EA020000EBD370A5
:1006D8005EEA430E08BF20EAD37070BD94F0000FA5
:1006E8000FD101F00046400041EB010111F4801FD9
:1006F80008BF013CF7D041EA060195F0000F18BF8A
:10070800704703F00046520043EB030313F4801FC5
:1007180008BF013DF7D043EA0603704794EA0C0F7F
:100728000CEA135518BF95EA0C0F0CD050EA410695
:1007380018BF52EA4306D1D181EA030101F0004112
:100748004FF0000070BD50EA410606BF104619463A
:1007580052EA430619D094EA0C0F02D150EA013646
:1007680013D195EA0C0F05D152EA03361CBF104687
:1007780019460AD181EA030101F0004141F0FE4126
:1007880041F470014FF0000070BD41F0FE4141F4AA
:10079800780170BD70B54FF0FF0C4CF4E06C1CEAAA
:1007A80011541DBF1CEA135594EA0C0F95EA0C0F5F
:1007B80000F0A7F8A4EB050481EA030E52EA03351A
:1007C8004FEA013100F088804FEA03334FF080553B
:1007D80045EA131343EA12634FEA022245EA111568
:1007E80045EA10654FEA00260EF000419D4208BF19
:1007F800964244F1FD0404F5407402D25B084FEAC6
:100808003202B61A65EB03055B084FEA32024FF471
:1008180080104FF4002CB6EB020E75EB030E22BFCE
:10082800B61A754640EA0C005B084FEA3202B6EB8E
:10083800020E75EB030E22BFB61A754640EA5C003D
:100848005B084FEA3202B6EB020E75EB030E22BFCD
:10085800B61A754640EA9C005B084FEA3202B6EBCE
:10086800020E75EB030E22BFB61A754640EADC008D
:1008780055EA060E18D04FEA051545EA16754FEAEF
:1008880006164FEAC30343EA52734FEAC2025FEA0D
:100898001C1CC0D111F4801F0BD141EA00014FF09C
:1008A80000004FF0004CB6E711F4801F04BF01436D
:1008B8000020B4F1FD0C88BFBCF5E06F3FF6AFAE89
:1008C800B5EB030C04BFB6EB020C5FEA500C50F119
:1008D800000041EB045170BD0EF0004E4EEA11319C
:1008E80014EB5C04C2BFD4EB0C0541EA045170BDA3
:1008F80041F480114FF0000E013C90E645EA060EE7
:100908008DE60CEA135594EA0C0F08BF95EA0C0F14
:100918003FF43BAF94EA0C0F0AD150EA01347FF45C
:1009280034AF95EA0C0F7FF425AF104619462CE733
:1009380095EA0C0F06D152EA03353FF4FDAE104696
:10094800194622E750EA410618BF52EA43067FF4E7
:10095800C5AE50EA41047FF40DAF52EA43057FF477
:10096800EBAE12E74FF0FF3C06E000BF4FF0010C82
:1009780002E000BF4FF0010C4DF804CD4FEA410CE6
:100988007FEA6C5C4FEA430C18BF7FEA6C5C1BD0B3
:1009980001B050EA410C0CBF52EA430C91EA030F34
:1009A80002BF90EA020F0020704710F1000F91EA91
:1009B800030F58BF994208BF90422CBFD8176FEA5F
:1009C800E37040F0010070474FEA410C7FEA6C5C2D
:1009D80002D150EA013C07D14FEA430C7FEA6C5C34
:1009E800D6D152EA033CD3D05DF8040B704700BF60
:1009F8008446104662468C461946634600E000BFAE
:100A080001B5FFF7B7FF002848BF10F1000F01BD7F
:100A18004DF808EDFFF7F4FF0CBF012000205DF84A
:100A280008FB00BF4DF808EDFFF7EAFF34BF0120CF
:100A380000205DF808FB00BF4DF808EDFFF7E0FF68
:100A480094BF012000205DF808FB00BF4DF808EDB9
:100A5800FFF7CEFF94BF012000205DF808FB00BF20
:100A68004DF808EDFFF7C4FF34BF012000205DF802
:100A780008FB00BF4FEA410C7FEA6C5C02D150EAE8
:100A8800013C0AD14FEA430C7FEA6C5C02D152EA7E
:100A9800033C02D14FF0000070474FF0010070474F
:100AA8004FEA410212F5001215D211D56FF478738E
:100AB800B3EB625212D94FEAC12343F0004343EA31
:100AC800505311F0004F23FA02F018BF404270470C
:100AD8004FF00000704750EA013005D111F0004096
:100AE80008BF6FF0004070474FF00000704700BF2C
:100AF80053B94AB9002908BF00281CBF4FF0FF317D
:100B08004FF0FF3000F07AB9ADF1080C6DE904CE72
:100B180000F006F8DDF804E0DDE9022304B07047D0
:100B28002DE9F0478C460D460446089E002B51D10E
:100B38008A4217466DD9B2FA82FEBEF1000F0BD079
:100B4800CEF1200C01FA0EF520FA0CFC02FA0EF791
:100B58004CEA050C00FA0EF44FEA174A250CBCFBC8
:100B6800FAF81FFA87F90AFB18CC45EA0C4508FB86
:100B780009F3AB420AD9ED1908F1FF3280F023815D
:100B8800AB4240F22081A8F102083D44ED1AA4B21C
:100B9800B5FBFAF00AFB105544EA054400FB09F9D5
:100BA800A14509D9E41900F1FF3380F00A81A14574
:100BB80040F2078102383C44A4EB090440EA0840AB
:100BC8000021002E61D024FA0EF4002334607360F3
:100BD800BDE8F0878B4207D9002E54D0002186E863
:100BE80021000846BDE8F087B3FA83F1002940F0F8
:100BF8008E80AB4202D3824200F2FA80841A65EBFF
:100C080003050120AC46002E3FD086E81010BDE851
:100C1800F08712B90127B7FBF2F7B7FA87FEBEF1E2
:100C2800000F34D1EB1B3A0C1FFA87FC0121B3FBF0
:100C3800F2F8250C02FB183345EA03450CFB08F3D0
:100C4800AB4207D9ED1908F1FF3002D2AB4200F2EE
:100C5800D1808046ED1AA3B2B5FBF2F002FB105525
:100C680043EA05440CFB00FCA44507D9E41900F14C
:100C7800FF3302D2A44500F2B8801846A4EB0C0456
:100C880040EA08409DE731463046BDE8F087CEF19E
:100C9800200405FA0EF307FA0EF720FA04F83A0CC6
:100CA80025FA04F448EA0308B4FBF2F14FEA1845C0
:100CB80002FB11441FFA87FC45EA044501FB0CF3CB
:100CC800AB4200FA0EF409D9ED1901F1FF3080F0BA
:100CD8008A80AB4240F2878002393D44EB1A1FFA02
:100CE80088F5B3FBF2F002FB103345EA034500FB3D
:100CF8000CF3AB4207D9ED1900F1FF386FD2AB42C4
:100D08006DD902383D44EB1A40EA01418FE7C1F141
:100D1800200722FA07F88B4005FA01F448EA030392
:100D280020FA07FE4FEA134CFD404EEA040EB5FBCD
:100D3800FCF94FEA1E440CFB19551FFA83F844EAE4
:100D4800054509FB08F4AC4202FA01F200FA01FA7F
:100D580008D9ED1809F1FF3043D2AC4241D9A9F1C5
:100D680002091D442D1B1FFA8EFEB5FBFCF00CFB7F
:100D780010554EEA054400FB08F8A04507D9E418C9
:100D880000F1FF3529D2A04527D902381C4440EA92
:100D98000940A4EB0804A0FB02894C45C6464D4611
:100DA80015D312D056B1BAEB0E0364EB050404FA5E
:100DB80007F7CB401F43CC40376074600021BDE883
:100DC800F0871846F8E69046E0E6C245EAD2B8EB66
:100DD800020E69EB03050138E4E72846D7E74046E9
:100DE80091E78146BEE7014678E702383C4445E78B
:100DF800084608E7A8F102083D442BE7704700BF02
:100E080080B500AF0E4A0E4B1B6843F400731360A5
:100E18000B4A0B4B1B6843F480631360084A084B6A
:100E28001B6843F480731360032000F047F9002027
:100E380000F008F803F048FE0023184680BD00BF04
:100E4800003C024080B582B000AF7860124B1A684F
:100E5800124B1B7819464FF47A73B3FBF1F3B2FBCC
:100E6800F3F3184600F05FF90346002B01D0012385
:100E78000EE07B680F2B0AD8002279684FF0FF300C
:100E880000F027F9064A7B681360002300E001237D
:100E980018460837BD4680BD080000200400002021
:100EA8000000002080B400AF064B1B781A46064BA2
:100EB8001B681344044A136000BFBD465DF8047BF9
:100EC800704700BF040000200802002080B400AF73
:100ED800034B1B681846BD465DF8047B704700BF8E
:100EE8000802002080B584B000AF7860FFF7EEFFFD
:100EF800B8607B68FB60FB68B3F1FF3F05D0094B26
:100F08001B781A46FB681344FB6000BFFFF7DEFF3F
:100F18000246BB68D21AFB689A42F7D300BF103763
:100F2800BD4680BD0400002080B485B000AF786065
:100F38007B6803F00703FB600C4BDB68BB60BA6897
:100F48004FF6FF031340BB60FB681A02BB681343EC
:100F580043F0BF6343F40033BB60044ABB68D3600B
:100F680000BF1437BD465DF8047B704700ED00E014
:100F780080B400AF044BDB681B0A03F00703184674
:100F8800BD465DF8047B704700ED00E080B483B097
:100F980000AF0346FB71094997F907305B09FA79F5
:100FA80002F01F02012000FA02F241F8232000BFDC
:100FB8000C37BD465DF8047B704700BF00E100E0D8
:100FC80080B483B000AF03463960FB7197F90730EE
:100FD800002B0BDA0D49FB7903F00F03043B3A6849
:100FE800D2B21201D2B20B441A7609E0084997F935
:100FF80007303A68D2B21201D2B20B4483F8002308
:1010080000BF0C37BD465DF8047B704700ED00E07B
:1010180000E100E080B489B000AFF860B9607A60A0
:10102800FB6803F00703FB61FB69C3F10703042BAB
:1010380028BF0423BB61FB690433062B02D9FB6973
:10104800033B00E000237B610122BB6902FA03F342
:101058005A1EBB681A407B699A4001217B6901FAD4
:1010680003F3591E7B680B40134318462437BD46CB
:101078005DF8047B7047000080B582B000AF7860EF
:101088007B68013BB3F1807F01D301230FE00A4A5B
:101098007B68013B53600F214FF0FF30FFF790FF53
:1010A800054B00229A60044B07221A600023184659
:1010B8000837BD4680BD00BF10E000E080B582B0B3
:1010C80000AF78607868FFF72FFF00BF0837BD468C
:1010D80080BD80B586B000AF0346B9607A60FB7307
:1010E80000237B61FFF744FF78617A68B968786903
:1010F800FFF790FF024697F90F3011461846FFF7A1
:101108005FFF00BF1837BD4680BD80B582B000AF15
:101118000346FB7197F907301846FFF737FF00BF02
:101128000837BD4680BD80B582B000AF786078686A
:10113800FFF7A2FF034618460837BD4680BD0000EA
:1011480080B483B000AF78607B68042B06D1094A6D
:10115800084B1B6843F00403136005E0054A054B80
:101168001B6823F00403136000BF0C37BD465DF80D
:10117800047B704710E000E080B500AF00F002F893
:1011880000BF80BD80B400AF00BFBD465DF8047BE2
:10119800704780B483B000AF78607B6893F83530CF
:1011A800DBB2022B04D07B6880225A6501230CE055
:1011B8007B68052283F835207B681B687A6812688B
:1011C800126822F001021A60002318460C37BD4647
:1011D8005DF8047B7047000080B489B000AF786088
:1011E800396000237B6100233B610023BB6100233E
:1011F800FB616BE10122FB6902FA03F37B613B6847
:101208001A687B6913403B613A697B699A4240F0EE
:101218005A813B685B68022B03D03B685B68122BE2
:1012280023D1FB69DA087B68083253F82230BB61A6
:10123800FB6903F007039B000F2202FA03F3DB4369
:10124800BA691340BB613B681A69FB6903F007037D
:101258009B0002FA03F3BA691343BB61FB69DA081E
:101268007B680832B96943F822107B681B68BB6148
:10127800FB695B00032202FA03F3DB43BA691340FC
:10128800BB613B685B6803F00302FB695B0002FA21
:1012980003F3BA691343BB617B68BA691A603B6898
:1012A8005B68012B0BD03B685B68022B07D03B685F
:1012B8005B68112B03D03B685B68122B30D17B68CD
:1012C8009B68BB61FB695B00032202FA03F3DB4303
:1012D800BA691340BB613B68DA68FB695B0002FAD4
:1012E80003F3BA691343BB617B68BA699A607B6888
:1012F8005B68BB610122FB6902FA03F3DB43BA694D
:101308001340BB613B685B681B0903F00102FB6982
:1013180002FA03F3BA691343BB617B68BA695A607E
:101328007B68DB68BB61FB695B00032202FA03F39D
:10133800DB43BA691340BB613B689A68FB695B0091
:1013480002FA03F3BA691343BB617B68BA69DA60CE
:101358003B685B6803F08053002B00F0B4800023E7
:10136800FB605F4A5E4B5B6C43F4804353645C4BA9
:101378005B6C03F48043FB60FB685A4AFB699B087B
:10138800023352F82330BB61FB6903F003039B006F
:101398000F2202FA03F3DB43BA691340BB617B688F
:1013A800514A93422BD07B68504A934225D07B68A0
:1013B8004F4A93421FD07B684E4A934219D07B68AC
:1013C8004D4A934213D07B684C4A93420DD07B68B8
:1013D8004B4A934207D07B684A4A934201D107237C
:1013E8000EE008230CE006230AE0052308E00423A6
:1013F80006E0032304E0022302E0012300E00023C7
:10140800FA6902F0030292009340BA691343BB6180
:101418003449FB699B080233BA6941F823203A4BE7
:101428001B68BB613B69DB43BA691340BB613B681E
:101438005B6803F48033002B03D0BA693B6913431C
:10144800BB61314ABB6913602F4B5B68BB613B6969
:10145800DB43BA691340BB613B685B6803F4003344
:10146800002B03D0BA693B691343BB61264ABB69A9
:101478005360254B9B68BB613B69DB43BA691340EA
:10148800BB613B685B6803F48013002B03D0BA6927
:101498003B691343BB611C4ABB6993601A4BDB6809
:1014A800BB613B69DB43BA691340BB613B685B685E
:1014B80003F40013002B03D0BA693B691343BB61E3
:1014C800114ABB69D360FB690133FB61FB690F2BD0
:1014D8007FF690AE00BF2437BD465DF8047B7047A9
:1014E8000038024000380140000002400004024079
:1014F80000080240000C02400010024000140240A4
:1015080000180240001C0240003C014080B483B037
:1015180000AF78600B467B8013467B707B78002B8E
:1015280003D07A887B689A6103E07B881A047B6819
:101538009A6100BF0C37BD465DF8047B704780B4E4
:1015480083B000AF78600B467B807B685A697B88E4
:101558005A407B685A6100BF0C37BD465DF8047B72
:101568007047000080B582B000AF0346FB80084B8F
:101578005A69FB881340002B06D0054AFB88536143
:10158800FB88184603F06CFA00BF0837BD4680BDDB
:10159800003C014080B586B000AF78607B68002BC6
:1015A80001D101232DE27B681B6803F00103002BA6
:1015B80075D0A34B9B6803F00C03042B0CD0A04BF5
:1015C8009B6803F00C03082B12D19D4B5B6803F456
:1015D8008003B3F5800F0BD1994B1B6803F40033DC
:1015E800002B5BD07B685B68002B57D1012308E296
:1015F8007B685B68B3F5803F06D1914A904B1B68C6
:1016080043F4803313601DE07B685B68B3F5A02F5B
:101618000CD18B4A8A4B1B6843F480231360884A99
:10162800874B1B6843F4803313600BE0844A844B78
:101638001B6823F480331360814A814B1B6823F4B1
:10164800802313607B685B68002B13D0FFF73EFC98
:10165800386108E0FFF73AFC02463B69D31A642B6D
:1016680001D90323CDE1764B1B6803F40033002B2B
:10167800F0D014E0FFF72AFC386108E0FFF726FCF9
:1016880002463B69D31A642B01D90323B9E16C4B99
:101698001B6803F40033002BF0D100E000BF7B6827
:1016A8001B6803F00203002B63D0654B9B6803F0B3
:1016B8000C03002B0BD0624B9B6803F00C03082B28
:1016C8001CD15F4B5B6803F48003002B16D15C4B85
:1016D8001B6803F00203002B05D07B68DB68012B35
:1016E80001D001238DE15649554B1B6823F0F802C0
:1016F8007B681B69DB0013430B603AE07B68DB689F
:10170800002B20D04F4B01221A60FFF7DFFB386116
:1017180008E0FFF7DBFB02463B69D31A022B01D92D
:1017280003236EE1464B1B6803F00203002BF0D045
:101738004349434B1B6823F0F8027B681B69DB00B5
:1017480013430B6015E03F4B00221A60FFF7BEFB06
:10175800386108E0FFF7BAFB02463B69D31A022B4F
:1017680001D903234DE1364B1B6803F00203002B1C
:10177800F0D17B681B6803F00803002B30D07B682E
:101788005B69002B16D0304B01221A60FFF79EFBD5
:10179800386108E0FFF79AFB02463B69D31A022B2F
:1017A80001D903232DE1264B5B6F03F00203002BC5
:1017B800F0D015E0244B00221A60FFF787FB386150
:1017C80008E0FFF783FB02463B69D31A022B01D9D5
:1017D800032316E11A4B5B6F03F00203002BF0D1D1
:1017E8007B681B6803F00403002B00F0A080002333
:1017F800FB75134B1B6C03F08053002B0FD1002398
:10180800FB600F4A0E4B1B6C43F0805313640C4B68
:101818001B6C03F08053FB60FB680123FB750B4BCB
:101828001B6803F48073002B21D1084A074B1B68FF
:1018380043F480731360FFF749FB386111E000BF80
:101848000038024000004742800E474200700040C6
:10185800FFF73CFB02463B69D31A022B01D903234D
:10186800CFE06A4B1B6803F48073002BF0D07B68D1
:101878009B68012B06D1664A654B1B6F43F0010339
:1018880013671CE07B689B68052B0CD1604A604B92
:101898001B6F43F0040313675D4A5D4B1B6F43F0F6
:1018A800010313670BE05A4A594B1B6F23F00103DE
:1018B8001367574A564B1B6F23F0040313677B6863
:1018C8009B68002B15D0FFF701FB38610AE0FFF792
:1018D800FDFA02463B69D31A41F28832934201D994
:1018E80003238EE04A4B1B6F03F00203002BEED05C
:1018F80014E0FFF7EBFA38610AE0FFF7E7FA02466F
:101908003B69D31A41F28832934201D9032378E024
:101918003F4B1B6F03F00203002BEED1FB7D012B25
:1019280005D13B4A3A4B1B6C23F0805313647B6808
:101938009B69002B64D0364B9B6803F00C03082B83
:101948005CD07B689B69022B41D1324B00221A6024
:10195800FFF7BCFA386108E0FFF7B8FA02463B69BE
:10196800D31A022B01D903234BE0294B1B6803F040
:101978000073002BF0D126497B68DA697B681B6A03
:101988001A437B685B6A9B011A437B689B6A5B0806
:10199800013B1B041A437B68DB6A1B0613434B603D
:1019A8001C4B01221A60FFF791FA386108E0FFF733
:1019B8008DFA02463B69D31A022B01D9032320E092
:1019C800134B1B6803F00073002BF0D018E0114B89
:1019D80000221A60FFF77AFA386108E0FFF776FA12
:1019E80002463B69D31A022B01D9032309E0084BAD
:1019F8001B6803F00073002BF0D101E0012300E025
:101A0800002318461837BD4680BD00BF007000404F
:101A1800003802406000474280B584B000AF78606B
:101A280039607B68002B01D10123CAE0674B1B6832
:101A380003F00F023B689A420CD2644B3A68D2B268
:101A48001A70624B1B6803F00F023B689A4201D080
:101A58000123B6E07B681B6803F00203002B20D04B
:101A68007B681B6803F00403002B05D0584A584BC9
:101A78009B6843F4E05393607B681B6803F008039A
:101A8800002B05D0524A524B9B6843F46043936045
:101A98004F494F4B9B6823F0F0027B689B681343C8
:101AA8008B607B681B6803F00103002B44D07B68C4
:101AB8005B68012B07D1464B1B6803F40033002BEE
:101AC80019D101237DE07B685B68022B03D07B681A
:101AD8005B68032B07D13E4B1B6803F00073002B98
:101AE80009D101236DE03A4B1B6803F00203002B78
:101AF80001D1012365E03649354B9B6823F0030289
:101B08007B685B6813438B60FFF7E0F9F8600AE0D5
:101B1800FFF7DCF90246FB68D31A41F28832934298
:101B280001D903234DE02A4B9B6803F00C027B6824
:101B38005B689B009A42EBD1244B1B6803F00F02B1
:101B48003B689A420CD9214B3A68D2B21A701F4BA3
:101B58001B6803F00F023B689A4201D0012330E072
:101B68007B681B6803F00403002B08D01849184B46
:101B78009B6823F4E0527B68DB6813438B607B68C7
:101B88001B6803F00803002B09D01149104B9B6810
:101B980023F460427B681B69DB0013438B6000F011
:101BA8001DF801460A4B9B681B0903F00F03094AFD
:101BB800D35C21FA03F3084A13600020FFF742F9C7
:101BC800002318461037BD4680BD00BF003C0240C8
:101BD8000038024044700008080000202DE9F04F4A
:101BE8008FB000AF0023FB6200237B630023BB623E
:101BF80000233B63624B9B6803F00C03042B07D064
:101C0800082B08D0002B40F0B2805E4B3B63B1E05C
:101C18005D4B3B63AEE05A4B5B6803F03F03FB62EE
:101C2800574B5B6803F48003002B4ED0544B5B6822
:101C38009B094FF0000440F2FF114FF0000201EA47
:101C4800030102EA04020B46144660017862786ACE
:101C580040EAD36078625B013B62D7E908345B1ADB
:101C680064EB02044FEA841949EA93694FEA83183E
:101C7800B8EB030869EB04094FEAC903FB61FB6988
:101C880043EA5873FB614FEAC803BB61D7E9068989
:101C980018EB010849EB02094FEA49237B617B698C
:101CA80043EAD8537B614FEA48233B61D7E904896B
:101CB80040464946FB6A4FF000041A462346FEF7A1
:101CC80017FF03460C467B6343E02D4B5B689B097B
:101CD8004FF0000440F2FF114FF0000201EA030147
:101CE80002EA04020B4614466001F860F86840EA0C
:101CF800D360F8605B01BB60D7E902345B1A64EB20
:101D08000204A60146EA93669D01ED1A66EB0406F5
:101D1800F3007B607B6843EA55737B60EB003B60B4
:101D280097E860006D1846EB02064FEA862B4BEAEF
:101D3800955B4FEA852A55465E4628463146FB6A3A
:101D48004FF000041A462346FEF7D2FE03460C461F
:101D58007B630B4B5B681B0C03F0030301335B00D5
:101D6800BB627A6BBB6AB2FBF3F33B6302E0054BE1
:101D78003B6300BF3B6B18463C37BD46BDE8F08F60
:101D8800003802400024F40000127A0080B400AF4A
:101D9800034B1B681846BD465DF8047B704700BFBF
:101DA8000800002080B500AFFFF7F0FF0146054BA3
:101DB8009B689B0A03F00703034AD35C21FA03F3E9
:101DC800184680BD003802405470000880B500AF46
:101DD800FFF7DCFF0146054B9B685B0B03F007032D
:101DE800034AD35C21FA03F3184680BD0038024049
:101DF8005470000880B582B000AF78607B68002B13
:101E080001D101231DE07B6893F83930DBB2002B48
:101E180006D17B68002283F83820786803F0BEF981
:101E28007B68022283F839207B681A687B68043350
:101E38001946104600F060FB7B68012283F83920C0
:101E4800002318460837BD4680BD80B483B000AF74
:101E580078607B681B687A681268D26842F0010271
:101E6800DA607B681B687A681268126842F00102BF
:101E78001A60002318460C37BD465DF8047B70478E
:101E880080B582B000AF78607B68002B01D1012358
:101E98001DE07B6893F83930DBB2002B06D17B68F4
:101EA800002283F83820786800F015F87B68022251
:101EB80083F839207B681A687B6804331946104612
:101EC80000F01AFB7B68012283F8392000231846AA
:101ED8000837BD4680BD80B483B000AF786000BFCE
:101EE8000C37BD465DF8047B7047000080B582B0B2
:101EF80000AF786039607B681B6801223968184632
:101F080000F01CFC7B681B68104A934204D07B6875
:101F18001B680F4A934201D1012300E00023002BE4
:101F280007D07B681B687A681268526C42F40042DA
:101F38005A647B681B687A681268126842F001026A
:101F48001A60002318460837BD4680BD00000140CE
:101F58000004014080B582B000AF78607B681B68E0
:101F68001B6903F00203022B22D17B681B68DB6824
:101F780003F00203022B1BD17B681B686FF002027F
:101F88001A617B6801221A767B681B689B6903F0DB
:101F98000303002B03D0786800F08FFA05E0786817
:101FA80000F081FA786800F092FA7B6800221A76CD
:101FB8007B681B681B6903F00403042B22D17B6830
:101FC8001B68DB6803F00403042B1BD17B681B68C8
:101FD8006FF004021A617B6802221A767B681B681C
:101FE8009B6903F44073002B03D0786800F065FA0E
:101FF80005E0786800F057FA786800F068FA7B68BE
:1020080000221A767B681B681B6903F00803082BFB
:1020180022D17B681B68DB6803F00803082B1BD1FF
:102028007B681B686FF008021A617B6804221A76C5
:102038007B681B68DB6903F00303002B03D0786817
:1020480000F03BFA05E0786800F02DFA786800F0B7
:102058003EFA7B6800221A767B681B681B6903F0CE
:102068001003102B22D17B681B68DB6803F0100378
:10207800102B1BD17B681B686FF010021A617B68FC
:1020880008221A767B681B68DB6903F44073002B0F
:1020980003D0786800F011FA05E0786800F003FAD8
:1020A800786800F014FA7B6800221A767B681B684F
:1020B8001B6903F00103012B0ED17B681B68DB68E9
:1020C80003F00103012B07D17B681B686FF0010245
:1020D8001A61786802F0AAFC7B681B681B6903F028
:1020E8008003802B0ED17B681B68DB6803F08003BC
:1020F800802B07D17B681B686FF080021A617868B3
:1021080000F084FD7B681B681B6903F04003402BCB
:102118000ED17B681B68DB6803F04003402B07D1B6
:102128007B681B686FF040021A61786800F0D9F983
:102138007B681B681B6903F02003202B0ED17B688A
:102148001B68DB6803F02003202B07D17B681B6822
:102158006FF020021A61786800F04EFD00BF083762
:10216800BD4680BD80B584B000AFF860B9607A60C4
:10217800FB6893F83830012B01D10223B4E0FB68E7
:10218800012283F83820FB68022283F839207B6813
:102198000C2B00F29F8001A252F823F0D9210008ED
:1021A800DD220008DD220008DD22000819220008CF
:1021B800DD220008DD220008DD2200085B2200087D
:1021C800DD220008DD220008DD2200089B2200082D
:1021D800FB681B68B968184600F0D4FAFB681B68EE
:1021E800FA681268926942F008029A61FB681B68F3
:1021F800FA681268926922F004029A61FB681B6807
:10220800FA6812689169BA6812690A439A6162E0C9
:10221800FB681B68B968184600F018FAFB681B6869
:10222800FA681268926942F400629A61FB681B6856
:10223800FA681268926922F480629A61FB681B68E6
:10224800FA6812689169BA68126912020A439A61B7
:1022580041E0FB681B68B968184600F007FBFB689B
:102268001B68FA681268D26942F00802DA61FB68F2
:102278001B68FA681268D26922F00402DA61FB6806
:102288001B68FA681268D169BA6812690A43DA6188
:1022980021E0FB681B68B968184600F05FFBFB6823
:1022A8001B68FA681268D26942F40062DA61FB6856
:1022B8001B68FA681268D26922F48062DA61FB68E6
:1022C8001B68FA681268D169BA68126912020A436F
:1022D800DA6100E000BFFB68012283F83920FB685F
:1022E800002283F83820002318461037BD4680BDE9
:1022F80080B584B000AF786039600023FB607B68EC
:1023080093F83830012B01D10223C8E07B68012201
:1023180083F838207B68022283F839207B681B68A1
:102328009B68FB60FB6823F07703FB60FB6823F482
:102338007F43FB607B681B68FA689A603B681B6890
:10234800402B77D0402B0ED8102B00F08A80102B12
:1023580002D8002B7ED099E0202B00F08980302B0A
:1023680000F08D8092E0702B16D0702B04D8502B83
:1023780040D0602B4ED089E0B3F5805F03D0B3F531
:10238800005F24D082E07B681B687A6812689268D4
:1023980022F007029A6079E07B6818683B689968C0
:1023A8003B685A683B68DB6800F0BFFB7B681B68CA
:1023B8009B68FB60FB6823F07703FB60FB6843F0D6
:1023C8007703FB607B681B68FA689A605EE07B684D
:1023D80018683B6899683B685A683B68DB6800F096
:1023E800A4FB7B681B687A681268926842F4804292
:1023F8009A604BE07B6818683B6859683B68DB6803
:102408001A4600F00BFB7B681B685021184600F049
:102418006CFB3BE07B6818683B6859683B68DB6885
:102428001A4600F02EFB7B681B686021184600F0F6
:102438005CFB2BE07B6818683B6859683B68DB6885
:102448001A4600F0EBFA7B681B684021184600F03A
:102458004CFB1BE07B681B680021184600F045FB1D
:1024680014E07B681B681021184600F03EFB0DE065
:102478007B681B682021184600F037FB06E07B6864
:102488001B683021184600F030FB00BF7B68012232
:1024980083F839207B68002283F838200023184607
:1024A8001037BD4680BD80B483B000AF786000BFF0
:1024B8000C37BD465DF8047B704780B483B000AF2D
:1024C800786000BF0C37BD465DF8047B704780B468
:1024D80083B000AF786000BF0C37BD465DF8047B61
:1024E800704780B483B000AF786000BF0C37BD463A
:1024F8005DF8047B7047000080B485B000AF786059
:1025080039600023FB607B681B68FB607B68444A7A
:10251800934213D07B68B3F1804F0FD07B68414A58
:1025280093420BD07B68404A934207D07B683F4A6E
:10253800934203D07B683E4A934201D1012300E0D5
:102548000023002B08D0FB6823F07003FB603B6876
:102558005B68FA681343FB607B68314A93422BD06F
:102568007B68B3F1804F27D07B682E4A934223D0F3
:102578007B682D4A93421FD07B682C4A93421BD01C
:102588007B682B4A934217D07B682A4A934213D020
:102598007B68294A93420FD07B68284A93420BD024
:1025A8007B68274A934207D07B68264A934203D028
:1025B8007B68254A934201D1012300E00023002BC8
:1025C80008D0FB6823F44073FB603B68DB68FA685B
:1025D8001343FB607B68FA681A603B689A687B68FB
:1025E800DA623B681A687B689A627B680C4A934295
:1025F80003D07B680E4A934201D1012300E00023F7
:10260800002B03D03B681A697B681A637B68012238
:102618005A6100BF1437BD465DF8047B704700BFA0
:10262800000001400004004000080040000C004089
:1026380000040140004001400044014000480140BE
:1026480000180040001C00400020004080B487B003
:1026580000AF786039600023FB6000237B610023B2
:102668003B617B681B6A23F010027B681A627B68F7
:102678001B6A7B617B685B683B617B689B69FB606D
:10268800FB6823F4E043FB60FB6823F44073FB60C2
:102698003B681B681B02FA681343FB607B6923F0E5
:1026A80020037B613B689B681B017A6913437B614C
:1026B8007B68204A934203D07B681F4A934201D12A
:1026C800012300E00023002B21D07B6923F0800345
:1026D8007B613B68DB681B017A6913437B617B691B
:1026E80023F040037B613B6923F480633B613B69D2
:1026F80023F400633B613B685B699B003A691343C1
:102708003B613B689B699B003A6913433B617B686B
:102718003A695A607B68FA689A613B685A687B68CC
:102728009A637B687A691A6200BF1C37BD465DF8F8
:10273800047B7047000001400004014080B487B06A
:1027480000AFF860B9607A6000237B610122BB6842
:1027580002FA03F37B61FB681A6A7B69DB431A4060
:10276800FB681A62FB681A6A7968BB6801FA03F3A6
:102778001A43FB681A6200BF1C37BD465DF8047B2C
:102788007047000080B487B000AF786039600023DC
:10279800FB6000237B6100233B617B681B6A23F09D
:1027A80001027B681A627B681B6A7B617B685B68D5
:1027B8003B617B689B69FB60FB6823F07003FB60EF
:1027C800FB6823F00303FB603B681B68FA6813434C
:1027D800FB607B6923F002037B613B689B687A6935
:1027E80013437B617B681F4A934203D07B681E4A70
:1027F800934201D1012300E00023002B1ED07B6906
:1028080023F008037B613B68DB687A6913437B61CB
:102818007B6923F004037B613B6923F480733B618C
:102828003B6923F400733B613B685B693A69134376
:102838003B613B689B693A6913433B617B683A6932
:102848005A607B68FA689A613B685A687B685A6381
:102858007B687A691A6200BF1C37BD465DF8047B45
:10286800704700BF000001400004014080B487B0F9
:1028780000AF786039600023FB6000237B61002390
:102888003B617B681B6A23F480727B681A627B68F1
:102898001B6A7B617B685B683B617B68DB69FB600B
:1028A800FB6823F07003FB60FB6823F00303FB6005
:1028B8003B681B68FA681343FB607B6923F4007369
:1028C8007B613B689B681B027A6913437B617B6869
:1028D800204A934203D07B681F4A934201D10123C7
:1028E80000E00023002B21D07B6923F400637B6187
:1028F8003B68DB681B027A6913437B617B6923F4BD
:1029080080637B613B6923F480533B613B6923F41B
:1029180000533B613B685B691B013A6913433B61A8
:102928003B689B691B013A6913433B617B683A69C1
:102938005A607B68FA68DA613B685A687B68DA63D0
:102948007B687A691A6200BF1C37BD465DF8047B54
:10295800704700BF000001400004014080B487B008
:1029680000AF7860396000233B610023FB600023DF
:102978007B617B681B6A23F480527B681A627B68E0
:102988001B6AFB607B685B687B617B68DB693B611A
:102998003B6923F4E0433B613B6923F440733B61AB
:1029A8003B681B681B023A6913433B61FB6823F4CD
:1029B8000053FB603B689B681B03FA681343FB608A
:1029C8007B68144A934203D07B68134A934201D12F
:1029D800012300E00023002B09D07B6923F4804306
:1029E8007B613B685B699B017A6913437B617B6808
:1029F8007A695A607B683A69DA613B685A687B6829
:102A08001A647B68FA681A6200BF1C37BD465DF815
:102A1800047B7047000001400004014080B487B087
:102A280000AFF860B9607A6000237B6100233B61E6
:102A3800FB681B6A3B61FB681B6A23F00102FB68A9
:102A48001A62FB689B697B617B6923F0F0037B61F9
:102A58007B681B017A6913437B613B6923F00A0396
:102A68003B613A69BB6813433B61FB687A699A61C9
:102A7800FB683A691A6200BF1C37BD465DF8047BE3
:102A8800704780B487B000AFF860B9607A600023FF
:102A98007B6100233B61FB681B6A23F01002FB6823
:102AA8001A62FB689B697B61FB681B6A3B617B69F7
:102AB80023F470437B617B681B037A6913437B6152
:102AC8003B6923F0A0033B61BB681B013A691343D0
:102AD8003B61FB687A699A61FB683A691A6200BFD0
:102AE8001C37BD465DF8047B704780B485B000AFE5
:102AF80078600B467B800023FB607B689B68FB60EB
:102B0800FB6823F07003FB607B8843F007039BB2EC
:102B18001A46FB681343FB607B68FA689A6000BF3B
:102B28001437BD465DF8047B704780B487B000AFAA
:102B3800F860B9607A603B6000237B61FB689B6842
:102B48007B617B6923F47F437B613B681A027B6866
:102B58001A43BB6813437A6913437B61FB687A693C
:102B68009A6000BF1C37BD465DF8047B704780B48F
:102B780083B000AF786039607B6893F83830012BF8
:102B880001D1022332E07B68012283F838207B6878
:102B9800022283F839207B681B687A6812685268B9
:102BA80022F070025A607B681B687A681268516864
:102BB8003A6812680A435A607B681B687A68126828
:102BC800926822F080029A607B681B687A681268B3
:102BD80091683A6852680A439A607B68012283F8D0
:102BE80039207B68002283F83820002318460C37E8
:102BF800BD465DF8047B704780B483B000AF786051
:102C080000BF0C37BD465DF8047B704780B483B0C5
:102C180000AF786000BF0C37BD465DF8047B704795
:102C280080B582B000AF78607B68002B01D10123AA
:102C38003FE07B6893F83930DBB2002B06D17B6824
:102C4800002283F83820786802F0FCFB7B68242295
:102C580083F839207B681B687A681268D26822F486
:102C68000052DA60786800F07FFB7B681B687A683E
:102C78001268126922F490421A617B681B687A68AC
:102C88001268526922F02A025A617B681B687A68C6
:102C98001268D26842F40052DA607B680022DA6374
:102CA8007B68202283F839207B68202283F83A2029
:102CB800002318460837BD4680BD80B588B002AFEE
:102CC800F860B9603B601346FB8000237B61FB68BA
:102CD80093F83930DBB2202B40F08280BB68002BA0
:102CE80002D0FB88002B01D101237AE0FB6893F81E
:102CF8003830012B01D1022373E0FB68012283F8ED
:102D08003820FB680022DA63FB68212283F8392027
:102D1800FEF7DCF87861FB68FA889A84FB68FA8821
:102D2800DA8441E0FB68DB8C9BB2013B9AB2FB681A
:102D3800DA84FB689B68B3F5805F21D13B68009318
:102D48007B6900228021F86800F0ACF90346002B6B
:102D580001D0032345E0BB683B61FB681B683A6907
:102D68001288C2F308025A60FB681B69002B03D162
:102D7800BB680233BB6017E0BB680133BB6013E07C
:102D88003B6800937B6900228021F86800F08AF98B
:102D98000346002B01D0032323E0FB681A68BB68B5
:102DA800591CB9601B785360FB68DB8C9BB2002B05
:102DB800B8D13B6800937B6900224021F86800F095
:102DC80071F90346002B01D003230AE0FB68202297
:102DD80083F83920FB68002283F83820002300E0BC
:102DE800022318461837BD4680BD80B485B000AFB1
:102DF800F860B9601346FB80FB6893F83A30DBB2A1
:102E0800202B38D1BB68002B02D0FB88002B01D1C6
:102E1800012331E0FB6893F83830012B01D10223FC
:102E28002AE0FB68012283F83820FB68BA689A62B6
:102E3800FB68FA889A85FB68FA88DA85FB680022BD
:102E4800DA63FB68222283F83A20FB68002283F8C1
:102E58003820FB681B68FA681268526942F0010260
:102E68005A61FB681B68FA681268D26842F490726B
:102E7800DA60002300E0022318461437BD465DF8E7
:102E8800047B704780B588B000AF78607B681B68AA
:102E98001B68FB617B681B68DB68BB617B681B6820
:102EA8005B697B6100233B610023FB60FB6903F0E6
:102EB8000F033B613B69002B0DD1FB6903F0200335
:102EC800002B08D0BB6903F02003002B03D07868DF
:102ED80000F0D1F9CCE03B69002B00F0AB807B69B6
:102EE80003F00103002B05D1BB6903F49073002B99
:102EF80000F0A080FB6903F00103002B0AD0BB6936
:102F080003F48073002B05D07B68DB6B43F0010270
:102F18007B68DA63FB6903F00403002B0AD07B6942
:102F280003F00103002B05D07B68DB6B43F0020242
:102F38007B68DA63FB6903F00203002B0AD07B6924
:102F480003F00103002B05D07B68DB6B43F0040220
:102F58007B68DA63FB6903F00803002B0AD07B69FE
:102F680003F00103002B05D07B68DB6B43F00802FC
:102F78007B68DA637B68DB6B002B78D0FB6903F036
:102F88002003002B07D0BB6903F02003002B02D0DD
:102F9800786800F070F97B681B685B6903F0400390
:102FA800002B14BF01230023DBB2FB607B68DB6BC3
:102FB80003F00803002B02D1FB68002B31D078689E
:102FC80000F0BAF87B681B685B6903F04003002BCC
:102FD80023D07B681B687A681268526922F0400225
:102FE8005A617B685B6B002B13D07B685B6B224A52
:102FF8001A657B685B6B1846FEF7CBF80346002B17
:1030080016D07B685B6B1B6D7A68526B10469847CD
:103018000EE0786800F03CF80AE0786800F038F8CC
:1030280006E0786800F034F87B680022DA631EE076
:1030380000BF1CE0FB6903F08003002B08D0BB69CC
:1030480003F08003002B03D0786800F0A7F80FE0A6
:10305800FB6903F04003002B0AD0BB6903F040036F
:10306800002B05D0786800F0EEF800BF00E000BF44
:103078002037BD4680BD00BF7D31000880B483B0D5
:1030880000AF786000BF0C37BD465DF8047B704721
:1030980080B483B000AF786000BF0C37BD465DF8E0
:1030A800047B704780B584B000AFF860B9603B60BE
:1030B8001346FB712CE0BB69B3F1FF3F28D0BB6915
:1030C800002B07D0FDF702FF02463B68D21ABB6906
:1030D8009A421DD9FB681B68FA681268D26822F404
:1030E800D072DA60FB681B68FA681268526922F0CD
:1030F80001025A61FB68202283F83920FB682022EC
:1031080083F83A20FB68002283F8382003230FE075
:10311800FB681B681A68BB681A40BB689A420CBFF8
:1031280001230023DBB21A46FB799A42C3D000235D
:1031380018461037BD4680BD80B483B000AF7860B4
:103148007B681B687A681268D26822F49072DA6029
:103158007B681B687A681268526922F001025A611A
:103168007B68202283F83A2000BF0C37BD465DF803
:10317800047B704780B584B000AF78607B689B6B38
:10318800FB60FB680022DA85FB680022DA84F868B5
:10319800FFF77EFF00BF1037BD4680BD80B485B005
:1031A80000AF78607B6893F83930DBB2212B43D1CC
:1031B8007B689B68B3F5805F19D17B681B6AFB60ED
:1031C8007B681B68FA681288C2F308025A607B6839
:1031D8001B69002B05D17B681B6A9A1C7B681A62E5
:1031E8000EE07B681B6A5A1C7B681A6208E07B68E1
:1031F8001A687B681B6A581C796808621B785360D8
:103208007B68DB8C9BB2013B9BB27A681946D18400
:10321800002B0FD17B681B687A681268D26822F08D
:103228008002DA607B681B687A681268D26842F0AC
:103238004002DA60002300E0022318461437BD4636
:103248005DF8047B704780B582B000AF78607B681A
:103258001B687A681268D26822F04002DA607B68DC
:10326800202283F839207868FFF708FF00231846E2
:103278000837BD4680BD80B584B000AF78607B68F4
:1032880093F83A30DBB2222B69D17B689B68B3F59F
:10329800805F23D17B689B6AFB607B681B69002B7E
:1032A8000ED17B681B685B689BB2C3F308039AB2B4
:1032B800FB681A807B689B6A9A1C7B689A6229E083
:1032C8007B681B685B689BB2DBB29AB2FB681A80AA
:1032D8007B689B6A5A1C7B689A621BE07B681B6947
:1032E800002B0AD17B689B6A591C7A6891627A68BC
:1032F80012685268D2B21A700CE07B689B6A591C3B
:103308007A6891627A6812685268D2B202F07F02D3
:10331800D2B21A707B68DB8D9BB2013B9BB27A6894
:103328001946D185002B18D17B681B687A6812680A
:10333800D26822F49072DA607B681B687A68126837
:10334800526922F001025A617B68202283F83A20F0
:10335800786801F04DFB002302E0002300E002231F
:1033680018461037BD4680BDF0B585B000AF78600F
:103378000023FB607B681B681B69FB60FB6823F408
:103388004053FB607B68DB68FA681343FB607B682B
:103398001B68FA681A617B681B68DB68FB60FB685E
:1033A80023F4164323F00C03FB607B689A687B6860
:1033B8001B691A437B685B691A437B68DB691343A3
:1033C800FA681343FB607B681B68FA68DA607B68FD
:1033D8001B685B69FB60FB6823F44073FB607B68D8
:1033E8009B69FA681343FB607B681B68FA685A613B
:1033F8007B68DB69B3F5004F40F0E4807B681B68AD
:10340800AB4A934204D07B681B68AA4A93426CD1AA
:103418007B681C68FEF7DAFC024613469B001344DF
:103428009A001A447B685B685B00B2FBF3F3A24A1C
:10343800A2FB03235B091D01FEF7C8FC02461346E5
:103448009B0013449A001A447B685B685B00B2FBDC
:10345800F3F6FEF7BBFC024613469B0013449A00A2
:103468001A447B685B685B00B2FBF3F3924AA2FBE9
:1034780003235B09642202FB03F3F31ADB003233F4
:103488008D4AA2FB03235B095B0003F4F8731D4418
:10349800FEF79CFC024613469B0013449A001A440C
:1034A8007B685B685B00B2FBF3F6FEF78FFC0246B5
:1034B80013469B0013449A001A447B685B685B00C0
:1034C800B2FBF3F37C4AA2FB03235B09642202FBF1
:1034D80003F3F31ADB003233774AA2FB03235B09B9
:1034E80003F007032B44A36054E17B681C68FEF7D4
:1034F80059FC024613469B0013449A001A447B6801
:103508005B685B00B2FBF3F36B4AA2FB03235B0926
:103518001D01FEF747FC024613469B0013449A0020
:103528001A447B685B685B00B2FBF3F6FEF73AFC73
:10353800024613469B0013449A001A447B685B6852
:103548005B00B2FBF3F35C4AA2FB03235B09642232
:1035580002FB03F3F31ADB003233574AA2FB0323BF
:103568005B095B0003F4F8731D44FEF71BFC02467D
:1035780013469B0013449A001A447B685B685B00FF
:10358800B2FBF3F6FEF70EFC024613469B0013440B
:103598009A001A447B685B685B00B2FBF3F3464A07
:1035A800A2FB03235B09642202FB03F3F31ADB008B
:1035B8003233414AA2FB03235B0903F007032B4480
:1035C800A360E7E07B681B68394A934204D07B68B4
:1035D8001B68384A934271D17B681C68FEF7F6FB7A
:1035E800024613469B0013449A001A447B685B68A2
:1035F8009B00B2FBF3F3304AA2FB03235B091D01D6
:10360800FEF7E4FB024613469B0013449A001A4453
:103618007B685B689B00B2FBF3F6FEF7D7FB0246BC
:1036280013469B0013449A001A447B685B689B000E
:10363800B2FBF3F3204AA2FB03235B09642202FBDB
:1036480003F3F31A1B0132331B4AA2FB03235B0962
:1036580003F0F0031D44FEF7B9FB024613469B0036
:1036680013449A001A447B685B689B00B2FBF3F62C
:10367800FEF7ACFB024613469B0013449A001A441B
:103688007B685B689B00B2FBF3F30B4AA2FB032346
:103698005B09642202FB03F3F31A1B013233064A67
:1036A800A2FB03235B0903F00F032B44A36071E023
:1036B80000100140001401401F85EB517B681C6815
:1036C800FEF770FB024613469B0013449A001A4407
:1036D8007B685B689B00B2FBF3F3304AA2FB0323D1
:1036E8005B091D01FEF75EFB024613469B0013446F
:1036F8009A001A447B685B689B00B2FBF3F6FEF7FE
:1037080051FB024613469B0013449A001A447B68F7
:103718005B689B00B2FBF3F3204AA2FB03235B091F
:10372800642202FB03F3F31A1B0132331B4AA2FB88
:1037380003235B0903F0F0031D44FEF733FB024645
:1037480013469B0013449A001A447B685B689B00ED
:10375800B2FBF3F6FEF726FB024613469B00134422
:103768009A001A447B685B689B00B2FBF3F30B4A30
:10377800A2FB03235B09642202FB03F3F31A1B0178
:103788003233064AA2FB03235B0903F00F032B44E1
:10379800A360FFE700BF1437BD46F0BD1F85EB519E
:1037A80080B58AB000AF00233B616B4A6A4B1B6B44
:1037B80043F001031363684B1B6B03F001033B6188
:1037C8003B690023FB60644A634B1B6B43F00403B3
:1037D8001363614B1B6B03F00403FB60FB6800235E
:1037E800BB605D4A5C4B1B6B43F0080313635A4B89
:1037F8001B6B03F00803BB60BB6800237B60564A61
:10380800554B1B6B43F010031363534B1B6B03F0B7
:1038180010037B607B684FF400637B610123BB610D
:103828000023FB6100233B6207F1140319464B4850
:10383800FDF7D2FC4FF480737B6107F1140319463E
:103848004748FDF7C9FC40237B6107F1140319467B
:103858004248FDF7C1FC20237B6107F11403194698
:103868003E48FDF7B9FC4FF480437B6107F1140330
:1038780019463C48FDF7B0FC4FF400537B6107F153
:10388800140319463748FDF7A7FC4FF400437B6142
:1038980007F1140319463148FDF79EFC80237B612C
:1038A80007F1140319462D48FDF796FC4FF40073F1
:1038B8007B6107F1140319462B48FDF78DFC4FF483
:1038C80080637B6107F1140319462748FDF784FCE0
:1038D8004FF480537B6107F1140319462248FDF722
:1038E8007BFC4FF480437B6107F1140319461E48A3
:1038F800FDF772FC4FF400437B6107F1140319468E
:103908001948FDF769FC4FF480737B6107F11403D4
:1039180019461548FDF760FC4FF400537B6107F129
:10392800140319461048FDF757FC4FF400637B61F8
:1039380007F1140319460C48FDF74EFC012200213B
:10394800002000F013F801220021012000F00EF8F9
:1039580000BF2837BD4680BD00380240000C024039
:1039680000000240000802400010024080B584B008
:1039780000AFF860B9607A60FB68002B40F0DC812A
:10398800B968CB4B83FB01239A10CB17D21A134685
:103998009B0013445B00CA1A092A00F2BA8101A3EA
:1039A80053F822F0D5390008273A0008793A000878
:1039B800CB3A00081D3B00086F3B0008C13B0008DC
:1039C800133C0008653C0008C93C000800224FF47D
:1039D8000061B848FDF79AFD00224FF48071B6489F
:1039E800FDF794FD00224021B248FDF78FFD00222B
:1039F8002021B048FDF78AFD00224FF48041AF48EE
:103A0800FDF784FD00224FF40051AC48FDF77EFD20
:103A180001224FF40041A748FDF778FD79E1002223
:103A28004FF48071A448FDF771FD00224021A148A0
:103A3800FDF76CFD01224FF400619E48FDF766FD1D
:103A4800012220219B48FDF761FD01224FF48041AE
:103A58009A48FDF75BFD01224FF400519748FDF7A6
:103A680055FD01224FF400419248FDF74FFD50E10A
:103A780000224FF400618F48FDF748FD00224FF403
:103A880080718D48FDF742FD00224FF400418948BE
:103A9800FDF73CFD00224FF480418848FDF736FDD4
:103AA800002220218348FDF731FD01224021814871
:103AB800FDF72CFD01224FF400518048FDF726FD4B
:103AC80027E100224FF400617A48FDF71FFD00222C
:103AD8004FF480717848FDF719FD002240217548A0
:103AE800FDF714FD002220217248FDF70FFD00228A
:103AF8004FF400416F48FDF709FD01224FF4804162
:103B08006E48FDF703FD01224FF400516B48FDF7A5
:103B1800FDFCFEE000224FF400516848FDF7F6FC7A
:103B280000224FF400416348FDF7F0FC00224FF4F7
:103B380080716148FDF7EAFC002240215D48FDF7ED
:103B4800E5FC01224FF400615A48FDF7DFFC012231
:103B580020215848FDF7DAFC01224FF480415748EC
:103B6800FDF7D4FCD5E000224FF400615148FDF781
:103B7800CDFC00224FF400515048FDF7C7FC00224D
:103B88004FF400414B48FDF7C1FC00224021494851
:103B9800FDF7BCFC002220214648FDF7B7FC0122B6
:103BA8004FF480714448FDF7B1FC01224FF4804185
:103BB8004248FDF7ABFCACE000224FF400613D4801
:103BC800FDF7A4FC002240213A48FDF79FFC0022A3
:103BD80020213848FDF79AFC00224FF480413748ED
:103BE800FDF794FC00224FF400513448FDF78EFC99
:103BF80000224FF400412F48FDF788FC01224FF4C2
:103C080080712D48FDF782FC83E000224FF40051BB
:103C18002A48FDF77BFC00224FF400612548FDF798
:103C280075FC00224FF480712348FDF76FFC0022D9
:103C380040212048FDF76AFC012220211D48FDF79C
:103C480065FC01224FF480411C48FDF75FFC01220E
:103C58004FF400411748FDF759FC5AE000224FF491
:103C680000611448FDF752FC00224FF4807112489D
:103C7800FDF74CFC002240210E48FDF747FC0022CE
:103C880020210C48FDF742FC00224FF480410B48EC
:103C9800FDF73CFC00224FF400510848FDF736FCC4
:103CA80000224FF400410348FDF730FC31E000BF2B
:103CB80067666666000C0240000002400008024089
:103CC80000224FF40061C848FDF720FC00224FF4A1
:103CD8008071C648FDF71AFC00224021C248FDF752
:103CE80015FC00222021C048FDF710FC00224FF4EB
:103CF8000051BF48FDF70AFC00224FF40041BA48C2
:103D0800FDF704FC01224FF48041B948FDF7FEFBA2
:103D180000BF7B68012B05D100228021B248FDF746
:103D2800F5FBFFE17B68002B40F0FC81012280213C
:103D3800AD48FDF7EBFBF5E1FB68012B40F0F281A4
:103D4800B968AC4B83FB01239A10CB17D21A1346E0
:103D58009B0013445B00CA1A092A00F2D08101A310
:103D680053F822F0953D0008EB3D0008413E00085D
:103D7800973E0008ED3E0008433F0008993F0008C1
:103D8800054000085B400008B140000800224FF4DD
:103D980000719948FDF7BAFB00224FF480619648FC
:103DA800FDF7B4FB00224FF480519348FDF7AEFBBA
:103DB80000224FF480419048FDF7A8FB00224FF401
:103DC80000418D48FDF7A2FB00224FF480718A481C
:103DD800FDF79CFB01224FF400518748FDF796FB45
:103DE8008DE100224FF480618348FDF78FFB0022AC
:103DF8004FF480518048FDF789FB01224FF4007190
:103E08007D48FDF783FB01224FF480417A48FDF796
:103E18007DFB01224FF400417748FDF777FB012233
:103E28004FF480717448FDF771FB01224FF4005183
:103E38007148FDF76BFB62E100224FF400716E4898
:103E4800FDF764FB00224FF480616B48FDF75EFBD1
:103E580000224FF400516848FDF758FB00224FF448
:103E680000416548FDF752FB00224FF4804162484B
:103E7800FDF74CFB01224FF480515F48FDF746FBEC
:103E880001224FF480715C48FDF740FB37E10022C6
:103E98004FF400715848FDF739FB00224FF4806158
:103EA8005548FDF733FB00224FF480515248FDF787
:103EB8002DFB00224FF480414F48FDF727FB0022DD
:103EC8004FF400514C48FDF721FB01224FF400410B
:103ED8004948FDF71BFB01224FF480714648FDF766
:103EE80015FB0CE100224FF480714348FDF70EFBEF
:103EF80000224FF400514048FDF708FB00224FF420
:103F080080613D48FDF702FB00224FF480513A489A
:103F1800FDF7FCFA01224FF400713748FDF7F6FA75
:103F280001224FF480413448FDF7F0FA01224FF4A2
:103F380000413148FDF7EAFAE1E000224FF4007150
:103F48002D48FDF7E3FA00224FF480712A48FDF767
:103F5800DDFA00224FF400512748FDF7D7FA002276
:103F68004FF480512448FDF7D1FA00224FF48041E4
:103F78002148FDF7CBFA01224FF480611E48FDF776
:103F8800C5FA01224FF400411B48FDF7BFFAB6E01D
:103F980000224FF400711848FDF7B8FA00224FF4D8
:103FA80080511548FDF7B2FA00224FF480411248BB
:103FB800FDF7ACFA00224FF400410F48FDF7A6FACE
:103FC80000224FF480710C48FDF7A0FA00224FF44C
:103FD80000510948FDF79AFA01224FF4806106481A
:103FE800FDF794FA8BE000BF000C0240000002408D
:103FF80000080240676666660010024000224FF41F
:1040080080714A48FDF782FA00224FF40071474850
:10401800FDF77CFA00224FF480614448FDF776FAF8
:1040280000224FF480514148FDF770FA01224FF405
:1040380080413E48FDF76AFA01224FF400413B48AF
:10404800FDF764FA01224FF400513848FDF75EFA93
:1040580055E000224FF400713448FDF757FA00226A
:104068004FF480613148FDF751FA00224FF4805136
:104078002E48FDF74BFA00224FF480412B48FDF7FC
:1040880045FA00224FF400412848FDF73FFA002284
:104098004FF480712548FDF739FA00224FF400519A
:1040A8002248FDF733FA2AE000224FF400711F4836
:1040B800FDF72CFA00224FF480611C48FDF726FA20
:1040C80000224FF480511948FDF720FA00224FF4DE
:1040D80080411648FDF71AFA00224FF48071134800
:1040E800FDF714FA00224FF400511048FDF70EFABC
:1040F80001224FF400410D48FDF708FA00BF7B6824
:10410800012B06D100224FF400610848FDF7FEF9A3
:1041180008E07B68002B05D101224FF400610348B9
:10412800FDF7F4F900BF1037BD4680BD001002400E
:1041380080B586B000AF00233B60234A224B1B6B3F
:1041480043F010031363204B1B6B03F010033B6019
:104158003B6801237B600123BB600023FB600023D5
:104168003B613B1D19461948FDF736F802237B6071
:104178003B1D19461548FDF72FF804237B603B1DAE
:1041880019461248FDF728F810237B603B1D194695
:104198000E48FDF721F820237B603B1D19460B488C
:1041A800FDF71AF840237B603B1D19460748FDF7C9
:1041B80013F880237B603B1D19460448FDF70CF873
:1041C80000BF1837BD4680BD0038024000100240CD
:1041D80080B582B000AF0346FB71614A97F907309A
:1041E800002B04DA5E4B5B6943F0800303E05C4B11
:1041F8005B6923F080035361594AFB7903F040035C
:10420800002B04D0564B5B6943F0400303E0544B4A
:104218005B6923F040035361514AFB7903F02003A3
:10422800002B04D04E4B5B6943F0200303E04C4B5A
:104238005B6923F020035361494AFB7903F01003BB
:10424800002B04D0464B5B6943F0100303E0444B5A
:104258005B6923F010035361414A414B5B6923F0CA
:10426800010353613E4A3E4B5B6923F002035361ED
:104278003B4A3B4B5B6923F004035361384A384B94
:104288005B6943F004035361354A354B5B6923F09E
:1042980004035361324AFB7903F00803002B04D06E
:1042A8002F4B5B6943F0800303E02D4B5B6923F0E0
:1042B800800353612A4AFB7903F00403002B04D0DE
:1042C800274B5B6943F0400303E0254B5B6923F010
:1042D80040035361224AFB7903F00203002B04D008
:1042E8001F4B5B6943F0200303E01D4B5B6923F020
:1042F800200353611A4AFB7903F00103002B04D011
:10430800174B5B6943F0100303E0154B5B6923F01F
:1043180010035361124A124B5B6923F00103536186
:104328000F4A0F4B5B6923F0020353610C4A0C4B95
:104338005B6923F004035361094A094B5B6943F045
:1043480004035361064A064B5B6923F00403536177
:104358000120FCF7C7FD00BF0837BD4680BD00BF80
:104368000010024080B582B000AF0346FB71614A7D
:1043780097F90730002B04DA5E4B5B6943F0800342
:1043880003E05C4B5B6923F080035361594AFB7976
:1043980003F04003002B04D0564B5B6943F0400305
:1043A80003E0544B5B6923F040035361514AFB79A6
:1043B80003F02003002B04D04E4B5B6943F020032D
:1043C80003E04C4B5B6923F020035361494AFB79B6
:1043D80003F01003002B04D0464B5B6943F0100335
:1043E80003E0444B5B6923F010035361414A414B9E
:1043F8005B6943F0010353613E4A3E4B5B6923F01E
:10440800020353613B4A3B4B5B6923F0040353614E
:10441800384A384B5B6943F004035361354A354BDE
:104428005B6923F004035361324AFB7903F0080304
:10443800002B04D02F4B5B6943F0800303E02D4B26
:104448005B6923F0800353612A4AFB7903F0040374
:10445800002B04D0274B5B6943F0400303E0254B56
:104468005B6923F040035361224AFB7903F002039E
:10447800002B04D01F4B5B6943F0200303E01D4B66
:104488005B6923F0200353611A4AFB7903F00103A7
:10449800002B04D0174B5B6943F0100303E0154B66
:1044A8005B6923F010035361124A124B5B6943F0B6
:1044B800010353610F4A0F4B5B6923F002035361F9
:1044C8000C4A0C4B5B6923F004035361094A094BFE
:1044D8005B6943F004035361064A064B5B6923F0AA
:1044E800040353610120FCF7FDFC00BF0837BD46FB
:1044F80080BD00BF0010024080B582B000AF034607
:104508000A46FB711346BB71BB79002B02D0012B05
:1045180007D00DE0FB79803BDBB21846FFF758FE69
:1045280006E0FB79403BDBB21846FFF751FE00BFBF
:1045380000BF0837BD4680BD80B584B000AF0346D4
:104548003A60FB710B46BB710023FB60BA79FB79BB
:1045580011461846FFF7D0FF3A68FB6813441B78EA
:104568001846FFF7FFFEFB680133FB603A68FB68FB
:1045780013441B78002BEFD100BF1037BD4680BD18
:1045880080B500AF6420FCF7ADFC2820FFF720FEC3
:104598000A20FCF7A7FC2820FFF71AFE0A20FCF7E0
:1045A800A1FC0C20FFF714FE0620FFF711FE0220E5
:1045B800FFF70EFE0120FFF70BFE0120FFF708FEB4
:1045C80000BF80BD80B500AF0120FFF701FE0A20C3
:1045D800FCF788FC00BF80BD80B58CB000AF00231D
:1045E800BB61474A464B1B6B43F010031363444BB4
:1045F8001B6B03F01003BB61BB6900237B61404A5E
:104608003F4B1B6B43F0040313633D4B1B6B03F0E1
:1046180004037B617B6900233B61394A384B1B6B80
:1046280043F080031363364B1B6B03F080033B613D
:104638003B690023FB60324A314B1B6B43F001039B
:1046480013632F4B1B6B03F00103FB60FB68002314
:10465800BB602B4A2A4B1B6B43F002031363284BA6
:104668001B6B03F00203BB60BB6800237B60244A1A
:10467800234B1B6B43F008031363214B1B6B03F0A5
:1046880008037B607B680022F7211E48FCF73EFF89
:10469800F723FB6101233B6200237B620023BB629B
:1046A80007F11C0319461748FCF796FD0823FB6120
:1046B800154B3B6200237B6207F11C031946114826
:1046C800FCF78AFD4FF40043FB610F4B3B6200236C
:1046D8007B6207F11C0319460C48FCF77DFD4FF47B
:1046E8008263FB61084B3B6200237B6207F11C037A
:1046F80019460748FCF770FD00BF3037BD4680BD3E
:10470800003802400010024000001110000802406A
:10471800000C024080B588B000AFFCF771FB00F0D8
:10472800C5F8FFF759FF00F05FFE00F0B1FC00F09C
:104738001BFB00F0A5FB00F0E3FC00F0ABFA00F077
:104748002BFC00F029F9012240214948FCF7DEFE44
:10475800012201214748FCF7D9FE012220214548C2
:10476800FCF7D4FE01224FF480514348FCF7CEFEFB
:1047780001224FF400514048FCF7C8FE01224FF4D3
:1047880080413D48FCF7C2FE01223C493C48FEF707
:104798002CFB3C48FDF759FBFFF7CAFCFFF7F0FE7E
:1047A800394A00210020FFF7C7FE384A01210020BE
:1047B800FFF7C2FEFFF706FFFEF7F2FF00213448BD
:1047C800FDF794FB04213248FDF790FB082130489F
:1047D800FDF78CFB00212F48FDF788FB04212D48AD
:1047E800FDF784FB08212B48FDF780FB00212A48B0
:1047F800FDF77CFB00212948FDF778FB0C212748B1
:10480800FDF774FB264B40F2DC525A63254B00221D
:104818005A63244B41F288321A6400233B77224BB7
:10482800BB610023FB824FF47A73FB8300237B7701
:104838007B7F002B0AD1FB8B0133FB83FB8B40F67C
:10484800C31293420BD901237B7708E0FB8B013B12
:10485800FB83FB8BB3F57A7F01D800237B774FF07E
:104868008042FB8B93620120FCF73CFBE0E700BF32
:104878000008024000040240000C02400C02002024
:10488800780300203C030020007000080C7000082A
:10489800C4020020100200204C02002088020020E0
:1048A80000440140000C0040B6F39D3F80B594B031
:1048B80000AF0023BB60344A334B1B6C43F080537A
:1048C8001364314B1B6C03F08053BB60BB6800233F
:1048D8007B602E4A2D4B1B6843F4804313602B4B9F
:1048E8001B6803F480437B607B6801233B624FF4C1
:1048F80080337B620223BB634FF48003FB63042392
:104908003B64A8237B640223BB640423FB6407F194
:1049180020031846FCF73EFE0346002B03D0DA219D
:104928001B4800F0CBF80F23FB6002233B610023F8
:104938007B614FF4A053BB614FF48053FB6107F1D7
:104948000C0305211846FDF767F80346002B03D032
:10495800E8210F4800F0B2F8FDF718FA02460D4BAF
:10496800A3FB02239B091846FCF7DDFB0420FCF798
:10497800E7FB002200214FF0FF30FCF7AAFB00BF45
:104988005037BD4680BD00BF00380240007000406F
:1049980014700008D34D621080B500AF00220021CA
:1049A8002720FCF796FB2720FCF7AFFB002200210D
:1049B8003720FCF78EFB3720FCF7A7FB00220021ED
:1049C8000920FCF786FB0920FCF79FFB0022002149
:1049D8000A20FCF77EFB0A20FCF797FB0022002147
:1049E8002820FCF776FB2820FCF78FFB00BF80BD52
:1049F80080B582B000AF78607B681B68084A934234
:104A08000AD1012207490848FEF7EFF90A230122D3
:104A180004490548FEF751F900BF0837BD4680BD77
:104A2800004800400C0200207803002080B483B0C6
:104A380000AF78607B681B68074A934205D1074B33
:104A48001B780133DAB2054B1A7000BF0C37BD462C
:104A58005DF8047B704700BF00140040F801002097
:104A680080B582B000AF0346FB80FB88082B04D1D9
:104A78004FF480510F48FCF762FDFB88B3F5004FF7
:104A880004D14FF400510B48FCF759FDFB88102B5B
:104A980004D14FF480410748FCF751FDFB88B3F57A
:104AA800806F03D101210448FCF749FD00BF083796
:104AB800BD4680BD000C02400004024080B483B0B3
:104AC80000AF78603960FEE780B582B000AF0023A0
:104AD8007B60254A244B5B6C43F480435364224B30
:104AE8005B6C03F480437B607B6800233B601E4A59
:104AF8001D4B1B6C43F0805313641B4B1B6C03F062
:104B080080533B603B680320FCF7D8FA0022002161
:104B18006FF00B00FCF7DDFA002200216FF00A00AD
:104B2800FCF7D7FA002200216FF00900FCF7D1FA50
:104B3800002200216FF00400FCF7CBFA00220021CC
:104B48006FF00300FCF7C5FA002200216FF00100A6
:104B5800FCF7BFFA002200214FF0FF30FCF7B9FA4A
:104B680000BF0837BD4680BD0038024080B400AFA2
:104B780000BFBD465DF8047B704780B400AFFEE718
:104B880080B400AFFEE780B400AFFEE780B400AFAA
:104B9800FEE780B400AF00BFBD465DF8047B7047F8
:104BA80080B400AF00BFBD465DF8047B704780B499
:104BB80000AF00BFBD465DF8047B704780B500AF0D
:104BC800FCF770F9FCF7D8FA00BF80BD80B500AFDC
:104BD8000820FCF7C7FC00BF80BD80B500AF1020DF
:104BE800FCF7C0FC00BF80BD80B500AF0248FEF7EF
:104BF80049F900BF80BD00BF7803002080B500AF31
:104C08004FF48060FCF7AEFC4FF40040FCF7AAFCC0
:104C180000BF80BD80B500AF0248FDF79BF900BF1B
:104C280080BD00BF3C03002080B400AF164A164B7D
:104C3800D3F8883043F47003C2F88830134A134B12
:104C48001B6843F001031360104B00229A600F4A5F
:104C58000E4B1B6823F0847323F4803313600B4BD3
:104C68000B4A5A60094A094B1B6823F480231360D6
:104C7800064B0022DA60044B4FF000629A6000BFD6
:104C8800BD465DF8047B704700ED00E00038024047
:104C98001030002480B58EB000AF314B4FF0804209
:104CA8001A602F4B40F2E7325A602D4B00229A606F
:104CB8002B4BA722DA602A4B00221A612848FDF7FD
:104CC80099F80346002B03D044212648FFF7F6FE47
:104CD8004FF48053BB6207F1280319462048FDF7BB
:104CE80007FB0346002B03D04A211E48FFF7E6FEC8
:104CF8001B48FDF7C5F80346002B03D04F21194880
:104D0800FFF7DCFE00233B6200237B6207F12003F0
:104D180019461348FDF72BFF0346002B03D05621F5
:104D28001048FFF7CBFE60237B605423BB60002351
:104D3800FB6000237B613B1D002219460848FDF7F4
:104D480011FA0346002B03D05F210648FFF7B6FE91
:104D5800034800F0B1FA00BF3837BD4680BD00BF38
:104D6800000300202470000880B58EB000AF414BCE
:104D7800414A1A603F4B09225A603E4B00229A6012
:104D88003C4B4AF20F42DA603A4B00221A6139482A
:104D9800FDF730F80346002B03D073213748FFF79F
:104DA8008DFE4FF48053BB6207F128031946314842
:104DB800FDF79EFA0346002B03D079212F48FFF711
:104DC8007DFE2C48FDF75CF80346002B03D07E21BE
:104DD8002A48FFF773FE00233B6200237B6207F13A
:104DE800200319462348FDF7C2FE0346002B03D0D3
:104DF80085212248FFF762FE60237B6045F2072386
:104E0800BB600023FB6000237B613B1D0022194629
:104E18001848FDF7A7F90346002B03D08E21174841
:104E2800FFF74CFE42F60313BB603B1D04221946F4
:104E38001048FDF797F90346002B03D094210F483B
:104E4800FFF73CFE41F28143BB603B1D0822194637
:104E58000848FDF787F90346002B03D09A21074835
:104E6800FFF72CFE034800F027FA00BF3837BD468D
:104E780080BD00BFC4020020000400402470000868
:104E880080B58EB000AF414B414A1A603F4B1322A8
:104E98005A603E4B00229A603C4B4AF20F42DA605D
:104EA8003A4B00221A613948FCF7A4FF0346002B4D
:104EB80003D0AE213748FFF701FE4FF48053BB62A1
:104EC80007F1280319463148FDF712FA0346002B6B
:104ED80003D0B4212F48FFF7F1FD2C48FCF7D0FF91
:104EE8000346002B03D0B9212A48FFF7E7FD00232A
:104EF8003B6200237B6207F1200319462348FDF734
:104F080036FE0346002B03D0C0212248FFF7D6FD0A
:104F180060237B6045F20723BB600023FB6000230E
:104F28007B613B1D002219461848FDF71BF9034613
:104F3800002B03D0C9211748FFF7C0FD42F6031321
:104F4800BB603B1D042219461048FDF70BF90346C8
:104F5800002B03D0CF210F48FFF7B0FD41F281436A
:104F6800BB603B1D082219460848FDF7FBF80346BD
:104F7800002B03D0D5210748FFF7A0FD034800F018
:104F88009BF900BF3837BD4680BD00BF1002002026
:104F9800000800402470000880B58EB000AF394B7F
:104FA800394A1A60374B53225A60364B00229A60AE
:104FB800344B42F20F72DA60324B00221A613148E8
:104FC800FCF718FF0346002B03D0E9212F48FFF711
:104FD80075FD4FF48053BB6207F128031946294831
:104FE800FDF786F90346002B03D0EF212748FFF78A
:104FF80065FD2448FCF744FF0346002B03D0F42149
:105008002248FFF75BFD00233B6200237B6207F128
:10501800200319461B48FDF7AAFD0346002B03D0C1
:10502800FB211A48FFF74AFD60237B6041F2883371
:10503800BB600023FB6000237B613B1D00221946F7
:105048001048FDF78FF80346002B04D04FF4827107
:105058000E48FFF733FD0023BB603B1D0C221946A9
:105068000848FDF77FF80346002B04D04FF48571FC
:105078000648FFF723FD034800F01EF900BF383744
:10508800BD4680BD88020020000C00402470000846
:1050980080B582B000AF174B174A1A60154B42F221
:1050A8000F725A60134B00229A60124B42F2CF02E1
:1050B800DA601048FCF79EFE0346002B04D040F24D
:1050C8001B110E48FFF7FAFC00233B6000237B60AE
:1050D8003B4619460748FDF74AFD0346002B04D016
:1050E8004FF491710548FFF7E9FC00BF0837BD464A
:1050F80080BD00BF3C03002000140040247000085D
:1051080080B588B000AF224B224A1A60204B40F28B
:105118004F125A601E4B00229A601D4B42F20F72CA
:10512800DA601B4B00221A611948FCF763FE03463C
:10513800002B04D04FF499711748FFF7BFFC1448AF
:10514800FCF79EFE0346002B04D040F237111248AC
:10515800FFF7B4FC60237B606423BB600023FB6023
:1051680000237B613B1D002219460948FCF7FAFF22
:105178000346002B04D04FF4A0710748FFF79EFCAC
:10518800034800F099F800BF2037BD4680BD00BF36
:105198004C020020004401402470000880B489B00B
:1051A80000AF78607B681B68B3F1804F0ED1002395
:1051B800FB613B4A3A4B1B6C43F001031364384BC9
:1051C8001B6C03F00103FB61FB6962E07B681B68F1
:1051D800344A93420ED10023BB61314A304B1B6CD9
:1051E80043F0020313642E4B1B6C03F00203BB61F4
:1051F800BB694EE07B681B682B4A93420ED10023A3
:105208007B61274A264B1B6C43F004031364244B31
:105218001B6C03F004037B617B693AE07B681B68C5
:10522800224A93420ED100233B611D4A1C4B1B6C42
:1052380043F0080313641A4B1B6C03F008033B612B
:105248003B6926E07B681B68194A93420ED100230C
:10525800FB60134A124B1B6C43F020031364104B82
:105268001B6C03F02003FB60FB6812E07B681B6883
:10527800104A93420DD10023BB60094A084B5B6C6E
:1052880043F400335364064B5B6C03F40033BB6098
:10529800BB6800BF2437BD465DF8047B704700BF7C
:1052A800003802400004004000080040000C0040A4
:1052B800001400400044014080B588B000AF786019
:1052C8007B681B68B3F1804F10D12023FB60022359
:1052D8003B6100237B610023BB610123FB6107F174
:1052E8000C0319463848FBF777FF68E07B681B68B2
:1052F800364A934220D12123FB6002233B610023DD
:105308007B610023BB610223FB6107F10C03194693
:105318002F48FBF761FF4023FB6002233B6100231A
:105328007B610023BB610223FB6107F10C03194673
:105338002848FBF751FF42E07B681B68264A9342E6
:1053480011D14FF4E043FB6002233B6100237B61F2
:105358000023BB610223FB6107F10C0319461F48B8
:10536800FBF73AFF2BE07B681B681D4A934210D17C
:105378000923FB6002233B6100237B610023BB619F
:105388000223FB6107F10C0319460F48FBF724FFC2
:1053980015E07B681B68134A934210D14FF4807361
:1053A800FB6002233B6100237B610023BB61032375
:1053B800FB6107F10C0319460548FBF70DFF00BF19
:1053C8002037BD4680BD00BF0000024000040040F9
:1053D800000402400008024000080040000C02409F
:1053E800000C00400044014080B500AF124B134A46
:1053F8001A60114B4FF4E1325A600F4B00229A6049
:105408000D4B0022DA600C4B00221A610A4B0C2269
:105418005A61094B00229A61074B0022DA6106485B
:10542800FDF7FEFB0346002B03D042210448FFF79B
:1054380045FB00BF80BD00BF780300200048004046
:105448003470000880B588B000AF78607B681B684E
:10545800124A93421ED10023BB60114A104B1B6CA9
:1054680043F4802313640E4B1B6C03F48023BB604E
:10547800BB684FF44073FB6002233B6101237B61EF
:105488000323BB610723FB6107F10C031946054899
:10549800FBF7A2FE00BF2037BD4680BD0048004094
:1054A80000380240000C0240DFF834D0002103E04D
:1054B8000C4B5B58435004310B480C4B42189A4232
:1054C800F6D30B4A02E0002342F8043B094B9A4208
:1054D800F9D3FFF7A9FB00F011F8FFF71BF97047A4
:1054E800000002209872000800000020DC01002063
:1054F800DC010020BC030020FEE7000070B50D4E63
:105508000D4CA41BA4100025A54209D10B4E0C4C30
:1055180001F066FDA41BA4100025A54205D170BDAD
:1055280056F8253098470135EEE756F82530984764
:105538000135F2E790720008907200089072000836
:10554800947200082DE9FF4755EC104B0D9FDDF8CC
:1055580030A0002D0E4691461946B8BF22462B466C
:1055680027F02007BBBF05F100431D4600232D236C
:10557800B8BF1446462F0B7004D0452F00D1013612
:10558800022100E0032103AB019302AB00933246F2
:10559800534645EC104B00F0AFFB472F804602D135
:1055A80019F0010F26D0462F08EB060911D198F8FB
:1055B8000030302B0AD10022002320462946FBF771
:1055C80027FA18B9C6F10106CAF80060DAF80030FF
:1055D80099440022002320462946FBF719FA38B9D6
:1055E8003022039B994505D9591C03911A70F8E795
:1055F800CDF80C90039B0E9AA3EB0803404613606A
:1056080004B0BDE8F087F7B503460029B8BF4942A2
:1056180003F8022BB4BF2D222B220929427020DD6A
:105628000DF1070217460A2691FBF6F506FB151140
:105638003031092D02F8011C02F1FF34294609DC3A
:105648003031023A04F8011CBA421C4604D3201A2D
:1056580003B0F0BD2246E7E712F8011B03F8011B6F
:10566800F2E730221C46114404F8022B5970EEE789
:105678002DE9F04F8DB00C46DDF8588016461F46D0
:10568800054601F007F9036804931846FAF798FDF0
:1056980000230A93D8F800300590073323F0070356
:1056A80003F1080294F818A0D4F800B0C8F8002054
:1056B800D3E90023C4E91223D4E9128929F000436D
:1056C8000793CDF818804FF0FF32A54BDDE90601AE
:1056D800FBF7D0F9002840F0FB814FF0FF32A04BD8
:1056E800DDE90601FBF7A8F9002840F0F181002266
:1056F800002340464946FBF795F910B12D2384F85D
:105708004330984B984ABAF1470F8CBF9046984659
:1057180003232BF00402236122604FF00009009755
:1057280033460BAA2146284600F0E2F9013040F042
:1057380093804FF0FF300DB0BDE8F08F61684B1CCF
:105748004BF480623FD106236360002303930AABC6
:10575800029309AB009349EC108B0DF123032260EF
:10576800CDF804A061682846FFF7ECFE0AF0DF03D5
:10577800472B804609D1099BD81C02DB62689342FB
:1057880057DDAAF1020A5FFA8AFABAF1650F099998
:1057980034D80139524604F150000991FFF733FF1C
:1057A8000A9A8318012A8146236102DC2268D107FC
:1057B80001D5013323619DF82330002BAFD02D2371
:1057C80084F84330ABE7BAF1670F02D0BAF1470F5C
:1057D800BBD189B1002303930AAB029309AB0093B1
:1057E80049EC108B2260CDF804A00DF12303284664
:1057F800FFF7A8FE8046BEE70123A5E7BAF1660FCA
:1058080019D1002963680CDD216113B92268D20718
:1058180002D501330B442361099BA3654FF00009AE
:10582800C9E713B92268D00701D50233F3E701238A
:10583800F1E74FF0670A099B0A9A934205DB226851
:105848002361D107E8D50133E5E7002BD4BFC3F1C5
:10585800020301231344DEE723685A0507D42369AA
:10586800424631462846B84701302BD161E7BAF1A4
:10587800650F40F2E28000220023D4E91201FBF711
:10588800C7F800283CD00123384A31462846B84793
:1058980001303FF44EAF0A9B099A9A4202DB236813
:1058A800D8070FD5059B049A31462846B8470130DA
:1058B8003FF43FAF4FF0000804F11A090A9B013B7F
:1058C800984512DB23689B0709D54FF0000804F1BF
:1058D8001909E3680B9A9B1A9845C0F2EE80E068B4
:1058E8000B9B9842B8BF184625E701234A46314624
:1058F8002846B84701303FF41CAF08F10108DDE73E
:10590800099B002B34DC0123184A31462846B84746
:1059180001303FF40EAF099B23B90A9B13B92368E2
:10592800D907CFD5059B049A31462846B847013098
:105938003FF4FFAE4FF0000904F11A0A099B5B42DD
:10594800994501DB0A9B8BE70123524631462846DD
:10595800B84701303FF4EDAE09F10109EEE700BFA9
:10596800FFFFEF7F5C700008607000086C70000833
:105978000A9AA36D9A42A8BF1A46002A914638DCB3
:1059880004F11A034FF0000B29EAE9790693D4F8D9
:1059980058A0AAEB09039B4533DB0A9B099A9A4254
:1059A8003ADB2368DA0737D40A9B0999A3EB0A0282
:1059B800A3EB01099145A8BF9146B9F1000F33DC6B
:1059C8004FF0000829EAE97904F11A0A099A0A9BB2
:1059D8009B1AA3EB09039845BFF674AF01235246FF
:1059E80031462846B84701303FF4A3AE08F1010814
:1059F800ECE71346314642462846B8470130BFD146
:105A080097E60123069A31462846B84701303FF405
:105A180090AE0BF1010BBAE7059B049A3146284674
:105A2800B8470130C0D184E64B4608EB0A0231463C
:105A38002846B8470130C3D17BE60A9A012A01DC1F
:105A4800DB0737D50123424631462846B84701309F
:105A58003FF46FAE059B049A31462846B84701309B
:105A68003FF467AE00220023D4E91201FAF7D0FF11
:105A780058B14FF0000804F11A0A0A9B013B9845F7
:105A88000DDB4B4604F15002EBE60A9B08F10102DC
:105A9800013B31462846B8470130F2D149E6012397
:105AA800524631462846B84701303FF442AE08F125
:105AB8000108E2E701234246EBE701234A46314663
:105AC8002846B84701303FF434AE08F1010800E732
