:020000040800F2
:1000000000040020955000082D2F0008312F000813
:10001000352F0008392F00083D2F00080000000090
:10002000000000000000000000000000412F000858
:10003000452F000800000000492F00084D2F000840
:10004000552F0008592F00085D2F0008612F000868
:10005000652F0008692F00086D2F0008D92F0008B0
:10006000493000084D300008513000085530000874
:10007000B1300008B5300008B9300008BD300008C4
:10008000C1300008C5300008C9300008CD30000874
:10009000D13000081131000815310008193100086D
:1000A0001D310008213100082531000829310008E0
:1000B0002D31000831310008353100083931000890
:1000C0003D31000841310008453100084931000840
:1000D0004D310008513100085531000859310008F0
:0C00E0005D310008613100086531000846
:1000EC002DE9F04FA5B016001C00DFF83426D2E93C
:1000FC000023CDE91223049004AD69600020A862AE
:10010C000DF150096FF0004B00E0BE190020ADF866
:10011C00020012AB4FF0FF3231000DF1020004F07F
:10012C00E5FE0700012804DA3078471EBF41FF4383
:10013C00FF0FBDF80200252801D17A1E00E03A001D
:10014C00012A0ADB310002A801F04AF8002804D584
:10015C004FF0FF3025B0BDE8F08FBDF80200252828
:10016C0007D1002028616861A861E8612862686293
:10017C0005E00028C9D1A86AECE740F0010016F8A8
:10018C00011F2029F9D023290DD02B2904D02D298A
:10019C0006D030290BD00DE040F0020080B2EEE723
:1001AC0040F00400FAE740F0080080B2E7E740F0C6
:1001BC001000F3E72A290DD12268111D2160116866
:1001CC002963002904D54A422A6340F0040080B216
:1001DC00761C10E0002129630A2307E0296B59459E
:1001EC0003D001FB032130392963761C3278302A85
:1001FC0001D33A2AF2D331782E2903D04FF0FF31B4
:10020C00E9621BE016F8011F2A2906D12268111D8C
:10021C0021601168E962761C10E00021E9620A2372
:10022C0007E0E96A594503D001FB03213039E96243
:10023C00761C3278302A01D33A2AF2D3A886317848
:10024C00DFF8E00404F02CFF08B116F8010B8DF870
:10025C0046009DF84600682806D1307868280CD1F5
:10026C0062208DF8460007E06C2806D130786C28A7
:10027C0003D171208DF84600761C14A8E86096F81E
:10028C0000C06046413800F0F080001F022840F2A8
:10029C00EC80133800F0A080093800F0E680801E56
:1002AC001AD0401E3DD0401E022840F2DE80001FB6
:1002BC0037D0401F00F01B81401E00F08D80401E87
:1002CC0000F05481C01E00F05F81801E00F084801D
:1002DC00C01E00F0818079E19DF846006C2809D0A1
:1002EC002869411C29612268111D2160116800F8E0
:1002FC00091075E12168081D2060086880B2ADF80E
:10030C0004000020ADF806004FF0FF30E86201A9B0
:10031C0002A800F009FA002840F162814FF0FF308A
:10032C005FE19DF846006C281BD071280BD120682A
:10033C00C01D072188432060014601F108002060A0
:10034C00D1E9002312E06A280BD12068C01D0721D7
:10035C0088432060014601F108002060D1E90023A8
:10036C0004E02168081D20600A68D3179DF8460038
:10037C00682801D112B207E0622801D152B203E021
:10038C00742801D07A2800D1D317002B06DC00DBAF
:10039C0004D228692D2100F809100FE0A88E10F066
:1003AC00020F04D028692B2100F8091006E010F088
:1003BC00010F06D02869202100F809102869401C7B
:1003CC002861286914A94018A860CDE90223614668
:1003DC0002A800F01BFB03E19DF846006C281BD023
:1003EC0071280BD12068C01D07218843206001466D
:1003FC0001F108002060D1E9002312E06A280BD13A
:10040C002068C01D072188432060014601F10800C7
:10041C002060D1E9002304E02168081D20600A68EF
:10042C0000239DF84600682801D192B207E06228AB
:10043C0001D1D2B203E0742801D07A2800D1002374
:10044C00A88E10F0080FBCD00BB9002AB9D04CF014
:10045C0020007828B5D12869302100F809102869C6
:10046C00401C286100F809C0A8E79DF846004C28FC
:10047C0020680AD1C01D072188432060014601F184
:10048C0008002060D1E9000109E0C01D0721884364
:10049C002060014601F108002060D1E90001CDE99E
:1004AC000201BDF80E0010F4004F04D028692D2174
:1004BC0000F809100FE0A88E10F0020F04D0286984
:1004CC002B2100F8091006E010F0010F06D0286966
:1004DC00202100F809102869401C2861286914A9FA
:1004EC004018A860614602A800F02AFB78E09DF84D
:1004FC00460062280CD068282AD06A2818D06C28AC
:10050C001FD071280BD074281BD07A2819D026E064
:10051C00A86A2268111D21601168087060E0A86A41
:10052C00C11723681A1D22601A68C2E9000157E03E
:10053C00A86AC11723681A1D22601A68C2E9000153
:10054C004EE02168081D20600868A96A016047E038
:10055C00A86A2268111D21601168088040E021689A
:10056C00081D20600868A96A016039E02168081D2F
:10057C0020600A6814A8A8604FF0FF3000211040DA
:10058C00CDE90201782123E79DF846006C2821680B
:10059C0013D0081D20600868A860EA6A002A02D5FA
:1005AC0004F080FB07E0002104F0E8F810B1A96822
:1005BC00401A00E0E86A686112E0081D20600968D2
:1005CC0002A800F0B1F800280AD5A7E62869411C5A
:1005DC002961BCF1000F08BF4FF0250C00F809C0D1
:1005EC000020761C00287FF4B3AD286B2969401AD3
:1005FC00E969401A6969401A296A401AA969401ABE
:10060C00696A471AA88E10F0040F12D120208DF8B9
:10061C0000004FF00008012F0BDB012200A902A8FB
:10062C0000F0DEFD00287FF493AD08F10108B84519
:10063C00F3DB2A6914A902A800F0D2FD00287FF48C
:10064C0087AD30208DF80000D5F81CA04FF00008C5
:10065C00BAF1010F0BDB012200A902A800F0C0FDCA
:10066C0000287FF475AD08F10108D045F3DB6A6909
:10067C00A96802A800F0B4FD00287FF469AD302011
:10068C008DF80000D5F820A04FF00008BAF1010F4A
:10069C000BDB012200A902A800F0A2FD00287FF4C8
:1006AC0057AD08F10108D045F3DBAA696869A96860
:1006BC00411802A800F094FD00287FF449AD3020C9
:1006CC008DF80000D5F824A04FF00008BAF1010F06
:1006DC000BDB012200A902A800F082FD00287FF4A8
:1006EC0037AD08F10108D045F3DBA88E10F0040FEC
:1006FC003FF40CAD20208DF800004FF00008012FC6
:10070C00FFF604AD012200A902A800F069FD002843
:10071C007FF41EAD08F10108B845BFF6F7ACF1E760
:10072C0020520008285200082DE9F04F95B0050022
:10073C008B466E6B002E48BF6FF0004604F086FDB2
:10074C00A96B40180190B048D0E90001CDE9030134
:10075C00A88F10F0040F02D10198412806D20DF198
:10076C001409402001900020029009E003F0A0FD44
:10077C008146B9F1000FF6D14FF0FF3041E1361B45
:10078C00012EC0F2B88003AABBF800100DF10100D5
:10079C0004F0E6FB040004D4BBF8000028B9641E86
:1007AC0003D54FF0FF300290A5E0A642C0F2A38023
:1007BC00A86901992218914280F08E800021A963CA
:1007CC004142686A081AE969401AA96A401A296AFA
:1007DC00401AE96A471AA88F10F0040F11D1202093
:1007EC008DF800004FF00008012F0ADB012200A950
:1007FC00280000F0F5FC00286CD108F10108B84580
:10080C00F4DBAA694946280000F0EAFC002861D113
:10081C0030208DF80000D5F824A04FF00008BAF174
:10082C00010F0ADB012200A9280000F0D9FC0028E6
:10083C0050D108F10108D045F4DBEA692969280098
:10084C0000F0CEFC002845D130208DF80000D5F802
:10085C0028A04FF00008BAF1010F0ADB012200A911
:10086C00280000F0BDFC002834D108F10108D04567
:10087C00F4DB2A6AE86929694118280000F0B0FC09
:10088C0040BB30208DF80000D5F82CA04FF00008AC
:10089C00BAF1010F09DB012200A9280000F0A0FC2D
:1008AC00C0B908F10108D045F5DBA88F10F0040F92
:1008BC0010D020208DF800004FF00008012F09DB2C
:1008CC00012200A9280000F08BFC18B908F10108DE
:1008DC00B845F5DB0020A86122000DF10101A869E3
:1008EC00484403F013FFA8692018A8613BF8020BD9
:1008FC0000287FF444AFA86BA969401A696A401AB2
:10090C00E969401AA96A401A296A401AE96A441A24
:10091C00A88F10F0040F0FD120208DF800000026B6
:10092C00012C09DB012200A9280000F059FC002849
:10093C005DD1761CA642F5DBAA694946280000F079
:10094C004FFC002853D130208DF800006E6A002730
:10095C00012E09DB012200A9280000F041FC00282F
:10096C0045D17F1CB742F5DBEA692969280000F004
:10097C0037FC00283BD130208DF80000AE6A0027F0
:10098C00012E09DB012200A9280000F029FC002817
:10099C002DD17F1CB742F5DB2A6AE8692969411819
:1009AC00280000F01DFC10BB30208DF80000EE6A12
:1009BC000027012E08DB012200A9280000F010FC02
:1009CC00A8B97F1CB742F6DBA88F10F0040F0ED02D
:1009DC0020208DF800000026012C08DB012200A944
:1009EC00280000F0FDFB10B9761CA642F6DB0020B7
:1009FC00A861A86305A881451CBF484603F04EFDBD
:100A0C00029815B0BDE8F08F645200082DE9FA4742
:100A1C0086B08046D8F8140000909DF818006F2816
:100A2C0002D14FF0080907E040F0200078280CBFF5
:100A3C004FF010094FF00A093C24D8E900010600D8
:100A4C000F009DF81820642A01D0692A09D10029C9
:100A5C0007DC00DB05D200200021801BB941060019
:100A6C000F001FB916B9D8F8340050B3651E2C000E
:100A7C004FEAE97ACDE9029A30003900DDE9022328
:100A8C0003F0D2FBCDE90401B246DDE90423DDE934
:100A9C000201A2FB00675046801B3030C0B23A28DE
:100AAC0003D39DF818105139081800996854DDE9E2
:100ABC00046707B92EB1D8F8100000996118884264
:100ACC00D4D3B9F1080F0CD1B8F83C0010F0080FD2
:100ADC0007D00098205C302803D0641E0098302189
:100AEC002154C4F13C00C8F81C0000996118C8F8E6
:100AFC001010D8F8341088420ADA081AC8F8240002
:100B0C00B8F83C004FF6EF710840A8F83C0014E030
:100B1C00002912D5B8F83C1001F0140110290CD1A1
:100B2C00D8F83810D8F81820891AD8F82420891A3F
:100B3C000C1A012CA8BFC8F8244008B0BDE8F087F7
:100B4C002DE9F24F8EB0060004AFD6E90001CDE9D5
:100B5C0000019DF8380040F020008DF80800612855
:100B6C000BD0706B002801D5062005E005D19DF84F
:100B7C000800672801D101207063F18847F6F070F6
:100B8C000840001140F2FF7290421CD111F00F0F7F
:100B9C0005D1B08818B9708808B9308848B10320DD
:100BAC00F0619DF83800612835D37B2833D2D5A16C
:100BBC0032E00320F0619DF83800612831D37B28A6
:100BCC002FD2D1A128E0012804DA300003F02EFA4C
:100BDC0001281DDAF18848F20F02114043F6E07249
:100BEC001143F180A0F2FE354FF0FF309DF8081054
:100BFC0061291DD13269511C31613021117031696B
:100C0C004A1C32619DF83820612A0CD178220BE005
:100C1C0000250020EAE7CFA10322306903F076FD1E
:100C2C0095E1CDA1F8E758220A70B169891CB16130
:100C3C0010B90024002580E19DF80800612840F0DF
:100C4C009980706B002801D5212401E0441C24B24A
:100C5C0004F10108D6E900ABDDE900010022002314
:100C6C0004F088F82EBFCDE900AB8BF0004BCDE93A
:100C7C0000AB2D1F00208DF810000DF11109B8F1FB
:100C8C00010F35DBDDE900010022002304F08AF8B6
:100C9C002ED21C2100A803F0C5F8DDE9000103F0F9
:100CAC0099FD0700A8F10708B8F1010F09DB04F062
:100CBC0091F802000B00DDE9000102F0F5FDCDE931
:100CCC00000109F107000721012F0ADB491E08D496
:100CDC0007F00F0200F8012D3F11F5E7002200F894
:100CEC00012D491EFAD500F10709B8F1010FC9DA37
:100CFC000DF11100A9EB00000DF11107A042B8BFD6
:100D0C0004B2002C2FD4844206DA04A820184078B0
:100D1C00082801D30F2000E00020210004AA8A1823
:100D2C0001E0641E24B2491E12F801398342F8D046
:100D3C000F2804D104A808184278521C42700029CC
:100D4C0003D504AF641C24B22D1D200009E0C15D45
:100D5C003031C9B23A2903D39DF838203A3A5118A8
:100D6C00C155401EF3D5706B002840F1E680601E23
:100D7C007063E2E0DDE900010022002303F0FAFFDA
:100D8C003EBFDDE9000181F00041CDE900012DB24B
:100D9C0047F297506843714990FBF1F52DB2C5F1BC
:100DAC0007009046DFF8B89101281BDB0400DDE951
:100DBC0000AB14F0010F07D05046594642464B4643
:100DCC0002F0A0FC82468B466410404649464246DF
:100DDC004B4602F097FC80468946002CE9D1CDE9C0
:100DEC0000AB22E044429246DFF878B113E014F0F5
:100DFC00010F07D05046594642464B4602F082FC42
:100E0C0082468B4664104046494642464B4602F0A9
:100E1C0079FC80468946002CE9D1DDE90001524677
:100E2C005B4601F0FFFDCDE900019DF80800662846
:100E3C0002D105F10A0000E00620716B4418142C55
:100E4C00A8BF132430208DF810000DF11107012CD0
:100E5C002DDBDFF8149111E0DDE9000103F0D0FC8B
:100E6C0003F0C2FF02000B00DDE9000102F01CFDE3
:100E7C0000224B4602F046FCCDE90001DDE9000101
:100E8C0003F0BEFC07F1080108220A23B0FBF3FCB7
:100E9C00E6460EFB1303DBB26046303301F8013D2E
:100EAC00521EF2D101F10807083C012CD4DA0DF1E5
:100EBC001100381A0DF111079DF81110302905D1C8
:100ECC00401E6D1E17F8011F3029F9D09DF808102F
:100EDC00662902D12DB2691C04E0652901D10121DA
:100EEC0000E00021726B8C1824B2A042B8BF04B28F
:100EFC00002C22D4844209DAE05D352806D339204F
:100F0C0005E000BF6E616E00696E66003020210046
:100F1C00CA19521E01E0641E24B2491E12F801398E
:100F2C008342F8D0392802D1C85D401CC85500292D
:100F3C0003D57F1E641C24B26D1C2DB220B523007A
:100F4C003A009DF84010300000F010F802B00FB0DD
:100F5C00BDE8F08F4E414E00494E4600A086010080
:100F6C00000024400000F03F84D797412DE9F04762
:100F7C0086B00400884615001E00BDF9387004F0D8
:100F8C0003F9406A90F800A0D4F83490012E01DAED
:100F9C00012692A548F0200066280AD0672840F068
:100FAC0086806FF003018F42C0F287804F4580F23C
:100FBC0084807F1C66280CD0A08F10F0080F02D103
:100FCC004E45B8BFB1463FB2B9EB070948BF4FF029
:100FDC0000092069E1693FB2012F25DA4A1C302350
:100FEC000B54B9F1010F03DAA18F11F0080F02D0E5
:100FFC0002F800A0521CE26179428945B8BFC9F1E0
:10100C0000073FB27942A162B944B145B8BF4E4620
:10101C0036B2266232002900E369181803F076FB19
:10102C00A9EB0600E062C3E00818BE4218DA3200F1
:10103C00290003F06BFBE1697118E161B81BA06238
:10104C00B9F1010F03DAA08F10F0080F05D0206959
:10105C0001F800A0206A401C2062C4F82C90A7E084
:10106C003A00290003F052FBE0693818E061F61BE6
:10107C00B9F1010F03DAA18F11F0080F04D0411C54
:10108C00E161216900F801A036B2B145B8BF4E4606
:10109C0036B232007919E0692369C01803F036FBC7
:1010AC00E0693018E061A9EB0600A06280E0B8F1BD
:1010BC00610F16D14FF0700818E04E4504DAA18F7D
:1010CC0011F0080F08BFB146B9F1010948BF4FF044
:1010DC000009B8F1670F14BF4FF045084FF06508D1
:1010EC0004E0B8F1410F08BF4FF05008E1694A1C09
:1010FC00206915F8013B0B54B9F1010F03DAA18FEC
:10110C0011F0080F02D002F800A0521CE261B9F1F4
:10111C00010F11DB761E36B2B145B8BF4E4636B262
:10112C0032002900E369181803F0F0FAE06930186E
:10113C00E061A9EB0600A062E0692169451805F899
:10114C00018B002F03D42B2005F8010B04E02D207C
:10115C0005F8010B3800474200260DF1080909E09B
:10116C000A22390000A804F005F8019809F8010BCF
:10117C00009F761C3FB2012FF2DA022E06DA48F0FD
:10118C002000652802D1302005F8010B4EB9302023
:10119C0005F8010B07E0761E02A8305C303005F82C
:1011AC00010B012EF7DAE06921694018281A206238
:1011BC00A08F00F0140010280DD1A069E169081867
:1011CC00A16A0818216A0818E16A0818A16B8842FC
:1011DC0001DA081A606206B0BDE8F0873000000042
:1011EC00F8B505000E00140000208CB14FF0FF374D
:1011FC0005E0286B401C28630020641E08D016F8FC
:10120C00011BE868AA689047E8600028F1D1380013
:10121C00F2BD000010B50400DFF8D007844208D0FE
:10122C00DFF8CC07844204D09221DFF8C80703F022
:10123C0097FFDFF8B80784420AD101215FF00070F4
:10124C0002F074F800215FF0007002F06FF809E012
:10125C0001215FF0806002F069F800215FF080608E
:10126C0002F064F810BD000070B504000D00002001
:10127C000026DFF878178C4208D0DFF87407844218
:10128C0004D0B221DFF86C0703F06AFFA8790028BC
:10129C0007D0A879012804D0B321DFF8580703F050
:1012AC005FFFE879002807D0E879012804D0B42141
:1012BC00DFF8400703F054FF287A002807D0287A7B
:1012CC00012804D0B521DFF82C0703F049FF687A18
:1012DC00002807D0687A012804D0B621DFF814075B
:1012EC0003F03EFFA87A002807D0A87A012804D082
:1012FC00B721DFF8000703F033FFE87A002807D0A6
:10130C00E87A012804D0B821DFF8E80603F028FFBA
:10131C00A87800280DD0A87801280AD0A87802282F
:10132C0007D0A878032804D0B921DFF8C80603F049
:10133C0017FFE87800280DD0E87801280AD0E87863
:10134C00022807D0E878032804D0BA21DFF8A406D5
:10135C0003F006FF2879102804D3BB21DFF894068C
:10136C0003F0FEFE6879082804D3BC21DFF884065C
:10137C0003F0F6FE2888012804D3288840F20141A6
:10138C00884204D3BD21DFF86C0603F0E9FE206827
:10139C00022188432060206850F00100206000E0AA
:1013AC00761C606810F0010F03D14FF6FF70864277
:1013BC00F6D1606810F0010F01D100206BE0A87924
:1013CC00012804D1206850F08000206003E02068E0
:1013DC00802188432060E879012804D1206850F0EE
:1013EC004000206003E02068402188432060287A78
:1013FC00012804D1206850F02000206003E0206810
:10140C00202188432060687A012804D1206850F09C
:10141C001000206003E02068102188432060A87A27
:10142C00012804D1206850F00800206003E02068F7
:10143C00082188432060E87A012804D1206850F004
:10144C000400206003E02068042188432060A87811
:10145C00E978090651EA8070297950EA01406979E6
:10146C0050EA01502988491E0843E0612068012197
:10147C0088432060002600E0761C606810F0010FA5
:10148C0003D04FF6FF708642F6D1606810F0010071
:10149C00401E8041C00FC0B270BD000010B50400EA
:1014AC000020A17A0E2905D34FF49C71DFF8440576
:1014BC0003F056FEE07A002808D0E07A012805D027
:1014CC0040F23911DFF82C0503F04AFE207B00288E
:1014DC0008D0207B012805D04FF49D71DFF814054E
:1014EC0003F03EFE2089002808D02089012805D071
:1014FC0040F23B11DFF8FC0403F032FE607B002865
:10150C0008D0607B012805D04FF49E71DFF8E4040D
:10151C0003F026FE0120A17A88404849096851F061
:10152C000101464A116034490968C2431140324AEC
:10153C001160217B002916D130490968C243114042
:10154C002E4A1160E188628852EA0141A27A2C4B42
:10155C0043F83210A17A2A4A12EBC101A2882388DF
:10156C0053EA02424A60217B012915D123490968BB
:10157C000143224A11602188628852EA0141A27A11
:10158C001F4B43F83210A17A1D4A12EBC101A288FD
:10159C00E38853EA02424A60E17A002906D11949EC
:1015AC000968C2431140174A116004E015490968E3
:1015BC000143144A11602189002905D11249096897
:1015CC00C2431140104A11602189012904D10E49EE
:1015DC00096801430C4A1160617B012904D1064959
:1015EC0009680843044908601448006801218843CD
:1015FC001249086010BD00BF1C6600400C6600401C
:10160C004066004004660040146600400021817171
:10161C000021C171002101720021417200218172EF
:10162C000021C172002181700021C1700321017160
:10163C0002214171012101807047000000660040C9
:10164C0070B505000E001400DFF8A003854209D028
:10165C00DFF89C03854205D04FF4E771DFF8940363
:10166C0003F07EFD012E26D0022E24D0042E22D093
:10167C00082E20D0102E1ED0202E1CD0402E1AD07A
:10168C00B6F5807F17D0B6F5007F14D0B6F5806F15
:10169C0011D0B6F5006F0ED0B6F5004F0BD0B6F5E5
:1016AC00803F08D0B6F5003F05D040F2CF11DFF8EF
:1016BC00440303F055FDE4B2002C08D0E4B2012C35
:1016CC0005D04FF4E871DFF82C0303F049FDE4B2C8
:1016DC00002C03D068693043686103E06869F1430A
:1016EC000840686170BD000070B504000D00002654
:1016FC00DFF8F802844209D0DFF8F402844205D006
:10170C004FF4F571DFF8EC0203F02AFD287A00287B
:10171C0008D0287A042805D040F2EB11DFF8D40267
:10172C0003F01EFD687A002808D0687A022805D0DC
:10173C004FF4F671DFF8BC0203F012FDA87A092809
:10174C0005D340F2ED11DFF8AC0203F009FDA068FF
:10175C0010F0806F01D000260CE0A06810F0006F34
:10176C0001D0012606E0A06810F0805F01D00226AF
:10177C0000E00426F6B2042E00F08A80F6B214EBD8
:10178C000610D0F8800110F00100F6B214EB06112F
:10179C00C1F88001287A002819D12868B0F5006FAB
:1017AC0005D340F20721DFF84C0203F0D9FCF6B266
:1017BC0014EB0610D0F8800129686A7A52EA41517C
:1017CC000843F6B214EB0611C1F880011AE0686800
:1017DC00B0F1005F05D34FF40371DFF8180203F08A
:1017EC00BFFCF6B214EB0610D0F8800169682A7AB7
:1017FC0052EAC1016A7A11430843F6B214EB06119E
:10180C00C1F88001A87A10F00F00A872F6B214EBA0
:10181C000610D0F884010F218843F6B214EB0611A0
:10182C00C1F88401F6B214EB0610D0F88401A97A41
:10183C000843F6B214EB0611C1F88401A87B697B4E
:10184C00090451EA0060297B50EA0120E97A084337
:10185C00F6B214EB0611C1F88801A87C697C090466
:10186C0051EA0060297C50EA0120E97B0843F6B27A
:10187C0014EB0611C1F88C01F6B214EB0610D0F87B
:10188C00800150F00100F6B214EB0611C1F8800192
:10189C003000C0B270BD000038B504000D005348D4
:1018AC00844207D05248844204D040F279215148F6
:1018BC0003F056FCEDB2002D07D0EDB2012D04D093
:1018CC0040F27A214B4803F04BFCEDB2002D02D1D3
:1018DC002020E06001E02020206131BD70B50500C2
:1018EC000E0014004148854207D04148854204D07F
:1018FC0040F2AD213F4803F033FCF6B2002E07D086
:10190C00F6B2012E04D040F2AE213A4803F028FC86
:10191C00F6B215EB0610D0F8B00110F004002072EE
:10192C00207A002807D1F6B215EB0610D0F8B001DA
:10193C00400D206006E0F6B215EB0610D0F8B001B1
:10194C00C0086060F6B215EB0610D0F8B00110F0CC
:10195C0002006072F6B215EB0610D0F8B40110F06C
:10196C000F00A072F6B215EB0610D0F8B401000A05
:10197C00E074F6B215EB0610D0F8B801E072F6B2CE
:10198C0015EB0610D0F8B801000A2073F6B215EB6F
:10199C000610D0F8B801000C6073F6B215EB061007
:1019AC00D0F8B801000EA073F6B215EB0610D0F803
:1019BC00BC01E073F6B215EB0610D0F8BC01000ABE
:1019CC002074F6B215EB0610D0F8BC01000C607454
:1019DC00F6B215EB0610D0F8BC01000EA074310065
:1019EC00C9B22800FFF758FF70BD0000006400402A
:1019FC0000680040D849000870B504000D000026AE
:101A0C0000220020002300215FF0000CDFF800E32F
:101A1C0074451CD0DFF8FC02844218D0DFF8F802C1
:101A2C00844214D0DFF8F402844210D0DFF8F002C4
:101A3C0084420CD0DFF8EC02844208D0DFF8E802D4
:101A4C00844204D0B121DFF8700503F089FBE878FB
:101A5C00002819D0E878042816D0E878282813D064
:101A6C00E878482810D0E87814280DD0E8781028A9
:101A7C000AD0E8781C2807D0E878182804D0B221BE
:101A8C00DFF8340503F06CFB2888002804D1B3215F
:101A9C00DFF8240503F064FBE87810F00F06E87813
:101AAC0010F0100F0FD0A87801280AD0A8780228BF
:101ABC0007D0A878032804D0BA21DFF8FC0403F07F
:101ACC004FFBA87806432888000624D02168002004
:101ADC0006E0EA78482A02D1012282402261401CA9
:101AEC00082817D2012383402A881A409A42F6D13B
:101AFC0083005FF00F0C1CFA03FC7FEA0C02114010
:101B0C0016FA03F21143EA78282AE2D10122824024
:101B1C006261E4E7216028884FF4807188422AD3FF
:101B2C006168002024E001220300083312FA03F359
:101B3C002A881A409A421AD183005FF00F0C1CFAC3
:101B4C0003FC7FEA0C02114016FA03F21143EA7807
:101B5C00282A04D10122030008339A406261EA78F2
:101B6C00482A04D10122030008339A402261401C08
:101B7C000828D8D3616070BD38B504000D00002072
:101B8C00DFF88C118C421DD0DFF88801844219D00B
:101B9C00DFF88401844215D0DFF88001844211D033
:101BAC00DFF87C0184420DD0DFF87801844209D043
:101BBC00DFF87401844205D040F21D11DFF8F80300
:101BCC0003F0CEFAADB2012D42D0ADB2022D3FD012
:101BDC00ADB2042D3CD0ADB2082D39D0ADB2102D24
:101BEC0036D0ADB2202D33D0ADB2402D30D0ADB209
:101BFC00802D2DD04FF48070ADB2854228D04FF49B
:101C0C000070ADB2854223D04FF48060ADB28542F6
:101C1C001ED04FF40060ADB2854219D04FF4805005
:101C2C00ADB2854214D04FF40050ADB285420FD006
:101C3C004FF48040ADB285420AD04FF40040ADB2B3
:101C4C00854205D04FF48F71DFF86C0303F088FAEE
:101C5C00A06815EA0001080080B2401E8041C04314
:101C6C00C00FC0B232BD000038B504000D002848CA
:101C7C00844217D02748844214D02748844211D07C
:101C8C00264884420ED0264884420BD025488442F4
:101C9C0008D02548844205D04FF4B471DFF81803FE
:101CAC0003F05EFAADB2002D05D140F26911DFF8F8
:101CBC00080303F055FAADB2256131BD38B5040007
:101CCC000D001348844217D01248844214D0124895
:101CDC00844211D0114884420ED0114884420BD05A
:101CEC001048844208D01048844205D04FF4BC718F
:101CFC00DFF8C40203F034FAADB2002D05D140F286
:101D0C007911DFF8B40203F02BFAADB2656131BD85
:101D1C0000080140000C014000100140001401407B
:101D2C0000180140001C01400020014038B504009F
:101D3C000D000021002200200023012C58D0022C81
:101D4C0056D0042C54D0082C52D0494884424FD041
:101D5C00484884424CD04848844249D04748844241
:101D6C0046D04748844243D04648844240D04648F7
:101D7C0084423DD0454884423AD04548844237D0CD
:101D8C00B4F5805F34D0B4F5EA1F31D0B4F5EB1F55
:101D9C002ED0B4F5004F2BD03E48844228D03E487C
:101DAC00844225D03D48844222D03D4884421FD0F5
:101DBC003C4884421CD0B4F1201F19D03A488442CC
:101DCC0016D03A48844213D03948844210D039484E
:101DDC0084420DD0384884420AD03848844207D017
:101DEC00B4F5011F04D040F21721734803F0B8F981
:101DFC00EDB2002D07D0EDB2012D04D04FF40671D9
:101E0C006D4803F0ADF92E48006814F470210B0CEA
:101E1C00A1B214F44012B2F5401F0AD17FF07062E7
:101E2C001040274A12687FF070631A40244B1A60E6
:101E3C0012E014F4801F06D003229A40D2431040C3
:101E4C0050F0706008E0620DD2B2120111FA02F289
:101E5C00D243104050F07060EDB2002D04D0620DF2
:101E6C00D2B21201914008431549086031BD00BF40
:101E7C00100014003000140040001600C0001600C2
:101E8C0000011800000218000003180000081A00D6
:101E9C00000C1A00010020000200200004002000A9
:101EAC00080020001000200040002000000130003D
:101EBC000002300000043000001020000020200040
:101ECC000400014038B504000D000020E4B2002CE1
:101EDC0016D0E4B2012C13D0E4B2022C10D0E4B230
:101EEC00032C0DD0E4B2042C0AD0E4B2052C07D09C
:101EFC00E4B2062C04D04FF411712F4803F030F9E2
:101F0C00EDB2002D31D0EDB2012D2ED0EDB2022D5F
:101F1C002BD0EDB2032D28D0EDB2042D25D0EDB28F
:101F2C00052D22D0EDB2062D1FD0EDB2072D1CD001
:101F3C00EDB2082D19D0EDB2092D16D0EDB20A2D47
:101F4C0013D0EDB20B2D10D0EDB20C2D0DD0EDB297
:101F5C000D2D0AD0EDB20E2D07D0EDB20F2D04D001
:101F6C0040F24521144803F0FBF80F2015F0030153
:101F7C00C9B289008840EDB2A9100E4A52F821105E
:101F8C00C0430840EDB2A9100A4A42F82100EDB254
:101F9C00A810084951F82000E4B215F00301C9B2A9
:101FAC00890014FA01F10843EDB2A910014A42F874
:101FBC00210031BD080001408C48000880B54FF469
:101FCC007A7000F083F901BD80B5642000F07EF9D1
:101FDC0001BD000000B585B05FF4E1300090002039
:101FEC00ADF804000020ADF806000020ADF80800A4
:101FFC000020ADF80C000C20ADF80A0000A9DFF8A9
:10200C00400300F0BFF90121DFF8340300F096FA29
:10201C0005B000BD80B501F0C3FD0121042001F025
:10202C002FF90121082001F02BF90121102001F0DA
:10203C0027F90121202001F023F901214FF48040E0
:10204C0001F01EF90121012001F01AF901215FF0C4
:10205C00007001F03FF901BD80B500215FF0006018
:10206C0001F0BEFE4FF4E06001F04CFE06208DF84E
:10207C00000000208DF8010000208DF802000120E6
:10208C008DF8030000A801F059FE07208DF8000020
:10209C0000208DF8010001208DF8020001208DF840
:1020AC00030000A801F04AFE14208DF80000002067
:1020BC008DF8010000208DF8020001208DF803003E
:1020CC0000A801F03BFE01BD80B5002001F04AF8EC
:1020DC0001215FF4000001F0FDF801BD80B54FF463
:1020EC00A06001F00FFE14208DF8000001208DF887
:1020FC00010000208DF8020001208DF8030000A8DB
:10210C0001F01CFE2A208DF8000000208DF8010043
:10211C0000208DF8020001208DF8030000A801F0CA
:10212C000DFE0B208DF8000000208DF80100002022
:10213C008DF8020001208DF8030000A801F0FEFDCF
:10214C0001BD000080B5C0B2002805D04FF48071ED
:10215C002E48FFF7B3FD04E04FF480712B48FFF7D6
:10216C0083FD01BD80B54FF40070ADF80000032075
:10217C008DF8020018208DF8030000A92348FFF702
:10218C003BFC4FF48060ADF8000004208DF8030098
:10219C0000A91E48FFF730FC0320ADF80000042016
:1021AC008DF8030000A91948FFF726FC4FF4807046
:1021BC00ADF8000003208DF8020014208DF8030008
:1021CC0000A91248FFF718FC4FF48070ADF800001E
:1021DC0048208DF8030000A90B48FFF70DFC4FF4C5
:1021EC000070ADF8000018208DF8030003208DF866
:1021FC00020000A90448FFF7FFFB01215FF4EA107D
:10220C00FFF794FD01BD00BF000C01400008014028
:10221C0000B583B000210020FFF754FE0120009090
:10222C0000208DF804000C208DF8050001208DF89D
:10223C00060000A801F0A8F801210020FFF742FEDB
:10224C000220009000208DF804000C208DF8050071
:10225C0001208DF8060000A801F096F807BD0000DB
:10226C00164802681648006816490968002A24D0E6
:10227C00154B9A70130ADFF850C08CF80430130C0D
:10228C00DFF844C08CF80630120E0F4B1A720E4A4F
:10229C009072020A0C4B1A73020C0B4B9A73000EC1
:1022AC00094A107408488174080A074A1075080C0A
:1022BC00054A9075080E044908767047E8F7FF1F29
:1022CC00ECF7FF1FF0F7FF1F780A002001B481B074
:1022DC00094801990160084800680028FBD102B048
:1022EC007047000004480068002804D002480068C9
:1022FC00401E014908607047BC08002010B504005E
:10230C000A2C0ED10D210E4800F050F980210C48FA
:10231C0000F098F90028F9D00A21094800F046F994
:10232C0005E02100C9B289B2054800F03FF98021CF
:10233C00034800F087F90028F9D0200010BD0000F8
:10234C000038014038B504002021200000F07AF953
:10235C000028F9D0200000F04FF90500EDB229005B
:10236C0089B2200000F022F98021200000F06AF9E7
:10237C000028F9D0EDB20D2D01D10A2001E0280082
:10238C00C0B232BD70B586B004000D000020002133
:10239C00002200230026DFF894C2644514D0DFF835
:1023AC009002844210D0DFF88C0284420CD0DFF80B
:1023BC008802844208D0DFF88402844204D0AD2124
:1023CC00DFF87C0202F0CCFE2868002803D02868D5
:1023DC005949884204D3AE21DFF8640202F0C0FEF2
:1023EC00A888002809D0A8884FF48051884204D0CE
:1023FC00AF21DFF84C0202F0B3FEE888002813D0BE
:10240C00E8884FF4805188420ED0E8884FF4005190
:10241C00884209D0E8884FF44051884204D0B0215A
:10242C00DFF81C0202F09CFE288900280ED02889B7
:10243C004FF48061884209D028894FF4C0618842EA
:10244C0004D0B121DFF8F80102F08AFE68894FF65A
:10245C00F371084202D16889002804D1B221DFF857
:10246C00E00102F07DFEA889002813D0A8894FF462
:10247C00807188420ED0A8894FF40071884209D02F
:10248C00A8894FF44071884204D0B321DFF8B00121
:10249C0002F066FEA889002810D0DFF89001844273
:1024AC000CD0DFF88C01844208D0DFF8880184421C
:1024BC0004D0B721DFF8880102F052FE2600208AF2
:1024CC004CF6FF710840E98808432082A0894EF63B
:1024DC00F3110840A9882A8911436A8911430843DA
:1024EC00A081A08A4FF6FF410840A9890843A08229
:1024FC0000A800F049FEDFF83401864201D10399AF
:10250C0000E002991920484329688900B0FBF1F2D8
:10251C006420B2FBF0F000010109642301FB1323DA
:10252C00190132316422B1FBF2F111F00F010843B1
:10253C00208106B070BD00BF21AA440038B504004C
:10254C000D00DFF8E800844215D0DFF8E400844287
:10255C0011D0DFF8E00084420DD0DFF8DC008442BB
:10256C0009D0DFF8D800844205D04FF4A171DFF810
:10257C00D00002F0F5FDEDB2002D08D0EDB2012D2A
:10258C0005D040F24311DFF8B80002F0E9FDEDB2DE
:10259C00002D04D0A08950F40050A08104E0A08943
:1025AC004DF6FF710840A08131BD000038B5040024
:1025BC000D001E48844210D01D4884420DD01D4889
:1025CC0084420AD01C48844207D01C48844204D060
:1025DC0040F232211A4802F0C3FD4FF40070ADB244
:1025EC00854204D340F23321154802F0B9FDE805C9
:1025FC00C00DA08031BD000010B504000B48844212
:10260C0010D00B4884420DD00A4884420AD00A48A4
:10261C00844207D00948844204D040F24321084840
:10262C0002F09EFDA088C005C00D10BD0038014011
:10263C000044004000480040004C00400050004066
:10264C00E048000838B504000D0000202C498C42ED
:10265C0010D02C4884420DD02B4884420AD02B48F1
:10266C00844207D02A48844204D040F213312948CE
:10267C0002F076FDADB2012D23D0ADB2802D20D06D
:10268C00ADB2402D1DD0ADB2202D1AD0ADB2102D53
:10269C0017D04FF48070ADB2854212D04FF4007059
:1026AC00ADB285420DD0ADB2082D0AD0ADB2042D1D
:1026BC0007D0ADB2022D04D04FF44571154802F08D
:1026CC004FFD4FF40070ADB285420DD10C488442E1
:1026DC000AD00C48844207D00B48844204D04FF4F3
:1026EC0046710C4802F03CFD208815EA00010800F8
:1026FC0080B2401E8041C043C00FC0B232BD00BF8B
:10270C00003801400044004000480040004C0040AC
:10271C0000500040E048000840B2002809D540B203
:10272C0010F00F00064A8018C9B2090100F8041C09
:10273C0004E040B2034AC9B209018154704700BF9A
:10274C0018ED00E000E400E080B5B0F1807F01D32B
:10275C00012010E00002000A401E074908600F210A
:10276C005FF0FF30FFF7D8FF0448002101600448F8
:10277C0007210160002002BD14E000E018E000E039
:10278C0010E000E080B5A54801680C4802F09EFB03
:10279C00A24841680A4802F099FBA04881680948A0
:1027AC0002F094FB9D48C168074802F08FFB9B48E0
:1027BC000169064802F08AFB01BD00BFA44F000866
:1027CC00BC4F0008D44F0008EC4F00080450000820
:1027DC0080B5FFF783FCFFF777FC02F025FA01BD0B
:1027EC0080B54148FEF716FD2B48FEF70FFF2A482F
:1027FC000021817128480021C171274800210172F4
:10280C002548002141722448002181722248002170
:10281C00C1722148002181701F480021C1701E48DF
:10282C00022101711C48042141711B480A210180BD
:10283C0019492D48FEF718FD1848002181721748D8
:10284C000021C17215480121017314480021018037
:10285C001248002141801148002181800F4800213D
:10286C00C1800E48002101810C48012141730B48A5
:10287C00FEF714FE1B4840F221310160194801217A
:10288C004160184800214172164800210172154818
:10289C000121817201BD00BFA0080020900800201A
:1028AC0010B500240D4802F011FBFFF799FF01222F
:1028BC0002210D48FEF7C4FE5948FFF743FD040002
:1028CC004FF4FA70FFF702FD054802F0FFFA0548D5
:1028DC00C47204490448FEF707FFEDE7F450000802
:1028EC00D0510008540800200064004010B5FFF7D8
:1028FC0091FB4A4800F048FCFFF7AEFBFFF732FCB7
:10290C00FFF786FCFFF766FB444800684FF47A71CA
:10291C00B0FBF1F0FFF718FF002800D0FEE7002015
:10292C00FFF710FC4FF4FA70FFF7D0FC2E4802F0C2
:10293C00CDFA2E4802F0CAFA2D4802F0C7FA2D48FB
:10294C0002F0C4FA2C4802F0C1FA2A4802F0BEFA8E
:10295C002A4802F0BBFA2A4802F0B8FA294802F0D9
:10296C00B5FA294802F0B2FA284802F0AFFA214829
:10297C0002F0ACFA264802F0A9FA2948FFF7E2FC6B
:10298C000400244802F0A2FAE4B2200030280AD055
:10299C0031280BD032280CD033280DD034280ED04F
:1029AC00352819D01AE0FFF7EDFE17E001F00AFC0C
:1029BC0014E001F0B9FF11E001F09AF80EE01648AE
:1029CC0001210170FFF704FF4FF4FA70FFF77EFC52
:1029DC000120FFF7B7FB01E0FFF762FFE4B2782CB0
:1029EC00A4D1002010BD00BF1C500008184F0008D7
:1029FC00E0510008345000084C500008F051000819
:102A0C0000520008085100081C5100083051000801
:102A1C004052000810520008F00800204008002026
:102A2C00003801404FF4001C1CEB410F38BF1CEB6D
:102A3C00430F17D31CEB410F09D31CEB430F28BFDB
:102A4C006FF000011B4248BF81F0004170471CEB46
:102A5C00430F18BF6FF0000102BF594001F0004155
:102A6C0000207047BCEB410F98BFBCEB430F39D92A
:102A7C0050EA410C18BF52EA430C13D150EA410CF6
:102A8C0081EA030101F000414FF000001EBF41F04C
:102A9C00E04141F07F61704752EA430C08BF6FF090
:102AAC0000017047F0B475464FF40014B4EB410FBD
:102ABC0011D9B4EB430F07D902F01EF902F00EF94D
:102ACC00E41B7608AE4614E002F008F95F00A4EBB4
:102ADC005754AE460DE002F00FF94C00C7EB5454BE
:102AEC00AE4606E0F0B44C007641640D5F00A4EBFA
:102AFC00575446F1000C04F580646FF0404606EA2A
:102B0C00812545EA9055800206EA832343EA9253D5
:102B1C000221920227D0861A9D4143F0804304D2B1
:102B2C00641E76006D41B6185D4176006D4196428B
:102B3C0075EB030724BFB61A3D464941F5D34FF454
:102B4C00006076006D41964275EB030724BFB61A00
:102B5C003D464041F5D376006D41B61A75EB03073F
:102B6C0008BF364249E0ED1A43F0804303D2641E9D
:102B7C00400043EB45055B4200421AD041F48061B2
:102B8C00001853EB450538BFED1A4941001853EBBB
:102B9C00450538BFED1A4941001853EB450538BFC0
:102BAC00ED1A4941001853EB450538BFED1A494160
:102BBC00ECD313EB450538BFED1A494113EB450532
:102BCC0038BFED1A494113EB450538BFED1A4941A1
:102BDC00F4D34FF4006013EB450538BFED1A4041B8
:102BEC0013EB450538BFED1A404113EB450538BFD3
:102BFC00ED1A4041EFD313EB45052CBF4FF00045C8
:102C0C00002518BF45F0804540EA4150C90A641EB2
:102C1C002FDC41F48011D4F10104202C10DAC4F122
:102C2C0020072D4225FA04F518BF45F0010500FADE
:102C3C0007F63543E04001FA07F63043E14026E061
:102C4C00342C12DC203C2D4208BF5FEA4007C4F153
:102C5C00200720FA04F518BF45F0010501FA07F624
:102C6C00354331FA04F0002111E000205FEACC7109
:102C7C001AE021F4801111EB04515CBF11F5801F97
:102C8C0005E000204FF07F6141F0E0410AE06D006B
:102C9C0008BF10F0010F98BF5FEA350550F1000036
:102CAC0041F1000141EACC71F0BC704780B5FFF7EF
:102CBC00D7FA994800680021817201F0D5FF0748C6
:102CCC000021016006484FF43F410180054804494A
:102CDC00098801603B480021016001BD445C004053
:102CEC00EE080020405C004080B58B480068002155
:102CFC008172894800680021C172874800682549A3
:102D0C00C9794172002000F01FFC4FF400710020C3
:102D1C0000F022FC1021002000F02EFC18210020D5
:102D2C0000F0A4FC5821002000F090FC002000F0E2
:102D3C007FFC194890F82C1089B2002000F0B4FCEC
:102D4C00002000F061FC4FF4C061012000F004FC95
:102D5C004FF48071012000F079FC4FF48271012056
:102D6C0000F084FC0221012000F090FC02210120E3
:102D7C0000F09AFC4FF44051012000F017FC202188
:102D8C00012000F0F9FB0F4801210160002001F047
:102D9C00DDFB01BD104E0008040A002080B55E4822
:102DAC000068807A002806D00648052101600121C0
:102DBC00014801F073FC01BD0024014001480421CD
:102DCC0001607047D0080020704700007047000079
:102DDC0080B50021C0B2062819D14F4A126812786A
:102DEC0012F07F02012A12D14B4A12685279002A42
:102DFC000DD1494800688078222801D1114911E091
:102E0C0045480068807821280CD10F490AE0424AD5
:102E1C001268127812F07F02212A03D1C0B2032863
:102E2C0000D10A490800002801D1022009E03A48E3
:102E3C00006881613848006800224282002088477F
:102E4C00002002BDC52E0008D52E00080D2F00084D
:102E5C0080B531490968097811F07F01212905D124
:102E6C00C0B20B2802D100F043F800E0022002BDF2
:102E7C0080B5024980B201F055FB02BDA40A0020C6
:102E8C0080B5024980B201F04DFB02BDAC0A0020B6
:102E9C0080B521490968C978C9B2052901D3002038
:102EAC0006E0C9B2034A12EBC10180B201F03AFB51
:102EBC0002BD00BF580A002080B5024980B201F063
:102ECC0031FB02BDB40A002080B5024980B201F08A
:102EDC0029FB02BDBC0A0020C9B2012901D3022082
:102EEC0005E0C0B2012801D3022000E000207047A9
:102EFC0009480068C0780949C0B2086000207047D2
:102F0C0080B2002805D1044800680121018200200C
:102F1C0000E0024870470000C0080020CC080020E8
:102F2C0070470000FEE70000FEE70000FEE700002F
:102F3C00FEE700007047000070470000704700007B
:102F4C0080B5FFF7CFF901BD704700007047000056
:102F5C007047000070470000704700007047000089
:102F6C0080B5012000F08CFA00282AD0154801F019
:102F7C00ADFF31480078012820D149480521017066
:102F8C0011480078002806D00F48002101704448F1
:102F9C000121417005E00C480121017040480021DD
:102FAC00417002224FF480713D4801F0CBFE0221AA
:102FBC00012000F06BFB012000F012FB012000F05F
:102FCC00AFFA01BD64500008F108002080B5022062
:102FDC0000F056FA00282AD0154801F077FF164861
:102FEC000078012820D12E48062101701148007864
:102FFC00002806D00F48002101702948012141709A
:10300C0005E00C4801210170254800214170022285
:10301C004FF48071224801F095FE0221012000F04E
:10302C0035FB012000F0DCFA022000F079FA01BD3A
:10303C00344F0008F2080020F00800207047000010
:10304C00704700007047000080B5154807210170DB
:10305C0011480068000911490968B0EB11100528E6
:10306C0015D30D48006800090D49487002224FF431
:10307C0080710B4801F066FE0221012000F006FB76
:10308C00012000F0ADFA05480349096801600220EF
:10309C0001F0AAFD01BD00BFB4080020B808002053
:1030AC00EC080020704700007047000070470000DB
:1030BC007047000070470000704700007047000028
:1030CC007047000080B50C4A00210C48FEF706FC46
:1030DC000948006840F2213188420CD10648007A38
:1030EC00002808D10448807A012804D10248C17A0A
:1030FC00034801F0EBFE01BD6808002000640040AD
:10310C007C500008704700007047000070470000BA
:10311C0070470000704700007047000070470000C7
:10312C0070470000704700007047000070470000B7
:10313C0070470000704700007047000070470000A7
:10314C007047000070470000704700007047000097
:10315C00704700007047000080B55FF4802000F0DD
:10316C00DFF901BD10B50400002C07D0012C05D0EF
:10317C0040F2D721DFF80C0201F0F2FF01480460A5
:10318C0010BD00BFD800424210B500220021002320
:10319C005FF0000CDFF8E4E0DEF800E01EF00C0E4F
:1031AC007246002A04D0042A05D0082A06D025E04D
:1031BC002C49016024E02C49016021E02F49096869
:1031CC0011F470112D4A126812F48033890C891C89
:1031DC00002B04D1254A01FB02F1016010E0274AC3
:1031EC00126812F4003F04D0214A01FB02F1016085
:1031FC0006E01D4A01FB02F1016001E01949016082
:10320C001E49096811F0F00212091A4912F801C09E
:10321C00016831FA0CF141601849096811F4E06257
:10322C00120A144912F801C0416831FA0CF181609C
:10323C001249096811F46052D20A0E4912F801C001
:10324C00416831FA0CF1C1600C49096811F4404233
:10325C00920B094912F801C0C168B1FBFCF1016184
:10326C0010BD00BF00127A00001BB70000093D0022
:10327C00808D5B00940A0020C40A002004100240D8
:10328C0038B504000D002848204201D1002C04D18F
:10329C0040F237413B4801F063FFEDB2002D07D0FF
:1032AC00EDB2012D04D04FF48761364801F058FF80
:1032BC00EDB2002D05D00648006820430449086093
:1032CC0005E003480068E14308400149086031BD4E
:1032DC001810024038B504000D002948204201D1D5
:1032EC00002C04D140F25541264801F039FFEDB2D3
:1032FC00002D07D0EDB2012D04D040F256412148EB
:10330C0001F02EFFEDB2002D05D0064800682043D9
:10331C000449086005E003480068E143084001499E
:10332C00086031BD1C1002400200FFFF38B50400DC
:10333C000D001348204201D1002C04D140F2AC41C5
:10334C00104801F00DFFEDB2002D07D0EDB2012DAC
:10335C0004D040F2AD410B4801F002FFEDB2002D5C
:10336C0005D00648006820430449086005E003487E
:10337C000068E14308400149086031BD101002406B
:10338C00C03701C1784A000810B50400002021792B
:10339C00002906D02079042803D06921684801F05F
:1033AC00DFFE6079082809D060790C2806D0607996
:1033BC00102803D06A21624801F0D2FE2068000D6B
:1033CC000005002802D12068002803D16B215C483D
:1033DC0001F0C6FEA079002806D0A079012803D000
:1033EC006C21574801F0BCFE4C48A179002939D01A
:1033FC004A4909682268D2431140484A11601D4964
:10340C0009682268D24311401A4A116021790818C0
:10341C000168226811430160174800682168C9439C
:10342C00084015490860154800682168C9430840E0
:10343C0012490860607910280CD10F480068216887
:10344C0008430D4908600D480068216808430B4982
:10345C0008600EE031486179081801682268114350
:10346C00016006E02179081801682268D2431140F6
:10347C00016010BD04040140080401400C0401402B
:10348C0010B5040000200021012C35D0022C33D0C3
:10349C00042C31D0082C2FD0102C2DD0202C2BD03C
:1034AC00402C29D0802C27D0B4F5807F24D0B4F5C3
:1034BC00007F21D0B4F5806F1ED0B4F5006F1BD007
:1034CC00B4F5805F18D0B4F5005F15D0B4F5804F1B
:1034DC0012D0B4F5004F0FD0B4F5803F0CD0B4F53A
:1034EC00003F09D0B4F5802F06D0B4F5002F03D0DF
:1034FC00E421134801F034FE0848006814EA000186
:10350C0010480068044205D00800401E8041C043AA
:10351C00C00F00E00020C0B210BD0000000401404C
:10352C0010B50400200D0005002801D1002C03D19A
:10353C00FB21034801F014FE0248046010BD00009A
:10354C0038480008140401404FF6F8710840DFF8C1
:10355C00A811086070470000C0B2DFF8A42152F82F
:10356C00202048F68F131A40114389B2C0B2DFF8FD
:10357C00902142F820107047C0B2DFF8842152F835
:10358C00202048F6BF731A400B0013F0100F01D027
:10359C0092F0100211F0200F01D092F02002C0B274
:1035AC00DFF85C1192B241F820207047C0B2DFF80E
:1035BC00502152F820204BF68F731A4011F4805F83
:1035CC0001D092F4805211F4005F01D092F40052B9
:1035DC00C0B2DFF82C1192B241F8202070470000E5
:1035EC00C0B2DFF81C1151F8201048F6BF72114020
:1035FC0091F0100191F02001C0B2DFF8042189B2E2
:10360C0042F8201070470000C0B2DFF8F41051F8F7
:10361C0020104BF68F72114091F4805191F40051AF
:10362C00C0B2DFF8DC2089B242F8201070470000ED
:10363C00C0B2DFF8CC1051F8201048F68F62114060
:10364C00C0B2DFF8BC2042F820107047DFF8A82089
:10365C00126892B2C0B212EBC000244A89B2490877
:10366C0089B2490042F8101070470000DFF888203A
:10367C00126892B2C0B212EBC0001D4A89B249085E
:10368C0089B2490042F8101070470000DFF868203A
:10369C00126892B2C0B212EBC000DFF8602089B29F
:1036AC0042F8101070470000134A126892B2C0B270
:1036BC0012EBC0000F4A12EB400089B23F290BD32A
:1036CC0089B24A0911F01F0F00D1521E92B2910219
:1036DC0051F40041016008E089B24A0811F0010F71
:1036EC0000D0521C92B29102016070470060004001
:1036FC00086000400C600040505C004004600040DA
:10370C00005C0040B0B581EA030C0CF0004C40F2B8
:10371C00FF7515EA11541DBF15EA1357AC42AF42A1
:10372C003AE0E41923EA455343F48013C90241F00B
:10373C00004141EA50574FEAC02E1100AEFB020285
:10374C0000284FF00000E7FB01204FF00001E3FBE5
:10375C000E2118BF42F00102401800214941E3FB41
:10376C000701A4F580640F0302D252004041494185
:10377C0054F101046BDD470872F1004250F1000076
:10378C0051EB0451A1F580115CBF41EA0C01B0BDB5
:10379C004CEA05510020B0BD05EA1357AC4214BFEA
:1037AC00AF4240E050EA410E1CBF52EA430E02E029
:1037BC0061460020B0BD24423C441AD13F42F7D0B0
:1037CC00090302BF01460020143FB1FA81FEA7EBAA
:1037DC000E0401FA0EF70EF10C0ECEF1200100FAD8
:1037EC000EFEC84047EA000723EA455343F4801312
:1037FC00A3E733F00043B3FA83F704BFB2FA82FEB7
:10380C0077440B3FE41BB7F1200E2FBF02FA0EF3E7
:10381C00BB40C7F1200E22FA0EFE38BF43EA0E035E
:10382C00BA40641C82E750EA410E14BF52EA430EC0
:10383C006FF000014FF4001717EB430F8ABF1946C6
:10384C0017EB410FB6E74CEA05510020B0BDD4F19F
:10385C000104B4F120070FDAC4F12007520828BF85
:10386C0042F0010210FA07F501FA07F7E1BF2A430B
:10387C00E0403843E1400FE0352C99DCC7F12004DF
:10388C0052EA400220FA07F218BF42F0010231FA64
:10389C0007F0A1400A43002172F1004250F10000F0
:1038AC0051EB0C01B0BD0000F0B44FF0004591EAB3
:1038BC00030F44BF6B4000F04EBB8B4208BF8242EB
:1038CC0005D98446100062464C19591923004FF44F
:1038DC00001C1CEB410F06D308BF1CEB430F28BF89
:1038EC006FF0000162E0BCEB430F14D9AB4352EA1A
:1038FC0043060BD04FEA4C0CBCEB410F04D80C0D1B
:10390C00661E342E57DD51E0801A994150EA41066B
:10391C0008BF00214AE00C0DA4EB1356362E45DCF3
:10392C00012E45DC4FEA045445EAC32343EA5253C3
:10393C0012BFD20292025B0845EAC12141EA505102
:10394C00D2EBC020994125D404BF01460020B1FA26
:10395C0081F601FA06F1C6F1200220FA02F241EAE0
:10396C00020100FA06F002BF203609421EE04FEABF
:10397C00F474B4EB465434F001064FEA740409D8DD
:10398C00D6F50016760D2C40F04071FA06F2504038
:10399C00F1404840C00A40EA415021EA050128BFE5
:1039AC005FEA500550F1000044EBD121F0BC7047A8
:1039BC0045EAC323DB0A45EAC121C90A202E0DDDE5
:1039CC00203E63FA06F5F3405D40124218BF45F005
:1039DC0001056D42984161F100010DE062FA06F5B6
:1039EC00F24085EA020563FA06FC82EA0C02F34017
:1039FC005A406D429041994111F4801F05D1641ECB
:103A0C00620502D06D004041494121F480116D00E6
:103A1C0008BF10F0010F98BF5FEA350550F10000A8
:103A2C0041EB0451F0BC70470748006850F48070BB
:103A3C0005490860704700000349096880B20843D3
:103A4C0001490860704700001410014003490968DF
:103A5C0080B2084301490860704700001010014013
:103A6C0080B5FF20FFF7F2FF01BD000010B5040088
:103A7C00FFF7F6FF002C12D0012C14D0022C16D01C
:103A8C00032C18D0042C1AD0052C1CD0062C1ED0BC
:103A9C00072C20D0082C22D0092C24D026E03F2043
:103AAC00FFF7CAFF22E00620FFF7C6FF1EE09B20AF
:103ABC00FFF7C2FF1AE08F20FFF7BEFF16E0A6202B
:103ACC00FFF7BAFF12E0AD20FFF7B6FF0EE0BD2006
:103ADC00FFF7B2FF0AE02720FFF7AEFF06E0BF209A
:103AEC00FFF7AAFF02E0AF20FFF7A6FF10BD000012
:103AFC0010B582B0274801F0E9F92748006850F06A
:103B0C0010002549086040F2FF10ADF800000320BA
:103B1C008DF8020010208DF8030000A91F48FDF756
:103B2C006BFFFFF781FFFEF749FAFFF799FF0120C2
:103B3C00FFF782FFFEF742FA0220FFF77DFFFEF748
:103B4C003DFA0420FFF778FFFEF738FA0820FFF75C
:103B5C0073FFFEF733FA1020FFF76EFFFEF72EFA15
:103B6C002020FFF769FFFEF729FA8020FFF764FF9A
:103B7C00FEF724FA4020FFF75FFFFEF71FFA002440
:103B8C0005E02000FFF772FFFEF718FA641C0A2C00
:103B9C00F7DB13BD4451000818100240001001401F
:103BAC0080B55648006850F00100544908605448EC
:103BBC0000680F49084052490860504800680D4998
:103BCC0008404E4908604D4800687FF48021084049
:103BDC004A4908604A4800687FF4FE010840484999
:103BEC00086005485FF41F01016000F007F801BD93
:103BFC000000FFF8FFFFF6FE0810024080B500F051
:103C0C0001F801BD82B000200190002000903B48DB
:103C1C00006850F48030394908603848006810F466
:103C2C00003000900198401C01900098002803D1AE
:103C3C000198B0F5A06FF0D13048006810F4003056
:103C4C00401E8041C043C00F00900098012851D104
:103C5C002948006850F01000274908602648006881
:103C6C0003218843244908602348006850F002006F
:103C7C0021490860224822490968016020482049EE
:103C8C00096801601E48006850F480601C49086097
:103C9C001B48006850F40040194908601848006837
:103CAC007FF47C110840164908601548006850F4F0
:103CBC008810134908601148006850F080700F4953
:103CCC0008600E48006810F0007FFAD00C480068BD
:103CDC00032188430A4908600948006850F0020033
:103CEC00074908600648006810F00C000828F9D154
:103CFC0002B07047FEE700BF0020024000100240F7
:103D0C000410024010B50400B4F5E06F0FD0B4F508
:103D1C00C06F0CD0B4F5A06F09D0B4F5806F06D08D
:103D2C00B4F5407F03D062213D4801F019FA0248F6
:103D3C0020432A49086010BD0000FA0538B504007C
:103D4C00002000210F25E278002A06D0E078012817
:103D5C0003D07421324801F003FA6078102803D3A1
:103D6C0075212F4801F0FCF9A078102803D3762197
:103D7C002B4801F0F5F9E07800281DD017480068B1
:103D8C0010F4E060D0F5E060000AD0F10401C54009
:103D9C0060788840A17829400843000121780C4ABA
:103DAC008854207840110B490122237813F01F030B
:103DBC009A4041F8202009E0207840110649012260
:103DCC00237813F01F039A4041F8202031BD00BF27
:103DDC0000E400E000E100E080E100E00CED00E038
:103DEC0038B504000D00B4F1005F06D0B4F1006FDB
:103DFC0003D09D210A4801F0B3F90648854203D34C
:103E0C009E21074801F0ACF90348284020430349A0
:103E1C00086031BDFFFF070080FFFF1F08ED00E0C9
:103E2C00644B000870B505000C00E88847F6F0718B
:103E3C000840001140F2FF76B0420DD1E88810F036
:103E4C000F0F05D1A88818B9688808B9288808B157
:103E5C00022070BD012070BD30B9280000F0E6F8DA
:103E6C00012801DB002070BD0419B4420BDBE8888B
:103E7C0010F4004F02D00020304901E000203049FE
:103E8C00C5E90001E6E7012CE88809DB48F20F01DF
:103E9C000840A4B240EA0410E8804FF0FF3070BD37
:103EAC0000F40040E98801F00F0141F01001E980B5
:103EBC00641E6FF033018C4205DAE8800020A88084
:103ECC006880288070BD24B26FF00E018C420BDA32
:103EDC006A882A80AA886A80EA88AA800022EA80F6
:103EEC00103424B28C42F3DB614209B20A001FD0B9
:103EFC00C2F110022B880B41B5F802C00CFA02FC7F
:103F0C004CEA03032B806B880B41B5F804C00CFA08
:103F1C0002FC4CEA03036B80AB880B41B5F806C07E
:103F2C000CFA02F21A43AA80EA8822FA01F1E9801B
:103F3C00E9880843E8804FF0FF3070BD0000F0FFC7
:103F4C000000F07FF0B44FF0004591EA030C44BF41
:103F5C006B40FFF7B2BC8B4208BF824205D9844646
:103F6C00100062468C46190063464FF4001C1CEB93
:103F7C00410F01D3F0BC7047BCEB430F0FD952EA91
:103F8C00430648D0BCEB410F05D80C0DAB43661E65
:103F9C00342E0CDD3FE0AB43801859413BE00C0D57
:103FAC00A4EB1356352E36DC45EAC323DB0A45EA6F
:103FBC00C121C912202E11DB203E18BF5FEA02027C
:103FCC0063FA06F523FA06F385EA030518BF45F0F4
:103FDC000105C01851F100010CD213E072FA06F57C
:103FEC00F2405540F3415A40B340F3405A408018D8
:103FFC00594107D349085FEA30005FEA350528BF0D
:10400C0045F0010501F58011420875F1004250F1AF
:10401C00000041EB0451F0BC4FF4001C1CEB410FB1
:10402C0038BF70470020090D0905704710B5010015
:10403C00C88800F400420120CB8803F00F03CB802A
:10404C00C3B98B8823B94B8813B90B88002B57D075
:10405C008B88CB80B1F802C0A1F804C0B1F800C0C5
:10406C00A1F802C04FF0000CA1F800C0103800B24B
:10407C00002BEDD0CB88102B1ED28B88B1F806C04C
:10408C004FEAD33E4EEA4C0CA1F806C0B1F802E060
:10409C004FEADE3444EA43038B800B88DC0B44EAA2
:1040AC004E0EA1F802E05B000B80401E00B21FFA1E
:1040BC008CFCBCF1100FE0D3CB88202B1CD34B888D
:1040CC00B1F800C04FEAC33E4EEA5C0CA1F800C048
:1040DC00B1F804C04FEACC3E4EEA53034B80CB8878
:1040EC004FEAC33E4EEA5C0CA1F804C05B08CB80DF
:1040FC00401C00B2202BE2D2CB8803F00F03CB8004
:10410C00CB881A43CA8010BD80B54FF40071144897
:10411C00FDF7D4FD01BD000080B54FF400711048CF
:10412C00FDF7A2FD01BD000080B520210C48FDF774
:10413C00C5FD01BD80B520210948FDF795FD01BDE8
:10414C0080B54FF480710648FDF7B8FD01BD000045
:10415C0080B54FF480710248FDF786FD01BD00006B
:10416C00000C014080B5FFF7CFFFFFF7DDFFFFF735
:10417C00E7FF01BD80B5FFF7CFFFFFF7DBFFFFF7D0
:10418C00E7FF01BD10B5040018E0FFF7C5FFFFF70E
:10419C00CBFFFFF7D5FFFDF711FFFFF7B5FFFFF7DB
:1041AC00C9FFFFF7CDFFFDF709FFFFF7ADFFFFF7E5
:1041BC00BBFFFFF7CDFFFDF701FF641E002CE4D120
:1041CC0010BD000080B5FFF7CDFFFDF7F7FEFFF740
:1041DC00D1FFFDF7F3FE0320FFF7D4FF01BD000074
:1041EC002DE9005003D34942404261F1000100F037
:1041FC001BF8BDE800505FEA4C0C05D34942404225
:10420C0061F100011CEA0C0F03D55B42524263F1D1
:10421C000003704713F0004C03D55B42524263F12C
:10422C0000039CEA210CDBD151EA030C0ED1002ACD
:10423C001FBF8446B0FBF2F002FB10C2704701F0C6
:10424C002DB80B00020000210020704752EA030C2D
:10425C00F5D02DE9F041002400250F00060052EAAC
:10426C0003081FD05FF0000892185B4108D2BB42D4
:10427C0008BFB24298BF08F10108F5D918F100083F
:10428C005FEA33034FEA3202B01A77EB030124BF23
:10429C000F46064664416D415B084FEA3202B8F1A5
:1042AC000108F1DA2000290032003B00BDE8F08162
:1042BC0070B5050005F10F0407208443012000F0C0
:1042CC00BBF8A54204D3012000F0DCF8002070BD3F
:1042DC00082C04D2082402E0083000F0DFF8224D4C
:1042EC00286801000CD1291D00E0011D0868A0B14F
:1042FC000268A242F9D315E01368A34212D2111D31
:10430C000A68002AF8D10068291D03E01368A3424B
:10431C0008D2111D0A688242F8D100F09DFD0028D8
:10432C00DAD100210029CED00E6830680838A042BE
:10433C0002D27068086008E0A019086072684260D8
:10434C003068001B0A6810603460086818B1416856
:10435C0009B1001D00E000202860012000F092F857
:10436C0006F1080070BD00BFAC080020058C0901E7
:10437C00A101850109011500250175089501B1827E
:10438C008501090191828502090215002501750834
:10439C009501B182850209029182850309031500FA
:1043AC00250175089501B182850309039182850465
:1043BC0009041500250175089501B18285040904CD
:1043CC009182850509051500250175018182090574
:1043DC007501B1827507818385057507B1838506E3
:1043EC000906150025017501818209067501B18246
:1043FC007507818385067507B18385070907150045
:10440C0026FF007508818285070907B182C000006C
:10441C0010B5214C201D00F059FB04F1080000F0F0
:10442C0055FB04F10C0000F051FB04F11000BDE849
:10443C00104000F04BBB000038B50400164D286846
:10444C0098B9281D00F03AFB05F1080000F036FB86
:10445C0005F10C0000F032FB05F1100000F02EFB12
:10446C0000220021064800F09FF801202860042C4F
:10447C0004D205EB8400001D00F030FB31BD00BF01
:10448C001D44000880B5042805D2034901EB8000C7
:10449C00001D00F02BFB01BD7C08002010B5F0B115
:1044AC00A0F108042068082819D310F0070F16D1C2
:1044BC000120FFF7C1FF1A48416809B18C4203D2B1
:1044CC00616044601BE019004B680BB1A342FAD346
:1044DC000A6853189C4203D20120FFF7D3FF10BD8A
:1044EC00A34204D123689A180A600C0007E04A68BA
:1044FC001AB123681B199A42EED362604C60616852
:10450C000029E9D0226812198A42E5D10021016004
:10451C006068216802685118216040686060DBE7C0
:10452C00AC080020DFF820201268528A80B20028E4
:10453C0007D18888801ADFF81010096808820020DB
:10454C0001E0086810187047C008002080B51249B7
:10455C000A78002117E00B00DBB2DFF840C05CF8F2
:10456C0023309BB248F68F7C1CEA03038C465FFA1F
:10457C008CFC5CEA03038C465FFA8CFCDFF81CE0D5
:10458C004EF82C30491C9142E5D3C0B250F080005B
:10459C000349086001BD00BFC80A0020005C004050
:1045AC004C5C00407047000080B51D4BD3F800C038
:1045BC00DFF828E0F44506D20CF10C0EC3F800E04D
:1045CC00BCF1000F01D1012002BDCCF80010CCF8D9
:1045DC000400CCF80820002002BD00BFD407002046
:1045EC00002000BFF8B50E4C27683E0014D00B4DD0
:1045FC0000E08847AE420FD02068874201D0060009
:10460C0007000C3E71680800F4D000207060306820
:10461C000028EED18847EDE7F1BD00BF0006002071
:10462C00CC0A002070B500F10801026801EBC2024F
:10463C00406802EBC00000239C469E4601E0AC4261
:10464C0007D1824200D170BD52F8044B52F8045B82
:10465C002D19634502BF51F8043B51F804CB9C441F
:10466C006345ECD0AC42EAD0BEF1000F08BF13F9A1
:10467C0001EB002601E004F8016BBEF1000FEFD056
:10468C00AC42EDD06345EBD0BEF1000F52BFAEF1A2
:10469C00010E13F8016B0EF1010EECE738B50400B6
:1046AC000D00DFF8580084420DD0DFF8540084422E
:1046BC0009D0DFF85000844205D040F2CB11DFF86E
:1046CC00480000F04DFDEDB2002D08D0EDB2012DEB
:1046DC0005D04FF4E671DFF8300000F041FDEDB28B
:1046EC00002D04D0A06850F4A000A06004E0A068E5
:1046FC007FF4A0010840A06031BD000000240140FF
:10470C0000280140003C0140884900088B0707D075
:10471C00521E24BF11F8013B00F8013BF6D870473C
:10472C0083071ED1103A07D330B4B1E83810103AD1
:10473C00A0E83810F9D230BC530724BFB1E80810F8
:10474C00A0E8081044BF51F8043B40F8043BD207E2
:10475C0024BF31F8022B20F8022B44BF0B780370D6
:10476C007047083A07D3B1E80810083A40F8043B00
:10477C0040F804CBF7D25307E4E70000C9B2830733
:10478C0006D0521E22D310F8013B9942F7D11FE0FC
:10479C00083A13D302F1040241EA012141EA014132
:1047AC0050F8043B121F21BF4B40A3F1013C2CEAF3
:1047BC00030C1CF0803FF3D0C9B2001F083210F874
:1047CC00013B521E28BF91EA030FF8D818BF0120F5
:1047DC00401E7047F446400D40EAC120490006D205
:1047EC0000F013F8004248BF6FF00040604700F043
:1047FC000CF84FF0004188428CBF0846404260479D
:10480C00400D40EAC12049000CD240F00040490D57
:10481C00A1F58061491C05D4D1F11F0154BFC840DA
:10482C00C01770474FF0000070470000443A5C57C7
:10483C006B5C576B2E5372635C4D53746F72793390
:10484C002E305C4C69627261726965735C53544DB5
:10485C003332463130785F537464506572697068D6
:10486C005F4472697665725C7372635C73746D33EA
:10487C0032663130785F657874692E630000000011
:10488C00443A5C576B5C576B2E5372635C4D53749C
:10489C006F7279332E305C4C696272617269657328
:1048AC005C53544D3332463130785F5374645065E9
:1048BC00726970685F4472697665725C7372635C6E
:1048CC0073746D3332663130785F6770696F2E6345
:1048DC0000000000443A5C576B5C576B2E537263BC
:1048EC005C4D53746F7279332E305C4C696272611B
:1048FC00726965735C53544D3332463130785F5373
:10490C0074645065726970685F4472697665725C34
:10491C007372635C73746D3332663130785F7573A8
:10492C006172742E6300000010B50024FFF722FCA6
:10493C0001E0FFF7F9FBFDF747FB2000441C10F0EA
:10494C00010F02D1FFF7FCFB01E0FFF701FC012195
:10495C000948FDF711F9012802D1FFF7D5FB01E059
:10496C00FFF7DAFB02210448FDF706F90128E0D035
:10497C00FFF7E0FBDFE700BF00080140443A5C575B
:10498C006B5C576B2E5372635C4D53746F7279333F
:10499C002E305C4C69627261726965735C53544D64
:1049AC003332463130785F53746450657269706885
:1049BC005F4472697665725C7372635C73746D3399
:1049CC0032663130785F6164632E6300443A5C5721
:1049DC006B5C576B2E5372635C4D53746F727933EF
:1049EC002E305C4C69627261726965735C53544D14
:1049FC003332463130785F53746450657269706835
:104A0C005F4472697665725C7372635C73746D3348
:104A1C0032663130785F63616E2E6300443A5C57C6
:104A2C006B5C576B2E5372635C4D53746F7279339E
:104A3C002E305C4C69627261726965735C53544DC3
:104A4C003332463130785F537464506572697068E4
:104A5C005F4472697665725C7372635C73746D33F8
:104A6C0032663130785F646D612E6300443A5C5776
:104A7C006B5C576B2E5372635C4D53746F7279334E
:104A8C002E305C4C69627261726965735C53544D73
:104A9C003332463130785F53746450657269706894
:104AAC005F4472697665725C7372635C73746D33A8
:104ABC0032663130785F7263632E630080B50F49C4
:104ACC0009680A0018BF884701BD000080B50C4971
:104ADC0009680A0018BF884701BD000080B5094964
:104AEC0009680A0018BF884701BD000080B5064957
:104AFC0009680A0018BF884701BD0000D8080020CB
:104B0C00DC080020E0080020E408002030B905484B
:104B1C00D0E90001C2E900010020704701700120BA
:104B2C00704700BF7C52000831B90A48D0E9000137
:104B3C00C3E900010020704712B96FF00100704703
:104B4C0008B10A7802800978481E8041C043C00F22
:104B5C00704700BF84520008443A5C576B5C576B3B
:104B6C002E5372635C4D53746F7279332E305C4CE0
:104B7C0069627261726965735C53544D33324631AC
:104B8C0030785F5374645065726970685F44726901
:104B9C007665725C7372635C6D6973632E6300007F
:104BAC00185300081853000818530008185300082D
:104BBC00185300081853000818530008FFFFFFFF94
:104BCC00FFFFFFFFAC5200081853000818530008F1
:104BDC0018530008185300088C520008945200080F
:104BEC00185300081853000810B5040014F0704F47
:104BFC0002D00948204201D1002C04D14FF4FD71A0
:104C0C00064800F0ADFA14F0805F02D0044804604E
:104C1C0001E00448046010BD0000F0EF284A0008D1
:104C2C00040402400400024080B5094809490160AF
:104C3C0007480068022101720748084901600848CA
:104C4C0008490160044800680068804701BD00BF46
:104C5C00C008002024080020C4080020040A0020FA
:104C6C00C8080020340A002001200D4980B20860D9
:104C7C000948002101800A48074909880160074852
:104C8C000021016004484FF4E051018004480249BE
:104C9C000988016000207047EE080020445C004049
:104CAC00405C004000F10103810704D010F8011BA7
:104CBC000029F9D110E00268B2F10131914311F0F1
:104CCC00803F04BF50F8042FF6E710F8011B0029B1
:104CDC001CBF10F8011BFAE7C01A7047400049418D
:104CEC007641002411F4801F05D1641E4000494117
:104CFC0011F4801FF9D0704752005B4176410027B8
:104D0C0013F4801FF7D17F1E52005B4113F4801FF8
:104D1C00F9D0704757726F6E6720706172616D6564
:104D2C00746572732076616C75653A2066696C6582
:104D3C00202573206F6E206C696E652025640D0A2A
:104D4C000000000092B2521C521089B2084B13EBB7
:104D5C0041030AE00178401C90F800C051EA0C2194
:104D6C0019809B1C9B1C401C521E002AF2D17047C0
:104D7C00006000404FF4001C1CEB410F98BF1CEB73
:104D8C00430F09D841EA030C50EA4C0C52EA0C0CC4
:104D9C0003D2994208BF9042704718BF8B4208BF9C
:104DAC00824270474FF4001C1CEB410F98BF1CEB68
:104DBC00430F09D841EA030C50EA4C0C52EA0C0C94
:104DCC0003D28B4208BF8242704718BF994208BF7A
:104DDC0090427047010040F10880F446404200F0D8
:104DEC0004F851F000416047010009D0B0FA80F19D
:104DFC008840C91CC1F58461090501EBD02140052F
:104E0C007047000009022900010100C032090400AA
:104E1C0000020300000009211001000122A200077A
:104E2C000581030200200705010302002000000099
:104E3C002603530054004D006900630072006F009C
:104E4C0065006C0065006300740072006F006E00FA
:104E5C0069006300730000000649086808B100206F
:104E6C00704705480860054907229143091A0160FB
:104E7C00704700BFD408002000040020000600206A
:104E8C00894F000820010000D4070020000000001A
:104E9C003146000801000000010000001953000811
:104EAC0032010000F4080020DC0100002003530054
:104EBC0054004D0033003200200043007500730095
:104ECC0074006D0020004800490044000EB400B589
:104EDC0082B003A9009100AB020001210248FBF74C
:104EEC00FFF806BC5DF810FBDD500008F8B50700B4
:104EFC000C0015001E0000F05BF933002A002100A5
:104F0C00380001B0BDE8F040FFF70EBE4D616E6792
:104F1C006F204D3332207465737420737461727416
:104F2C002E2E2E0A0000000052696768742D55530E
:104F3C00455220427574746F6E2050726573730AFB
:104F4C000000000010B50448044C02E050F8041BAB
:104F5C008847A042FAD110BD8C4E0008B84E00080C
:104F6C0070B506000C00150000F022F92A00210093
:104F7C003000BDE87040FFF7C9BD0000002305E01C
:104F8C0050F8041B41F8043B121FFBD150F8042BC2
:104F9C00002AF5D170470000535953434C4B5F46E0
:104FAC0072657175656E6379203D2025640A000079
:104FBC0048434C4B5F4672657175656E6379203D55
:104FCC002025640A0000000050434C4B315F4672B0
:104FDC00657175656E6379203D2025640A000000BB
:104FEC0050434C4B325F4672657175656E63792028
:104FFC003D2025640A000000414443434C4B5F466E
:10500C0072657175656E6379203D2025640A000018
:10501C000A2D2D2D2D2D2D2D2D2D2D2D2D2D2D2DD7
:10502C002D2D2D2D2D2D0A002D2D2D2D2D2D2D2DF4
:10503C002D2D2D2D2D2D2D2D2D2D2D2D2D0A000011
:10504C00303E2053797374656D20496E666F726DB6
:10505C006174696F6E0A00004C6566742D574B5570
:10506C005020427574746F6E2050726573730A0011
:10507C0052784D6573736167652E446174615B3062
:10508C005D203D2025630A0000F004F9002801D0C2
:10509C00FFF758FF0020FDF729FC00F0FDF8000099
:1050AC000278C9B2012A91EA020F84BF10F8012FCD
:1050BC00F8E718BF0020704780B50449086800283D
:1050CC0003D00220ABBE0020086001BDE808002020
:1050DC0038B505000C00200000F0B2F8A04218BF53
:1050EC000025280032BD000043414E5F4E6F726DAB
:1050FC00616C5F5465737428290A0000333E2037B5
:10510C002D5365676D656E7420546573740A0000C9
:10511C00343E205553422048494420546573740A48
:10512C0000000000353E2043414E204E6F726D61F1
:10513C006C20546573740A00536576656E5F536515
:10514C00676D656E745F546573740A00120100021A
:10515C0000000040830450570002010203010000CC
:10516C0080B50A0001000248FFF7B0FEFEE700BF61
:10517C00204D000818B491FBF2F31C0002FB131134
:10518C00C0E9004112BC704710B5034CA06C010083
:10519C0018BF8047200010BD7809002080B5FFF7AC
:1051AC008BFF02491820ABBEFCE7C046260002006C
:1051BC0010B5034CE06A010018BF8047A06910BD10
:1051CC00F40800202069732073656C656374656452
:1051DC000A0000005072657373206D656E75206B4C
:1051EC0065790A00313E204C454420546573740A9D
:1051FC0000000000323E204B455920546573740A60
:10520C00000000002069732073656C65637465642D
:10521C000A0A00000000000000000000686A6C74BC
:10522C007A4C00000746FFF7DBF93846FFF7B6FF6C
:10523C00FBE70000783E20717569740A0A000000D3
:10524C000149FDF75BB800BFC409002080B5FFF72A
:10525C00AFFF012002BD00000000000000000000B4
:10526C0066616C7365000000747275650000000067
:10527C000000000000000000000000000000000022
:10528C0066616C7365000000747275650000000047
:10529C000403090401207047FFF7C4BF70472E00B8
:1052AC002E00FEE7FEE7FEE7FEE7FEE7FEE7FEE781
:1052BC00FEE7FEE7FEE7FEE7FEE7FEE7FEE7FEE7BA
:1052CC00FEE7FEE7FEE7FEE7FEE7FEE7FEE7FEE7AA
:1052DC00FEE7FEE7FEE7FEE7FEE7FEE7FEE7FEE79A
:1052EC00FEE7FEE7FEE7FEE7FEE7FEE7FEE7FEE78A
:1052FC00FEE7FEE7FEE7FEE7FEE7FEE7FEE7FEE77A
:10530C00FEE7FEE7FEE7FEE7FEE70000001CFC17E9
:10531C0053000804FC1753000808FCAC4B00085061
:10532C00B8165300081653000816530008165300FD
:10533C0008165300081653000816530008FFFFFF09
:10534C00FFFFFFFFFFAA5200081653000816530078
:10535C000816530008165300086C520008745200CB
:10536C0008165300081653000804E002040101D487
:10537C0007002024080020D4070020D4070020D4E4
:10538C00070020010A0020E809002020D8B92C00D1
:10539C0008F52C0008D52D0008D92D0008DD2D00AE
:1053AC00085D2E0008E52E00087D2E00088D2E00CD
:1053BC00089D2E000804FF4003D7B1450008A92D15
:1053CC000008B1450008B1450008B1450008B145D9
:1053DC000008B1450008B1450008C92D00089C52D1
:1053EC0000080403FB3C4E00082603FBB84E0008E3
:1053FC002003FB780A00201A03F11A03530054000F
:10540C004D003300320031003011EF010203040172
:10541C0002030406070809585100081203FB104E3A
:10542C0000082903FB78430008A203FB224E000866
:0F543C000903FA02040608020103FD060020001E
:04000005080050950A
:00000001FF
