:020000040800F2
:100000000000022071DF0008FDD70008FFD70008BC
:1000100001D8000803D8000805D800080000000037
:1000200000000000000000000000000007D80008E9
:1000300009D80008000000000BD800080DD80008FF
:10004000C1DF0008C1DF0008C1DF0008C1DF000810
:10005000C1DF0008C1DF0008C1DF0008C1DF000800
:10006000C1DF00081BD8000821D80008C1DF000844
:10007000C1DF0008C1DF0008C1DF0008C1DF0008E0
:10008000C1DF0008C1DF0008C1DF0008C1DF0008D0
:10009000C1DF0008C1DF0008C1DF0008C1DF0008C0
:1000A000C1DF0008C1DF0008C1DF0008C1DF0008B0
:1000B000C1DF0008C1DF0008C1DF0008C1DF0008A0
:1000C000C1DF0008C1DF0008C1DF0008C1DF000890
:1000D000C1DF0008C1DF0008C1DF000829D800081F
:1000E00035D80008C1DF0008C1DF0008C1DF000803
:1000F000C1DF0008C1DF0008C1DF0008C1DF000860
:10010000C1DF00084DD80008C1DF0008C1DF0008CA
:10011000C1DF0008C1DF0008C1DF000859D80008AE
:1001200065D80008C1DF0008C1DF000871D80008E9
:10013000C1DF0008C1DF0008C1DF0008C1DF00081F
:10014000C1DF0008C1DF0008C1DF0008C1DF00080F
:10015000C1DF00087DD80008C1DF0008C1DF00084A
:10016000C1DF0008C1DF0008C1DF0008C1DF0008EF
:10017000C1DF0008C1DF0008C1DF00080000000087
:08018000C1DF0008C1DF000827
:1001900010B5054C237833B9044B13B10448AFF3C1
:1001A00000800123237010BDE40100200000000046
:1001B000C00A010808B5034B1BB103490348AFF35C
:1001C000008008BD00000000E8010020C00A01080E
:1001D000034613F8012B002AFBD1181A0138704787
:1001E00001F0FF01102A2BDB10F0070F08D010F8E8
:1001F000013B013A8B422DD010F0070F42B3F6D1EC
:10020000F0B441EA012141EA014122F007047FF004
:1002100000070023F0E80256083C85EA010586EA5B
:10022000010685FA47F5A3FA87F586FA47F6A5FA97
:1002300087F68EB9EED1F0BC01F0FF0102F00702A3
:1002400032B110F8013B013A83EA010313B1F8D14E
:100250000020704701387047002D06BF354603382F
:10026000073815F0010F07D1013015F4807F02BF68
:10027000013015F4C03F0130F0BC0138704700BFB9
:1002800081F0004102E000BF83F0004330B54FEA47
:1002900041044FEA430594EA050F08BF90EA020FB4
:1002A0001FBF54EA000C55EA020C7FEA645C7FEA47
:1002B000655C00F0E2804FEA5454D4EB5555B8BF6A
:1002C0006D420CDD2C4480EA020281EA030382EADB
:1002D000000083EA010180EA020281EA0303362D6D
:1002E00088BF30BD11F0004F4FEA01314FF4801C40
:1002F0004CEA113102D0404261EB410113F0004F52
:100300004FEA03334CEA133302D0524263EB430308
:1003100094EA050F00F0A780A4F10104D5F1200EA6
:100320000DDB02FA0EFC22FA05F2801841F1000101
:1003300003FA0EF2801843FA05F359410EE0A5F1D5
:1003400020050EF1200E012A03FA0EFC28BF4CF006
:10035000020C43FA05F3C01851EBE37101F00045BC
:1003600007D54FF0000EDCF1000C7EEB00006EEBC9
:100370000101B1F5801F1BD3B1F5001F0CD3490853
:100380005FEA30004FEA3C0C04F101044FEA4452AA
:1003900012F5800F80F09A80BCF1004F08BF5FEA31
:1003A000500C50F1000041EB045141EA050130BD11
:1003B0005FEA4C0C404141EB010111F4801FA4F1B4
:1003C0000104E9D191F0000F04BF01460020B1FA09
:1003D00081F308BF2033A3F10B03B3F120020CDA41
:1003E0000C3208DD02F1140CC2F10C0201FA0CF01F
:1003F00021FA02F10CE002F11402D8BFC2F1200C84
:1004000001FA02F120FA0CFCDCBF41EA0C01904039
:10041000E41AA2BF01EB0451294330BD6FEA040482
:100420001F3C1CDA0C340EDC04F11404C4F120026D
:1004300020FA04F001FA02F340EA030021FA04F37F
:1004400045EA030130BDC4F10C04C4F1200220FAD6
:1004500002F001FA04F340EA0300294630BD21FA14
:1004600004F0294630BD94F0000F83F4801306BFDA
:1004700081F480110134013D4EE77FEA645C18BFCE
:100480007FEA655C29D094EA050F08BF90EA020F65
:1004900005D054EA000C04BF1946104630BD91EA5D
:1004A000030F1EBF0021002030BD5FEA545C05D160
:1004B0004000494128BF41F0004130BD14F580049F
:1004C0003CBF01F5801130BD01F0004545F0FE4113
:1004D00041F470014FF0000030BD7FEA645C1ABF48
:1004E000194610467FEA655C1CBF0B46024650EA7F
:1004F000013406BF52EA033591EA030F41F40021AB
:1005000030BD00BF90F0000F04BF0021704730B530
:100510004FF4806404F132044FF000054FF0000105
:1005200050E700BF90F0000F04BF0021704730B5C6
:100530004FF4806404F1320410F0004548BF40429B
:100540004FF000013EE700BF42004FEAE2014FEAF0
:1005500031014FEA02701FBF12F07F4393F07F4FCB
:1005600081F06051704792F0000F14BF93F07F4FFD
:10057000704730B54FF4607401F0004521F0004140
:1005800020E700BF50EA010208BF704730B54FF0C6
:1005900000050AE050EA010208BF704730B511F0CB
:1005A000004502D5404261EB41014FF4806404F103
:1005B00032045FEA915C3FF4DCAE4FF003025FEA85
:1005C000DC0C18BF03325FEADC0C18BF033202EB0D
:1005D000DC02C2F1200300FA03FC20FA02F001FA67
:1005E00003FE40EA0E0021FA02F11444C1E600BF06
:1005F00070B54FF0FF0C4CF4E06C1CEA11541DBFB9
:100600001CEA135594EA0C0F95EA0C0F00F0DEF883
:100610002C4481EA030621EA4C5123EA4C5350EA68
:10062000013518BF52EA033541F4801143F48013B9
:1006300038D0A0FB02CE4FF00005E1FB02E506F04A
:100640000042E0FB03E54FF00006E1FB03569CF09F
:10065000000F18BF4EF0010EA4F1FF04B6F5007FA5
:1006600064F5407404D25FEA4E0E6D4146EB060617
:1006700042EAC62141EA55514FEAC52040EA5E50A0
:100680004FEACE2EB4F1FD0C88BFBCF5E06F1ED84A
:10069000BEF1004F08BF5FEA500E50F1000041EB81
:1006A000045170BD06F0004646EA010140EA02002E
:1006B00081EA0301B4EB5C04C2BFD4EB0C0541EA50
:1006C000045170BD41F480114FF0000E013C00F365
:1006D000AB8014F1360FDEBF002001F0004170BD89
:1006E000C4F10004203C35DA0C341BDC04F11404A2
:1006F000C4F1200500FA05F320FA04F001FA05F22E
:1007000040EA020001F0004221F0004110EBD370FA
:1007100021FA04F642EB06015EEA430E08BF20EA26
:10072000D37070BDC4F10C04C4F1200500FA04F3C9
:1007300020FA05F001FA04F240EA020001F000415B
:1007400010EBD37041F100015EEA430E08BF20EACE
:10075000D37070BDC4F1200500FA05F24EEA020E16
:1007600020FA04F301FA05F243EA020321FA04F045
:1007700001F0004121FA04F220EA020000EBD370FC
:100780005EEA430E08BF20EAD37070BD94F0000FFC
:100790000FD101F00046400041EB010111F4801F30
:1007A00008BF013CF7D041EA060195F0000F18BFE1
:1007B000704703F00046520043EB030313F4801F1D
:1007C00008BF013DF7D043EA0603704794EA0C0FD7
:1007D0000CEA135518BF95EA0C0F0CD050EA4106ED
:1007E00018BF52EA4306D1D181EA030101F000416A
:1007F0004FF0000070BD50EA410606BF1046194692
:1008000052EA430619D094EA0C0F02D150EA01369D
:1008100013D195EA0C0F05D152EA03361CBF1046DE
:1008200019460AD181EA030101F0004141F0FE417D
:1008300041F470014FF0000070BD41F0FE4141F401
:10084000780170BD70B54FF0FF0C4CF4E06C1CEA01
:1008500011541DBF1CEA135594EA0C0F95EA0C0FB6
:1008600000F0A7F8A4EB050481EA030E52EA033571
:100870004FEA013100F088804FEA03334FF0805592
:1008800045EA131343EA12634FEA022245EA1115BF
:1008900045EA10654FEA00260EF000419D4208BF70
:1008A000964244F1FD0404F5407402D25B084FEA1D
:1008B0003202B61A65EB03055B084FEA32024FF4C9
:1008C00080104FF4002CB6EB020E75EB030E22BF26
:1008D000B61A754640EA0C005B084FEA3202B6EBE6
:1008E000020E75EB030E22BFB61A754640EA5C0095
:1008F0005B084FEA3202B6EB020E75EB030E22BF25
:10090000B61A754640EA9C005B084FEA3202B6EB25
:10091000020E75EB030E22BFB61A754640EADC00E4
:1009200055EA060E18D04FEA051545EA16754FEA46
:1009300006164FEAC30343EA52734FEAC2025FEA64
:100940001C1CC0D111F4801F0BD141EA00014FF0F3
:1009500000004FF0004CB6E711F4801F04BF0143C4
:100960000020B4F1FD0C88BFBCF5E06F3FF6AFAEE0
:10097000B5EB030C04BFB6EB020C5FEA500C50F170
:10098000000041EB045170BD0EF0004E4EEA1131F3
:1009900014EB5C04C2BFD4EB0C0541EA045170BDFA
:1009A00041F480114FF0000E013C90E645EA060E3E
:1009B0008DE60CEA135594EA0C0F08BF95EA0C0F6C
:1009C0003FF43BAF94EA0C0F0AD150EA01347FF4B4
:1009D00034AF95EA0C0F7FF425AF104619462CE78B
:1009E00095EA0C0F06D152EA03353FF4FDAE1046EE
:1009F000194622E750EA410618BF52EA43067FF43F
:100A0000C5AE50EA41047FF40DAF52EA43057FF4CE
:100A1000EBAE12E74FF0FF3C06E000BF4FF0010CD9
:100A200002E000BF4FF0010C4DF804CD4FEA410C3D
:100A30007FEA6C5C4FEA430C18BF7FEA6C5C1BD00A
:100A400001B050EA410C0CBF52EA430C91EA030F8B
:100A500002BF90EA020F0020704710F1000F91EAE8
:100A6000030F58BF994208BF90422CBFD8176FEAB6
:100A7000E37040F0010070474FEA410C7FEA6C5C84
:100A800002D150EA013C07D14FEA430C7FEA6C5C8B
:100A9000D6D152EA033CD3D05DF8040B704700BFB7
:100AA0008446104662468C461946634600E000BF05
:100AB00001B5FFF7B7FF002848BF10F1000F01BDD7
:100AC0004DF808EDFFF7F4FF0CBF012000205DF8A2
:100AD00008FB00BF4DF808EDFFF7EAFF34BF012027
:100AE00000205DF808FB00BF4DF808EDFFF7E0FFC0
:100AF00094BF012000205DF808FB00BF4DF808ED11
:100B0000FFF7CEFF94BF012000205DF808FB00BF77
:100B10004DF808EDFFF7C4FF34BF012000205DF859
:100B200008FB00BF4FEA410C7FEA6C5C02D150EA3F
:100B3000013C0AD14FEA430C7FEA6C5C02D152EAD5
:100B4000033C02D14FF0000070474FF001007047A6
:100B50004FEA410212F5001215D211D56FF47873E5
:100B6000B3EB625212D94FEAC12343F0004343EA88
:100B7000505311F0004F23FA02F018BF4042704763
:100B80004FF00000704750EA013005D111F00040ED
:100B900008BF6FF0004070474FF00000704700BF83
:100BA00053B94AB9002908BF00281CBF4FF0FF31D4
:100BB0004FF0FF3000F07AB9ADF1080C6DE904CECA
:100BC00000F006F8DDF804E0DDE9022304B0704728
:100BD0002DE9F0478C460D460446089E002B51D166
:100BE0008A4217466DD9B2FA82FEBEF1000F0BD0D1
:100BF000CEF1200C01FA0EF520FA0CFC02FA0EF7E9
:100C00004CEA050C00FA0EF44FEA174A250CBCFB1F
:100C1000FAF81FFA87F90AFB18CC45EA0C4508FBDD
:100C200009F3AB420AD9ED1908F1FF3280F02381B4
:100C3000AB4240F22081A8F102083D44ED1AA4B273
:100C4000B5FBFAF00AFB105544EA054400FB09F92C
:100C5000A14509D9E41900F1FF3380F00A81A145CB
:100C600040F2078102383C44A4EB090440EA084002
:100C70000021002E61D024FA0EF40023346073604A
:100C8000BDE8F0878B4207D9002E54D0002186E8BA
:100C900021000846BDE8F087B3FA83F1002940F04F
:100CA0008E80AB4202D3824200F2FA80841A65EB56
:100CB00003050120AC46002E3FD086E81010BDE8A9
:100CC000F08712B90127B7FBF2F7B7FA87FEBEF13A
:100CD000000F34D1EB1B3A0C1FFA87FC0121B3FB48
:100CE000F2F8250C02FB183345EA03450CFB08F328
:100CF000AB4207D9ED1908F1FF3002D2AB4200F246
:100D0000D1808046ED1AA3B2B5FBF2F002FB10557C
:100D100043EA05440CFB00FCA44507D9E41900F1A3
:100D2000FF3302D2A44500F2B8801846A4EB0C04AD
:100D300040EA08409DE731463046BDE8F087CEF1F5
:100D4000200405FA0EF307FA0EF720FA04F83A0C1D
:100D500025FA04F448EA0308B4FBF2F14FEA184517
:100D600002FB11441FFA87FC45EA044501FB0CF322
:100D7000AB4200FA0EF409D9ED1901F1FF3080F011
:100D80008A80AB4240F2878002393D44EB1A1FFA59
:100D900088F5B3FBF2F002FB103345EA034500FB94
:100DA0000CF3AB4207D9ED1900F1FF386FD2AB421B
:100DB0006DD902383D44EB1A40EA01418FE7C1F199
:100DC000200722FA07F88B4005FA01F448EA0303EA
:100DD00020FA07FE4FEA134CFD404EEA040EB5FB25
:100DE000FCF94FEA1E440CFB19551FFA83F844EA3C
:100DF000054509FB08F4AC4202FA01F200FA01FAD7
:100E000008D9ED1809F1FF3043D2AC4241D9A9F11C
:100E100002091D442D1B1FFA8EFEB5FBFCF00CFBD6
:100E200010554EEA054400FB08F8A04507D9E41820
:100E300000F1FF3529D2A04527D902381C4440EAE9
:100E40000940A4EB0804A0FB02894C45C6464D4668
:100E500015D312D056B1BAEB0E0364EB050404FAB5
:100E600007F7CB401F43CC40376074600021BDE8DA
:100E7000F0871846F8E69046E0E6C245EAD2B8EBBD
:100E8000020E69EB03050138E4E72846D7E7404640
:100E900091E78146BEE7014678E702383C4445E7E2
:100EA000084608E7A8F102083D442BE7704700BF59
:100EB00038B50E4A0E4B054618784FF47A73B3FBDB
:100EC000F0F31068B0FBF3F000F0A6FA044658B94E
:100ED0000F2D09D8024629464FF0FF3000F05CFA8A
:100EE000044B20461D6038BD012038BD1000002095
:100EF000000000200400002008B50B4B1A6842F4E3
:100F000000721A601A6842F480621A601A6842F429
:100F100080721A60032000F02DFA0020FFF7C8FF4E
:100F20000CF024FC002008BD003C0240034A044BA6
:100F300011681B780B441360704700BFC805002080
:100F400000000020014B1868704700BFC805002052
:100F500038B50446FFF7F6FF631C1CBF054B1B7832
:100F6000054618BFE418FFF7EDFF401B8442FAD88E
:100F700038BD00BF0000002010B50446002800F076
:100F80009980036C23B9436480F83C300BF042FB3A
:100F9000236CDB0600F18C80236C23F4885323F050
:100FA000020343F002032364434B5A6822F44032A5
:100FB0005A605A6861680A435A60236821695A680E
:100FC00022F480725A605A6842EA01225A605A68D2
:100FD000A16822F040725A605A680A435A609A68BF
:100FE000E16822F400629A609A680A439A60334981
:100FF000A26A8A4250D0996821F07061996099681C
:101000000A439A609A68E16A22F040529A609A68AC
:101010000A439A609A68A16922F002029A609A686B
:1010200042EA41029A60226A002A3DD05A68616A07
:1010300042F400625A605A6822F460425A605A6868
:10104000013942EA41325A60DA6AE16922F47002F7
:10105000DA62DA6A013942EA0152DA629A68216B8D
:1010600022F400729A609A6842EA41229A609A6871
:10107000616922F480629A609A68002042EA8122C3
:101080009A606064236C23F0030343F0010323643C
:10109000002384F83C3010BD9A6822F070629A6098
:1010A0009A6822F04052B4E75A6822F40062CAE714
:1010B0000120EDE7012010BD002301400100000FD9
:1010C00037B513460022019290F83C20012A0446CD
:1010D00065D00568012280F83C20AA68D20705D5B2
:1010E000AA68D00715D4002003B030BDAA6842F02A
:1010F0000102AA602B4A10682B4AB0FBF2F000EB09
:1011000040000190019A002AEAD0019A013A019226
:10111000F8E7206C20F4E06020F0010040F48070DB
:1011200020646A68520541BF206C20F4405040F4AE
:1011300080502064226CA06B12F480521CBF626C41
:1011400022F006026264002284F83C20174AC2633F
:10115000174A0264174AC2646FF022022A606A6862
:1011600042F080626A60AA6842F48072AA600A460D
:1011700005F14C0100F00CFA0F4B5B6813F01F0FE8
:10118000236808D1986810F04050ACD19A6842F0BA
:1011900080429A60A8E7094A9342A4D1F2E702206C
:1011A000A2E700BF1000002040420F00C31100085A
:1011B00025120008311200080023014000200140E0
:1011C0007047836B1A6C12F0500F10B524D11A6C53
:1011D00042F400721A641A68916811F0405F17D1E6
:1011E0009969A9B9D16A11F4700F02D091684905C3
:1011F0000ED4516821F0200151601A6C22F48072E3
:101200001A641A6CD2045EBF1A6C42F001021A64AE
:101210001846FFF7D5FF10BD9B6BBDE81040DB6C97
:101220001847704708B5806BFFF7FBFF08BD704794
:10123000806B08B540230364436C43F004034364AC
:10124000FFF7F5FF08BD0000F7B50023019390F804
:101250003C30012B00F083800D6804688A6801230C
:10126000092D80F83C30AEB22AD906EB4603E76878
:101270001E3B4FF0070E0EFA03FE27EA0E07E7604B
:10128000E76802FA03F33B43E3604A68062A4FEA41
:10129000820325D81344676B591F1F238B4027EA0D
:1012A00003036363626B06FA01F1114361632D4B23
:1012B0009C4234D0002380F83C30184603B0F0BD87
:1012C000276905EB45034FF0070E0EFA03FE27EAE8
:1012D0000E072761276902FA03F33B432361D4E732
:1012E0000C2A0ED81344216BA3F123021F23934031
:1012F00021EA03032363236B06FA02F21A432263F3
:10130000D5E71344E16A413B1F229A4021EA0202D9
:10131000E262E26A06FA03F11143E162C7E7122DC5
:1013200004D1114A536843F480035360A5F11003BC
:10133000012BBFD80C4A5368102D43F400035360AF
:10134000B8D10A4B0A4A1B68B3FBF2F20A23534393
:101350000193019B002BADD0019B013BF8E70220DC
:10136000ACE700BF00200140002301401000002036
:1013700040420F00074AD36823F4E0631B041B0CB0
:1013800043F0BF63000243F4003300F4E060034322
:10139000D360704700ED00E0174B30B5DC68C4F354
:1013A0000224C4F10703251D042B28BF0423062DA6
:1013B0004FF0010505FA03F303F1FF338CBF033C43
:1013C00000241940A14005FA04F4013C2240002801
:1013D00042EA01024FEA0212AFBF00F1604000F0A2
:1013E0000F00064BD2B2A5BF00F56140D2B21A542D
:1013F00080F8002330BD00BF00ED00E014ED00E0F8
:101400004209012300F01F0003FA00F0014B43F8EA
:101410002200704700E100E00138B0F1807F0AD27D
:10142000064B074A5860F02182F82310002007225B
:1014300098601A6070470120704700BF10E000E01C
:1014400000ED00E0044B1A6804280CBF42F00402CF
:1014500022F004021A60704710E000E0704708B5FF
:10146000FFF7FCFF08BD00000368DAB223F47F73C6
:1014700023F003031821103AB2FBF1F20449032AC6
:1014800088BF0433895C8365C165806D704700BF88
:101490000C0B010870B50446FFF754FD0546002CFF
:1014A00071D0002384F834302268022384F8353068
:1014B000136823F00103136021680B68D8073CD43C
:1014C0000B68324D6268A0691D40A3681343E2684F
:1014D00013432269134362691343E26903431343CD
:1014E000226A1343626A042A43EA050301BF266B9A
:1014F000E56A35432B430B604B69042A23F007034D
:1015000043EA02030BD1A26AE56A13433DB1F8B97D
:10151000012A2DD001D3022A01D1EA012BD44B613B
:101520002046FFF7A1FFE26D3F2393408360002038
:101530000123606584F8353070BDFFF703FD401B63
:101540000528B9D920236365032084F8350070BDD0
:10155000B0F5005F13D1032AE1D801A050F822F0C2
:10156000771500081B15000877150008711500088D
:10157000B5F1C07FD3D1402363650120E5E7022A9E
:10158000F9D9032AC8E7012070BD00BF3F8010F0E1
:1015900070B590F83440012C36D0012480F83440E6
:1015A00090F83540866D012C4FF000054FF0020495
:1015B00028D180F8354004684565256825F48025E4
:1015C000256063608368402B0EBFA260A160E2606B
:1015D000C26D08BFE1603F239340B360236843F0CE
:1015E00016032360636943F080036361036C1BB1DE
:1015F000236843F008032360236843F0010323605A
:10160000002070BD80F83450022070BD90F8353055
:10161000022B03D080234365012070470268052315
:1016200080F83530136823F0010313600020704701
:10163000F7B5002301935A4B856D1F68C36D2E6863
:1016400008229A40164204460CD0016808684007F8
:1016500008D5086820F004000860AA60626D42F0B6
:101660000102626501229A40164208D02168496948
:10167000090641BFAA60626D42F00202626504225F
:101680009A40164208D021680968880741BFAA60BD
:10169000626D42F00402626510229A40164210D038
:1016A0002368196809070CD5AA601A68500335D554
:1016B0001B68190301D4236C00E0A36C0BB1204616
:1016C0009847E16D20228A40164238D02368186876
:1016D000C60634D5AA6094F83520052A1A6825D1A3
:1016E00022F016021A605A6922F080025A61226CB6
:1016F0000AB9A26C1AB11A6822F008021A603F23D4
:101700008B40AB60002384F83430012384F83530FB
:10171000236D0BB12046984703B0F0BD1A68D2057F
:101720005EBF1A6822F008021A60C4E7500328D589
:101730001B68190332D4636C0BB120469847636D64
:10174000002BE9D0636DDA0719D50523226884F8E8
:101750003530136823F0010313604FF41653B7FBC1
:10176000F3F7019B01339F42019302D31368DB0718
:10177000F7D4002384F83430012384F83530E36C47
:10178000C7E71A6812F4807208D1196821F01001B5
:101790001960012384F8342084F83530E36BCBE7FB
:1017A0001000002082B0074B4FF4FA521B68B3FBC5
:1017B000F2F3019300BF019B5A1E0192002BF9D155
:1017C00002B070471000002007B50023019341F2DA
:1017D000180103685A5842F480125A505B5801931A
:1017E000FFF7E0FF019A03685A5003B05DF804FB6D
:1017F00070B5044629B14FF40063C3604FF48043D1
:101800008360E3692268E0681568002BA36843EAF7
:101810000003304843F4007300EA05000CBF4FF4A6
:101820008061002103430B43136001201568FFF71B
:101830008FFB236840221D6001205A605D68FFF71E
:1018400087FB23685D6000259D60DD609A6922F05A
:10185000BE021204120C42F080029A6101209E69BD
:10186000FFF776FB236801209E61DD61DD69FFF7EC
:101870006FFB2268184BD56141F2180501205159C0
:101880000B4043F0087343F0040353515659FFF7DC
:101890005FFB2368114A5E5103F5805301201A60F3
:1018A0001D68FFF755FB226802F580531D60A36990
:1018B000012B07D141F21C01535843F4803343F00C
:1018C000400353506369064A998811601A68054BB2
:1018D0001A6070BD0F8120FF233FDEF88020C10217
:1018E0004080024044800240F0B590F84540012C11
:1018F0004FF0020433D0012580F8455080F8444071
:10190000C16201F1200400254FF4801740F2F45E1B
:1019100003F1FF3C9D420BD1026841F21003D1500C
:10192000012380F84430002380F845301846F0BD8C
:101930000EFB052644F8186CC66944F8207C2EB9C5
:1019400054F8206C46F4400644F8206C65452CBFE2
:101950000E46264644F8146C01352034DAE720465A
:10196000F0BD2DE9F04190F84540012C4FF0020404
:1019700030D0012580F8455080F84440816201F163
:10198000200400254FF0004644F2F45740F2F45E84
:1019900003F1FF3C9D420CD1026841F20C03D1508F
:1019A000012380F84430002380F845301846BDE814
:1019B000F0810EFB052844F8188C65452CBF88463D
:1019C000A04644F8206C44F81C7C44F8148C013583
:1019D0002034DFE72046BDE8F081000090F8453074
:1019E000012BF0B54FF0020368D0012280F84520AA
:1019F00080F8443029B980F8442080F8451010461A
:101A0000F0BDC36A1C68002C06DA122380F844304B
:101A1000002380F84530F2E740F2F454A1422ED979
:101A2000B1FBF4F204FB12143CB30132244C01F27A
:101A3000F45104FB0211C1F30C01002440F2F456EE
:101A4000571E1D6825F040551D601CB91D6845F0E6
:101A500080551D60A74208BF1D685E6004BF45F049
:101A600000551D601D6808BF5960013445F00045F0
:101A700094421D60DB68E4D10DE0012AD6D11A68DA
:101A800042F040521A601A68C1F30C0142F0004261
:101A900059601A60DB68C36241F214020368995806
:101AA000490705D50421995041F2040200219950BB
:101AB000012380F84430002380F845301846F0BDFB
:101AC0000CFAFFFF90F84530012B30B54FF00203C0
:101AD00023D080F84430836A1A680124002A80F8F1
:101AE000454027DB1A68D96812F4807217D0826BE0
:101AF00043632244A24208BF03631B688263C3F3AB
:101B00000D43043BC363036B9B680364012380F8AC
:101B100044300023816280F84530184630BD1D688E
:101B20008162AD0555BF836B0363013342634CBFD4
:101B3000846383630123002280F8443080F84520C9
:101B4000EBE7F8B590F84430822B0546164630D0C6
:101B50000268822380F844301369890101F4F86433
:101B600003F01C012143048AE402A4B20C4344F0B4
:101B700001041461FFF7E6F9074614F0010007D1EC
:101B80002B685B699BB23360012385F84430F8BD54
:101B9000FFF7D8F9C01BB0F5803F07D3012385F8C4
:101BA0004430002385F845300320F8BD2B681C69BC
:101BB000E3E70220F8BD90F84430422B70B50546AB
:101BC0002ED0422380F8443003688C01186904F455
:101BD000F86444F0030400F01C0020432C8AE40263
:101BE000A4B2044392B25A611C61FFF7ABF90646F6
:101BF00014F0010003D1012385F8443070BDFFF7D4
:101C0000A1F9801BB0F5803F07D3012385F844304C
:101C1000002385F84530032070BD2B681C69E7E779
:101C2000022070BDF7B5002300930446002800F0A1
:101C3000DE8090F8443003F0FF021BB980F84520A5
:101C40000AF008FE002301936A4B5A6C42F480426A
:101C50005A645B6C03F480430193019B664B5A68A2
:101C600022F400025A605A68216A0A435A602368C3
:101C700003F580531A6842F001021A60FFF762F917
:101C80000546236803F580521268D0071DD41D69EC
:101C900000F012FF594B5A4A0344934225F01C05A9
:101CA00022D845F0080523684FF400421D61002149
:101CB0002046FFF780FF054668B301212046012535
:101CC000FFF796FD84F844500BE0FFF73BF9401B0B
:101CD000B0F5FA7FD5D90325002384F8445084F861
:101CE0004530284603B0F0BD464B474A0344934273
:101CF00002D845F00C05D6E7444B454A03449342CD
:101D0000D1D9444B444A0344934294BF45F004055F
:101D100045F01005C7E7FF20FFF71AF96368002BAD
:101D200053D0FFF70FF941F2883706466A46012182
:101D30002046FFF706FFFFF705F9801BB8420BD9D5
:101D400001212046FFF754FD012384F8443000238D
:101D500084F845300325C4E7009B5907E6D54FF4C6
:101D6000805200212046FFF726FF0028A5D1FFF76B
:101D7000E9F841F2883706466A4601212046FFF716
:101D8000E0FEFFF7DFF8801BB842D9D8009B9A0627
:101D9000F2D56A4610212046FFF7D3FE00288CD1E9
:101DA000009B13F0040218BF4FF400629B074CBF66
:101DB00000234FF48043E260A36000212046FFF738
:101DC00017FD012384F844308BE7A368E2685B08C1
:101DD00043EAD20292B229462046FFF7ECFE0028E1
:101DE0007FF46BAF40F6FF70FFF7B2F8E5E701252F
:101DF00077E700BF003802400038014000D3CEFE34
:101E0000BFE1E40040F1E9FD3F787D0100796CFC21
:101E1000FF596202001F0AFA7FF0FA0290F845307B
:101E2000012B73B505464FF0020031D000242B681A
:101E300085F8440001941A68012642F0080285F8EA
:101E400045601A601B680193FFF7ACFC2B68019A90
:101E50001A6000941A6842F004021A601B6800932A
:101E6000FFF7A0FC2B68009A1A602846FFF7ACFC2D
:101E70002A6841F218032046D15841F40051D1504C
:101E8000D15841F00201D15085F8446085F84540B1
:101E900002B070BD2DE9F04F85B00B68DFF8AC8162
:101EA000684ADFF8AC91019300234FF0010E019CCA
:101EB0000EFA03FE0EEA0406B64540F0AE804C680A
:101EC00024F01007022F16D14FEAD30A00EB8A0A3A
:101ED00003F0070BDAF820504FEA8B0B4FF00F0C92
:101EE0000CFA0BFC25EA0C0C0D6905FA0BF545EA1A
:101EF0000C05CAF820504FEA430A0325D0F800B079
:101F000005FA0AF5ED4304F0030C0BEA050B0CFA95
:101F10000AFC013F4CEA0B0C012FC0F800C011D89D
:101F2000876807EA050BCF6807FA0AFC4CEA0B073B
:101F30008760476827EA0E0EC4F300179F4047EA00
:101F40000E074760C7683D408F6807FA0AF73D43B0
:101F5000C560E50061D54FF0000BCDF80CB0D8F8A6
:101F60004470394D47F48047C8F84470D8F844703D
:101F700007F480470397039F23F0030707F1804787
:101F800007F59C3703F0030CD7F808A04FEA8C0C38
:101F90004FF00F0E0EFA0CFEA8422AEA0E0E43D0A6
:101FA00005F58065A84241D005F58065A8423FD07F
:101FB00005F58065A8423DD005F58065A8423BD077
:101FC00048453BD005F50065A84239D005F5806548
:101FD000A84214BF0825072505FA0CF545EA0E05A9
:101FE000BD601568F74314F4803F0CBF3D40354396
:101FF0001560556814F4003F0CBF3D4035435560F3
:10200000956814F4801F0CBF3D4035439560D5683A
:10201000A40254BF3D403543D5600133102B7FF4FB
:1020200044AF05B0BDE8F08F5D46D5E70125D3E7A5
:102030000225D1E70325CFE70425CDE70525CBE72A
:102040000625C9E7003C014000000240003802407C
:10205000001402400369194214BF01200020704798
:102060000AB1816170470904FBE7000008B5044B21
:102070005969014202D058610BF0A2F908BD00BFB6
:10208000003C01400268536913F480630DD06FF483
:10209000806353610423036420220023036380F8D8
:1020A0003C3080F83D2001207047184670472DE9EC
:1020B000F843044617469946C1F307488EB225688F
:1020C000B8F1010F0CBF6B69AB6936EA030314BFAB
:1020D0000120002008B9BDE8F8836B695A0512D5C4
:1020E0002B6843F400732B606FF480636B610423EF
:1020F000236420220023236384F83C3084F83D20AD
:102100000120BDE8F8837B1CD9D04FB900232022E1
:10211000236384F83C3084F83D200320BDE8F88335
:10212000FEF710FFA0EB09008742C8D2EEE72DE9C9
:10213000F843089E044690461F46C1F307498DB2F6
:102140002368B9F1010F0CBF5B699B6935EA030392
:102150000CBF01230023434502D00020BDE8F883D3
:102160007B1CEDD05FB900232022236384F83C3030
:1021700084F83D20032084F83E30BDE8F883FEF764
:10218000E1FE801B8742DBD2EDE770B504460D46C9
:10219000164623685B691B0601D5002070BD2046EA
:1021A000FFF770FFA8B96A1CF3D065B9236C43F040
:1021B0002003236420220023236384F83C3084F826
:1021C0003D20032070BDFEF7BDFE801B8542E0D29E
:1021D000ECE7012070BD00002DE9FF41984603683F
:1021E0000B9D16461A6842F480621A601A6842F41F
:1021F00080721A600F4600950A9B00224FF0011171
:102200000446FFF794FF80B923682F49FFB207F017
:10221000FE021A6120462B460A9AFFF748FF40B19A
:10222000236C042B01D1012000E0032004B0BDE8A1
:10223000F081236803905A6903929B6903932A46AD
:102240000A99039B2046FFF7A0FF40B1236C042BA3
:10225000EBD12268136843F400731360E3E7B8F12D
:10226000010F236824D1F6B21E612A460A9920463E
:10227000FFF78BFF02460028E8D121680B6843F482
:1022800080730B60204600950A9B4FF00111FFF709
:102290004EFF0028C9D123680A9A0B4947F001076D
:1022A0001F6120462B46FFF702FF0028B8D1BDE78B
:1022B000320A1A610A992A462046FFF766FF00286B
:1022C000C4D12368CFE700BF0200010070B5044607
:1022D0000D4616462068436913F0400301D00020E4
:1022E00070BD4269D2060BD56FF010024261202208
:1022F000236484F83C302363012084F83D2070BDC2
:102300005DB9236C43F020032364202384F83D301F
:10231000002384F83C30032070BDFEF713FE801BC1
:102320008542D7D2EDE7000070B50446002862D0A0
:1023300090F83D3003F0FF021BB980F83C200AF012
:10234000ADFC22682D4E2E4D242384F83D301368B9
:1023500023F00103136000F0B5FB63682268B0FB53
:10236000F5F5B34284BF4FF496716943556091BF50
:10237000691C4FF47A75B1FBF5F10131B34211627A
:1023800021D85B00B0FBF3F0C0F30B03032B98BF25
:102390000420216AE369D0610B431360E16823697B
:1023A0000B439360A16963690B43D360136843F0E7
:1023B0000103136000202023206484F83D30206353
:1023C00084F83E0070BDA16849B903EB4303B0FB3C
:1023D000F3F0C0F30B0363B140F40040D9E71921D7
:1023E0004B43B0FBF3F0C0F30B0313B140F4404098
:1023F000CFE70120CDE7012070BD00BFA08601001E
:1024000040420F002DE9F047044686B09A460D463B
:102410009146109FFEF796FD94F83D30202B06461E
:1024200004D00225284606B0BDE8F08700901923A5
:10243000012279492046FFF77AFE0028F1D194F86D
:102440003C30012BEDD0012384F83C3023681A681E
:10245000D2075EBF1A6842F001021A601A6822F4BD
:1024600000621A60222384F83D30402384F83E3015
:102470000E9B63624FF00008BDF83C30C4F840800A
:102480006385664BE362638D238529460196009739
:1024900053464A462046FFF79FFE054630B1236C5F
:1024A00084F83C80042B3AD10125BBE7228D2368B8
:1024B00092B902905A6902929A690292029A1A6833
:1024C00042F400721A60202384F83D30002384F81F
:1024D0003E3084F83C30A5E7012A22D11A6822F464
:1024E00080621A6003905A6903929A690392039A70
:1024F0001A6842F400721A60DFF82481238D002BE1
:10250000E1D0032B6BD8012B23D13246394620462C
:10251000FFF7DCFE002839D0236C202BC4D1032523
:1025200080E7022A0ED11A6822F480621A601A68C3
:1025300042F400621A6004905A6904929B69049301
:10254000049BD9E705905A6905929B690593059B01
:10255000D2E7022B00963B464FF000024146204650
:1025600022D1FFF7E4FD0028D9D123681A6842F48C
:1025700000721A60626A1B69511C61621370238DBC
:10258000013B2385638D013B9BB26385636A5A1CC3
:102590006262226812691A70238D013B2385638D64
:1025A000013B9BB26385A9E7FFF7C1FD0246002806
:1025B000B5D12368196821F480611960616A1B69CB
:1025C000481C60620B70238D0096013B2385638D50
:1025D000013B9BB2638541463B462046C1E73246FC
:1025E00039462046FFF772FE002895D1636A5A1CCF
:1025F0006262226812691A70238D2268013B23856A
:10260000638D013B9BB2638553695B077FF576AFB2
:10261000636A591C6162BDE7020010000000FFFF01
:10262000040001002DE9F341044618B9012002B06D
:10263000BDE8F0810368DD0710D42368980758D4FB
:1026400023681A0700F19A8023685B0700F1B880BD
:10265000A269002A40F019810020E8E7A64B9A6899
:1026600002F00C02042A07D09A6802F00C02082A31
:102670000AD15B68590207D59F4B1B689A03DCD5CA
:102680006368002BD9D1D1E763689B4DB3F5803FD8
:1026900011D12B6843F480332B60FEF753FC964D29
:1026A00006462B689B03C8D4FEF74CFC801B6428AD
:1026B000F7D90320BBE7B3F5A02F04D12B6843F46F
:1026C00080232B60E5E72A6822F480322A602A689A
:1026D00022F480222A60002BDFD1FEF733FC06466D
:1026E0002B689F03A9D5FEF72DFC801B6428F7D922
:1026F000DFE7814B9A6812F00C0F07D09A6802F05E
:102700000C02082A11D15B685E020ED47A4B1A685B
:10271000950702D5E268012A88D11A68216922F05A
:10272000F80242EAC1021A608AE7E268734BB2B16A
:1027300001221A60FEF706FC6F4D06462B689807CB
:1027400007D52B68226923F0F80343EAC2032B6004
:1027500076E7FEF7F7FB801B0228EFD9A9E71A609E
:10276000FEF7F0FB644D06462B6899077FF568AFCE
:10277000FEF7E8FB801B0228F6D99AE76269604BF6
:102780007AB101221A60FEF7DDFB5B4D06466B6FE6
:102790009F073FF559AFFEF7D5FB801B0228F6D9FE
:1027A00087E71A60FEF7CEFB534D06466B6F98071E
:1027B0007FF54AAFFEF7C6FB801B0228F6D978E703
:1027C0004D4B1A6C12F0805228D101921A6C42F0D3
:1027D00080521A641B6C03F080530193019B012605
:1027E000484D2B68D9051BD5A368434D012B27D134
:1027F0002B6F43F001032B67FEF7A4FB3E4D07460A
:1028000041F288382B6F9B0739D5002E3FF420AF5B
:10281000394A136C23F08053136419E70026DFE76D
:102820002B6843F480732B60FEF78CFB07462B6804
:10283000DA05D9D4FEF786FBC01B0228F7D938E7A2
:10284000052B04D12B6F43F004032B67D0E72A6FCD
:1028500022F001022A672A6F22F004022A67002B65
:10286000CAD1FEF76FFB41F2883807462B6F9807F5
:10287000CBD5FEF767FBC01B4045F7D919E7FEF73C
:1028800061FBC01B4045BDD913E71B4DAB6803F08E
:102890000C03082B3FF4CAAE1B4E0023022A336000
:1028A00034D1FEF74FFB07462B6899011ED4226AEC
:1028B000E3691343626A43EA8213E26A43EA02630A
:1028C000A26A0D4C5208013A43EA02436B600123AD
:1028D0003360FEF737FB054623689A013FF5BCAE2F
:1028E000FEF730FB401B0228F6D9E2E6FEF72AFB92
:1028F000C01B0228D8D9DCE600380240000047425D
:10290000800E47420070004060004742FEF71AFB0D
:1029100004462B689B017FF59FAEFEF713FB001B5F
:102920000228F6D9C5E600BF134908B58B6803F045
:102930000C03042B03D0082B03D0104808BD10480B
:1029400008BD4A684B68496813F4800314BF0C48FB
:102950000A48C1F3881118BF002302F03F02A1FB0F
:102960000001FEF71DF9044B5B68C3F3014301331B
:102970005B00B0FBF3F008BD003802400024F40017
:1029800000127A002DE9F0410D46044610B90120ED
:10299000BDE8F081444B1A6802F00F028A4228D346
:1029A00021688F072DD4C80740D43F4B1A6802F026
:1029B0000F02954266D3226851076CD4130707D5DE
:1029C0003A4A2169936823F4604343EAC103936060
:1029D000FFF7AAFF354B364A9B68C3F30313D35C5A
:1029E000D840344B18600020FEF762FA0020BDE8A2
:1029F000F081CAB21A701B6803F00F039942C6D166
:102A0000CEE72A4B11F0040F1EBF9A6842F4E05241
:102A10009A600E0742BF9A6842F460429A609A68D0
:102A2000A06822F0F00202439A60BCE762681F4B84
:102A3000012A1DD11B6813F4003FA8D01B4EB368B8
:102A400023F003031343B360FEF77CFA41F28838A6
:102A50000746B368626803F00C03B3EB820FA4D09F
:102A6000FEF770FAC01B4045F3D90320BDE8F081A2
:102A7000911E01291B6802D813F0007FDDE713F0D7
:102A8000020FDAE7EAB21A701B6803F00F039D42E7
:102A90007FF47DAF8FE70549E0688B6823F4E0534E
:102AA00003438B608AE700BF003C024000380240CD
:102AB0000F25010810000020014B1868704700BF67
:102AC00010000020044B054A9B68C3F38223D35CAB
:102AD000034A1068D8407047003802401F2501089B
:102AE00010000020044B054A9B68C3F34233D35CBB
:102AF000034A1068D8407047003802401F2501087B
:102B000010000020836B1A68D36B43F48073D36387
:102B100070472DE9F04389B005460E46FEF712FADC
:102B200000238146082128680093019301F063FE89
:102B3000044640BB296D2868090401F067FF04467C
:102B400008BB4FF0FF330293082303933023049311
:102B5000022305930690012302A92868079301F038
:102B600037FE286801F083FF044660B9074640F24B
:102B70002A482868436B13EA080F436B07D01907EC
:102B800018D508248463204609B0BDE8F0839B0271
:102B900007D501F05FFD08AB03EB8703013743F86E
:102BA000200CFEF7CFF9A0EB09000130E1D14FF086
:102BB0000044E8E7436B9A0701D50224E2E7436B40
:102BC0009B0601D52024DDE740F2FF538363009B81
:102BD0001BBA7360019B1BBA3360D4E72DE9F04345
:102BE000164687B0054698460A4639B9836B43F0C6
:102BF0000063AB63012007B0BDE8F08390F83400B8
:102C0000C4B2012C68D1EF6D06EB08000023B84276
:102C1000AB6303D9AB6B43F00073EAE72F68032182
:102C200085F83410FB62F86B2C4940F49570F8631A
:102C3000E86B4FEA4829C1632949C164036507F17C
:102C400080014FEA9903FEF7A3FC264B28681C601D
:102C50006B6C012B4FF0FF338DE808024FF09003AF
:102C600002934FF00203039369464FF000034FF0C5
:102C7000010418BF76020493059401F0A9FD4FF4F6
:102C80000071286801F0B7FD48B12B6840F2FF528F
:102C90009A63AB6B1843A86385F83440AAE7B8F190
:102CA000010F12D982232B633146286801F0D3FD2E
:102CB0000028A0D02B6840F2FF529A63AB6B1843F8
:102CC000A863012085F8340095E781232B63314602
:102CD000286801F0A8FDEBE702208CE7EB2D000847
:102CE000493300088C8525422DE9F041044686B021
:102CF00015461E460F4639B9836B43F00063836364
:102D0000012006B0BDE8F08190F83400C0B201287F
:102D100062D1E16DEB1800228B42A26304D9A36B50
:102D200043F00073A363ECE720682C49032384F885
:102D30003430C262C36B43F01A03C363236CD9639C
:102D40002749D9641A65636C4FF40071012B18BFD1
:102D50006D0201F050FD50B1236840F2FF529A63BA
:102D6000A36B1843A063012084F83400C9E7012E47
:102D70000FD9A02323632946206801F09CFD054656
:102D8000226868B140F2FF539363A06B0543A563CB
:102D9000E9E7902323632946206801F074FDEEE7FC
:102DA000104B206C4FF001087602C3F8008080328F
:102DB000B3083946FEF7ECFB4FF0FF338DE84800CF
:102DC000694690232068029303950495CDF81480FA
:102DD00001F0FEFC284694E7022092E7052B00084C
:102DE000493300088C852542704710B5846B236BEE
:102DF000822B09D1206801F077FD28B1A36B18431D
:102E0000A0632046FFF7F0FF2368DA6A22F0080289
:102E1000DA6240F2FF529A63012384F8343020468C
:102E200009F099FC10BD436E9A0F0A70C3F38362D8
:102E30004A70C3F301628A70C3F30742CA70C3F3D6
:102E40000722DBB20A714B71836E1A0E1201CA801F
:102E5000CA8830B592B2C3F303542243CA80C3F385
:102E600003420A72C3F30722D4094C72C2F38014DE
:102E70008C72C2F34014CC72C2F300140C730024A1
:102E80004C73446C002C40F08380920202F4406248
:102E90000A610A699B0003F47F7313430B61C26EDE
:102EA0000B6943EA92730B61C2F3C2630B75C2F301
:102EB00002634B75C2F342538B75C2F38243CB75E9
:102EC000D30B03F006030B760C7EC2F30723C2F389
:102ED000C03222430A760A690C7E01320234A240D3
:102EE00042650D7A0124AC408465640A6243C26580
:102EF0004FF400720266C3F380125B0003F07E039E
:102F00004A768B76C36E8A7EC3F3C014224303F0E5
:102F10007F038A76CB76036FDA0F0A77C3F34172A9
:102F20004A77C3F382628A779A0D02F00C02CA775D
:102F3000CA7FC3F381500243CA77C3F3405281F87A
:102F400020200020C3F3004281F8210081F82220D4
:102F5000C3F3C03281F82320C3F3803281F82420E8
:102F6000C3F3403281F82520C3F3003281F82620D4
:102F7000C3F3812281F82720C3F30122C3F3460360
:102F800081F8282081F82930012381F82A3030BDCA
:102F9000012C1AD11B0403F47C130B61C36E0A6964
:102FA0001C0E42EA04220A610C69C3F30742224361
:102FB0000A610A69920202F580624265C2654FF4B5
:102FC0000072C3F30723826594E7036840F2FF525F
:102FD0009A63836B43F080538363012380F834301A
:102FE000184630BDF0B599B0002576230C930A95AC
:102FF0000B950AAB044693E807008DE807006F4E77
:1030000007950895099507AB0ECB206801F006FBE4
:1030100001273560206801F025FB37600220FDF7AD
:1030200097FF2068069501F091FC064668B9206874
:1030300001F0B4FC80B3A6644FF6FF75069B5A1CE2
:10304000AB42069208D14FF08076012084F834001C
:10305000A16B0E43A66381E00021206801F0D6FC3D
:10306000014610B14FF08056EFE7206801F0E6FC12
:1030700001460028F6D1206801F00FFB0028DDDAB8
:103080000023636420680123ADF8163001F0EEFAE6
:1030900010BB4FF080656BE0A7644FF6FF75069B91
:1030A0005A1CAB420692CED00021206801F0AEFC43
:1030B00006460028C9D14FF08041206801F0BEFCCF
:1030C00006460028C1D10146206801F0E6FAC30F88
:1030D000E5D04200D4D5D4E7636C032B1AD0206826
:1030E00001F0DDFC0546002842D10146206801F0D0
:1030F000D4FA04216067206801F0CFFA0821A067A4
:10310000206801F0CAFA0C21E067206801F0C5FAD6
:10311000C4F88000636C032B22D1636C032B2ED187
:103120000421206801F0B9FA000DE0640DA92046E1
:10313000FFF779FE226D20681204002301F0EEFBF8
:103140000546A8B904F1100393E807008DE80700CD
:10315000231D0ECB206801F061FA284619B0F0BD9E
:103160000DF11601206801F0C5FC05460028D4D0F9
:10317000012084F83400A36B1D43A563EEE7BDF87E
:10318000161021652068090401F09EFC0546002800
:10319000EED10146206801F080FA042160662068C3
:1031A00001F07BFA0821A066206801F076FA0C2174
:1031B000E066206801F071FA2067B1E7A08025423F
:1031C00010B50446A0B190F8343003F0FF0213B9F3
:1031D00002770AF0DBF9032384F834302046FFF746
:1031E00001FF00200123A063206384F8343010BD68
:1031F000012010BD436C0B60836C4B60C36C8B6013
:10320000036DCB60436D0B61836D4B61C36D8B614F
:10321000036ECB610020704770B5032380F8343013
:10322000436C032B8AB004460E4602D0B1F5805F92
:1032300003D1A36B43F0805356E0B1F5006F2DD15D
:10324000002100680491059101F027FA800120D443
:1032500004A92046FFF75DFC60B9059B59031AD508
:10326000216D2068090401F0D1FB18B90221206802
:1032700001F0C4FCA36B1843A063A56B002D35D0EF
:10328000236840F2FF5201209A6384F834000AB0A8
:1032900070BD3046EEE74FF08060EBE709BB006899
:1032A0000491059101F0F9F9820114D404A9204692
:1032B000FFF72FFC60B9059BDB030FD5216D20685C
:1032C000090401F0A3FB18B90146206801F096FC3F
:1032D000A16B0843D0E74FF40060F9E74FF080603E
:1032E000F6E7836B43F00063A363C6E76368049368
:1032F000A3680593E368069363690893A369099338
:1033000007960AAB13E907008DE8070004AB0ECB64
:10331000206801F083F9012384F834302846B6E7A9
:10332000016D10B509040446006801F037FC014640
:1033300028B9206801F0B1F9C0F3432010BDA36B98
:103340001943A1630020F7E710B5846BE36B5B6D55
:10335000012B03D0236C5B6D012B1BD1236840F242
:10336000FF529A63DA6B22F49D72DA63A36B43F027
:103370008043A3632046FFF7D3FF0538C0B201287E
:1033800005D8206801F0B0FAA36B1843A0630123AD
:1033900084F834302046FFF727FD10BD38B5846B24
:1033A000236C0BB100232364E56BC5B92046FFF7FE
:1033B000B7FF05380123C0B29842A56384F83430C2
:1033C0000DD8206801F090FAA36B1843A063A36B9B
:1033D000204613B109F0B7F938BDFFF705FD38BD38
:1033E00038B5846BE36B0BB10023E363256CC5B97F
:1033F0002046FFF795FF05380123C0B29842A56328
:1034000084F834300DD8206801F06EFAA36B1843AD
:10341000A063A36B204613B109F095F938BDFFF7FF
:10342000E3FC38BD70B504460068436BDA054FD540
:103430004FF480738363C36B23F44E7323F0020352
:10344000C363236B13F0080F236B1ED09B0702D4BA
:10345000236B9E0608D501F047FA28B1A36B1843E9
:10346000A0632046FFF7C0FC236840F2FF529A6336
:10347000012384F83430236BDD07204602D4236B0C
:103480009C0722D509F067F970BD190640F1A580A7
:10349000236B9A0608D501F027FA28B1A36B1843CD
:1034A000A0632046FFF7A0FC236BDB0700F19580AB
:1034B000236B9E0700F191802268D36A23F00803F2
:1034C000D362012384F83430204609F040F970BDFE
:1034D000436B5D0410D5256A4FF48043836305F187
:1034E000200629462068043501F0B7F8AE42F8D12D
:1034F000236A2033236270BD436B190410D5A56A7B
:103500004FF400432E1F83631C35206801F0A2F89E
:1035100046F8040FB542F8D1A36A2033A36270BD08
:10352000426B40F23A231A4257D0436B9A0742BF8C
:10353000A36B43F00203A363436B1B0742BFA36B60
:1035400043F00803A363436B9E0642BFA36B43F0A3
:103550002003A363436BDD0642BFA36B43F010035C
:10356000A363436B990542BFA36B43F00803A363B6
:1035700040F2FF738363C36B23F44E7323F00203A3
:10358000C363236B1A061FD5206C48B1134B036528
:10359000FEF73CF808B3206CBDE87040FFF7FEBEB4
:1035A000E06B48B10E4B0365FEF730F8A8B1E06B55
:1035B000BDE87040FFF714BF0123A06384F83430E6
:1035C000204609F0C0F870BD236B1B0705D5012309
:1035D00084F834302046FFF707FC70BD9D330008A7
:1035E000E13300082DE9F041069E0446884617465F
:1035F0001D462268936838EA03030CBF01230023A9
:103600009F4202D10020BDE8F0816B1CF2D055BB77
:1036100023685A6822F0E0025A606268B2F5827F3D
:103620000AD1A268B2F5004F02D0B2F5806F03D183
:103630001A6822F040021A60A26AB2F5005F09D14E
:103640001A6822F400521204120C1A601A6842F42A
:1036500000521A60012384F85130002384F850305E
:103660000320BDE8F081FDF76DFC801B8542C0D8CA
:10367000CEE713B50B460092802100220446FFF7E7
:10368000B1FF20B1636D43F020036365032002B0F6
:1036900010BD10B50446002836D00023836290F890
:1036A000513003F0FF021BB980F850200AF036F8C1
:1036B0002168A068A269022384F851300B6823F0C6
:1036C00040030B6063680343E068034320690343DE
:1036D00060690343E0690343206A0343A06A03432C
:1036E00002F4007003430B60120C636A02F00402E0
:1036F0001A434A60CB6923F40063CB6100200123A5
:10370000606584F8513010BD012010BD2DE9F043F3
:10371000994690F8503085B0012B04460D46164668
:103720000C9F00F0ED80012380F85030FDF70AFC7B
:1037300094F851306168DBB2012B80460AD0B1F5B4
:10374000827F40F0DB80A268002A40F0D780042B03
:1037500040F0D480002D4ED0002E4CD0B9F1000F97
:1037600049D094F85130A663012B04BF052384F897
:10377000513000236365236463642368A4F83E909A
:10378000A4F836901A68A4F83C90500658BF1A68FE
:10379000256358BF42F04002A4F8349058BF1A6025
:1037A000E268B2F5006F5DD119B1E28E92B2012AE2
:1037B00006D135F8022BDA60E38E013B9BB2E3863B
:1037C0004FF00109E38E9BB2BBB9E38F9BB2A3B963
:1037D000CDF800803B46012202212046FFF702FF80
:1037E000002835D1424639462046FFF742FF0028DF
:1037F00079D02023636501202BE0B9F1000F0FD0B1
:10380000E38E9BB263B123689A68910708D535F8B7
:10381000022BDA60E38E013B9BB2E3864FF0000996
:10382000E38F9BB263B123689A68D20708D5DB683F
:1038300026F8023BE38F013B9BB2E3874FF001097F
:10384000781CBFD0FDF77EFBA0EB08008742B9D8FB
:103850000320012384F85130002384F8503005B050
:10386000BDE8F08319B1E28E92B2012A06D115F8B3
:10387000012B1A73E38E013B9BB2E3864FF00109E3
:10388000E38E9BB21BB9E38F9BB2002BA0D0B9F1A2
:10389000000F0FD0E38E9BB263B123689A68910743
:1038A00008D52A781A73E38E013B9BB2E386013573
:1038B0004FF00009E38F9BB263B123689A68D20787
:1038C00008D5DB683370E38F013B9BB2E387013699
:1038D0004FF001097B1CD3D0FDF734FBA0EB0800AF
:1038E0008742CDD8B4E7A368002BB2D123680390F8
:1038F000DA6803929B680393039BAAE70220A8E778
:103900000220ACE7036A23F001030362036A426802
:1039100070B584690D6824F0730425438C6823F026
:10392000020323430C4CA04209D004F58064A0425A
:1039300005D042604A6885614263036270BDCC680D
:103940008E6923F0080323434C6922F44072344308
:1039500023F004032243ECE700000140036A23F450
:1039600080730362036A426870B5C4690D6824F00D
:10397000730425438C6823F4007343EA04230E4C3C
:10398000A04209D004F58064A04205D042604A6894
:10399000C561C263036270BDCC688E6923F40063A5
:1039A00043EA04234C6922F44052344323F48063F5
:1039B00042EA0412EAE700BF00000140036A23F470
:1039C0008053036230B5046A4368C2690D6822F40B
:1039D000E64242EA05228D6824F4005444EA0534A4
:1039E000094DA84209D005F58065A84205D043607D
:1039F0004B68C2610364046230BD4D6923F48043A7
:103A000043EA8513F3E700BF000001400368DA686A
:103A100042F00102DA601A6842F001021A600020E6
:103A20007047704790F83830012B70B54FF00203A3
:103A30001CD080F839300368012280F838209A6859
:103A400022F47F4222F077029A600A68402A79D0F5
:103A500019D8102A00F093800AD8002A00F0898033
:103A6000012380F83930002380F83830184670BDC3
:103A7000202A00F08A80302AF2D19A6822F070025F
:103A800042F0370236E0702A36D01BD8502A42D096
:103A9000602AE5D11C6A4D68CE6824F010041C62CF
:103AA00099691A6A21F4704122F0A00242EA0512D3
:103AB00041EA063199611A629A6822F0700242F076
:103AC000670217E0B2F5805F11D0B2F5005FC7D191
:103AD0008A684D689C68C9682A4324F47F4442EA96
:103AE000012222439A609A6842F4804202E09A6876
:103AF00022F007029A60B3E78A684D689C68C9683B
:103B00002A4324F47F4442EA012222439A609A68BD
:103B100042F07702EEE74C68CE68196A1D6A25F01C
:103B200001051D629A6921F00A0122F0F00242EAC1
:103B3000061221439A6119629A6822F0700242F0DB
:103B40005702D7E74C68CE68196A1D6A25F001054F
:103B50001D629A6921F00A0122F0F00242EA06127F
:103B600021439A6119629A6822F0700242F047027A
:103B7000C0E79A6822F0700242F00702BAE79A683A
:103B800022F0700242F01702B4E79A6822F0700245
:103B900042F02702AEE770477047704770470368EE
:103BA0001A69910710B504460ED5DA6892070BD54D
:103BB0006FF002021A619B6901229B07027677D09F
:103BC000FFF7EAFF0023237623681A69500710D510
:103BD000DA6851070DD56FF004021A619B69022261
:103BE00013F4407F2276204668D0FFF7D5FF0023EC
:103BF000237623681A6912070FD5DA6810070CD5E7
:103C00006FF008021A61DB690422990722762046C8
:103C10005AD0FFF7C1FF0023237623681A69D20622
:103C200010D5DA68D0060DD56FF010021A61DB6985
:103C3000082213F4407F227620464BD0FFF7ACFFDA
:103C40000023237623681A69D10708D5DA68D207DA
:103C500005D56FF001021A61204609F09FFB236829
:103C60001A69100608D5DA68110605D56FF08002CA
:103C70001A61204600F0A9F923681A69520608D58E
:103C8000DA68500605D56FF040021A612046FFF74A
:103C900085FF23681A69910622D5DA6892061FD536
:103CA0006FF0200220461A61BDE8104000F08CB988
:103CB000FFF771FF2046FFF770FF83E7FFF76BFF09
:103CC0002046FFF76AFF92E7FFF765FF2046FFF700
:103CD00064FFA0E7FFF75FFF2046FFF75EFFAFE757
:103CE00010BD00002E4A0368904212D0B0F1804F00
:103CF0000FD0A2F57C4290420BD002F58062904238
:103D000007D002F58062904203D002F578429042DB
:103D10001DD14A6823F070031343214A904204D115
:103D2000CA6823F44073134328E0B0F1804FF7D002
:103D30001C4A9042F4D002F580629042F0D002F525
:103D400080629042ECD002F578429042E8D0164A68
:103D50009042E5D002F580629042E1D002F58062A7
:103D60009042DDD0A2F598329042D9D002F580621F
:103D70009042D5D002F580629042D1D003608B682A
:103D8000C3620B688362064B984206D003F58063DA
:103D9000984202D00123436170470B690363F9E73E
:103DA00000000140000400400040014010B50446FE
:103DB000A0B190F8393003F0FF021BB980F8382029
:103DC00009F0B0FD022384F839302068211DFFF787
:103DD00089FF012384F83930002010BD012010BD77
:103DE00010B50446A0B190F8393003F0FF021BB9BA
:103DF00080F83820FFF715FE022384F83930206858
:103E0000211DFFF76FFF012384F83930002010BD1A
:103E1000012010BD036A23F010030362036A4268A5
:103E200070B584690D6824F4E64444EA05258C687D
:103E300023F0200343EA04130D4CA04209D004F5FB
:103E40008064A04205D042604A6885618263036253
:103E500070BDCC688E6923F0800343EA04134C697B
:103E600022F44062344323F0400342EA8402EAE74A
:103E70000000014038B590F83830012B04464FF06F
:103E8000020025D0012384F8383084F839000C2A48
:103E900018D8DFE802F0071717171E1717172F1784
:103EA000171740002068FFF72DFD236809699A69FC
:103EB00042F008029A619A6922F004029A619A69B2
:103EC0000A439A610123002084F8393084F83800CD
:103ED00038BD2068FFF79EFF236809699A6942F49C
:103EE00000629A619A6922F480629A619A6942EA50
:103EF0000122E6E72068FFF731FD23680969DA69E6
:103F000042F00802DA61DA6922F00402DA61DA6961
:103F10000A43DA61D6E72068FFF750FD2368096994
:103F2000DA6942F40062DA61DA6922F48062DA6105
:103F3000DA6942EA0122ECE7036A10B501248C40F9
:103F400023EA04030362036A8A401A43026210BD33
:103F500010B5044601220068FFF7EEFF2368084A07
:103F6000934203D002F58062934203D15A6C42F42B
:103F700000425A641A6842F001021A60002010BD23
:103F80000000014090F83830012B10B54FF00203CB
:103F900018D080F8393003680C685A68496822F0F4
:103FA00070025A605A6822435A609A6822F080026E
:103FB0009A609A680A439A60012380F83930002396
:103FC00080F83830184610BD704770470368DA68CB
:103FD00022F49072DA605A6922F001025A612023B9
:103FE00080F83A30704700002DE9F0470668C26853
:103FF0003369C16923F44053134333610446836832
:104000000069F2680343606922F41642034322F018
:104010000C020B431343F3607369A26923F44073EA
:104020001343B1F5004F73617A4B7CD19E4203D0AC
:1040300003F580639E4244D1FEF754FD192505FB2C
:1040400000F360684FF064094000B3FBF0F3B3FB8A
:10405000F9F34FEA0318FEF745FD636868435B0018
:10406000B0FBF3F7FEF73EFD636868435B00B0FB0F
:10407000F3F3B3FBF9F309FB1373DB003233B3FB48
:10408000F9F35B0003F4F877FEF72CFD62686843F0
:104090005200B0FBF2FAFEF725FD636868435B004F
:1040A000B0FBF3F3B3FBF9F309FB13A3DB003233EB
:1040B000B3FBF9F303F0070343443B44B360BDE8AB
:1040C000F087FEF7FFFC192505FB00F360684FF051
:1040D00064094000B3FBF0F3B3FBF9F34FEA0318B4
:1040E000FEF7F0FC636868435B00B0FBF3F7FEF794
:1040F000E9FC636868435B00B0FBF3F3B3FBF9F3DF
:1041000009FB1373DB003233B3FBF9F35B0003F4F9
:10411000F877FEF7D7FC626868435200B0FBF2FA0A
:10412000FEF7D0FCB9E79E4202D03B4B9E4240D105
:10413000FEF7D8FC676819254FF0640905FB00F30A
:10414000BF00B3FBF7F3B3FBF9F31F01FEF7CAFCA3
:10415000636868439B00B0FBF3F8FEF7C3FC636839
:1041600068439B00B0FBF3F3B3FBF9F309FB138344
:104170001B013233B3FBF9F303F0F008FEF7B2FC96
:10418000626868439200B0FBF2FAFEF7ABFC63682A
:1041900068439B00B0FBF3F3B3FBF9F309FB13A3F4
:1041A0001B013233B3FBF9F303F00F0343EA0803B7
:1041B00083E7FEF787FC676819254FF0640905FB64
:1041C00000F3BF00B3FBF7F3B3FBF9F31F01FEF7F6
:1041D00079FC636868439B00B0FBF3F8FEF772FC60
:1041E000636868439B00B0FBF3F3B3FBF9F309FB8F
:1041F00013831B013233B3FBF9F303F0F008FEF72E
:1042000061FC626868439200B0FBF2FAFEF75AFC68
:10421000BDE700BF0010014000140140F8B504469E
:104220000E4617461D4621680B6836EA030301D186
:104230000020F8BD6B1CF7D095B92368DA6822F42A
:10424000D072DA605A6922F001025A61202384F8A0
:10425000393084F83A30002384F838300320F8BD30
:10426000FCF770FEC01B8542DDD2E6E710B50446C0
:1042700040B390F8393003F0FF021BB980F83820C2
:1042800009F04CFE2268242384F83930D36823F4E3
:104290000053D3602046FFF7A7FE23681A6922F473
:1042A00090421A615A6922F02A025A61DA6842F48D
:1042B0000052DA6000202023E06384F8393084F86B
:1042C0003A3010BD012010BD2DE9F0411F4690F895
:1042D0003930202B04460D4690464FD100294AD054
:1042E000002A48D090F83830012B47D0012380F8BD
:1042F00038300023C363212380F83930FCF722FED5
:10430000A4F824800646A4F82680E38C9BB26BB9FF
:104310003B46324640212046FFF780FFB0B92023BC
:1043200084F8393084F83800BDE8F081E38C013B33
:104330009BB2E384A368B3F5805F32463B464FF0FF
:10434000800120460ED1FFF769FF10B10320BDE8C0
:10435000F0812B882268C3F308035360236943B9B3
:104360000235D2E7FFF75AFF0028EFD123682A78F9
:104370005A600135C9E70120BDE8F0810220BDE89F
:10438000F08190F83A30202B1CD1C9B1C2B190F81D
:104390003830012B16D0C285828500232222C363C8
:1043A00080F83A2002688162516980F8383041F023
:1043B00001015161D16841F49071D1601846704794
:1043C0000120704702207047704790F83A30222B46
:1043D00010B532D1836801690268B3F5805F836AE2
:1043E0001FD15268C9B9C2F3080223F8022B8362B5
:1043F000C48D013CA4B2C4856CB90368DA6822F4A8
:104400009072DA605A6922F001025A61202380F822
:104410003A3008F0A9FF002010BDD2B223F8012BDA
:10442000E5E721B9591C526881621A70E0E75268C9
:10443000591C816202F07F02F7E7022010BD70472D
:1044400003681A68D96870B5160704465D6907D114
:1044500096065AD58D0658D5BDE87040FFF7B5BF12
:1044600015F0010502D111F4907F4ED0D30705D588
:10447000CE0542BFE36B43F00103E363500704D56D
:104480001DB1E36B43F00203E363930704D51DB151
:10449000E36B43F00403E363160704D51DB1E36B3C
:1044A00043F00803E363E36B002B66D0950604D565
:1044B000880602D52046FFF788FF23685D69E26B16
:1044C0001107204602D415F040051AD0FFF77EFDF3
:1044D00023685A69520610D55A69606B22F040026F
:1044E0005A6150B1254B0365FDF790F8002844D080
:1044F000606BBDE87040036D18472046FFF79FFFD3
:1045000070BDFFF79CFFE56370BD160627D50D064D
:1045100025D594F83920212A2FD1A268B2F5805FE1
:10452000226A17D11188C1F308015960216979B94C
:1045300002322262E28C013A92B2E284EAB9DA688B
:1045400022F08002DA60DA6842F04002DA6070BD80
:104550000132EEE7511C216212785A60EAE75006F8
:104560000BD54A0609D5DA6822F04002DA6020232A
:1045700084F839302046FFF727FF70BD81450008D9
:1045800008B5806B0023C385C384FFF758FF08BDBF
:10459000114B4FF4FA521B68B3FBF2F241F288332D
:1045A000534313F1FF3314D3426B12F0450FF8D08D
:1045B000436B5B0703D50423836318467047436B43
:1045C00013F0010301D00123F6E740F2FF528263AA
:1045D000F3E74FF00043F0E7100000200E4B4FF4DC
:1045E000FA521B68B3FBF2F241F28833534313F1E2
:1045F000FF330ED3426B12F0450FF8D0436B13F02C
:10460000040315BF042340F2FF52836382631846FC
:1046100070474FF0004070471000002084B010B584
:1046200003AC84E80E000499039B42680B43059990
:104630000B4306990B4307990B430899BDE81040BB
:1046400022F4FD420B4322F07F021343436004B087
:1046500000207047D0F8800070470B68C0F88030A9
:10466000002070470323036000207047006800F0BB
:10467000030070470B6810B583608C684B68C26894
:104680002343CC680969234322F47F620B4322F061
:104690000F021343C360002010BD82B014300144E8
:1046A000002301930191019B186802B0704700003C
:1046B000454B10B51B684FF4FA54B3FBF4F35A435F
:1046C000002A4AD0436B13F0450F02F1FF32F7D0B6
:1046D000436B5C0703D504238363184610BD436B0B
:1046E00013F0010301D00123F6E70269D2B291422F
:1046F00036D140F2FF5219468263FFF7CEFF334BAB
:104700000340002BE9D000282CDB42002DD484008C
:104710002DD4C1002DD402012ED444012FD4C101C7
:1047200030D4020231D4440232D4810233D4C202E2
:1047300034D4440335D4810336D4C20337D40404BB
:1047400038D4410439D482043AD410F0080F14BF8D
:104750004FF400034FF48033BFE74FF00043BCE752
:104760000123BAE74FF00073B7E74023B5E7802392
:10477000B3E74FF48073B0E74FF40073ADE74FF445
:104780008063AAE74FF40063A7E74FF48053A4E7E0
:104790004FF40053A1E74FF480439EE74FF40043EA
:1047A0009BE74FF4003398E74FF4802395E74FF4ED
:1047B000002392E74FF480138FE74FF400138CE748
:1047C0004FF4800389E700BF1000002008E0FFFDE0
:1047D0000B6810B543624B688362CC688B68C26A11
:1047E00023430C69496923430B4322F0F702134327
:1047F000C362002010BD30B587B04023039300236F
:10480000054601911024049301A94FF48063059398
:104810000294FFF72FFF41F2883221462846FFF726
:1048200047FF07B030BD30B587B040230393002366
:10483000054601911124049301A94FF48063059367
:104840000294FFF717FF41F2883221462846FFF70E
:104850002FFF07B030BD30B587B04023039300234E
:10486000054601911224049301A94FF48063059336
:104870000294FFF7FFFE41F2883221462846FFF7F7
:1048800017FF07B030BD30B587B040230393002336
:10489000054601911824049301A94FF48063059300
:1048A0000294FFF7E7FE41F2883221462846FFF7DF
:1048B000FFFE07B030BD30B587B04023039300231F
:1048C000054601911924049301A94FF480630593CF
:1048D0000294FFF7CFFE41F2883221462846FFF7C7
:1048E000E7FE07B030BD000030B587B000230546B5
:1048F00001930C244022049301A94FF48063039296
:1049000005930294FFF7B6FE034A21462846FFF7B7
:10491000CFFE07B030BD00BF00E1F50530B587B070
:1049200040230393002305460724049301A94FF471
:104930008063019205930294FFF79CFE41F2883256
:1049400021462846FFF7B4FE07B030BD10B586B04B
:104950000023019302930393049301A94FF480630E
:1049600005930446FFF786FE0B4B4FF4FA521B6883
:10497000B3FBF2F241F28833534313F1FF3308D310
:10498000626B1206F9D540F2FF53A363002006B014
:1049900010BD4FF00040FAE71000002010B586B0BF
:1049A0004FF4D5730193082302934023039300230C
:1049B000049301A94FF4806305930446FFF75AFE60
:1049C000114B4FF4FA521B68B3FBF2F241F28833F9
:1049D000534313F1FF3314D3626B12F0450FF8D039
:1049E000626B12F0040204D04023A363042006B0DB
:1049F00010BD606B10F04000F9D04023A363104657
:104A0000F5E74FF00040F2E71000002030B587B026
:104A1000402303930023054601913724049301A901
:104A20004FF4806305930294FFF724FE41F288322D
:104A300021462846FFF73CFE07B030BD10B586B0D2
:104A40002923029341F000414023039341F4801154
:104A5000002304460191049301A94FF48063059358
:104A6000FFF708FE2046FFF7B9FD06B010BD30B5D0
:104A700087B000230546019333244022049301A903
:104A80004FF48063039205930294FFF7F3FD41F224
:104A9000883221462846FFF70BFE07B030BD10B51F
:104AA00086B0002302220446019302920493C0229E
:104AB0004FF4806301A903920593FFF7DBFD2046C5
:104AC000FFF766FD06B010BD10B586B0092302934E
:104AD000C0230393002304460191049301A94FF4DA
:104AE00080630593FFF7C6FD2046FFF751FD06B032
:104AF00010BD000030B587B000230322019302925D
:104B0000049340224FF480630D4601A9039205935C
:104B10000446FFF7AFFD204B4FF4FA521B68B3FB7E
:104B2000F2F241F28833534313F1FF332BD3626B1C
:104B300012F0450FF8D0636B5A0703D50420A06329
:104B400007B030BD616B11F0010101D00120F6E723
:104B50002369DBB2032B19D140F2FF53A363204634
:104B6000FFF79BFD10F4604303D1000C288018462A
:104B7000E6E743040CD410F4004F14BF4FF4805008
:104B80004FF48030DCE74FF00040D9E70120D7E751
:104B90004FF40050D4E700BF1000002030B587B0BC
:104BA000402303930023054601910D24049301A99A
:104BB0004FF4806305930294FFF75CFD41F2883265
:104BC00021462846FFF774FD07B030BD30B587B0E9
:104BD000402303930023054601910624049301A971
:104BE0004FF4806305930294FFF744FD41F288324D
:104BF00021462846FFF75CFD07B030BDFFF7E6BF52
:104C0000034B1A1803EB8003107A5B685B68184744
:104C100028040020064B1A5C42B901221A541A18C3
:104C200003EB8003107A5B681B681847002070470D
:104C30002804002030B4054C251804EB800460687B
:104C40008468287AA44630BC604700BF280400204E
:104C500030B4054C251804EB80046068C468287AD9
:104C6000A44630BC604700BF28040020054B10B4A8
:104C70001C1803EB8003207A5B685DF8044B1B690A
:104C8000184700BF2804002042884378007843EA90
:104C9000022340EA032070470B0A017043700B0C9B
:104CA000090E8370C1707047024400F8011B9042E6
:104CB000FBD17047154BF0B500252A461C461E68EF
:104CC000A6B10768BE4212D15F688668B7420ED1AE
:104CD0009F684669B7420AD1B1B904EB02129389C1
:104CE000B3F5807F14BF00201020F0BD01250132F4
:104CF000022A03F11003E2D10DB10020F0BD022918
:104D00000CBF00201220F0BD1020F0BD04020020D6
:104D10001C4AF0B50568002316461468AC4207D15A
:104D200057688468A74203D197684469A7421DD099
:104D30000133022B02F11002EFD1336813B1336952
:104D4000EBB901231C013219355184684069906028
:104D500000205460908179B906EB031292890132E8
:104D600092B206EB0316581CB281F0BD0029F3D0B5
:104D700006EB0312928912B94FF48072F1E700201A
:104D8000F0BD00BF04020020013801280ED8094AF6
:104D90000301D118898921F4807080B208B1481EBE
:104DA00080B2D118888118B9D0507047022070475E
:104DB000002070470402002083690239023B9942B7
:104DC0003DBF4389C06A01FB030000207047C36AEE
:104DD00002680433490A5289B1FBF2F1186830B114
:104DE000814202D3091A0833F8E75868084470472B
:104DF000024600F10B010020C30143EA500312F800
:104E0000010B50FA83F38A42D8B2F5D17047026899
:104E100010B552B111460B4611F8014B1F2C0CD99D
:104E20003A2CF8D1511C8B4202D04FF0FF3010BD0C
:104E30001278302AF9D101330360002010BD38B553
:104E40000D46044618B900232B60092038BD0368BD
:104E5000002BF8D01A78002AF5D0D98882889142A0
:104E6000F1D15878FFF7CCFE10F00100EBD12368A8
:104E70002B6038BD01380A4411F8013B00F8013FAE
:104E80009142F9D17047CA7E8B7E032843EA022300
:104E900001BF487D0A7D42EA002243EA02431846E8
:104EA0007047C2F307238A76CB760378032B01BFC2
:104EB000120C0A75120A4A757047F8B5056B00F1B5
:104EC0003407044601232A4639464078FFF7C0FEDE
:104ED000A0B9636AE269E070EB1A934201D3002043
:104EE000F8BDA678012EFAD9E36960781D442A46F8
:104EF00001233946FFF7ACFE013EF3E70120F8BD80
:104F0000C3780BB1FFF7D9BF18467047F8B5044610
:104F1000FFF7F6FF0546002842D12378032B37D14F
:104F20002779012F34D104F1340601464FF4007281
:104F30003046FFF7B9FE552384F83232AA2384F8AD
:104F4000333252234122722184F8343084F83530D0
:104F5000612384F8363084F8372084F81A2284F8E4
:104F60001B3284F8181284F8191204F5077061696D
:104F7000FFF792FE216904F50870FFF78DFE226AA3
:104F80006078013222633B463146FFF761FE2571AE
:104F9000002211466078FFF769FE003018BF01203B
:104FA000F8BD036B8B4270B506460D4612D0FFF775
:104FB000A7FF044660B92A46012306F13401707840
:104FC000FFF738FE00281CBF4FF0FF350124356382
:104FD000204670BD0024FBE7002310B5C3704FF0DE
:104FE000FF3303630446FFF7DCFF30BB94F8332242
:104FF00094F8323243EA02234AF6552293421ED1F4
:1050000094F83430E92B05D0636B104A03F0FF139A
:10501000934216D104F16A00FFF736FE0C4B20F0E4
:105020007F4098420FD004F18600FFF72DFE094B18
:10503000984214BF0220002010BD042010BD0320A0
:1050400010BD022010BD002010BD00BFEB0090007D
:1050500046415400464154332DE9F043002385B0C6
:105060000B600F461546FFF7D2FE061EC0F24281C6
:10507000A44B53F82640002C00F03E813C6023787E
:1050800005F0FE0573B16078FFF7BAFDC10709D4DA
:10509000002D00F0338110F0040000D00A2005B08C
:1050A000BDE8F0830023F0B223706070FFF7B2FD1B
:1050B000C20700F125810DB14307EFD4002120463E
:1050C000FFF78AFF022840F0F98004F5FD75002102
:1050D00015F8040C10B12846FFF7D6FD4DF8210055
:1050E0000131042905F11005F2D100255DF8256094
:1050F000002E00F0DA8031462046FFF76DFF0128D0
:1051000000F2D48094F8402094F83F3043EA022320
:10511000B3F5007F40F0D68094F84B3094F84A50B5
:1051200055EA032504D104F15800FFF7ADFD05460B
:1051300094F84490E56109F1FF33012B84F8029063
:1051400000F2C08094F84170BBB26381002B00F084
:10515000B9807B1E3B4240F0B58094F8463094F80D
:10516000458048EA032818F00F0FA4F8088040F0A3
:10517000A98094F8481094F8470050EA012003D120
:1051800004F15400FFF780FD94F8433094F8422076
:1051900052EA032200F0968005FB09F302EB181E89
:1051A0009E447045C0F08E80A0EB0E01B1FBF7F17C
:1051B000002900F087804FF6F570814200F286806A
:1051C00040F6F577B9428CBF0227012702313244FD
:1051D00006EB0E00032FA16126626262E06277D1C6
:1051E00094F85F2094F85E3053EA02236AD1B8F154
:1051F000000F67D104F16000FFF746FDA06289004F
:1052000001F2FF11B5EB512F5CD34FF0FF33636117
:105210002361032F4FF0800323712FD194F8652071
:1052200094F8643043EA0223012B27D1711C2046F5
:10523000FFF7B7FE10BB94F8332294F83232207196
:1052400043EA02234AF65522934217D104F134006F
:10525000FFF71AFD2C4B984210D104F50670FFF7AA
:1052600013FD2A4B984209D104F50770FFF70CFD96
:10527000606104F50870FFF707FD2061244A27707C
:10528000138801339BB21380E380224BE360224BEF
:105290001A68944204BF00221A601A6994424FF0BF
:1052A00000007FF4FCAE1861F9E603200135042DFF
:1052B0007FF41CAF042805D10120F0E60428FBD0C0
:1052C000012801D90D20EAE600261BE703277DE728
:1052D000B8F1000FF6D0022F4FEA410018BF401876
:1052E000134418BF01F00101A3620CBF014601EB9A
:1052F000500185E70B20D2E60C20D0E62846CEE60A
:105300000320CCE6000200205252614172724161DA
:1053100024020020260200200402002001292DE999
:10532000F04705460C46174672D9836999426FD2F9
:105330000378022B3FD0032B50D0012B68D101EB17
:105340005108416A01EB5821FFF72BFE064638BB96
:1053500005F1340908F1010AC8F3080814F0010442
:105360001FBF19F8083003F00F023B0103F0F003F0
:1053700014BF1343FBB209F80830696A0123EB70CC
:1053800001EB5A212846FFF70CFE064640B9CAF346
:10539000080A44B1C7F3071709F80A700123EB7034
:1053A0003046BDE8F08719F80A30C7F3032723F029
:1053B0000F031F43F0E7416A01EB1421FFF7F1FDF2
:1053C00006460028ECD1640005F1340304F4FF74B0
:1053D0001A191F55C7F307275770DFE7416A01EB1A
:1053E000D411FFF7DEFD06460028D9D1A40005F14F
:1053F000340304F4FE741C442046FFF745FC27F0F8
:10540000704700F0704139432046FFF745FCC5E77F
:105410000226C5E70129F8B505460C4652D983692D
:1054200099424FD20378022B29D0032B38D0012B7D
:1054300048D101EB5106416A01EB5621FFF7B1FD5E
:1054400010B14FF0FF30F8BD771C696AC6F308064B
:105450002E4401EB5721284696F83460FFF7A1FD52
:105460000028EED1C7F308073D44E30795F8340060
:1054700046EA00204CBF0009C0F30B00F8BD416AAA
:1054800001EB1421FFF78DFD0028DAD164003435DB
:1054900004F4FF742B19285D5B7840EA0320F8BD03
:1054A000416A01EBD411FFF77CFD0028C9D1A400AB
:1054B00005F1340004F4FE742044FFF7E5FB20F00E
:1054C0007040F8BD0120F8BDB1F5001FF8B50646E3
:1054D0000D4601D30220F8BDCA06FBD182680468DC
:1054E0007161C2B92378022B01D9A36AA3B92389B8
:1054F000B3EB551FEED9A36AF361F369B261002BD8
:10550000E8D003EB55233434C5F308052C44F3618C
:1055100034620020F8BD134667891A467F02BD42F7
:10552000114604D22046FFF747FCF061E5E73068FA
:10553000FFF770FF431C024606D00128CAD9A369B1
:105540009842C7D2ED1BEAE70120F8BD2DE9F041F2
:10555000804605680F4671B92E69F6B1AB699E4267
:1055600028BF01263446AB6901349C4218D3012E72
:1055700015D8002409E02846FFF74CFF012804460F
:1055800037D9431C04D14FF0FF342046BDE8F081E9
:10559000AB699842F9D33E46E4E70126E2E70224EC
:1055A0002146D8F80000FFF735FF30B1012820D0A0
:1055B0000130E8D0B442D6D1DBE74FF0FF322146CC
:1055C0002846FFF7ABFE90B957B9AA696B692C6101
:1055D000023A93420FD92B7943F001032B71D4E7A0
:1055E000224639462846FFF799FE0028EDD00128CB
:1055F000C9D00124C9E7013B6B61ECE7F8B50D4662
:10560000012D0746114601D80220F8BD0468A369A0
:105610009D42F9D22AB14FF0FF322046FFF77EFEBD
:1056200008BB29463868FFF7F5FE064608B9002092
:10563000F8BD0128E8D0431C14D00022294620469A
:10564000FFF76CFE78B9A2696369911E8B4205D29F
:1056500001336361237943F0010323719642354698
:10566000DFD3E4E70120F8BD2DE9F0410025D0F8B3
:1056700000808D75C36906460C46002B5BD0036B1A
:1056800001330BD001F11607D8F80C2032F81500C1
:105690002B46002851D1234400229A75316AA57DFA
:1056A00000234E1E18462E2716F8012F202A00F13F
:1056B000010026D0052A08BFE522092807D104EBFE
:1056C000030E0DB98EF816708EF80970013304EBD5
:1056D000030E8EF809209DB9A2F1410CBCF1190FFF
:1056E0000CD8082891F80C808CBF4FF0100C4FF0AC
:1056F000080C18EA0C0F1CBF2032D2B28EF816200C
:1057000001330B28D0D12DB9E21895750A7B002AF8
:1057100008BF0023234400225A72CB7A237201F17E
:105720001C00FFF7B1FA206001F11600FFF7ACFA98
:10573000E080000CA080BDE8F081002100F012FFA5
:1057400030B10135B5F5807F02D007F8010B9BE73A
:105750000023A0E7C3692DE9F04705460F46ABB12A
:10576000426902F12008B8F5001F0FD2C8F30809FA
:105770000468B9F1000F4FD181690133C36141B9A8
:105780002389B3EB581F47D80023EB610420BDE801
:10579000F0876389013B13EA58233DD12046FFF788
:1057A00039FE0128064602D80220BDE8F087421CD7
:1057B00002D10120BDE8F087A369984226D3002FCB
:1057C000E2D0A9692846FFF7C1FE0646002837D077
:1057D0000128E9D0431CECD02046FFF791FB074697
:1057E0000028E6D101464FF4007204F13400FFF7BF
:1057F0005BFA31462046FFF7DFFA4FF0010A2063DB
:1058000063899F4210D3236BDF1B2763AE61314650
:105810002046FFF7D1FAE86134344C44C5F81480CF
:105820002C620020BDE8F08784F803A02046FFF733
:1058300044FB0028BDD1236B013301372363DFE72D
:105840000720BDE8F08700002DE9F04F002185B06A
:105850000546D0F800A0FFF737FE8046002840F04C
:105860009E804FF0FF334FF0FF092B634E46E969EE
:105870005046FFF796FB8046002840F090802C6A47
:105880002778002F00F09180E27AE52F02F03F03A5
:10589000AB7103D0120705D50F2B05D04FF0FF33A6
:1058A0002B6357E00F2B5ED195F82F30580652D45A
:1058B000790647D56A69637B2A6307F0BF0794F8C6
:1058C0000D9099456FD1E37EA67E46EA032636B257
:1058D000002E3FD194F80080DAF80CB008F03F08B1
:1058E00008F1FF334FF00D0808FB03F80121304B9E
:1058F000F25CA3185878A35C43EA002331B3B8F1F3
:10590000FE0F27D81846039300F04AFE08F1010263
:1059100002903BF81800019200F042FE0299814289
:1059200018D1039B019A1946904601360D2EDED1FF
:1059300023785A0603D511B13BF8183053B9013F0B
:10594000FEB208E0BE4205D14B46B8E74FF6FF7203
:105950009342EAD0FF2600212846FFF7FBFE80464F
:10596000002884D01BE026B92046FFF741FA814584
:1059700015D095F82F30DB0790D404F10B0105F119
:10598000240214F8013B12F8010B8C42A3EB000334
:1059900002D0002BF5D081E7002B7FF47FAF40468B
:1059A00005B0BDE8F08F9946D4E74FF00408F6E75C
:1059B000940B01082DE9F04F90F82F4014F0A0044B
:1059C00089B0054640F084800668F26832F81430E9
:1059D000002B55D105F124070C22394605A8FFF705
:1059E00049FA9DF81F30DB077BD54023DFF82C8276
:1059F00085F82F304FF001090B2205A93846D6F85B
:105A00000CA0FFF737FAB9F1050F4ED84B46072225
:105A100003F00F0000F13001392988BF00F1370190
:105A2000013A03A810441B094170F1D108A911449F
:105A30007E2001F8140C9A423DD0F95C202938D11F
:105A40003B44072A9BBF08A98918202111F8141C80
:105A500003F8011BA3EB070198BF01320729F0D916
:105A60002846FFF7F1FE8246A8BB09F10109B9F10A
:105A7000640FC1D14FF0070A504609B0BDE8F08F5E
:105A80000134A3E7102002F0010E0EEB430313F4E0
:105A9000803F18BF83EA080301384FEA5202F2D16F
:105AA00031F8022F002AEDD1B1E7AAF102014B46ED
:105AB000F6E70133BFE71346C2E7804601212846D7
:105AC000FFF748FE824610B3BAF1040FD2D0D3E7F5
:105AD0004FF0060AD0E70428CED19DF81F3085F894
