:020000040800F2
:1000000000040020115B00083D3900084139000858
:1000100045390008493900084D3900080000000042
:10002000000000000000000000000000513900083E
:100030005539000800000000593900085D390008F2
:1000400065390008693900086D3900087139000800
:1000500075390008793900087D390008E939000848
:10006000593A00085D3A0008613A0008653A00080C
:10007000C13A0008C53A0008C93A0008CD3A00085C
:10008000D13A0008D53A0008D93A0008DD3A00080C
:10009000E13A0008E93A0008ED3A0008F13A0008B0
:1000A000F53A0008F93A0008FD3A0008013B00085B
:1000B000053B0008093B00080D3B0008113B000808
:1000C000153B0008193B00081D3B0008213B0008B8
:1000D000253B0008293B00082D3B0008313B000868
:0C00E000353B0008393B00083D3B0008A0
:1000EC002DE9F04FA5B016001C00DFF83426D2E93C
:1000FC000023CDE91223049004AD69600020A862AE
:10010C000DF150096FF0004B00E0BE190020ADF866
:10011C00020012AB4FF0FF3231000DF1020005F07E
:10012C002FFC0700012804DA3078471EBF41FF433B
:10013C00FF0FBDF80200252801D17A1E00E03A001D
:10014C00012A0ADB310002A801F04AF8002804D584
:10015C004FF0FF3025B0BDE8F08FBDF80200252828
:10016C0007D1002028616861A861E8612862686293
:10017C0005E00028C9D1A86AECE740F0010016F8A8
:10018C00011F2029F9D023290DD02B2904D02D298A
:10019C0006D030290BD00DE040F0020080B2EEE723
:1001AC0040F00400FAE740F0080080B2E7E740F0C6
:1001BC001000F3E72A290DD12268111D2160116866
:1001CC002963002904D54A422A6340F0040080B216
:1001DC00761C10E0002129630A2307E0296B59459E
:1001EC0003D001FB032130392963761C3278302A85
:1001FC0001D33A2AF2D331782E2903D04FF0FF31B4
:10020C00E9621BE016F8011F2A2906D12268111D8C
:10021C0021601168E962761C10E00021E9620A2372
:10022C0007E0E96A594503D001FB03213039E96243
:10023C00761C3278302A01D33A2AF2D3A886317848
:10024C00DFF8E00405F06AFC08B116F8010B8DF834
:10025C0046009DF84600682806D1307868280CD1F5
:10026C0062208DF8460007E06C2806D130786C28A7
:10027C0003D171208DF84600761C14A8E86096F81E
:10028C0000C06046413800F0F080001F022840F2A8
:10029C00EC80133800F0A080093800F0E680801E56
:1002AC001AD0401E3DD0401E022840F2DE80001FB6
:1002BC0037D0401F00F01B81401E00F08D80401E87
:1002CC0000F05481C01E00F05F81801E00F084801D
:1002DC00C01E00F0818079E19DF846006C2809D0A1
:1002EC002869411C29612268111D2160116800F8E0
:1002FC00091075E12168081D2060086880B2ADF80E
:10030C0004000020ADF806004FF0FF30E86201A9B0
:10031C0002A800F009FA002840F162814FF0FF308A
:10032C005FE19DF846006C281BD071280BD120682A
:10033C00C01D072188432060014601F108002060A0
:10034C00D1E9002312E06A280BD12068C01D0721D7
:10035C0088432060014601F108002060D1E90023A8
:10036C0004E02168081D20600A68D3179DF8460038
:10037C00682801D112B207E0622801D152B203E021
:10038C00742801D07A2800D1D317002B06DC00DBAF
:10039C0004D228692D2100F809100FE0A88E10F066
:1003AC00020F04D028692B2100F8091006E010F088
:1003BC00010F06D02869202100F809102869401C7B
:1003CC002861286914A94018A860CDE90223614668
:1003DC0002A800F01BFB03E19DF846006C281BD023
:1003EC0071280BD12068C01D07218843206001466D
:1003FC0001F108002060D1E9002312E06A280BD13A
:10040C002068C01D072188432060014601F10800C7
:10041C002060D1E9002304E02168081D20600A68EF
:10042C0000239DF84600682801D192B207E06228AB
:10043C0001D1D2B203E0742801D07A2800D1002374
:10044C00A88E10F0080FBCD00BB9002AB9D04CF014
:10045C0020007828B5D12869302100F809102869C6
:10046C00401C286100F809C0A8E79DF846004C28FC
:10047C0020680AD1C01D072188432060014601F184
:10048C0008002060D1E9000109E0C01D0721884364
:10049C002060014601F108002060D1E90001CDE99E
:1004AC000201BDF80E0010F4004F04D028692D2174
:1004BC0000F809100FE0A88E10F0020F04D0286984
:1004CC002B2100F8091006E010F0010F06D0286966
:1004DC00202100F809102869401C2861286914A9FA
:1004EC004018A860614602A800F02AFB78E09DF84D
:1004FC00460062280CD068282AD06A2818D06C28AC
:10050C001FD071280BD074281BD07A2819D026E064
:10051C00A86A2268111D21601168087060E0A86A41
:10052C00C11723681A1D22601A68C2E9000157E03E
:10053C00A86AC11723681A1D22601A68C2E9000153
:10054C004EE02168081D20600868A96A016047E038
:10055C00A86A2268111D21601168088040E021689A
:10056C00081D20600868A96A016039E02168081D2F
:10057C0020600A6814A8A8604FF0FF3000211040DA
:10058C00CDE90201782123E79DF846006C2821680B
:10059C0013D0081D20600868A860EA6A002A02D5FA
:1005AC0005F0D0F807E0002104F02CFE10B1A9688A
:1005BC00401A00E0E86A686112E0081D20600968D2
:1005CC0002A800F0B1F800280AD5A7E62869411C5A
:1005DC002961BCF1000F08BF4FF0250C00F809C0D1
:1005EC000020761C00287FF4B3AD286B2969401AD3
:1005FC00E969401A6969401A296A401AA969401ABE
:10060C00696A471AA88E10F0040F12D120208DF8B9
:10061C0000004FF00008012F0BDB012200A902A8FB
:10062C0000F0DEFD00287FF493AD08F10108B84519
:10063C00F3DB2A6914A902A800F0D2FD00287FF48C
:10064C0087AD30208DF80000D5F81CA04FF00008C5
:10065C00BAF1010F0BDB012200A902A800F0C0FDCA
:10066C0000287FF475AD08F10108D045F3DB6A6909
:10067C00A96802A800F0B4FD00287FF469AD302011
:10068C008DF80000D5F820A04FF00008BAF1010F4A
:10069C000BDB012200A902A800F0A2FD00287FF4C8
:1006AC0057AD08F10108D045F3DBAA696869A96860
:1006BC00411802A800F094FD00287FF449AD3020C9
:1006CC008DF80000D5F824A04FF00008BAF1010F06
:1006DC000BDB012200A902A800F082FD00287FF4A8
:1006EC0037AD08F10108D045F3DBA88E10F0040FEC
:1006FC003FF40CAD20208DF800004FF00008012FC6
:10070C00FFF604AD012200A902A800F069FD002843
:10071C007FF41EAD08F10108B845BFF6F7ACF1E760
:10072C00745C00087C5C00082DE9F04F95B0050066
:10073C008B466E6B002E48BF6FF0004605F0B0FA8A
:10074C00A96B40180190B048D0E90001CDE9030134
:10075C00A88F10F0040F02D10198412806D20DF198
:10076C001409402001900020029009E004F0AAFA3C
:10077C008146B9F1000FF6D14FF0FF3041E1361B45
:10078C00012EC0F2B88003AABBF800100DF10100D5
:10079C0005F030F9040004D4BBF8000028B9641E3D
:1007AC0003D54FF0FF300290A5E0A642C0F2A38023
:1007BC00A86901992218914280F08E800021A963CA
:1007CC004142686A081AE969401AA96A401A296AFA
:1007DC00401AE96A471AA88F10F0040F11D1202093
:1007EC008DF800004FF00008012F0ADB012200A950
:1007FC00280000F0F5FC00286CD108F10108B84580
:10080C00F4DBAA694946280000F0EAFC002861D113
:10081C0030208DF80000D5F824A04FF00008BAF174
:10082C00010F0ADB012200A9280000F0D9FC0028E6
:10083C0050D108F10108D045F4DBEA692969280098
:10084C0000F0CEFC002845D130208DF80000D5F802
:10085C0028A04FF00008BAF1010F0ADB012200A911
:10086C00280000F0BDFC002834D108F10108D04567
:10087C00F4DB2A6AE86929694118280000F0B0FC09
:10088C0040BB30208DF80000D5F82CA04FF00008AC
:10089C00BAF1010F09DB012200A9280000F0A0FC2D
:1008AC00C0B908F10108D045F5DBA88F10F0040F92
:1008BC0010D020208DF800004FF00008012F09DB2C
:1008CC00012200A9280000F08BFC18B908F10108DE
:1008DC00B845F5DB0020A86122000DF10101A869E3
:1008EC00484404F021FCA8692018A8613BF8020BCD
:1008FC0000287FF444AFA86BA969401A696A401AB2
:10090C00E969401AA96A401A296A401AE96A441A24
:10091C00A88F10F0040F0FD120208DF800000026B6
:10092C00012C09DB012200A9280000F059FC002849
:10093C005DD1761CA642F5DBAA694946280000F079
:10094C004FFC002853D130208DF800006E6A002730
:10095C00012E09DB012200A9280000F041FC00282F
:10096C0045D17F1CB742F5DBEA692969280000F004
:10097C0037FC00283BD130208DF80000AE6A0027F0
:10098C00012E09DB012200A9280000F029FC002817
:10099C002DD17F1CB742F5DB2A6AE8692969411819
:1009AC00280000F01DFC10BB30208DF80000EE6A12
:1009BC000027012E08DB012200A9280000F010FC02
:1009CC00A8B97F1CB742F6DBA88F10F0040F0ED02D
:1009DC0020208DF800000026012C08DB012200A944
:1009EC00280000F0FDFB10B9761CA642F6DB0020B7
:1009FC00A861A86305A881451CBF484604F09EFA6F
:100A0C00029815B0BDE8F08FC85C00082DE9FA47D4
:100A1C0086B08046D8F8140000909DF818006F2816
:100A2C0002D14FF0080907E040F0200078280CBFF5
:100A3C004FF010094FF00A093C24D8E900010600D8
:100A4C000F009DF81820642A01D0692A09D10029C9
:100A5C0007DC00DB05D200200021801BB941060019
:100A6C000F001FB916B9D8F8340050B3651E2C000E
:100A7C004FEAE97ACDE9029A30003900DDE9022328
:100A8C0004F0DCF8CDE90401B246DDE90423DDE92C
:100A9C000201A2FB00675046801B3030C0B23A28DE
:100AAC0003D39DF818105139081800996854DDE9E2
:100ABC00046707B92EB1D8F8100000996118884264
:100ACC00D4D3B9F1080F0CD1B8F83C0010F0080FD2
:100ADC0007D00098205C302803D0641E0098302189
:100AEC002154C4F13C00C8F81C0000996118C8F8E6
:100AFC001010D8F8341088420ADA081AC8F8240002
:100B0C00B8F83C004FF6EF710840A8F83C0014E030
:100B1C00002912D5B8F83C1001F0140110290CD1A1
:100B2C00D8F83810D8F81820891AD8F82420891A3F
:100B3C000C1A012CA8BFC8F8244008B0BDE8F087F7
:100B4C002DE9F24F8EB0060004AFD6E90001CDE9D5
:100B5C0000019DF8380040F020008DF80800612855
:100B6C000BD0706B002801D5062005E005D19DF84F
:100B7C000800672801D101207063F18847F6F070F6
:100B8C000840001140F2FF7290421CD111F00F0F7F
:100B9C0005D1B08818B9708808B9308848B10320DD
:100BAC00F0619DF83800612835D37B2833D2D5A16C
:100BBC0032E00320F0619DF83800612831D37B28A6
:100BCC002FD2D1A128E0012804DA300003F038FF3D
:100BDC0001281DDAF18848F20F02114043F6E07249
:100BEC001143F180A0F2FE354FF0FF309DF8081054
:100BFC0061291DD13269511C31613021117031696B
:100C0C004A1C32619DF83820612A0CD178220BE005
:100C1C0000250020EAE7CFA10322306904F084FA12
:100C2C0095E1CDA1F8E758220A70B169891CB16130
:100C3C0010B90024002580E19DF80800612840F0DF
:100C4C009980706B002801D5212401E0441C24B24A
:100C5C0004F10108D6E900ABDDE900010022002314
:100C6C0004F0C0FD2EBFCDE900AB8BF0004BCDE9FD
:100C7C0000AB2D1F00208DF810000DF11109B8F1FB
:100C8C00010F35DBDDE900010022002304F0C2FD79
:100C9C002ED21C2100A803F053FDDDE9000104F065
:100CAC00DDFA0700A8F10708B8F1010F09DB04F021
:100CBC00C9FD02000B00DDE9000103F0EBF9CDE901
:100CCC00000109F107000721012F0ADB491E08D496
:100CDC0007F00F0200F8012D3F11F5E7002200F894
:100CEC00012D491EFAD500F10709B8F1010FC9DA37
:100CFC000DF11100A9EB00000DF11107A042B8BFD6
:100D0C0004B2002C2FD4844206DA04A820184078B0
:100D1C00082801D30F2000E00020210004AA8A1823
:100D2C0001E0641E24B2491E12F801398342F8D046
:100D3C000F2804D104A808184278521C42700029CC
:100D4C0003D504AF641C24B22D1D200009E0C15D45
:100D5C003031C9B23A2903D39DF838203A3A5118A8
:100D6C00C155401EF3D5706B002840F1E680601E23
:100D7C007063E2E0DDE900010022002304F032FDA3
:100D8C003EBFDDE9000181F00041CDE900012DB24B
:100D9C0047F297506843714990FBF1F52DB2C5F1BC
:100DAC0007009046DFF8B89101281BDB0400DDE951
:100DBC0000AB14F0010F07D05046594642464B4643
:100DCC0003F096F882468B466410404649464246EC
:100DDC004B4603F08DF880468946002CE9D1CDE9CD
:100DEC0000AB22E044429246DFF878B113E014F0F5
:100DFC00010F07D05046594642464B4603F078F84F
:100E0C0082468B4664104046494642464B4603F0A8
:100E1C006FF880468946002CE9D1DDE90001524685
:100E2C005B4602F0D3F9CDE900019DF80800662875
:100E3C0002D105F10A0000E00620716B4418142C55
:100E4C00A8BF132430208DF810000DF11107012CD0
:100E5C002DDBDFF8149111E0DDE9000104F014FA48
:100E6C0004F0FAFC02000B00DDE9000103F012F9BA
:100E7C0000224B4603F03CF8CDE90001DDE900010E
:100E8C0004F002FA07F1080108220A23B0FBF3FC74
:100E9C00E6460EFB1303DBB26046303301F8013D2E
:100EAC00521EF2D101F10807083C012CD4DA0DF1E5
:100EBC001100381A0DF111079DF81110302905D1C8
:100ECC00401E6D1E17F8011F3029F9D09DF808102F
:100EDC00662902D12DB2691C04E0652901D10121DA
:100EEC0000E00021726B8C1824B2A042B8BF04B28F
:100EFC00002C22D4844209DAE05D352806D339204F
:100F0C0005E000BF6E616E00696E66003020210046
:100F1C00CA19521E01E0641E24B2491E12F801398E
:100F2C008342F8D0392802D1C85D401CC85500292D
:100F3C0003D57F1E641C24B26D1C2DB220B523007A
:100F4C003A009DF84010300000F010F802B00FB0DD
:100F5C00BDE8F08F4E414E00494E4600A086010080
:100F6C00000024400000F03F84D797412DE9F04762
:100F7C0086B00400884615001E00BDF9387004F0D8
:100F8C002DFE406A90F800A0D4F83490012E01DABE
:100F9C00012692A548F0200066280AD0672840F068
:100FAC0086806FF003018F42C0F287804F4580F23C
:100FBC0084807F1C66280CD0A08F10F0080F02D103
:100FCC004E45B8BFB1463FB2B9EB070948BF4FF029
:100FDC0000092069E1693FB2012F25DA4A1C302350
:100FEC000B54B9F1010F03DAA18F11F0080F02D0E5
:100FFC0002F800A0521CE26179428945B8BFC9F1E0
:10100C0000073FB27942A162B944B145B8BF4E4620
:10101C0036B2266232002900E369181804F084F80D
:10102C00A9EB0600E062C3E00818BE4218DA3200F1
:10103C00290004F079F8E1697118E161B81BA0622C
:10104C00B9F1010F03DAA08F10F0080F05D0206959
:10105C0001F800A0206A401C2062C4F82C90A7E084
:10106C003A00290004F060F8E0693818E061F61BDA
:10107C00B9F1010F03DAA18F11F0080F04D0411C54
:10108C00E161216900F801A036B2B145B8BF4E4606
:10109C0036B232007919E0692369C01804F044F8BB
:1010AC00E0693018E061A9EB0600A06280E0B8F1BD
:1010BC00610F16D14FF0700818E04E4504DAA18F7D
:1010CC0011F0080F08BFB146B9F1010948BF4FF044
:1010DC000009B8F1670F14BF4FF045084FF06508D1
:1010EC0004E0B8F1410F08BF4FF05008E1694A1C09
:1010FC00206915F8013B0B54B9F1010F03DAA18FEC
:10110C0011F0080F02D002F800A0521CE261B9F1F4
:10111C00010F11DB761E36B2B145B8BF4E4636B262
:10112C0032002900E369181803F0FEFFE06930185B
:10113C00E061A9EB0600A062E0692169451805F899
:10114C00018B002F03D42B2005F8010B04E02D207C
:10115C0005F8010B3800474200260DF1080909E09B
:10116C000A22390000A804F02FFD019809F8010BA0
:10117C00009F761C3FB2012FF2DA022E06DA48F0FD
:10118C002000652802D1302005F8010B4EB9302023
:10119C0005F8010B07E0761E02A8305C303005F82C
:1011AC00010B012EF7DAE06921694018281A206238
:1011BC00A08F00F0140010280DD1A069E169081867
:1011CC00A16A0818216A0818E16A0818A16B8842FC
:1011DC0001DA081A606206B0BDE8F0873000000042
:1011EC00F8B505000E00140000208CB14FF0FF374D
:1011FC0005E0286B401C28630020641E08D016F8FC
:10120C00011BE868AA689047E8600028F1D1380013
:10121C00F2BD000080B580B2002806D1DFF8DC0AF0
:10122C00006801210182002008E0DFF8C80A00688C
:10123C0000688047DFF8C40A00680A3002BD00006D
:10124C0080B5DFF8B0094078DFF8B01A0968C978C2
:10125C0088421AD3DFF8A40A00688078002814D1D9
:10126C00DFF8980A0068808800280ED1DFF88C0A15
:10127C000068DFF8881A0968C9788172DFF8740A87
:10128C00006840688047002000E0022002BD00009A
:10129C0080B580B2002806D1DFF8600A0068012111
:1012AC000182002008E0DFF84C0A00688068804763
:1012BC00DFF8480A00680C3002BD000080B5DFF88A
:1012CC003C0A0068C178DFF8340A00684079DFF81E
:1012DC00282A126892699047DFF8201A0968897ADF
:1012EC0000292AD0C0B200280BD1DFF8101A0968E7
:1012FC000979002905D1DFF8041A096889780029D1
:10130C0001D002201AE0C0B2002816D1DFF8E4099F
:10131C000068C0688047DFF8E4090068DFF8DC1972
:10132C0009684979C172DFF8D4090068DFF8CC1973
:10133C000968C9780173002000E0022002BD00009A
:10134C0080B580B2002806D1DFF8B0090068022110
:10135C000182002025E0364800210180DFF89C093D
:10136C000068007810F07F0F23D1DFF89009006837
:10137C00407A10F0200F05D02D49097851F0020168
:10138C002B4A117010F0400F0CD02948007810F047
:10139C00FE0027490870DFF85C0900680069804787
:1013AC00234802BD2248007850F001002049087003
:1013BC00F1E7DFF848090068007810F07F00012899
:1013CC0001D11B48EDE7DFF834090068007810F014
:1013DC007F00022829D1DFF824090068417911F037
:1013EC000F0011F0800F0FD0C0B2DFF8041851F8C5
:1013FC00200010F030001028CDD10D48007850F0AE
:10140C0001000B490870C6E7C0B2DFF8E41751F8C9
:10141C00200010F44050B0F5805FBCD10448007837
:10142C0050F0010002490870B5E70020B9E700BF91
:10143C007C08002010B5DFF8C4080068007810F0B4
:10144C007F0000280BD1DFF8B4080068407A10F058
:10145C00DF00DFF8A81809684872002090E0022825
:10146C0040F08D80DFF8940800684088002805D192
:10147C00DFF8880800680079002801D002207FE09E
:10148C00DFF87007DFF87418096849790B008022BF
:10149C0093431C00DFF864281268527912F0800F15
:1014AC0006D0DFF84C2752F8242012F0300205E069
:1014BC00DFF83C2752F8242012F440520078834283
:1014CC0007D2002A05D0DFF834080068807A00289B
:1014DC0001D1022054E011F0800F11D0DFF8100779
:1014EC0050F8240010F03000102841D12000C0B278
:1014FC0002F086F930212000C0B202F0FDF837E08E
:10150C00DFF8EC0650F8240010F44050B0F5805F82
:10151C002ED1002C18D11B4890F82C1089B2200029
:10152C00C0B202F0CDF9DFF8C80650F824004BF633
:10153C008F71084090F4805090F40050DFF8B01692
:10154C0080B241F8240013E02000C0B202F03EF952
:10155C00DFF89C0650F824004BF68F71084090F48D
:10156C00805090F40050DFF8881680B241F82400C7
:10157C00DFF88007006840698047002000E0022007
:10158C0010BD0000D409002080B5DFF8700700689A
:10159C004179080080229043DFF860271268527965
:1015AC0012F0800F06D0DFF8482652F8202012F0F7
:1015BC00300205E0DFF8382652F8202012F44052B1
:1015CC00DFF830361B7898420DD2DFF830371B68C5
:1015DC005B88002B07D1002A05D0DFF82027126882
:1015EC00927A002A01D1022025E011F0800F0ED052
:1015FC00DFF8FC1551F8201048F6BF72114091F03D
:10160C001001DFF8EC2589B242F820100DE0DFF86C
:10161C00E01551F820104BF68F72114091F4805167
:10162C00DFF8CC2589B242F82010DFF8C806006834
:10163C0080698047002002BD80B5DFF8C0060068D5
:10164C00407A50F02000DFF8B41609684872DFF8D1
:10165C00A4060068C0698047002002BDDFF89C2604
:10166C001268528A80B2002807D18888801ADFF865
:10167C008C1609680882002001E008681018704771
:10168C0070B5DFF87806006810F110052888A96895
:10169C0000291CD000281AD0AC88A04200D204002B
:1016AC00200080B2A9688847060028882100401ACB
:1016BC0028806888210008186880002002F0E6F86D
:1016CC00220092B2010089B2300003F0B1FE2888EA
:1016DC0000280BD0DFF824054FF440510180002185
:1016EC00002002F0DFF89948302101802888A98871
:1016FC00884205D3DFF804060068032101721BE061
:10170C002888012805D3DFF8F4050068052101724B
:10171C0012E0288800280FD1DFF8E00500680621C8
:10172C000172DFF86805006880B28749002241F831
:10173C00102086483021018070BD0000F8B5DFF81C
:10174C00BC05006810F110042088DFF8B01509689A
:10175C000D7A00281CD1042D1AD1DFF89C040078D6
:10176C00012810D1DFF82405006880B276490022E8
:10177C0041F810207548302101800425DFF87804E9
:10178C000021017030E007257048102101802BE00A
:10179C00A688864201D3042500E00225B04200D27F
:1017AC000600300080B2A16888470700002002F0D4
:1017BC0061F8320092B2010089B2380003F022FEC7
:1017CC00310089B2002002F06DF820883100401AF7
:1017DC0020806088301860805C4830210180DFF800
:1017EC001C044FF440510180DFF8100500680572AD
:1017FC00F1BD000010B50220DFF8001509684C7827
:10180C00DFF8F8140968097811F07F0F56D1092C0C
:10181C0002D1FFF715FD71E0052C1BD1DFF8DC04BC
:10182C000068C078802811D2DFF8D0040068807876
:10183C0000280BD1DFF8C40400688088002805D18B
:10184C00DFF8B8040068807A002801D0082075E021
:10185C00002053E0032C17D1DFF8A0040068C078F7
:10186C0001280FD1DFF8940400688088002809D182
:10187C00DFF888040068407A10F0200F02D0FFF7E0
:10188C00DBFE3BE0022039E0012C37D1DFF86C04A1
:10189C000068C07801280FD1DFF8600400688088E8
:1018AC00002809D1DFF854040068407A10F0200FAA
:1018BC0002D0FFF7BFFD21E002201FE0DFF83C144F
:1018CC000968097811F07F01012904D10B2C15D17D
:1018DC00FFF7F4FC12E0DFF824140968097811F022
:1018EC007F01022909D1012C02D1FFF7A3FD05E0EC
:1018FC00032C03D1FFF748FE00E00220C0B2002801
:10190C000BD02000C0B2DFF8F01309684969884792
:10191C00C0B2032801D1092010E0C0B2002801D0C8
:10192C0008200BE00620DFF86413096889B2064A28
:10193C00002342F81130054930220A80DFF8BC132D
:10194C000968087210BD000004600040B80800204F
:10195C0038B5DFF8A8030068407800240025062875
:10196C0024D1DFF898030068007810F07F0F40F066
:10197C00B780DFF8880300688078C0B2012804D1F2
:10198C00DFF874030068C469AAE0C0B2022804D16D
:10199C00DFF864030068046AA2E0C0B2032840F0D8
:1019AC009F80DFF854030068446A99E0002865D1F1
:1019BC00DFF848130968498800295FD1DFF83C1328
:1019CC000968C988022959D1DFF8301309680979E7
:1019DC00002953D1DFF824030068007810F07F0F42
:1019EC0007D1DFF8180300688088002801D17D4CEE
:1019FC0076E0DFF808030068007810F07F0001281B
:101A0C0010D10021BD4800684079BB4A1268926928
:101A1C009047002864D1B9480068807A00285FD0CC
:101A2C00704C5DE0B5480068007810F07F0002282B
:101A3C0056D1B2480068407910F00F00AF490968E0
:101A4C00497911F07001AD4A1268527912F0800F89
:101A5C0005D0674A52F8202012F0300204E0644AA4
:101A6C0052F8202012F44052624B1B78984237D225
:101A7C00002935D1002A33D05A4C31E0082807D13F
:101A8C009E480068007810F07F0F29D1564C27E053
:101A9C000A2825D199480068007810F07F000128A9
:101AAC001ED196480068807A002819D093480068A7
:101ABC004088002814D191480068007900280FD183
:101ACC008E480068C08801280AD100218B48006824
:101ADC004079894A126892699047002800D1434C9A
:101AEC002000002814D0854800684582834800688F
:101AFC0084610020A047002080490968098A4FF6BC
:101B0C00FF72914213D17D4800680921017268E08F
:101B1C007A48006840787849096809698847C0B2F2
:101B2C000328E9D1754800680921017259E0C0B257
:101B3C00022804D071480068008A002804D16F483C
:101B4C000068082101724CE06C480068007810F0C5
:101B5C00800F3ED069480068C088009000986749A3
:101B6C000968098A884204D2644800680099018295
:101B7C0025E062480068008A60490968C988884283
:101B8C001DD25E480068008A5B49096891F82C10E8
:101B9C0089B2884203D21848002101700FE05748DF
:101BAC000068008A5449096891F82C1090FBF1F2F6
:101BBC0002FB1100002802D10F48012101704F488F
:101BCC0000684D49096891F82C108182FFF7B6FD29
:101BDC0007E04A4800680321017208484FF440515D
:101BEC00018031BD4D130008211200089D12000820
:101BFC00005C0040D00A0020BF080020B60800207E
:101C0C0010B520482149096889B21F4A52F81110B1
:101C1C0089B210EB410439480068007A092820D0B9
:101C2C003648006821780170641C344800682178BB
:101C3C004170641CA41C2000841C008801F06EFE02
:101C4C002E4909684880A41C2000841C008801F0DF
:101C5C0065FE2A4909688880A41C284800682188E8
:101C6C00C180264800680121017224480068C088A0
:101C7C00002802D1FFF7BEFD01E0FFF769FE00F07E
:101C8C0067F810BD0060004008600040505C0040E8
:101C9C0080B51A480068007A022801D0042805D1C2
:101CAC00FFF74CFD15480068007A1CE0062819D196
:101CBC0012480068407805280ED11048006800785A
:101CCC0010F07F0F08D10D480068C07800F066F85E
:101CDC0008480068006A80470748006880688047A9
:101CEC00082000E0082005490968087200F030F867
:101CFC0002BD000088080020840800208008002015
:101D0C0080B511480068007A032801D0052805D158
:101D1C00FFF7B6FC0C480068007A0EE0072805D1E6
:101D2C000A480068C0688047082006E0022801D0F5
:101D3C00042801D1082000E0082003490968087232
:101D4C0000F006F802BD00BF8008002084080020C7
:101D5C0080B50E4890F82C1089B2002001F0B0FD2F
:101D6C000B480068007A082806D10A484FF48051C5
:101D7C00018009481021018005480068007A092873
:101D8C0001D1012000E00020C0B202BDD409002026
:101D9C0080080020B6080020B808002080B5124941
:101DAC000A78002117E00B00DBB2DFF840C05CF8CA
:101DBC0023309BB248F68F7C1CEA03038C465FFAF7
:101DCC008CFC5CEA03038C465FFA8CFCDFF81CE0AD
:101DDC004EF82C30491C9142E5D3C0B250F0800033
:101DEC000349086001BD00BFD00A0020005C004020
:101DFC004C5C00407047000070B504000D000026DC
:101E0C0000220020002300215FF0000CDFF838E4F2
:101E1C0074451CD0DFF83404844218D0DFF8300449
:101E2C00844214D0DFF82C04844210D0DFF828044C
:101E3C0084420CD0DFF82404844208D0DFF820045C
:101E4C00844204D0B121DFF8100503F059FDE87885
:101E5C00002819D0E878042816D0E878282813D060
:101E6C00E878482810D0E87814280DD0E8781028A5
:101E7C000AD0E8781C2807D0E878182804D0B221BA
:101E8C00DFF8D40403F03CFD2888002804D1B321EA
:101E9C00DFF8C40403F034FDE87810F00F06E8789E
:101EAC0010F0100F0FD0A87801280AD0A8780228BB
:101EBC0007D0A878032804D0BA21DFF89C0403F0DB
:101ECC001FFDA87806432888000624D0216800202E
:101EDC0006E0EA78482A02D1012282402261401CA5
:101EEC00082817D2012383402A881A409A42F6D137
:101EFC0083005FF00F0C1CFA03FC7FEA0C0211400C
:101F0C0016FA03F21143EA78282AE2D10122824020
:101F1C006261E4E7216028884FF4807188422AD3FB
:101F2C006168002024E001220300083312FA03F355
:101F3C002A881A409A421AD183005FF00F0C1CFABF
:101F4C0003FC7FEA0C02114016FA03F21143EA7803
:101F5C00282A04D10122030008339A406261EA78EE
:101F6C00482A04D10122030008339A402261401C04
:101F7C000828D8D3616070BD38B504000D0000206E
:101F8C00DFF8C4128C421DD0DFF8C002844219D095
:101F9C00DFF8BC02844215D0DFF8B802844211D0BD
:101FAC00DFF8B40284420DD0DFF8B002844209D0CD
:101FBC00DFF8AC02844205D040F21D11DFF8980323
:101FCC0003F09EFCADB2012D42D0ADB2022D3FD03C
:101FDC00ADB2042D3CD0ADB2082D39D0ADB2102D20
:101FEC0036D0ADB2202D33D0ADB2402D30D0ADB205
:101FFC00802D2DD04FF48070ADB2854228D04FF497
:10200C000070ADB2854223D04FF48060ADB28542F2
:10201C001ED04FF40060ADB2854219D04FF4805001
:10202C00ADB2854214D04FF40050ADB285420FD002
:10203C004FF48040ADB285420AD04FF40040ADB2AF
:10204C00854205D04FF48F71DFF80C0303F058FC78
:10205C00A06815EA0001080080B2401E8041C04310
:10206C00C00FC0B232BD000038B504000D00764878
:10207C00844217D07548844214D07548844211D0DC
:10208C00744884420ED0744884420BD07348844206
:10209C0008D07348844205D04FF4B471DFF8B8020D
:1020AC0003F02EFCADB2002D05D140F26911DFF822
:1020BC00A80203F025FCADB2256131BD38B5040092
:1020CC000D006148844217D06048844214D06048A7
:1020DC00844211D05F4884420ED05F4884420BD0BA
:1020EC005E48844208D05E48844205D04FF4BC71EF
:1020FC00DFF8640203F004FCADB2002D05D140F210
:10210C007911DFF8540203F0FBFBADB2656131BD10
:10211C0070B505000E0014004B48854217D04B4893
:10212C00854214D04A48854211D04A4885420ED087
:10213C00494885420BD04948854208D048488542D9
:10214C0005D04FF4C671DFF8100203F0D9FBB6B21C
:10215C00012E42D0B6B2022E3FD0B6B2042E3CD0E5
:10216C00B6B2082E39D0B6B2102E36D0B6B2202E5A
:10217C0033D0B6B2402E30D0B6B2802E2DD04FF424
:10218C008070B6B2864228D04FF40070B6B2864248
:10219C0023D04FF48060B6B286421ED04FF400605C
:1021AC00B6B2864219D04FF48050B6B2864214D0E3
:1021BC004FF40050B6B286420FD04FF48040B6B206
:1021CC0086420AD04FF40040B6B2864205D040F2A7
:1021DC008D11DFF8840103F093FBE4B2002C08D0DE
:1021EC00E4B2012C05D04FF4C771DFF86C0103F099
:1021FC0087FBE4B2002C02D0B6B22E6101E0B6B27D
:10220C006E6170BD38B504000D000F48844217D0C4
:10221C000E48844214D00E48844211D00D4884429A
:10222C000ED00D4884420BD00C48844208D00C4888
:10223C00844205D040F2A311DFF81C0103F060FBCF
:10224C00ADB2E56031BD000000080140000C01405A
:10225C00001001400014014000180140001C014016
:10226C000020014038B504000D000020E4B2002C21
:10227C0016D0E4B2012C13D0E4B2022C10D0E4B28C
:10228C00032C0DD0E4B2042C0AD0E4B2052C07D0F8
:10229C00E4B2062C04D04FF411712F4803F030FB3C
:1022AC00EDB2002D31D0EDB2012D2ED0EDB2022DBC
:1022BC002BD0EDB2032D28D0EDB2042D25D0EDB2EC
:1022CC00052D22D0EDB2062D1FD0EDB2072D1CD05E
:1022DC00EDB2082D19D0EDB2092D16D0EDB20A2DA4
:1022EC0013D0EDB20B2D10D0EDB20C2D0DD0EDB2F4
:1022FC000D2D0AD0EDB20E2D07D0EDB20F2D04D05E
:10230C0040F24521144803F0FBFA0F2015F00301AD
:10231C00C9B289008840EDB2A9100E4A52F82110BA
:10232C00C0430840EDB2A9100A4A42F82100EDB2B0
:10233C00A810084951F82000E4B215F00301C9B205
:10234C00890014FA01F10843EDB2A910014A42F8D0
:10235C00210031BD080001401453000880B54FF432
:10236C007A7000F0A3F901BD80B5642000F09EF9ED
:10237C0001BD000000B585B05FF4E1300090002095
:10238C00ADF804000020ADF806000020ADF8080000
:10239C000020ADF80C000C20ADF80A0000A9E048B4
:1023AC0000F0D0FB0121DE4800F0A8FC05B000BD18
:1023BC0080B501F0EBFF0121042000F01DFB012191
:1023CC00082000F019FB0121102000F015FB012161
:1023DC00202000F011FB01214FF4804000F00CFB99
:1023EC000121012000F008FB0121012000F0D6FAA8
:1023FC0001BD000080B500215FF0006002F07EF9A5
:10240C004FF4E06002F00CF906208DF8000000207B
:10241C008DF8010000208DF8020001208DF80300DA
:10242C0000A802F019F907208DF8000000208DF8A3
:10243C00010001208DF8020001208DF8030000A896
:10244C0002F00AF901BD000080B5002000F018FA76
:10245C0001215FF4000000F0F9FA01BD80B51648C7
:10246C00032101600121012002F09AFE01BD000050
:10247C0010B5104C5FF4803000F074F900F0B0F936
:10248C00012000F0C9F9392000F00EFB0028FAD029
:10249C00022000F0D5F900F0EDF90828FBD1A07A64
:1024AC00002803D004480521016002E00248012104
:1024BC00016010BD240800209008002080B54FF466
:1024CC00A06002F0ADF814208DF8000001208DF80A
:1024DC00010000208DF8020001208DF8030000A8F7
:1024EC0002F0BAF82A208DF8000000208DF80100C7
:1024FC0000208DF8020001208DF8030000A802F0E6
:10250C00ABF80B208DF8000000208DF801000020A6
:10251C008DF8020001208DF8030000A802F09CF851
:10252C0001BD000080B5C0B2002805D04FF4807109
:10253C002648FFF7C3FD04E04FF480712348FFF7F2
:10254C0093FD01BD80B54FF40070ADF80000032081
:10255C008DF8020018208DF8030000A91B48FFF726
:10256C004BFC4FF48060ADF8000004208DF80300A4
:10257C0000A91648FFF740FC0320ADF8000004202A
:10258C008DF8030000A91148FFF736FC4FF4487092
:10259C00ADF8000003208DF8020010208DF8030028
:1025AC0000A90948FFF728FC4FF48070ADF8000033
:1025BC0003208DF8020014208DF8030000A90348B5
:1025CC00FFF71AFC01BD00BF000C014000080140E0
:1025DC0000B583B000210020FFF744FE01200090DD
:1025EC0000208DF804000C208DF8050001208DF8DA
:1025FC00060000A801F09CFB01210020FFF732FE31
:10260C000220009000208DF804000C208DF80500AD
:10261C0001208DF8060000A801F08AFB5FF48020F1
:10262C0001F052FC5FF48020009008208DF805002A
:10263C0001208DF8060000A801F07AFB07BD000010
:10264C00164802681648006816490968002A24D002
:10265C00154B9A70130ADFF850C08CF80430130C29
:10266C00DFF844C08CF80630120E0F4B1A720E4A6B
:10267C009072020A0C4B1A73020C0B4B9A73000EDD
:10268C00094A107408488174080A074A1075080C26
:10269C00054A9075080E044908767047E8F7FF1F45
:1026AC00ECF7FF1FF0F7FF1F480A002001B481B0C0
:1026BC00094801990160084800680028FBD102B064
:1026CC007047000004480068002804D002480068E5
:1026DC00401E0149086070477808002010B50400BE
:1026EC000A2C0ED10D210E4800F040FB80210C4825
:1026FC0000F088FB0028F9D00A21094800F036FBCD
:10270C0005E02100C9B289B2054800F02FFB8021F9
:10271C00034800F077FB0028F9D0200010BD000022
:10272C000038014038B504002021200000F06AFB7D
:10273C000028F9D0200000F03FFB0500EDB2290085
:10274C0089B2200000F012FB8021200000F05AFB1F
:10275C000028F9D0EDB20D2D01D10A2001E028009E
:10276C00C0B232BD10B50400002C0BD0B4F5803FC4
:10277C0008D0B4F5802F05D040F21111DFF8C0035A
:10278C0003F0BEF8DFF8AC0300687FF4803108403A
:10279C00DFF8A0130860DFF89C0300687FF4802149
:1027AC000840DFF8901308605FF48030241A04D0DE
:1027BC005FF44030241A09D010E0DFF87803006889
:1027CC0050F48030DFF86C13086007E0DFF8640326
:1027DC00006850F4A020DFF85C13086010BD000006
:1027EC0080B50020009000200021312000F05CF921
:1027FC0001000098401C00900098B0F5A06F02D02A
:10280C00C9B20029F1D0312000F04EF9401E8041B0
:10281C00C043C00FC0B202BD10B50400E4B2002C1E
:10282C0008D0E4B2012C05D04FF4CA71DFF81003C4
:10283C0003F066F80148E4B2046010BD6000424247
:10284C0010B504000020002C09D0012C07D0022C5C
:10285C0005D04FF40D71DFF8E80203F051F8DFF802
:10286C0038010068032188432043DFF82C110860ED
:10287C0010BD0000DFF82001006810F00C0070475C
:10288C0010B50400002C07D0012C05D040F2D72144
:10289C00DFF8AC0203F034F80148046010BD00BF4F
:1028AC00D800424210B50022002100235FF0000C3A
:1028BC00DFF8E4E0DEF800E01EF00C0E7246002AB1
:1028CC0004D0042A05D0082A06D025E02C49016042
:1028DC0024E02C49016021E02F49096811F47011A2
:1028EC002D4A126812F48033890C891C002B04D1F8
:1028FC00254A01FB02F1016010E0274A126812F42C
:10290C00003F04D0214A01FB02F1016006E01D4AA0
:10291C0001FB02F1016001E0194901601E490968DF
:10292C0011F0F00212091A4912F801C0016831FACB
:10293C000CF141601849096811F4E062120A14495B
:10294C0012F801C0416831FA0CF181601249096832
:10295C0011F46052D20A0E4912F801C0416831FAE2
:10296C000CF1C1600C49096811F44042920B094901
:10297C0012F801C0C168B1FBFCF1016110BD00BFD0
:10298C0000127A00001BB70000093D00808D5B002F
:10299C009C0A0020CC0A00200410024038B5040028
:1029AC000D001348204201D1002C05D140F21A41F0
:1029BC00DFF88C0102F0A4FFEDB2002D08D0EDB2CF
:1029CC00012D05D040F21B41DFF8740102F098FF95
:1029DC00EDB2002D05D0074800682043054908607A
:1029EC0005E004480068E14308400249086031BD35
:1029FC00A8FAFFFF1410024038B504000D00284857
:102A0C00204201D1002C04D140F237414C4802F055
:102A1C0077FFEDB2002D07D0EDB2012D04D04FF4AD
:102A2C008761474802F06CFFEDB2002D05D00648D7
:102A3C00006820430449086005E003480068E1434E
:102A4C0008400149086031BD1810024038B5040037
:102A5C000D001448204201D1002C04D140F2554104
:102A6C00374802F04DFFEDB2002D07D0EDB2012D2D
:102A7C0004D040F25641324802F042FFEDB2002D34
:102A8C0005D00648006820430449086005E0034867
:102A9C000068E14308400149086031BD1C10024048
:102AAC000200FFFFC03701C110B504000021002255
:102ABC000020E4B2212C22D0E4B2312C1FD0E4B29D
:102ACC00392C1CD0E4B2412C19D0E4B2612C16D0B4
:102ADC00E4B27A2C13D0E4B27B2C10D0E4B27C2C70
:102AEC000DD0E4B27D2C0AD0E4B27E2C07D0E4B237
:102AFC007F2C04D040F21D51114802F001FFE4B2CA
:102B0C006109C9B2012902D10A48026806E002290A
:102B1C0002D10948026801E008480268E4B214F0E6
:102B2C001F01012088401040401E8041C043C00F4F
:102B3C00C0B210BD00100240201002402410024010
:102B4C005455000870B586B004000D00002000211B
:102B5C00002200230026DFF894C2644514D0DFF86D
:102B6C009002844210D0DFF88C0284420CD0DFF843
:102B7C008802844208D0DFF88402844204D0AD215C
:102B8C00DFF87C0202F0BCFE2868002803D028681D
:102B9C005949884204D3AE21DFF8640202F0B0FE3A
:102BAC00A888002809D0A8884FF48051884204D006
:102BBC00AF21DFF84C0202F0A3FEE888002813D006
:102BCC00E8884FF4805188420ED0E8884FF40051C9
:102BDC00884209D0E8884FF44051884204D0B02193
:102BEC00DFF81C0202F08CFE288900280ED0288900
:102BFC004FF48061884209D028894FF4C061884223
:102C0C0004D0B121DFF8F80102F07AFE68894FF6A2
:102C1C00F371084202D16889002804D1B221DFF88F
:102C2C00E00102F06DFEA889002813D0A8894FF4AA
:102C3C00807188420ED0A8894FF40071884209D067
:102C4C00A8894FF44071884204D0B321DFF8B00159
:102C5C0002F056FEA889002810D0DFF890018442BB
:102C6C000CD0DFF88C01844208D0DFF88801844254
:102C7C0004D0B721DFF8880102F042FE2600208A3A
:102C8C004CF6FF710840E98808432082A0894EF673
:102C9C00F3110840A9882A8911436A891143084312
:102CAC00A081A08A4FF6FF410840A9890843A08261
:102CBC0000A8FFF7F7FDDFF83401864201D1039934
:102CCC0000E002991920484329688900B0FBF1F211
:102CDC006420B2FBF0F000010109642301FB132313
:102CEC00190132316422B1FBF2F111F00F010843EA
:102CFC00208106B070BD00BF21AA440038B5040085
:102D0C000D00DFF8E800844215D0DFF8E4008442BF
:102D1C0011D0DFF8E00084420DD0DFF8DC008442F3
:102D2C0009D0DFF8D800844205D04FF4A171DFF848
:102D3C00D00002F0E5FDEDB2002D08D0EDB2012D72
:102D4C0005D040F24311DFF8B80002F0D9FDEDB226
:102D5C00002D04D0A08950F40050A08104E0A0897B
:102D6C004DF6FF710840A08131BD000038B504005C
:102D7C000D001E48844210D01D4884420DD01D48C1
:102D8C0084420AD01C48844207D01C48844204D098
:102D9C0040F232211A4802F0B3FD4FF40070ADB28C
:102DAC00854204D340F23321154802F0A9FDE80511
:102DBC00C00DA08031BD000010B504000B4884424A
:102DCC0010D00B4884420DD00A4884420AD00A48DD
:102DDC00844207D00948844204D040F24321084879
:102DEC0002F08EFDA088C005C00D10BD003801405A
:102DFC000044004000480040004C0040005000409F
:102E0C006853000838B504000D0000202C498C4292
:102E1C0010D02C4884420DD02B4884420AD02B4829
:102E2C00844207D02A48844204D040F21331294806
:102E3C0002F066FDADB2012D23D0ADB2802D20D0B5
:102E4C00ADB2402D1DD0ADB2202D1AD0ADB2102D8B
:102E5C0017D04FF48070ADB2854212D04FF4007091
:102E6C00ADB285420DD0ADB2082D0AD0ADB2042D55
:102E7C0007D0ADB2022D04D04FF44571154802F0C5
:102E8C003FFD4FF40070ADB285420DD10C48844229
:102E9C000AD00C48844207D00B48844204D04FF42B
:102EAC0046710C4802F02CFD208815EA0001080040
:102EBC0080B2401E8041C043C00FC0B232BD00BFC3
:102ECC00003801400044004000480040004C0040E5
:102EDC00005000406853000810B5002442E0DFF8B1
:102EEC00E4020078DFF8D81251F82040A4B2200098
:102EFC0010F4004F1AD0DFF8CC020078DFF8C012C3
:102F0C0051F8200040F68F710840DFF8B8120978AC
:102F1C00DFF8AC2242F82100DFF8A8020078DFF8D5
:102F2C00941211EB800050F8040C804714F0800FC1
:102F3C0018D0DFF890020078DFF8841251F82000E6
:102F4C0080B248F60F710840DFF8781209789C4A75
:102F5C0042F821009B4800789B4911EB800050F807
:102F6C00040C8047944800689449088010F4004F82
:102F7C0000F01B81904847F6FF7101608F48008874
:102F8C0010F00F008F4908708E4800780028A6D1E9
:102F9C008B48006810F440508449088088480068C9
:102FAC0010F0300082490880854800684BF68F711C
:102FBC00084090F40050824980B208608048006854
:102FCC0048F6BF71084090F020007D4980B208603F
:102FDC007A48008810F0100F36D17948006880B21A
:102FEC0048F60F71084076490860FEF751FE7448A8
:102FFC0000684BF68F7108406C49098811F4805FAA
:10300C0001D090F480506949098811F4005F01D017
:10301C0090F400506A4980B208606948006848F62C
:10302C00BF7108406249098811F0100F01D090F06F
:10303C0010005F49098811F0200F01D090F020009A
:10304C005F4980B20860B0E05D480468A4B220001B
:10305C0010F0800F36D05A48006880B248F60F71D5
:10306C00084057490860FEF713FE554800684BF6B8
:10307C008F7108404D49098811F4805F01D090F49C
:10308C0080504A49098811F4005F01D090F4005037
:10309C004B4980B208604A48006848F6BF71084046
:1030AC004349098811F0100F01D090F010004049ED
:1030BC00098811F0200F01D090F02000404980B217
:1030CC00086072E0200010F4006F35D03C480068B6
:1030DC0040F68F7108403A490860FEF791FD384878
:1030EC0000684BF68F7108403049098811F4805FF5
:1030FC0001D090F480502D49098811F4005F01D063
:10310C0090F400502E4980B208602D48006848F6B3
:10311C00BF7108402649098811F0100F01D090F0BA
:10312C0010002349098811F0200F01D090F02000E5
:10313C00234980B2086038E014F4004F3FF412AF1A
:10314C001F48006840F68F7108401D490860FEF763
:10315C00D7FD1B4800684BF68F710840134909884E
:10316C0011F4805F01D090F480501049098811F45B
:10317C00005F01D090F40050114980B208601048F3
:10318C00006848F6BF7108400949098811F0100F12
:10319C0001D090F010000649098811F0200F01D0E1
:1031AC0090F02000064980B2086010BDB6080020DF
:1031BC00B8080020800A0020445C0040BA080020B7
:1031CC00005C0040C0080020640A00204FF4001C82
:1031DC001CEB410F38BF1CEB430F17D31CEB410FFB
:1031EC0009D31CEB430F28BF6FF000011B4248BFF3
:1031FC0081F0004170471CEB430F18BF6FF00001CA
:10320C0002BF594001F0004100207047BCEB410F58
:10321C0098BFBCEB430F39D950EA410C18BF52EAA6
:10322C00430C13D150EA410C81EA030101F0004137
:10323C004FF000001EBF41F0E04141F07F6170474C
:10324C0052EA430C08BF6FF000017047F0B47546AA
:10325C004FF40014B4EB410F11D9B4EB430F07D961
:10326C0002F09AFA02F08AFAE41B7608AE4614E0F1
:10327C0002F084FA5F00A4EB5754AE460DE002F066
:10328C008BFA4C00C7EB5454AE4606E0F0B44C003D
:10329C007641640D5F00A4EB575446F1000C04F525
:1032AC0080646FF0404606EA812545EA905580021D
:1032BC0006EA832343EA92530221920227D0861A0C
:1032CC009D4143F0804304D2641E76006D41B618D4
:1032DC005D4176006D41964275EB030724BFB61A2B
:1032EC003D464941F5D34FF4006076006D4196425E
:1032FC0075EB030724BFB61A3D464041F5D3760063
:10330C006D41B61A75EB030708BF364249E0ED1A5A
:10331C0043F0804303D2641E400043EB45055B42FF
:10332C0000421AD041F48061001853EB450538BFB8
:10333C00ED1A4941001853EB450538BFED1A4941C8
:10334C00001853EB450538BFED1A4941001853EBF3
:10335C00450538BFED1A4941ECD313EB450538BF91
:10336C00ED1A494113EB450538BFED1A494113EBF2
:10337C00450538BFED1A4941F4D34FF4006013EB07
:10338C00450538BFED1A404113EB450538BFED1A22
:10339C00404113EB450538BFED1A4041EFD313EB19
:1033AC0045052CBF4FF00045002518BF45F0804562
:1033BC0040EA4150C90A641E2FDC41F48011D4F15B
:1033CC000104202C10DAC4F120072D4225FA04F553
:1033DC0018BF45F0010500FA07F63543E04001FA45
:1033EC0007F63043E14026E0342C12DC203C2D4221
:1033FC0008BF5FEA4007C4F1200720FA04F518BFA4
:10340C0045F0010501FA07F6354331FA04F00021C5
:10341C0011E000205FEACC711AE021F4801111EB6D
:10342C0004515CBF11F5801F05E000204FF07F6157
:10343C0041F0E0410AE06D0008BF10F0010F98BFA9
:10344C005FEA350550F1000041F1000141EACC7111
:10345C00F0BC704780B5FFF7F3F89948006800217D
:10346C00817201F03FF807480021016006484FF4D3
:10347C003F41018005480449098801603B4800210F
:10348C00016001BD445C0040B4080020405C004079
:10349C0080B58B4800680021817289480068002142
:1034AC00C172874800682549C9794172002000F033
:1034BC000BF94FF40071002000F00EF910210020E0
:1034CC0000F01AF91821002000F0C4F9582100204E
:1034DC0000F0B0F9002000F06BF9194890F82C10AE
:1034EC0089B2002000F0ECF9002000F04DF94FF407
:1034FC00C061012000F0F0F84FF48071012000F061
:10350C0099F94FF48271012000F0A4F902210120F5
:10351C0000F0C8F90221012000F0D2F94FF440511B
:10352C00012000F003F92021012000F0E5F80F48FC
:10353C00012101600020FEF731FC01BD805800081C
:10354C00D409002080B55E480068807A002806D037
:10355C000648052101600121014801F0ADFD01BDC6
:10356C0000240140014804210160704790080020AC
:10357C00704700007047000080B50021C0B20628DB
:10358C0019D14F4A1268127812F07F02012A12D117
:10359C004B4A12685279002A0DD14948006880784C
:1035AC00222801D1114911E0454800688078212872
:1035BC000CD10F490AE0424A1268127812F07F02CD
:1035CC00212A03D1C0B2032800D10A4908000028DF
:1035DC0001D1022009E03A4800688161384800684E
:1035EC000022428200208847002002BD6D36000870
:1035FC007D360008B536000880B531490968097870
:10360C0011F07F01212905D1C0B20B2802D100F0A5
:10361C0043F800E0022002BD80B5024980B2FEF7FB
:10362C001DF802BDAC0A002080B5024980B2FEF73D
:10363C0015F802BDB40A002080B521490968C97883
:10364C00C9B2052901D3002006E0C9B2034A12EB26
:10365C00C10180B2FEF702F802BD00BF280A0020AB
:10366C0080B5024980B2FDF7F9FF02BDBC0A00200B
:10367C0080B5024980B2FDF7F1FF02BDC40A0020FB
:10368C00C9B2012901D3022005E0C0B2012801D33F
:10369C00022000E00020704709480068C078094902
:1036AC00C0B208600020704780B2002805D10448E1
:1036BC00006801210182002000E0024870470000F0
:1036CC00800800208C0800204FF6F8710840DFF8C5
:1036DC004012086070470000C0B2DFF83C2252F87C
:1036EC00202048F68F131A40114389B2C0B2DFF87C
:1036FC00282242F820107047C0B2DFF81C2252F882
:10370C00202048F6BF731A400B0013F0100F01D0A5
:10371C0092F0100211F0200F01D092F02002C0B2F2
:10372C00DFF8F41192B241F820207047C0B2DFF8F4
:10373C00E82152F820204BF68F731A4011F4805F69
:10374C0001D092F4805211F4005F01D092F4005237
:10375C00C0B2DFF8C41192B241F8202070470000CB
:10376C00C0B2DFF8B41151F8201048F6BF72114006
:10377C0091F0100191F02001C0B2DFF89C2189B2C8
:10378C0042F8201070470000C0B2DFF88C1151F8DD
:10379C0020104BF68F72114091F4805191F400512E
:1037AC00C0B2DFF8742189B242F8201070470000D3
:1037BC00C0B2DFF8641151F8201048F68F62114046
:1037CC00C0B2DFF8542142F820107047C0B2DFF8C5
:1037DC00481151F8201011F4804F0FD0C0B2DFF80F
:1037EC00381151F8201089B248F68F72114051F4FB
:1037FC008041C0B2DFF8202142F820107047000051
:10380C00C0B2DFF8141151F8201011F0400F0FD096
:10381C00C0B2DFF8041151F8201089B248F68F724B
:10382C00114051F04001C0B2DFF8EC2042F82010FA
:10383C0070470000DFF8D820126892B2C0B212EBC9
:10384C00C000304A89B2490889B2490042F81010C8
:10385C0070470000DFF8B820126892B2C0B212EBC9
:10386C00C000294A89B2490889B2490042F81010AF
:10387C0070470000DFF89810096889B2C0B211EBEC
:10388C00C000204951F8100080B27047DFF880105A
:10389C00096889B2C0B211EBC0001B4951F8100085
:1038AC0080B27047DFF86820126892B2C0B212EB97
:1038BC00C000DFF8602089B242F810107047000099
:1038CC00134A126892B2C0B212EBC0000F4A12EB4C
:1038DC00400089B23F290BD389B24A0911F01F0F5E
:1038EC0000D1521E92B2910251F40041016008E0E5
:1038FC0089B24A0811F0010F00D0521C92B2910209
:10390C000160704700600040086000400C6000409F
:10391C00505C004004600040005C0040010080B23C
:10392C00C9B289B2090251EA102080B27047000076
:10393C0070470000FEE70000FEE70000FEE7000015
:10394C00FEE7000070470000704700007047000061
:10395C0080B5FEF7B7FE01BD704700007047000050
:10396C00704700007047000070470000704700006F
:10397C0080B5012000F058FA00282AD0154801F033
:10398C00EFFF31480078012820D14948052101700A
:10399C0011480078002806D00F48002101704448D7
:1039AC000121417005E00C480121017040480021C3
:1039BC00417002224FF480713D4801F023FD022139
:1039CC000120FFF76FFF0120FFF7CAFE012000F076
:1039DC007BFA01BDF85A0008BD08002080B5022012
:1039EC0000F022FA00282AD0154801F0B9FF164839
:1039FC000078012820D12E4806210170114800784A
:103A0C00002806D00F48002101702948012141707F
:103A1C0005E00C480121017025480021417002226B
:103A2C004FF48071224801F0EDFC02210120FFF7D8
:103A3C0039FF0120FFF794FE022000F045FA01BD8A
:103A4C00C8590008BE080020BC08002070470000C0
:103A5C00704700007047000080B5154807210170C1
:103A6C0011480068000911490968B0EB11100528CC
:103A7C0015D30D48006800090D49487002224FF417
:103A8C0080710B4801F0BEFC02210120FFF70AFFF8
:103A9C000120FFF765FE0548034909680160022013
:103AAC0001F010FE01BD00BF70080020740800205A
:103ABC00B0080020704700007047000070470000FD
:103ACC00704700007047000070470000704700000E
:103ADC007047000080B500F0C3FE01BD70470000C8
:103AEC0070470000704700007047000070470000EE
:103AFC0070470000704700007047000070470000DE
:103B0C0070470000704700007047000070470000CD
:103B1C0070470000704700007047000070470000BD
:103B2C0070470000704700007047000070470000AD
:103B3C0080B55FF4802000F0C7F901BD40B20028C9
:103B4C0009D540B210F00F00064A8018C9B209011D
:103B5C0000F8041C04E040B2034AC9B209018154C4
:103B6C00704700BF18ED00E000E400E080B5B0F154
:103B7C00807F01D3012010E00002000A401E07499B
:103B8C0008600F215FF0FF30FFF7D8FF04480021D9
:103B9C000160044807210160002002BD14E000E030
:103BAC0018E000E010E000E080B5604801680C48C7
:103BBC0001F0D6FE5D4841680A4801F0D1FE5B4831
:103BCC008168094801F0CCFE5848C168074801F0EB
:103BDC00C7FE56480169064801F0C2FE01BD00BF90
:103BEC00385A0008505A0008685A0008805A0008D1
:103BFC00985A000880B5FEF761FCFEF725FC01F031
:103C0C0081FD01BD10B5FEF7D3FB4848FEF74AFE17
:103C1C00FEF7F0FBFEF796FCFEF7DAFCFEF7AAFBCC
:103C2C00424800684FF47A71B0FBF1F0FFF79EFF49
:103C3C00002800D0FEE70020FEF774FC4FF4FA7069
:103C4C00FEF734FD2B4801F08BFE2B4801F088FE6B
:103C5C002A4801F085FE2A4801F082FE294801F02D
:103C6C007FFE274801F07CFE274801F079FE2748AB
:103C7C0001F076FE264801F073FE264801F070FE36
:103C8C00254801F06DFE1E4801F06AFE234801F044
:103C9C0067FE2348FEF746FD0400224801F060FE53
:103CAC00E4B22000302808D0312809D032280AD0BC
:103CBC0033280BD034280CD017E0FFF775FF14E035
:103CCC0000F08AFF11E001F073FB0EE000F006FB40
:103CDC000BE0154801210170FFF78CFF4FF4FA70CF
:103CEC00FEF7E4FC0120FEF71DFCE4B2782CA9D110
:103CFC00002010BDB05A0008AC590008245C000824
:103D0C00C85A0008E05A0008345C0008445C0008FB
:103D1C00705B0008845B0008C05C0008945C0008C1
:103D2C0000380140545C0008BC080020400800200A
:103D3C0010B5040000202179002906D02079042830
:103D4C0003D06921684801F0DBFD6079082809D0AF
:103D5C0060790C2806D06079102803D06A2162485B
:103D6C0001F0CEFD2068000D0005002802D120686E
:103D7C00002803D16B215C4801F0C2FDA07900281A
:103D8C0006D0A079012803D06C21574801F0B8FD6A
:103D9C004C48A179002939D04A4909682268D24394
:103DAC001140484A11601D4909682268D2431140EC
:103DBC001A4A1160217908180168226811430160C0
:103DCC00174800682168C943084015490860154820
:103DDC0000682168C94308401249086060791028BE
:103DEC000CD10F480068216808430D4908600D4844
:103DFC000068216808430B4908600EE0314861797E
:103E0C000818016822681143016006E0217908183E
:103E1C0001682268D2431140016010BD04040140C6
:103E2C00080401400C04014010B5040000200021DE
:103E3C00012C35D0022C33D0042C31D0082C2FD0AF
:103E4C00102C2DD0202C2BD0402C29D0802C27D0DE
:103E5C00B4F5807F24D0B4F5007F21D0B4F5806F09
:103E6C001ED0B4F5006F1BD0B4F5805F18D0B4F53C
:103E7C00005F15D0B4F5804F12D0B4F5004F0FD0C1
:103E8C00B4F5803F0CD0B4F5003F09D0B4F5802FC9
:103E9C0006D0B4F5002F03D0E421134801F030FD17
:103EAC000848006814EA000110480068044205D074
:103EBC000800401E8041C043C00F00E00020C0B28B
:103ECC0010BD00000004014010B50400200D0005D9
:103EDC00002801D1002C03D1FB21034801F010FD77
:103EEC000248046010BD0000C052000814040140D8
:103EFC00B0B581EA030C0CF0004C40F2FF7515EAEA
:103F0C0011541DBF15EA1357AC42AF423AE0E41905
:103F1C0023EA455343F48013C90241F0004141EABE
:103F2C0050574FEAC02E1100AEFB020200284FF092
:103F3C000000E7FB01204FF00001E3FB0E2118BF4E
:103F4C0042F00102401800214941E3FB0701A4F5AE
:103F5C0080640F0302D252004041494154F10104E4
:103F6C006BDD470872F1004250F1000051EB045137
:103F7C00A1F580115CBF41EA0C01B0BD4CEA0551C2
:103F8C000020B0BD05EA1357AC4214BFAF4240E06D
:103F9C0050EA410E1CBF52EA430E02E0614600207B
:103FAC00B0BD24423C441AD13F42F7D0090302BFB2
:103FBC0001460020143FB1FA81FEA7EB0E0401FA72
:103FCC000EF70EF10C0ECEF1200100FA0EFEC840D9
:103FDC0047EA000723EA455343F48013A3E733F081
:103FEC000043B3FA83F704BFB2FA82FE77440B3F67
:103FFC00E41BB7F1200E2FBF02FA0EF3BB40C7F142
:10400C00200E22FA0EFE38BF43EA0E03BA40641C9F
:10401C0082E750EA410E14BF52EA430E6FF00001E2
:10402C004FF4001717EB430F8ABF194617EB410FDC
:10403C00B6E74CEA05510020B0BDD4F10104B4F14F
:10404C0020070FDAC4F12007520828BF42F0010202
:10405C0010FA07F501FA07F7E1BF2A43E0403843AD
:10406C00E1400FE0352C99DCC7F1200452EA400204
:10407C0020FA07F218BF42F0010231FA07F0A14012
:10408C000A43002172F1004250F1000051EB0C0187
:10409C00B0BD0000F0B44FF0004591EA030F44BFEF
:1040AC006B4000F062BC8B4208BF824205D984464B
:1040BC00100062464C19591923004FF4001C1CEBDC
:1040CC00410F06D308BF1CEB430F28BF6FF0000154
:1040DC0062E0BCEB430F14D9AB4352EA43060BD05E
:1040EC004FEA4C0CBCEB410F04D80C0D661E342E61
:1040FC0057DD51E0801A994150EA410608BF002172
:10410C004AE00C0DA4EB1356362E45DC012E45DC93
:10411C004FEA045445EAC32343EA525312BFD20276
:10412C0092025B0845EAC12141EA5051D2EBC02012
:10413C00994125D404BF01460020B1FA81F601FA59
:10414C0006F1C6F1200220FA02F241EA020100FA5D
:10415C0006F002BF203609421EE04FEAF474B4EBBD
:10416C00465434F001064FEA740409D8D6F500160B
:10417C00760D2C40F04071FA06F25040F140484068
:10418C00C00A40EA415021EA050128BF5FEA500508
:10419C0050F1000044EBD121F0BC704745EAC32339
:1041AC00DB0A45EAC121C90A202E0DDD203E63FA47
:1041BC0006F5F3405D40124218BF45F001056D4213
:1041CC00984161F100010DE062FA06F5F24085EAD2
:1041DC00020563FA06FC82EA0C02F3405A406D4277
:1041EC009041994111F4801F05D1641E620502D0E3
:1041FC006D004041494121F480116D0008BF10F061
:10420C00010F98BF5FEA350550F1000041EB0451F6
:10421C00F0BC70470748006850F48070054908608E
:10422C00704700000349096880B2084301490860DF
:10423C0070470000141001400349096880B208431C
:10424C0001490860704700001010014080B5FF2044
:10425C00FFF7F2FF01BD000010B50400FFF7F6FFF9
:10426C00002C12D0012C14D0022C16D0032C18D0F8
:10427C00042C1AD0052C1CD0062C1ED0072C20D0B8
:10428C00082C22D0092C24D026E03F20FFF7CAFFAF
:10429C0022E00620FFF7C6FF1EE09B20FFF7C2FFBF
:1042AC001AE08F20FFF7BEFF16E0A620FFF7BAFF3B
:1042BC0012E0AD20FFF7B6FF0EE0BD20FFF7B2FF16
:1042CC000AE02720FFF7AEFF06E0BF20FFF7AAFFAA
:1042DC0002E0AF20FFF7A6FF10BD000010B582B0C2
:1042EC00274801F03DFB2748006850F01000254995
:1042FC00086040F2FF10ADF8000003208DF80200BA
:10430C0010208DF8030000A91F48FDF775FDFFF77D
:10431C0081FFFEF723F8FFF799FF0120FFF782FFDB
:10432C00FEF71CF80220FFF77DFFFEF717F80420BC
:10433C00FFF778FFFEF712F80820FFF773FFFEF780
:10434C000DF81020FFF76EFFFEF708F82020FFF79E
:10435C0069FFFEF703F88020FFF764FFFDF7FEFF0F
:10436C004020FFF75FFFFDF7F9FF002405E0200078
:10437C00FFF772FFFDF7F2FF641C0A2CF7DB13BD8D
:10438C00985B0008181002400010014080B553489B
:10439C00006850F0010051490860514800680F490D
:1043AC0008404F4908604D4800680D4908404B498A
:1043BC0008604A4800687FF480210840474908603B
:1043CC00474800687FF4FE010840454908600548ED
:1043DC005FF41F01016000F007F801BD0000FFF859
:1043EC00FFFFF6FE0810024080B500F001F801BD99
:1043FC0082B000200190002000903848006850F4F2
:10440C008030364908603548006810F40030009060
:10441C000198401C01900098002803D10198B0F538
:10442C00A06FF0D12D48006810F40030401E804180
:10443C00C043C00F0090009801284BD1264800685B
:10444C0050F0100024490860234800680321884379
:10445C00214908602048006850F002001E4908609D
:10446C001F481F49096801601D481D490968016002
:10447C001B48006850F480601949086018480068AF
:10448C007FF47C110840164908601548006850F408
:10449C008810134908601148006850F080700F496B
:1044AC0008600E48006810F0007FFAD00C480068D5
:1044BC00032188430A4908600948006850F002004B
:1044CC00074908600648006810F00C000828F9D16C
:1044DC0002B07047FEE700BF00200240001002400F
:1044EC000410024001204D4980B2086009480021A7
:1044FC0001804A480749098801600748002101608A
:10450C0004484FF4E0510180444802490988016095
:10451C0000207047B4080020445C004080B53F4840
:10452C00006850F008003D4980B208603B480068C4
:10453C0050F00400394980B20860FDF78FFF01BDCF
:10454C0080B5364800684FF6FB710840334980B29D
:10455C000860FDF78DFF31484FF43F41016001BD0C
:10456C0080B5C0B2072801D02B4908702A480078C2
:10457C0000280AD001280ED0022812D0032817D008
:10458C00042822D005282ED042E0FFF7D9FF22487C
:10459C00062101703FE0FFF7D3FF1F480421017093
:1045AC0039E01D48022141701B480321017032E0A3
:1045BC0019484078401E1849487017484078002820
:1045CC0029D115480421017025E01448006850F0E9
:1045DC001000124980B208600F48052101700E4886
:1045EC000A21417017E00C484078401E0A49487077
:1045FC000948407800280ED1084800684FF6EF7142
:10460C000840064980B2086003480621017002E0A8
:10461C0001480621017001BD94080020405C004057
:10462C0010B50400B4F5E06F0FD0B4F5C06F0CD02A
:10463C00B4F5A06F09D0B4F5806F06D0B4F5407F07
:10464C0003D062213D4801F05BF9024820432A491E
:10465C00086010BD0000FA0538B5040000200021E8
:10466C000F25E278002A06D0E078012803D07421C7
:10467C00324801F045F96078102803D375212F4892
:10468C0001F03EF9A078102803D376212B4801F0D5
:10469C0037F9E07800281DD01748006810F4E06066
:1046AC00D0F5E060000AD0F10401C5406078884084
:1046BC00A17829400843000121780C4A88542078BD
:1046CC0040110B490122237813F01F039A4041F843
:1046DC00202009E02078401106490122237813F0AC
:1046EC001F039A4041F8202031BD00BF00E400E0D8
:1046FC0000E100E080E100E00CED00E038B50400E2
:10470C000D00B4F1005F06D0B4F1006F03D09D2111
:10471C000A4801F0F5F80648854203D39E21074864
:10472C0001F0EEF80348284020430349086031BDEE
:10473C00FFFF070080FFFF1F08ED00E04056000858
:10474C0070B505000C00E88847F6F07108400011C0
:10475C0040F2FF76B0420DD1E88810F00F0F05D172
:10476C00A88818B9688808B9288808B1022070BDD3
:10477C00012070BD30B9280000F062F9012801DB7E
:10478C00002070BD0419B4420BDBE88810F4004F14
:10479C0002D00020304901E000203049C5E9000179
:1047AC00E6E7012CE88809DB48F20F010840A4B2C7
:1047BC0040EA0410E8804FF0FF3070BD00F4004078
:1047CC00E98801F00F0141F01001E980641E6FF0DF
:1047DC0033018C4205DAE8800020A88068802880AC
:1047EC0070BD24B26FF00E018C420BDA6A882A80FD
:1047FC00AA886A80EA88AA800022EA80103424B24F
:10480C008C42F3DB614209B20A001FD0C2F11002E4
:10481C002B880B41B5F802C00CFA02FC4CEA0303DE
:10482C002B806B880B41B5F804C00CFA02FC4CEAE7
:10483C0003036B80AB880B41B5F806C00CFA02F28F
:10484C001A43AA80EA8822FA01F1E980E988084330
:10485C00E8804FF0FF3070BD0000F0FF0000F07FEB
:10486C0080B5374837490968018035480088364992
:10487C000988084010F4806F06D032484FF6FF319B
:10488C0001603248406880472D4800882E490988CD
:10489C00084010F4005F03D02A484DF6FF71016008
:1048AC002748008828490988084010F4805F06D002
:1048BC0024484EF6FF7101600020FFF751FE20489E
:1048CC00008821490988084010F4006F0DD0204859
:1048DC000078002802D0FFF721FE02E00220FFF74B
:1048EC003FFE18484FF2FF710160154800881649C9
:1048FC000988084010F4007F08D012484FF6FF5189
:10490C00016014480078401C124908700C4800885B
:10491C000D490988084010F4807F06D009484FF6ED
:10492C00FF6101600720FFF71BFE05480088064960
:10493C000988084010F4004F01D0FEF7CDFA01BDF4
:10494C00BA080020445C0040B4080020D4090020C0
:10495C00D80A0020C1080020F0B44FF0004591EABD
:10496C00030C44BF6B40FFF79EBB8B4208BF8242D7
:10497C0005D98446100062468C46190063464FF4F4
:10498C00001C1CEB410F01D3F0BC7047BCEB430F78
:10499C000FD952EA430648D0BCEB410F05D80C0D99
:1049AC00AB43661E342E0CDD3FE0AB4380185941FF
:1049BC003BE00C0DA4EB1356352E36DC45EAC32335
:1049CC00DB0A45EAC121C912202E11DB203E18BF9B
:1049DC005FEA020263FA06F523FA06F385EA030599
:1049EC0018BF45F00105C01851F100010CD213E0BD
:1049FC0072FA06F5F2405540F3415A40B340F34089
:104A0C005A408018594107D349085FEA30005FEAE1
:104A1C00350528BF45F0010501F58011420875F1F7
:104A2C00004250F1000041EB0451F0BC4FF4001C6B
:104A3C001CEB410F38BF70470020090D090570476A
:104A4C0010B50100C88800F400420120CB8803F0A7
:104A5C000F03CB80C3B98B8823B94B8813B90B8850
:104A6C00002B57D08B88CB80B1F802C0A1F804C0C2
:104A7C00B1F800C0A1F802C04FF0000CA1F800C0C2
:104A8C00103800B2002BEDD0CB88102B1ED28B88A7
:104A9C00B1F806C04FEAD33E4EEA4C0CA1F806C062
:104AAC00B1F802E04FEADE3444EA43038B800B8812
:104ABC00DC0B44EA4E0EA1F802E05B000B80401EBA
:104ACC0000B21FFA8CFCBCF1100FE0D3CB88202B6A
:104ADC001CD34B88B1F800C04FEAC33E4EEA5C0CC5
:104AEC00A1F800C0B1F804C04FEACC3E4EEA530323
:104AFC004B80CB884FEAC33E4EEA5C0CA1F804C055
:104B0C005B08CB80401C00B2202BE2D2CB8803F098
:104B1C000F03CB80CB881A43CA8010BD80B54FF4ED
:104B2C0000711448FDF7CAFA01BD000080B54FF4BE
:104B3C0000711048FDF798FA01BD000080B52021E6
:104B4C000C48FDF7BBFA01BD80B520210948FDF7E3
:104B5C008BFA01BD80B54FF480710648FDF7AEFAB3
:104B6C0001BD000080B54FF480710248FDF77CFA5E
:104B7C0001BD0000000C014080B5FFF7CFFFFFF72F
:104B8C00DDFFFFF7E7FF01BD80B5FFF7CFFFFFF7B4
:104B9C00DBFFFFF7E7FF01BD10B5040018E0FFF7DE
:104BAC00C5FFFFF7CBFFFFF7D5FFFDF7D7FBFFF7EF
:104BBC00B5FFFFF7C9FFFFF7CDFFFDF7CFFBFFF701
:104BCC00ADFFFFF7BBFFFFF7CDFFFDF7C7FB641E83
:104BDC00002CE4D110BD000080B5FFF7CDFFFDF730
:104BEC00BDFBFFF7D1FFFDF7B9FB0320FFF7D4FFA7
:104BFC0001BD00002DE9005003D34942404261F150
:104C0C00000100F01BF8BDE800505FEA4C0C05D326
:104C1C004942404261F100011CEA0C0F03D55B4292
:104C2C00524263F10003704713F0004C03D55B4212
:104C3C00524263F100039CEA210CDBD151EA030CD4
:104C4C000ED1002A1FBF8446B0FBF2F002FB10C24B
:104C5C00704701F055B80B0002000021002070478E
:104C6C0052EA030CF5D02DE9F041002400250F0089
:104C7C00060052EA03081FD05FF0000892185B414F
:104C8C0008D2BB4208BFB24298BF08F10108F5D95F
:104C9C0018F100085FEA33034FEA3202B01A77EBDF
:104CAC00030124BF0F46064664416D415B084FEA81
:104CBC003202B8F10108F1DA2000290032003B0081
:104CCC00BDE8F08170B5050005F10F0407208443A1
:104CDC00012000F001F9A54204D3012000F022F9D3
:104CEC00002070BD082C04D2082402E0083000F02B
:104CFC0025F9224D286801000CD1291D00E0011D69
:104D0C000868A0B10268A242F9D315E01368A34267
:104D1C0012D2111D0A68002AF8D10068291D03E07F
:104D2C001368A34208D2111D0A688242F8D100F020
:104D3C00CBFD0028DAD100210029CED00E683068D6
:104D4C000838A04202D27068086008E0A019086018
:104D5C00726842603068001B0A6810603460086832
:104D6C0018B1416809B1001D00E000202860012045
:104D7C0000F0D8F806F1080070BD00BF68080020EC
:104D8C00058C0901A1018501090115002501750892
:104D9C009501B182850109019182850209021500F4
:104DAC00250175089501B18285020902918285035E
:104DBC0009031500250175089501B18285030903C6
:104DCC009182850409041500250175089501B182AD
:104DDC0085040904918285050905150025017501D5
:104DEC00818209057501B182750781838505750777
:104DFC00B183850609061500250175018182090616
:104E0C007501B1827507818385067507B1838507A6
:104E1C000907150026FF007508818285070907B16F
:104E2C0082C0000080B5024800F062FD01BD00BFE9
:104E3C00645C000880B51B4800F05AFD02224FF458
:104E4C008271194800F0F4FA17484078421E9241DA
:104E5C00D20F15480078012804D0022809D0032865
:104E6C000DD013E0D2B24FF400711048FDF750F999
:104E7C0011E0D2B220210D48FDF74AF90BE0D2B275
:104E8C004FF480710948FDF743F904E04FF6DF4118
:104E9C000648FDF7B7F94FF440510120FEF746FCE8
:104EAC0001BD00BFC05B0008B2080020000C01402F
:104EBC0010B5214C201D00F077FB04F1080000F028
:104ECC0073FB04F10C0000F06FFB04F11000BDE863
:104EDC00104000F069BB000038B50400164D28687E
:104EEC0098B9281D00F058FB05F1080000F054FBA0
:104EFC0005F10C0000F050FB05F1100000F04CFB2C
:104F0C0000220021064800F05DF801202860042CE6
:104F1C0004D205EB8400001D00F04EFB31BD00BF38
:104F2C00BD4E000880B5042805D2034901EB800072
:104F3C00001D00F049FB01BD5408002010B5F0B174
:104F4C00A0F108042068082819D310F0070F16D117
:104F5C000120FFF7C1FF1A48416809B18C4203D206
:104F6C00616044601BE019004B680BB1A342FAD39B
:104F7C000A6853189C4203D20120FFF7D3FF10BDDF
:104F8C00A34204D123689A180A600C0007E04A680F
:104F9C001AB123681B199A42EED362604C606168A7
:104FAC000029E9D0226812198A42E5D1002101605A
:104FBC006068216802685118216040686060DBE716
:104FCC006808002080B51D4BD3F800C0DFF828E03E
:104FDC00F44506D20CF10C0EC3F800E0BCF1000F46
:104FEC0001D1012002BDCCF80010CCF80400CCF8A3
:104FFC000820002002BD00BFD4070020002000BF05
:10500C00F8B50E4C27683E0014D00B4D00E08847D5
:10501C00AE420FD02068874201D0060007000C3E3C
:10502C0071680800F4D00020706030680028EED160
:10503C008847EDE7F1BD00BF00060020D40A002030
:10504C0070B500F10801026801EBC202406802EB86
:10505C00C00000239C469E4601E0AC4207D1824230
:10506C0000D170BD52F8044B52F8045B2D19634506
:10507C0002BF51F8043B51F804CB9C446345ECD07F
:10508C00AC42EAD0BEF1000F08BF13F901EB0026C9
:10509C0001E004F8016BBEF1000FEFD0AC42EDD093
:1050AC006345EBD0BEF1000F52BFAEF1010E13F809
:1050BC00016B0EF1010EECE738B504000D00DFF8C2
:1050CC00580084420DD0DFF85400844209D0DFF838
:1050DC005000844205D040F2CB11DFF8480000F0BC
:1050EC000FFCEDB2002D08D0EDB2012D05D04FF420
:1050FC00E671DFF8300000F003FCEDB2002D04D0B7
:10510C00A06850F4A000A06004E0A0687FF4A001A7
:10511C000840A06031BD000000240140002801407F
:10512C00003C0140645400088B0707D0521E24BF7A
:10513C0011F8013B00F8013BF6D8704783071ED1EC
:10514C00103A07D330B4B1E83810103AA0E8381050
:10515C00F9D230BC530724BFB1E80810A0E80810FE
:10516C0044BF51F8043B40F8043BD20724BF31F84C
:10517C00022B20F8022B44BF0B7803707047083ABF
:10518C0007D3B1E80810083A40F8043B40F804CBC8
:10519C00F7D25307E4E7000030BF704720BF7047D9
:1051AC0038B505000C000020002D05D0012D03D0D2
:1051BC00D021124800F0A4FBE4B2012C06D0E4B2DA
:1051CC00022C03D0D1210D4800F09AFB0C4800684A
:1051DC000321884328430A4908600748006850F0B7
:1051EC00040005490860E4B2012C02D1FFF7D4FF9A
:1051FC0001E0FFF7D3FF31BD10ED00E004550008CE
:10520C0000700040C9B2830706D0521E22D310F89A
:10521C00013B9942F7D11FE0083A13D302F1040283
:10522C0041EA012141EA014150F8043B121F21BF20
:10523C004B40A3F1013C2CEA030C1CF0803FF3D053
:10524C00C9B2001F083210F8013B521E28BF91EA68
:10525C00030FF8D818BF0120401E7047F446400DCC
:10526C0040EAC120490006D200F013F8004248BFC2
:10527C006FF00040604700F00CF84FF0004188429E
:10528C008CBF084640426047400D40EAC1204900AF
:10529C000CD240F00040490DA1F58061491C05D4A9
:1052AC00D1F11F0154BFC840C01770474FF0000028
:1052BC0070470000443A5C576B506A742E5372630B
:1052CC005C4D53746F7279332E305C4C6962726131
:1052DC00726965735C53544D3332463130785F5389
:1052EC0074645065726970685F4472697665725C4B
:1052FC007372635C73746D3332663130785F6578CA
:10530C0074692E6300000000443A5C576B506A7459
:10531C002E5372635C4D53746F7279332E305C4C28
:10532C0069627261726965735C53544D33324631F4
:10533C0030785F5374645065726970685F44726949
:10534C007665725C7372635C73746D333266313084
:10535C00785F6770696F2E6300000000443A5C57F9
:10536C006B506A742E5372635C4D53746F72793345
:10537C002E305C4C69627261726965735C53544D7A
:10538C003332463130785F5374645065726970689B
:10539C005F4472697665725C7372635C73746D33AF
:1053AC0032663130785F75736172742E6300000061
:1053BC0010B50024FFF7E8FB01E0FFF7BFFBFCF79B
:1053CC00D3FF2000441C10F0010F02D1FFF7C2FBE9
:1053DC0001E0FFF7C7FB01210948FCF7CDFD0128CF
:1053EC0002D1FFF79BFB01E0FFF7A0FB0221044871
:1053FC00FCF7C2FD0128E0D0FFF7A6FBDFE700BFFA
:10540C000008014092B2521C521089B2114B13EB9E
:10541C0041030AE00178401C90F800C051EA0C21CD
:10542C0019809B1C9B1C401C521E002AF2D17047F9
:10543C0092B2521C521089B2064B13EB410105E09B
:10544C000B680380091D401C401C521E002AF7D11A
:10545C007047000000600040443A5C576B506A741F
:10546C002E5372635C4D53746F7279332E305C4CD7
:10547C0069627261726965735C53544D33324631A3
:10548C0030785F5374645065726970685F447269F8
:10549C007665725C7372635C73746D333266313033
:1054AC00785F6164632E6300443A5C576B506A7496
:1054BC002E5372635C4D53746F7279332E305C4C87
:1054CC0069627261726965735C53544D3332463153
:1054DC0030785F5374645065726970685F447269A8
:1054EC007665725C7372635C73746D3332663130E3
:1054FC00785F646D612E6300443A5C576B506A743C
:10550C002E5372635C4D53746F7279332E305C4C36
:10551C0069627261726965735C53544D3332463102
:10552C0030785F5374645065726970685F44726957
:10553C007665725C7372635C73746D333266313092
:10554C00785F7077722E6300443A5C576B506A74C4
:10555C002E5372635C4D53746F7279332E305C4CE6
:10556C0069627261726965735C53544D33324631B2
:10557C0030785F5374645065726970685F44726907
:10558C007665725C7372635C73746D333266313042
:10559C00785F7263632E630080B50F4909680A0057
:1055AC0018BF884701BD000080B50C4909680A0086
:1055BC0018BF884701BD000080B5094909680A0079
:1055CC0018BF884701BD000080B5064909680A006C
:1055DC0018BF884701BD00009C080020A0080020CF
:1055EC00A4080020A808002030B90548D0E9000123
:1055FC00C2E900010020704701700120704700BF14
:10560C00E05C000831B90A48D0E90001C3E90001A7
:10561C000020704712B96FF00100704708B10A788A
:10562C0002800978481E8041C043C00F704700BFFC
:10563C00E85C0008443A5C576B506A742E537263F2
:10564C005C4D53746F7279332E305C4C69627261AD
:10565C00726965735C53544D3332463130785F5305
:10566C0074645065726970685F4472697665725CC7
:10567C007372635C6D6973632E6300007C5D00085C
:10568C007C5D00087C5D00087C5D00087C5D00088A
:10569C007C5D00087C5D0008FFFFFFFFFFFFFFFF44
:1056AC00105D00087C5D00087C5D00087C5D0008D6
:1056BC007C5D0008F05C0008F85C00087C5D00086C
:1056CC007C5D000810B5040014F0704F02D009483E
:1056DC00204201D1002C04D14FF4FD71064800F09A
:1056EC000FF914F0805F02D00448046001E0044814
:1056FC00046010BD0000F0EFB45400080404024034
:10570C000400024080B50948094901600748006857
:10571C0002210172074808490160084808490160E4
:10572C00044800680068804701BD00BF8008002065
:10573C002408002084080020D409002088080020B8
:10574C00040A002000F10103810704D010F8011BAA
:10575C000029F9D110E00268B2F10131914311F046
:10576C00803F04BF50F8042FF6E710F8011B002906
:10577C001CBF10F8011BFAE7C01A704740004941E2
:10578C007641002411F4801F05D1641E400049416C
:10579C0011F4801FF9D0704752005B41764100270D
:1057AC0013F4801FF7D17F1E52005B4113F4801F4E
:1057BC00F9D0704757726F6E6720706172616D65BA
:1057CC00746572732076616C75653A2066696C65D8
:1057DC00202573206F6E206C696E652025640D0A80
:1057EC00000000004FF4001C1CEB410F98BF1CEB99
:1057FC00430F09D841EA030C50EA4C0C52EA0C0C4A
:10580C0003D2994208BF9042704718BF8B4208BF21
:10581C00824270474FF4001C1CEB410F98BF1CEBED
:10582C00430F09D841EA030C50EA4C0C52EA0C0C19
:10583C0003D28B4208BF8242704718BF994208BFFF
:10584C0090427047010040F10880F446404200F05D
:10585C0004F851F000416047010009D0B0FA80F122
:10586C008840C91CC1F58461090501EBD0214005B4
:10587C007047000009022900010100C03209040030
:10588C0000020300000009211001000122A2000700
:10589C00058103020020070501030200200000001F
:1058AC002603530054004D006900630072006F0022
:1058BC0065006C0065006300740072006F006E0080
:1058CC0069006300730000000649086808B10020F5
:1058DC00704705480860054907229143091A016081
:1058EC00704700BF9808002000040020000600202C
:1058FC0080B50100014800F033F801BDB85C000828
:10590C0080B50A000100024800F02AF8FEE700BF4B
:10591C00C05700081D5A0008F0000000D4070020F2
:10592C00000000004D5000080100000001000000C4
:10593C007D5D00086D010000C40800201502000008
:10594C002003530054004D0033003200200043006C
:10595C007500730074006D0020004800490044007D
:10596C000EB400B582B003A9009100AB0200012176
:10597C000248FAF7B5FB06BC5DF810FB595B000852
:10598C00F8B507000C0015001E0000F03BF93300C1
:10599C002A002100380001B0BDE8F040FFF732BE0C
:1059AC004D616E676F204D333220746573742073B4
:1059BC00746172742E2E2E0A000000005269676802
:1059CC00742D5553455220427574746F6E2050726D
:1059DC006573730A0000000010B50448044C02E023
:1059EC0050F8041B8847A042FAD110BD205900087A
:1059FC004C59000870B506000C00150000F002F9B7
:105A0C002A0021003000BDE87040FFF7EDBD00001A
:105A1C00002305E050F8041B41F8043B121FFBD196
:105A2C0050F8042B002AF5D170470000535953430A
:105A3C004C4B5F4672657175656E6379203D202510
:105A4C00640A000048434C4B5F4672657175656E85
:105A5C006379203D2025640A0000000050434C4B24
:105A6C00315F4672657175656E6379203D202564E2
:105A7C000A00000050434C4B325F467265717565ED
:105A8C006E6379203D2025640A00000041444343A5
:105A9C004C4B5F4672657175656E6379203D2025B0
:105AAC00640A00000A2D2D2D2D2D2D2D2D2D2D2D83
:105ABC002D2D2D2D2D2D2D2D2D2D0A002D2D2D2D5A
:105ACC002D2D2D2D2D2D2D2D2D2D2D2D2D2D2D2DFA
