:020000040800F2
:1000000000000220696800081D5F00082B5F0008DF
:10001000315F0008375F00083D5F00080000000006
:10002000000000000000000000000000435F000826
:10003000515F0008000000005F5F00086D5F00086E
:10004000B9680008B9680008B9680008B96800080C
:10005000B9680008B9680008B9680008B9680008FC
:10006000B96800087D5F00088B5F0008B968000868
:10007000B9680008B9680008B9680008B9680008DC
:10008000B9680008B9680008B9680008B9680008CC
:10009000B9680008B9680008B9680008B9680008BC
:1000A000B9680008B9680008B9680008B9680008AC
:1000B000B9680008B9680008B9680008B96800089C
:1000C000B9680008B9680008B9680008B96800088C
:1000D000B9680008B9680008B9680008995F0008A5
:1000E000AD5F0008B9680008B9680008B968000881
:1000F000B9680008B9680008B9680008B96800085C
:10010000B9680008B9680008B9680008B96800084B
:10011000B9680008B9680008B9680008C55F000838
:10012000D95F0008B9680008B9680008B968000814
:10013000B9680008B9680008B9680008B96800081B
:10014000B9680008B9680008B9680008B96800080B
:10015000B9680008B9680008B9680008B9680008FB
:10016000B9680008B9680008B9680008B9680008EB
:10017000B9680008B9680008B96800080000000004
:08018000B9680008B968000825
:1001880010B5054C237833B9044B13B10448AFF3C9
:1001980000800123237010BDDC0100200000000056
:1001A800F08D000808B5034B1BB103490348AFF3B2
:1001B800008008BD00000000E0010020F08D00086C
:1001C800034613F8012B002AFBD1181A013870478F
:1001D80081F0004102E000BF83F0004330B54FEAF0
:1001E80041044FEA430594EA050F08BF90EA020F5D
:1001F8001FBF54EA000C55EA020C7FEA645C7FEAF0
:10020800655C00F0E2804FEA5454D4EB5555B8BF12
:100218006D420CDD2C4480EA020281EA030382EA83
:10022800000083EA010180EA020281EA0303362D15
:1002380088BF30BD11F0004F4FEA01314FF4801CE8
:100248004CEA113102D0404261EB410113F0004FFA
:100258004FEA03334CEA133302D0524263EB4303B1
:1002680094EA050F00F0A780A4F10104D5F1200E4F
:100278000DDB02FA0EFC22FA05F2801841F10001AA
:1002880003FA0EF2801843FA05F359410EE0A5F17E
:1002980020050EF1200E012A03FA0EFC28BF4CF0AF
:1002A800020C43FA05F3C01851EBE37101F0004565
:1002B80007D54FF0000EDCF1000C7EEB00006EEB72
:1002C8000101B1F5801F1BD3B1F5001F0CD34908FC
:1002D8005FEA30004FEA3C0C04F101044FEA445253
:1002E80012F5800F80F09A80BCF1004F08BF5FEADA
:1002F800500C50F1000041EB045141EA050130BDBA
:100308005FEA4C0C404141EB010111F4801FA4F15C
:100318000104E9D191F0000F04BF01460020B1FAB1
:1003280081F308BF2033A3F10B03B3F120020CDAE9
:100338000C3208DD02F1140CC2F10C0201FA0CF0C7
:1003480021FA02F10CE002F11402D8BFC2F1200C2C
:1003580001FA02F120FA0CFCDCBF41EA0C019040E2
:10036800E41AA2BF01EB0451294330BD6FEA04042B
:100378001F3C1CDA0C340EDC04F11404C4F1200216
:1003880020FA04F001FA02F340EA030021FA04F328
:1003980045EA030130BDC4F10C04C4F1200220FA7F
:1003A80002F001FA04F340EA0300294630BD21FABD
:1003B80004F0294630BD94F0000F83F4801306BF83
:1003C80081F480110134013D4EE77FEA645C18BF77
:1003D8007FEA655C29D094EA050F08BF90EA020F0E
:1003E80005D054EA000C04BF1946104630BD91EA06
:1003F800030F1EBF0021002030BD5FEA545C05D109
:100408004000494128BF41F0004130BD14F5800447
:100418003CBF01F5801130BD01F0004545F0FE41BB
:1004280041F470014FF0000030BD7FEA645C1ABFF0
:10043800194610467FEA655C1CBF0B46024650EA27
:10044800013406BF52EA033591EA030F41F4002153
:1004580030BD00BF90F0000F04BF0021704730B5D9
:100468004FF4806404F132044FF000054FF00001AE
:1004780050E700BF90F0000F04BF0021704730B56F
:100488004FF4806404F1320410F0004548BF404244
:100498004FF000013EE700BF42004FEAE2014FEA99
:1004A80031014FEA02701FBF12F07F4393F07F4F74
:1004B80081F06051704792F0000F14BF93F07F4FA6
:1004C800704730B54FF4607401F0004521F00041E9
:1004D80020E700BF50EA010208BF704730B54FF06F
:1004E80000050AE050EA010208BF704730B511F074
:1004F800004502D5404261EB41014FF4806404F1AC
:1005080032045FEA915C3FF4DCAE4FF003025FEA2D
:10051800DC0C18BF03325FEADC0C18BF033202EBB5
:10052800DC02C2F1200300FA03FC20FA02F001FA0F
:1005380003FE40EA0E0021FA02F11444C1E600BFAE
:1005480070B54FF0FF0C4CF4E06C1CEA11541DBF61
:100558001CEA135594EA0C0F95EA0C0F00F0DEF82C
:100568002C4481EA030621EA4C5123EA4C5350EA11
:10057800013518BF52EA033541F4801143F4801362
:1005880038D0A0FB02CE4FF00005E1FB02E506F0F3
:100598000042E0FB03E54FF00006E1FB03569CF048
:1005A800000F18BF4EF0010EA4F1FF04B6F5007F4E
:1005B80064F5407404D25FEA4E0E6D4146EB0606C0
:1005C80042EAC62141EA55514FEAC52040EA5E5049
:1005D8004FEACE2EB4F1FD0C88BFBCF5E06F1ED8F3
:1005E800BEF1004F08BF5FEA500E50F1000041EB2A
:1005F800045170BD06F0004646EA010140EA0200D7
:1006080081EA0301B4EB5C04C2BFD4EB0C0541EAF8
:10061800045170BD41F480114FF0000E013C00F30D
:10062800AB8014F1360FDEBF002001F0004170BD31
:10063800C4F10004203C35DA0C341BDC04F114044A
:10064800C4F1200500FA05F320FA04F001FA05F2D6
:1006580040EA020001F0004221F0004110EBD370A3
:1006680021FA04F642EB06015EEA430E08BF20EACF
:10067800D37070BDC4F10C04C4F1200500FA04F372
:1006880020FA05F001FA04F240EA020001F0004104
:1006980010EBD37041F100015EEA430E08BF20EA77
:1006A800D37070BDC4F1200500FA05F24EEA020EBF
:1006B80020FA04F301FA05F243EA020321FA04F0EE
:1006C80001F0004121FA04F220EA020000EBD370A5
:1006D8005EEA430E08BF20EAD37070BD94F0000FA5
:1006E8000FD101F00046400041EB010111F4801FD9
:1006F80008BF013CF7D041EA060195F0000F18BF8A
:10070800704703F00046520043EB030313F4801FC5
:1007180008BF013DF7D043EA0603704794EA0C0F7F
:100728000CEA135518BF95EA0C0F0CD050EA410695
:1007380018BF52EA4306D1D181EA030101F0004112
:100748004FF0000070BD50EA410606BF104619463A
:1007580052EA430619D094EA0C0F02D150EA013646
:1007680013D195EA0C0F05D152EA03361CBF104687
:1007780019460AD181EA030101F0004141F0FE4126
:1007880041F470014FF0000070BD41F0FE4141F4AA
:10079800780170BD70B54FF0FF0C4CF4E06C1CEAAA
:1007A80011541DBF1CEA135594EA0C0F95EA0C0F5F
:1007B80000F0A7F8A4EB050481EA030E52EA03351A
:1007C8004FEA013100F088804FEA03334FF080553B
:1007D80045EA131343EA12634FEA022245EA111568
:1007E80045EA10654FEA00260EF000419D4208BF19
:1007F800964244F1FD0404F5407402D25B084FEAC6
:100808003202B61A65EB03055B084FEA32024FF471
:1008180080104FF4002CB6EB020E75EB030E22BFCE
:10082800B61A754640EA0C005B084FEA3202B6EB8E
:10083800020E75EB030E22BFB61A754640EA5C003D
:100848005B084FEA3202B6EB020E75EB030E22BFCD
:10085800B61A754640EA9C005B084FEA3202B6EBCE
:10086800020E75EB030E22BFB61A754640EADC008D
:1008780055EA060E18D04FEA051545EA16754FEAEF
:1008880006164FEAC30343EA52734FEAC2025FEA0D
:100898001C1CC0D111F4801F0BD141EA00014FF09C
:1008A80000004FF0004CB6E711F4801F04BF01436D
:1008B8000020B4F1FD0C88BFBCF5E06F3FF6AFAE89
:1008C800B5EB030C04BFB6EB020C5FEA500C50F119
:1008D800000041EB045170BD0EF0004E4EEA11319C
:1008E80014EB5C04C2BFD4EB0C0541EA045170BDA3
:1008F80041F480114FF0000E013C90E645EA060EE7
:100908008DE60CEA135594EA0C0F08BF95EA0C0F14
:100918003FF43BAF94EA0C0F0AD150EA01347FF45C
:1009280034AF95EA0C0F7FF425AF104619462CE733
:1009380095EA0C0F06D152EA03353FF4FDAE104696
:10094800194622E750EA410618BF52EA43067FF4E7
:10095800C5AE50EA41047FF40DAF52EA43057FF477
:10096800EBAE12E74FF0FF3C06E000BF4FF0010C82
:1009780002E000BF4FF0010C4DF804CD4FEA410CE6
:100988007FEA6C5C4FEA430C18BF7FEA6C5C1BD0B3
:1009980001B050EA410C0CBF52EA430C91EA030F34
:1009A80002BF90EA020F0020704710F1000F91EA91
:1009B800030F58BF994208BF90422CBFD8176FEA5F
:1009C800E37040F0010070474FEA410C7FEA6C5C2D
:1009D80002D150EA013C07D14FEA430C7FEA6C5C34
:1009E800D6D152EA033CD3D05DF8040B704700BF60
:1009F8008446104662468C461946634600E000BFAE
:100A080001B5FFF7B7FF002848BF10F1000F01BD7F
:100A18004DF808EDFFF7F4FF0CBF012000205DF84A
:100A280008FB00BF4DF808EDFFF7EAFF34BF0120CF
:100A380000205DF808FB00BF4DF808EDFFF7E0FF68
:100A480094BF012000205DF808FB00BF4DF808EDB9
:100A5800FFF7CEFF94BF012000205DF808FB00BF20
:100A68004DF808EDFFF7C4FF34BF012000205DF802
:100A780008FB00BF4FEA410C7FEA6C5C02D150EAE8
:100A8800013C0AD14FEA430C7FEA6C5C02D152EA7E
:100A9800033C02D14FF0000070474FF0010070474F
:100AA8004FEA410212F5001215D211D56FF478738E
:100AB800B3EB625212D94FEAC12343F0004343EA31
:100AC800505311F0004F23FA02F018BF404270470C
:100AD8004FF00000704750EA013005D111F0004096
:100AE80008BF6FF0004070474FF00000704700BF2C
:100AF80053B94AB9002908BF00281CBF4FF0FF317D
:100B08004FF0FF3000F07AB9ADF1080C6DE904CE72
:100B180000F006F8DDF804E0DDE9022304B07047D0
:100B28002DE9F0478C460D460446089E002B51D10E
:100B38008A4217466DD9B2FA82FEBEF1000F0BD079
:100B4800CEF1200C01FA0EF520FA0CFC02FA0EF791
:100B58004CEA050C00FA0EF44FEA174A250CBCFBC8
:100B6800FAF81FFA87F90AFB18CC45EA0C4508FB86
:100B780009F3AB420AD9ED1908F1FF3280F023815D
:100B8800AB4240F22081A8F102083D44ED1AA4B21C
:100B9800B5FBFAF00AFB105544EA054400FB09F9D5
:100BA800A14509D9E41900F1FF3380F00A81A14574
:100BB80040F2078102383C44A4EB090440EA0840AB
:100BC8000021002E61D024FA0EF4002334607360F3
:100BD800BDE8F0878B4207D9002E54D0002186E863
:100BE80021000846BDE8F087B3FA83F1002940F0F8
:100BF8008E80AB4202D3824200F2FA80841A65EBFF
:100C080003050120AC46002E3FD086E81010BDE851
:100C1800F08712B90127B7FBF2F7B7FA87FEBEF1E2
:100C2800000F34D1EB1B3A0C1FFA87FC0121B3FBF0
:100C3800F2F8250C02FB183345EA03450CFB08F3D0
:100C4800AB4207D9ED1908F1FF3002D2AB4200F2EE
:100C5800D1808046ED1AA3B2B5FBF2F002FB105525
:100C680043EA05440CFB00FCA44507D9E41900F14C
:100C7800FF3302D2A44500F2B8801846A4EB0C0456
:100C880040EA08409DE731463046BDE8F087CEF19E
:100C9800200405FA0EF307FA0EF720FA04F83A0CC6
:100CA80025FA04F448EA0308B4FBF2F14FEA1845C0
:100CB80002FB11441FFA87FC45EA044501FB0CF3CB
:100CC800AB4200FA0EF409D9ED1901F1FF3080F0BA
:100CD8008A80AB4240F2878002393D44EB1A1FFA02
:100CE80088F5B3FBF2F002FB103345EA034500FB3D
:100CF8000CF3AB4207D9ED1900F1FF386FD2AB42C4
:100D08006DD902383D44EB1A40EA01418FE7C1F141
:100D1800200722FA07F88B4005FA01F448EA030392
:100D280020FA07FE4FEA134CFD404EEA040EB5FBCD
:100D3800FCF94FEA1E440CFB19551FFA83F844EAE4
:100D4800054509FB08F4AC4202FA01F200FA01FA7F
:100D580008D9ED1809F1FF3043D2AC4241D9A9F1C5
:100D680002091D442D1B1FFA8EFEB5FBFCF00CFB7F
:100D780010554EEA054400FB08F8A04507D9E418C9
:100D880000F1FF3529D2A04527D902381C4440EA92
:100D98000940A4EB0804A0FB02894C45C6464D4611
:100DA80015D312D056B1BAEB0E0364EB050404FA5E
:100DB80007F7CB401F43CC40376074600021BDE883
:100DC800F0871846F8E69046E0E6C245EAD2B8EB66
:100DD800020E69EB03050138E4E72846D7E74046E9
:100DE80091E78146BEE7014678E702383C4445E78B
:100DF800084608E7A8F102083D442BE7704700BF02
:100E080080B500AF0E4A0E4B1B6843F400731360A5
:100E18000B4A0B4B1B6843F480631360084A084B6A
:100E28001B6843F480731360032000F011FD002059
:100E380000F008F805F01CF80023184680BD00BF34
:100E4800003C024080B582B000AF7860124B1A684F
:100E5800124B1B7819464FF47A73B3FBF1F3B2FBCC
:100E6800F3F3184600F029FD0346002B01D00123B7
:100E78000EE07B680F2B0AD8002279684FF0FF300C
:100E880000F0F1FC064A7B681360002300E00123B0
:100E980018460837BD4680BD080000200400002021
:100EA8000000002080B400AF064B1B781A46064BA2
:100EB8001B681344044A136000BFBD465DF8047BF9
:100EC800704700BF040000200802002080B400AF73
:100ED800034B1B681846BD465DF8047B704700BF8E
:100EE8000802002080B584B000AF7860FFF7EEFFFD
:100EF800B8607B68FB60FB68B3F1FF3F05D0094B26
:100F08001B781A46FB681344FB6000BFFFF7DEFF3F
:100F18000246BB68D21AFB689A42F7D300BF103763
:100F2800BD4680BD0400002080B584B000AF786065
:100F38000023FB737B68002B01D1012333E07B681E
:100F48001B6C002B09D17B6800225A647B68002245
:100F580083F83C20786804F0F9FB7B681B6C03F08D
:100F68001003002B18D17B681B6C23F4885323F0E3
:100F7800020343F002027B681A64786800F02CFAD6
:100F88007B6800225A647B681B6C23F0030343F0E0
:100F980001027B681A6401E00123FB737B6800226D
:100FA80083F83C20FB7B18461037BD4680BD000007
:100FB80080B586B000AFF860B9607A6000233B6105
:100FC800FB6893F83C30012B01D10223B0E0FB68A9
:100FD800012283F83C20FB681B689B6803F001032F
:100FE800012B18D0FB681B68FA681268926842F0F7
:100FF80001029A60504B1B68504AA2FB03239A0CCB
:1010080013465B0013443B6102E03B69013B3B61D3
:101018003B69002BF9D1FB681B689B6803F001034F
:10102800002B00F08480FB681B6C23F4E06323F042
:10103800010343F48072FB681A64FB681B685B68F1
:1010480003F48063002B07D0FB681B6C23F4405328
:1010580043F48052FB681A64FB681B6C03F48053EA
:10106800002B06D0FB685B6C23F00602FB685A6411
:1010780002E0FB6800225A64FB68002283F83C20E7
:101088002F4B7B61FB689B6B2E4ADA63FB689B6B7B
:101098002D4A1A64FB689B6B2C4ADA64FB681B6850
:1010A8006FF022021A60FB681B68FA6812685268BF
:1010B80042F080625A60FB681B68FA68126892689E
:1010C80042F480729A60FB68986BFB681B684C332B
:1010D8001946BA687B6800F0CFFD7B695B6803F04E
:1010E8001F03002B0FD1FB681B689B6803F040535C
:1010F800002B1CD1FB681B68FA681268926842F0E2
:1011080080429A6013E0FB681B68114A93420ED133
:10111800FB681B689B6803F04053002B07D1FB68F2
:101128001B68FA681268926842F080429A6000234D
:1011380018461837BD4680BD0800002083DE1B43D3
:1011480000230140D51500087B16000897160008F3
:101158000020014080B483B000AF786000BF0C3736
:10116800BD465DF8047B704780B483B000AF7860FB
:1011780000BF0C37BD465DF8047B704780B483B070
:1011880000AF786000BF0C37BD465DF8047B704740
:1011980090B484B000AF786039600023BB607B688E
:1011A80093F83C30012B01D1022307E17B6801222F
:1011B80083F83C203B681B68092B26D97B681A6892
:1011C8007B681B68D9683B681B689BB21846034656
:1011D8005B0003441E3B072000FA03F3DB430B408C
:1011E800D3607B681A687B681B68D9683B68986815
:1011F8003B681B689BB21C4623465B0023441E3B8E
:1012080000FA03F30B43D36023E07B681A687B681A
:101218001B6819693B681B689BB2184603465B004C
:101228000344072000FA03F3DB430B4013617B6898
:101238001A687B681B6819693B6898683B681B6873
:101248009BB21C4623465B00234400FA03F30B437E
:1012580013613B685B68062B24D87B6819687B6838
:101268001B68586B3B685A6813469B001344053B40
:101278001F2202FA03F3DB4303404B637B681968C0
:101288007B681B68586B3B681B689BB21C463B68B5
:101298005A6813469B001344053B04FA03F30343BF
:1012A8004B634CE03B685B680C2B24D87B6819685F
:1012B8007B681B68186B3B685A6813469B0013448D
:1012C800233B1F2202FA03F3DB4303400B637B68D3
:1012D80019687B681B68186B3B681B689BB21C46C7
:1012E8003B685A6813469B001344233B04FA03F3F4
:1012F80003430B6323E07B6819687B681B68D86A23
:101308003B685A6813469B001344413B1F2202FA6C
:1013180003F3DB430340CB627B6819687B681B6877
:10132800D86A3B681B689BB21C463B685A681346E0
:101338009B001344413B04FA03F30343CB62224B63
:10134800FB607B681B68214A934209D13B681B6894
:10135800122B05D1FB685B6843F48002FB685A6076
:101368007B681B68194A934223D13B681B68102B82
:1013780003D03B681B68112B1BD1FB685B6843F4E7
:101388000002FB685A603B681B68102B11D1104B98
:101398001B68104AA2FB03239A0C13469B001344B4
:1013A8005B00BB6002E0BB68013BBB60BB68002B15
:1013B800F9D17B68002283F83C20002318461037B7
:1013C800BD4690BC704700BF00230140002001408B
:1013D8000800002083DE1B4380B485B000AF78602E
:1013E800784BFB60FB685B6823F44032FB685A600B
:1013F800FB685A687B685B681A43FB685A607B68BD
:101408001B687A681268526822F480725A607B6896
:101418001B687A68126851687A68126912020A436E
:101428005A607B681B687A681268526822F04072BA
:101438005A607B681B687A68126851687A68926893
:101448000A435A607B681B687A681268926822F4BB
:1014580000629A607B681B687A68126891687A688B
:10146800D2680A439A607B689B6A574A934222D0A3
:101478007B681B687A681268926822F070629A60CA
:101488007B681B687A68126891687A68926A0A436E
:101498009A607B681B687A681268926822F04052EA
:1014A8009A607B681B687A68126891687A68D26A61
:1014B8000A439A600FE07B681B687A681268926832
:1014C80022F070629A607B681B687A68126892687A
:1014D80022F040529A607B681B687A6812689268AA
:1014E80022F002029A607B681B687A681268916829
:1014F8007A68926952000A439A607B681B6A002BDB
:101508001BD07B681B687A681268526842F40062D4
:101518005A607B681B687A681268526822F46042D5
:101528005A607B681B687A68126851687A68526AE0
:10153800013A52030A435A6007E07B681B687A68DD
:101548001268526822F400625A607B681B687A68E5
:101558001268D26A22F47002DA627B681B687A68C1
:101568001268D16A7A68D269013A12050A43DA62C6
:101578007B681B687A681268926822F400729A6025
:101588007B681B687A68126891687A68126B5202E5
:101598000A439A607B681B687A681268926822F42A
:1015A80080629A607B681B687A68126891687A68BA
:1015B800526992020A439A6000BF1437BD465DF82B
:1015C800047B7047002301400100000F80B584B000
:1015D80000AF78607B689B6BFB60FB681B6C03F05B
:1015E8005003002B3CD1FB681B6C43F40072FB6872
:1015F8001A64FB681B689B6803F04053002B2BD1CF
:10160800FB689B69002B27D1FB681B68DB6A03F426
:101618007003002B06D0FB681B689B6803F480638B
:10162800002B19D1FB681B68FA681268526822F00F
:1016380020025A60FB681B6C23F48072FB681A64F2
:10164800FB681B6C03F48053002B05D1FB681B6CF3
:1016580043F00102FB681A64F868FFF77BFD04E0B9
:10166800FB689B6BDB6C7868984700BF1037BD46FA
:1016780080BD80B584B000AF78607B689B6BFB60F1
:10168800F868FFF771FD00BF1037BD4680BD80B513
:1016980084B000AF78607B689B6BFB60FB6840227E
:1016A8001A64FB685B6C43F00402FB685A64F868D0
:1016B800FFF764FD00BF1037BD4680BD80B485B01C
:1016C80000AF78607B6803F00703FB600C4BDB68B6
:1016D800BB60BA684FF6FF031340BB60FB681A0291
:1016E800BB68134343F0BF6343F40033BB60044A51
:1016F800BB68D36000BF1437BD465DF8047B7047F4
:1017080000ED00E080B400AF044BDB681B0A03F077
:1017180007031846BD465DF8047B704700ED00E0FE
:1017280080B483B000AF0346FB71094997F90730CD
:101738005B09FA7902F01F02012000FA02F241F86F
:10174800232000BF0C37BD465DF8047B704700BFFF
:1017580000E100E080B483B000AF03463960FB715C
:1017680097F90730002B0BDA0D49FB7903F00F03CB
:10177800043B3A68D2B21201D2B20B441A7609E09D
:10178800084997F907303A68D2B21201D2B20B442D
:1017980083F8002300BF0C37BD465DF8047B704713
:1017A80000ED00E000E100E080B489B000AFF8602F
:1017B800B9607A60FB6803F00703FB61FB69C3F15A
:1017C8000703042B28BF0423BB61FB690433062BE2
:1017D80002D9FB69033B00E000237B610122BB695E
:1017E80002FA03F35A1EBB681A407B699A4001212A
:1017F8007B6901FA03F3591E7B680B4013431846B3
:101808002437BD465DF8047B7047000080B582B080
:1018180000AF78607B68013BB3F1807F01D301237F
:101828000FE00A4A7B68013B53600F214FF0FF30FD
:10183800FFF790FF054B00229A60044B07221A60BD
:10184800002318460837BD4680BD00BF10E000E001
:1018580080B582B000AF78607868FFF72FFF00BFCF
:101868000837BD4680BD80B586B000AF0346B96075
:101878007A60FB7300237B61FFF744FF78617A6825
:10188800B9687869FFF790FF024697F90F3011465B
:101898001846FFF75FFF00BF1837BD4680BD80B50B
:1018A80082B000AF0346FB7197F907301846FFF77F
:1018B80037FF00BF0837BD4680BD80B582B000AF96
:1018C80078607868FFF7A2FF034618460837BD46D8
:1018D80080BD000080B483B000AF78607B68042BC3
:1018E80006D1094A084B1B6843F00403136005E05E
:1018F800054A054B1B6823F00403136000BF0C372F
:10190800BD465DF8047B704710E000E080B500AF8D
:1019180000F002F800BF80BD80B400AF00BFBD4634
:101928005DF8047B704780B582B000AF78607B6853
:10193800002B01D1012314E07B681B79DBB2002B5B
:1019480005D17B6800225A71786803F09FFF7B6895
:1019580002221A717B6800221A617B6801221A71BF
:10196800002318460837BD4680BD80B485B000AF57
:10197800786039600023FB600023BB607B685B797B
:10198800012B01D1022351E07B6801225A717B6847
:1019980002221A717B681B687A6812681168012034
:1019A8003A6800FA02F20A431A603B68002B1AD11F
:1019B8007B681B681B6803F00403FB607B681B687B
:1019C8001B6803F03803BB60FB68042B27D1BB6896
:1019D800382B24D17B681B687A681268526842F0F9
:1019E80001025A601BE07B681B681B6803F48023B4
:1019F800FB607B681B681B6803F46013BB60FB68B3
:101A0800B3F5802F0BD1BB68B3F5601F07D17B6896
:101A18001B687A681268526842F002025A607B6852
:101A280001221A717B6800225A7100231846143764
:101A3800BD465DF8047B704780B487B000AFF8609E
:101A4800B9607A6000237B6100233B61FB685B79A6
:101A5800012B01D1022336E0FB6801225A71FB6891
:101A680002221A71FB681B681B687B6140F6FE72D4
:101A78007B6802FA03F3DB437A6913407B61BB6836
:101A88001A68BB685B6813433B613A697B6802FA72
:101A980003F37A6913437B61FB681B687A691A60F0
:101AA800FB681B68FA6812681168C0207A6800FA37
:101AB80002F2D2430A401A60FB6801221A71FB68DD
:101AC80000225A71002318461C37BD465DF8047B76
:101AD800704780B487B000AFF860B9607A603B6047
:101AE80000237B61FB681B687B61BB68002B05D109
:101AF8007A697B68134408337B6104E07A697B6800
:101B0800134414337B617B691A463B6813600023D6
:101B180018461C37BD465DF8047B704780B586B013
:101B280000AF786000237B61FFF7D0F938617B68EC
:101B3800002B01D1012399E07B68002283F834202F
:101B48007B68022283F835207B681B687A681268F4
:101B5800126822F001021A600FE0FFF7B7F9024697
:101B68003B69D31A052B08D97B6820225A657B6804
:101B7800032283F83520032378E07B681B681B6801
:101B880003F00103002BE8D17B681B681B687B61AD
:101B98007A69384B13407B617B685A687B689B681D
:101BA8001A437B68DB681A437B681B691A437B68A6
:101BB8005B691A437B689B691A437B68DB691A4334
:101BC8007B681B6A13437A6913437B617B685B6A92
:101BD800042B07D17B68DA6A7B681B6B13437A692D
:101BE80013437B617B681B687A691A607B681B6892
:101BF8005B697B617B6923F007037B617B685B6AB8
:101C08007A6913437B617B685B6A042B17D17B6815
:101C18009B6A7A6913437B617B68DB6A002B0ED071
:101C2800786800F099FA0346002B08D07B684022B8
:101C38005A657B68012283F83520012316E07B680A
:101C48001B687A695A61786800F050FA0346FB60AD
:101C58007B68DB6D3F229A40FB689A607B680022B4
:101C68005A657B68012283F8352000231846183707
:101C7800BD4680BD3F8010F080B586B000AFF860EB
:101C8800B9607A603B600023FB75FB689B6D3B6124
:101C9800FB6893F83430012B01D1022348E0FB683C
:101CA800012283F83420FB6893F83530DBB2012B2E
:101CB80037D1FB68022283F83520FB6800225A6579
:101CC8003B687A68B968F86800F0E2F9FB68DB6D90
:101CD8003F229A403B699A60FB681B68FA68126861
:101CE800126842F016021A60FB681B68FA681268EC
:101CF800526942F080025A61FB681B6C002B07D0C6
:101D0800FB681B68FA681268126842F008021A60D9
:101D1800FB681B68FA681268126842F001021A60D0
:101D280005E0FB68002283F834200223FB75FB7D65
:101D380018461837BD4680BD80B483B000AF7860C0
:101D48007B6893F83530DBB2022B04D07B688022A5
:101D58005A6501230CE07B68052283F835207B68EF
:101D68001B687A681268126822F001021A60002360
:101D780018460C37BD465DF8047B704780B586B0C1
:101D880000AF78600023BB60924B1B68924AA2FBAD
:101D980003239B0A7B617B689B6D3B613B691B68E6
:101DA800FB607B68DB6D08229A40FB681340002BC0
:101DB8001AD07B681B681B6803F00403002B13D040
:101DC8007B681B687A681268126822F004021A603D
:101DD8007B68DB6D08229A403B699A607B685B6D83
:101DE80043F001027B685A657B68DB6D01229A40EB
:101DF800FB681340002B12D07B681B685B6903F0FB
:101E08008003002B0BD07B68DB6D01229A403B6975
:101E18009A607B685B6D43F002027B685A657B6859
:101E2800DB6D04229A40FB681340002B12D07B68BC
:101E38001B681B6803F00203002B0BD07B68DB6D6B
:101E480004229A403B699A607B685B6D43F0040208
:101E58007B685A657B68DB6D10229A40FB681340EB
:101E6800002B43D07B681B681B6803F00803002B1A
:101E78003CD07B68DB6D10229A403B699A607B6896
:101E88001B681B6803F48023002B18D07B681B6831
:101E98001B6803F40023002B08D17B681B6C002B04
:101EA80024D07B681B6C786898471FE07B689B6C24
:101EB800002B1BD07B689B6C7868984716E07B6882
:101EC8001B681B6803F48073002B07D17B681B68B1
:101ED8007A681268126822F008021A607B681B6C24
:101EE800002B03D07B681B6C786898477B68DB6D98
:101EF80020229A40FB681340002B00F08E807B68FC
:101F08001B681B6803F01003002B00F086807B68B9
:101F1800DB6D20229A403B699A607B6893F83530E4
:101F2800DBB2052B36D17B681B687A6812681268A9
:101F380022F016021A607B681B687A681268526978
:101F480022F080025A617B681B6C002B03D17B68EE
:101F58009B6C002B07D07B681B687A681268126834
:101F680022F008021A607B68DB6D3F229A403B69C9
:101F78009A607B68002283F834207B68012283F80A
:101F880035207B681B6D002B7DD07B681B6D7868C6
:101F9800984778E07B681B681B6803F48023002B54
:101FA8001CD07B681B681B6803F40023002B08D136
:101FB8007B685B6C002B30D07B685B6C78689847DB
:101FC8002BE07B68DB6B002B27D07B68DB6B7868AA
:101FD800984722E008000020B5814E1B7B681B68EB
:101FE8001B6803F48073002B0FD17B681B687A6829
:101FF8001268126822F010021A607B68002283F8C7
:1020080034207B68012283F835207B68DB6B002B4A
:1020180003D07B68DB6B786898477B685B6D002B27
:1020280032D07B685B6D03F00103002B22D07B6804
:10203800052283F835207B681B687A681268126865
:1020480022F001021A60BB680133BB607A699342CF
:1020580007D87B681B681B6803F00103002BF2D1CB
:1020680000E000BF7B68002283F834207B680122EF
:1020780083F835207B68DB6C002B05D07B68DB6C34
:102088007868984700E000BF1837BD4680BD00BF9C
:1020980080B485B000AFF860B9607A603B60FB68D7
:1020A8001B68FA681268126822F480221A60FB68BA
:1020B8001B683A685A60FB689B68402B08D1FB682C
:1020C8001B687A689A60FB681B68BA68DA6007E080
:1020D800FB681B68BA689A60FB681B687A68DA60F4
:1020E80000BF1437BD465DF8047B704780B485B0E7
:1020F80000AF78607B681B68DBB2103B144AA2FB18
:1021080003231B09FB60134AFB6813441B781A4618
:102118007B68DA65FB68032B09D97B681B6823F4A5
:102128007F7323F003031A1D7B689A6507E07B68B9
:102138001B6823F47F7323F003037A6893657B6835
:102148009B6D18461437BD465DF8047B704700BF89
:10215800ABAAAAAA6C8E000880B485B000AF7860DC
:102168000023FB737B689B6ABB607B689B69002BC1
:102178001FD1BB68032B55D801A252F823F000BF2A
:1021880099210008AB210008992100082D22000898
:102198007B68DB6A03F08073002B45D00123FB7357
:1021A80042E07B68DB6AB3F1C07F3FD10123FB7358
:1021B8003CE07B689B69B3F5005F21D1BB68032BCA
:1021C80036D801A252F823F0E1210008E7210008DF
:1021D800E1210008F92100080123FB732FE07B6847
:1021E800DB6A03F08073002B24D00123FB7321E00A
:1021F8007B68DB6AB3F1C07F1ED10123FB731BE050
:10220800BB68022B02D9032B03D018E00123FB7310
:1022180015E07B68DB6A03F08073002B0ED0012386
:10222800FB730BE000BF0AE000BF08E000BF06E058
:1022380000BF04E000BF02E000BF00E000BFFB7B7E
:1022480018461437BD465DF8047B704780B489B0E2
:1022580000AF7860396000237B6100233B61002375
:10226800BB610023FB616BE10122FB6902FA03F306
:102278007B613B681A687B6913403B613A697B69FB
:102288009A4240F05A813B685B68022B03D03B6856
:102298005B68122B23D1FB69DA087B68083253F894
:1022A8002230BB61FB6903F007039B000F2202FA8F
:1022B80003F3DB43BA691340BB613B681A69FB69E6
:1022C80003F007039B0002FA03F3BA691343BB61E7
:1022D800FB69DA087B680832B96943F822107B6821
:1022E8001B68BB61FB695B00032202FA03F3DB4353
:1022F800BA691340BB613B685B6803F00302FB6982
:102308005B0002FA03F3BA691343BB617B68BA69DD
:102318001A603B685B68012B0BD03B685B68022B3B
:1023280007D03B685B68112B03D03B685B68122BB6
:1023380030D17B689B68BB61FB695B00032202FAB2
:1023480003F3DB43BA691340BB613B68DA68FB6996
:102358005B0002FA03F3BA691343BB617B68BA698D
:102368009A607B685B68BB610122FB6902FA03F330
:10237800DB43BA691340BB613B685B681B0903F028
:102388000102FB6902FA03F3BA691343BB617B6874
:10239800BA695A607B68DB68BB61FB695B00032232
:1023A80002FA03F3DB43BA691340BB613B689A68DE
:1023B800FB695B0002FA03F3BA691343BB617B68EC
:1023C800BA69DA603B685B6803F08053002B00F061
:1023D800B4800023FB605F4A5E4B5B6C43F4804330
:1023E80053645C4B5B6C03F48043FB60FB685A4AA4
:1023F800FB699B08023352F82330BB61FB6903F089
:1024080003039B000F2202FA03F3DB43BA6913406C
:10241800BB617B68514A93422BD07B68504A9342F8
:1024280025D07B684F4A93421FD07B684E4A93421F
:1024380019D07B684D4A934213D07B684C4A93422B
:102448000DD07B684B4A934207D07B684A4A934237
:1024580001D107230EE008230CE006230AE0052338
:1024680008E0042306E0032304E0022302E001233A
:1024780000E00023FA6902F0030292009340BA696F
:102488001343BB613449FB699B080233BA6941F8BD
:1024980023203A4B1B68BB613B69DB43BA69134095
:1024A800BB613B685B6803F48033002B03D0BA69D7
:1024B8003B691343BB61314ABB6913602F4B5B68AF
:1024C800BB613B69DB43BA691340BB613B685B682E
:1024D80003F40033002B03D0BA693B691343BB6193
:1024E800264ABB695360254B9B68BB613B69DB434C
:1024F800BA691340BB613B685B6803F48013002B27
:1025080003D0BA693B691343BB611C4ABB6993603A
:102518001A4BDB68BB613B69DB43BA691340BB619B
:102528003B685B6803F40013002B03D0BA693B696E
:102538001343BB61114ABB69D360FB690133FB617B
:10254800FB690F2B7FF690AE00BF2437BD465DF8C0
:10255800047B704700380240003801400000024008
:102568000004024000080240000C02400010024033
:102578000014024000180240001C0240003C0140C8
:1025880080B483B000AF78600B467B8013467B70C5
:102598007B78002B03D07A887B689A6103E07B887C
:1025A8001A047B689A6100BF0C37BD465DF8047B4E
:1025B800704780B483B000AF78600B467B807B683F
:1025C8005A697B885A407B685A6100BF0C37BD4600
:1025D8005DF8047B7047000080B582B000AF034609
:1025E800FB80084B5A69FB881340002B06D0054A2C
:1025F800FB885361FB88184603F006FC00BF0837C8
:10260800BD4680BD003C014080B586B000AF786013
:102618007B68002B01D101232DE27B681B6803F046
:102628000103002B75D0A34B9B6803F00C03042B0C
:102638000CD0A04B9B6803F00C03082B12D19D4BC8
:102648005B6803F48003B3F5800F0BD1994B1B68CB
:1026580003F40033002B5BD07B685B68002B57D1F9
:10266800012308E27B685B68B3F5803F06D1914A95
:10267800904B1B6843F4803313601DE07B685B68F4
:10268800B3F5A02F0CD18B4A8A4B1B6843F48023E7
:102698001360884A874B1B6843F4803313600BE050
:1026A800844A844B1B6823F480331360814A814B2E
:1026B8001B6823F4802313607B685B68002B13D0AE
:1026C800FEF704FC386108E0FEF700FC02463B69AF
:1026D800D31A642B01D90323CDE1764B1B6803F48D
:1026E8000033002BF0D014E0FEF7F0FB386108E06F
:1026F800FEF7ECFB02463B69D31A642B01D903238E
:10270800B9E16C4B1B6803F40033002BF0D100E0F7
:1027180000BF7B681B6803F00203002B63D0654B86
:102728009B6803F00C03002B0BD0624B9B6803F0F3
:102738000C03082B1CD15F4B5B6803F48003002B50
:1027480016D15C4B1B6803F00203002B05D07B6895
:10275800DB68012B01D001238DE15649554B1B68DD
:1027680023F0F8027B681B69DB0013430B603AE037
:102778007B68DB68002B20D04F4B01221A60FEF7E4
:10278800A5FB386108E0FEF7A1FB02463B69D31AB6
:10279800022B01D903236EE1464B1B6803F00203A9
:1027A800002BF0D04349434B1B6823F0F8027B68A9
:1027B8001B69DB0013430B6015E03F4B00221A60D6
:1027C800FEF784FB386108E0FEF780FB02463B69B0
:1027D800D31A022B01D903234DE1364B1B6803F0B2
:1027E8000203002BF0D17B681B6803F00803002B61
:1027F80030D07B685B69002B16D0304B01221A6001
:10280800FEF764FB386108E0FEF760FB02463B69AF
:10281800D31A022B01D903232DE1264B5B6F03F05A
:102828000203002BF0D015E0244B00221A60FEF7BB
:102838004DFB386108E0FEF749FB02463B69D31AB5
:10284800022B01D9032316E11A4B5B6F03F0020335
:10285800002BF0D17B681B6803F00403002B00F009
:10286800A0800023FB75134B1B6C03F08053002BD7
:102878000FD10023FB600F4A0E4B1B6C43F08053B3
:1028880013640C4B1B6C03F08053FB60FB68012343
:10289800FB750B4B1B6803F48073002B21D1084A8E
:1028A800074B1B6843F480731360FEF70FFB386116
:1028B80011E000BF0038024000004742800E474246
:1028C80000700040FEF702FB02463B69D31A022B58
:1028D80001D90323CFE06A4B1B6803F48073002BF4
:1028E800F0D07B689B68012B06D1664A654B1B6F4D
:1028F80043F0010313671CE07B689B68052B0CD130
:10290800604A604B1B6F43F0040313675D4A5D4BDD
:102918001B6F43F0010313670BE05A4A594B1B6FB7
:1029280023F001031367574A564B1B6F23F0040328
:1029380013677B689B68002B15D0FEF7C7FA3861D0
:102948000AE0FEF7C3FA02463B69D31A41F288321D
:10295800934201D903238EE04A4B1B6F03F0020315
:10296800002BEED014E0FEF7B1FA38610AE0FEF76A
:10297800ADFA02463B69D31A41F28832934201D933
:10298800032378E03F4B1B6F03F00203002BEED1CB
:10299800FB7D012B05D13B4A3A4B1B6C23F080533E
:1029A80013647B689B69002B64D0364B9B6803F0EB
:1029B8000C03082B5CD07B689B69022B41D1324BFE
:1029C80000221A60FEF782FA386108E0FEF77EFA04
:1029D80002463B69D31A022B01D903234BE0294B4A
:1029E8001B6803F00073002BF0D126497B68DA6975
:1029F8007B681B6A1A437B685B6A9B011A437B6886
:102A08009B6A5B08013B1B041A437B68DB6A1B0655
:102A180013434B601C4B01221A60FEF757FA3861CA
:102A280008E0FEF753FA02463B69D31A022B01D994
:102A3800032320E0134B1B6803F00073002BF0D036
:102A480018E0114B00221A60FEF740FA386108E0DE
:102A5800FEF73CFA02463B69D31A022B01D903233D
:102A680009E0084B1B6803F00073002BF0D101E06C
:102A7800012300E0002318461837BD4680BD00BF7B
:102A880000700040003802406000474280B584B0C2
:102A980000AF786039607B68002B01D10123CAE060
:102AA800674B1B6803F00F023B689A420CD2644BD9
:102AB8003A68D2B21A70624B1B6803F00F023B6887
:102AC8009A4201D00123B6E07B681B6803F0020339
:102AD800002B20D07B681B6803F00403002B05D073
:102AE800584A584B9B6843F4E05393607B681B68D3
:102AF80003F00803002B05D0524A524B9B6843F45D
:102B0800604393604F494F4B9B6823F0F0027B680A
:102B18009B6813438B607B681B6803F00103002BE1
:102B280044D07B685B68012B07D1464B1B6803F4D4
:102B38000033002B19D101237DE07B685B68022BF1
:102B480003D07B685B68032B07D13E4B1B6803F0FF
:102B58000073002B09D101236DE03A4B1B6803F089
:102B68000203002B01D1012365E03649354B9B68F0
:102B780023F003027B685B6813438B60FEF7A6F9BA
:102B8800F8600AE0FEF7A2F90246FB68D31A41F2A0
:102B98008832934201D903234DE02A4B9B6803F006
:102BA8000C027B685B689B009A42EBD1244B1B6844
:102BB80003F00F023B689A420CD9214B3A68D2B213
:102BC8001A701F4B1B6803F00F023B689A4201D032
:102BD800012330E07B681B6803F00403002B08D056
:102BE8001849184B9B6823F4E0527B68DB68134351
:102BF8008B607B681B6803F00803002B09D0114920
:102C0800104B9B6823F460427B681B69DB0013430D
:102C18008B6000F01DF801460A4B9B681B0903F006
:102C28000F03094AD35C21FA03F3084A1360002012
:102C3800FEF708F9002318461037BD4680BD00BFCF
:102C4800003C024000380240748E00080800002052
:102C58002DE9F04F8FB000AF0023FB6200237B63A8
:102C68000023BB6200233B63624B9B6803F00C03A9
:102C7800042B07D0082B08D0002B40F0B2805E4B05
:102C88003B63B1E05D4B3B63AEE05A4B5B6803F0DE
:102C98003F03FB62574B5B6803F48003002B4ED065
:102CA800544B5B689B094FF0000440F2FF114FF052
:102CB800000201EA030102EA04020B46144660011D
:102CC8007862786A40EAD36078625B013B62D7E950
:102CD80008345B1A64EB02044FEA841949EA9369E1
:102CE8004FEA8318B8EB030869EB04094FEAC903F4
:102CF800FB61FB6943EA5873FB614FEAC803BB6198
:102D0800D7E9068918EB010849EB02094FEA49237C
:102D18007B617B6943EAD8537B614FEA48233B6177
:102D2800D7E9048940464946FB6A4FF000041A4631
:102D38002346FDF7DDFE03460C467B6343E02D4B3F
:102D48005B689B094FF0000440F2FF114FF000024E
:102D580001EA030102EA04020B4614466001F86026
:102D6800F86840EAD360F8605B01BB60D7E90234D9
:102D78005B1A64EB0204A60146EA93669D01ED1A0C
:102D880066EB0406F3007B607B6843EA55737B605F
:102D9800EB003B6097E860006D1846EB02064FEACF
:102DA800862B4BEA955B4FEA852A55465E462846B0
:102DB8003146FB6A4FF000041A462346FDF798FE99
:102DC80003460C467B630B4B5B681B0C03F0030349
:102DD80001335B00BB627A6BBB6AB2FBF3F33B6304
:102DE80002E0054B3B6300BF3B6B18463C37BD46D2
:102DF800BDE8F08F003802400024F40000127A0089
:102E080080B400AF034B1B681846BD465DF8047BD1
:102E1800704700BF0800002080B500AFFFF7F0FF43
:102E28000146054B9B689B0A03F00703034AD35CE2
:102E380021FA03F3184680BD00380240848E00084A
:102E480080B500AFFFF7DCFF0146054B9B685B0BC5
:102E580003F00703034AD35C21FA03F3184680BD45
:102E680000380240848E000880B582B000AF7860D8
:102E78007B68002B01D101231DE07B6893F8393072
:102E8800DBB2002B06D17B68002283F838207868F3
:102E980003F060FB7B68022283F839207B681A689C
:102EA8007B6804331946104600F060FB7B680122FA
:102EB80083F83920002318460837BD4680BD80B402
:102EC80083B000AF78607B681B687A681268D26844
:102ED80042F00102DA607B681B687A68126812683F
:102EE80042F001021A60002318460C37BD465DF80F
:102EF800047B704780B582B000AF78607B68002B98
:102F080001D101231DE07B6893F83930DBB2002B37
:102F180006D17B68002283F83820786800F015F81D
:102F28007B68022283F839207B681A687B6804333F
:102F38001946104600F01AFB7B68012283F83920F5
:102F4800002318460837BD4680BD80B483B000AF63
:102F5800786000BF0C37BD465DF8047B7047000001
:102F680080B582B000AF786039607B681B68012249
:102F78003968184600F01CFC7B681B68104A9342AD
:102F880004D07B681B680F4A934201D1012300E0FB
:102F98000023002B07D07B681B687A681268526C84
:102FA80042F400425A647B681B687A6812681268A7
:102FB80042F001021A60002318460837BD4680BD5A
:102FC800000001400004014080B582B000AF786085
:102FD8007B681B681B6903F00203022B22D17B6804
:102FE8001B68DB6803F00203022B1BD17B681B689C
:102FF8006FF002021A617B6801221A767B681B68EF
:103008009B6903F00303002B03D0786800F08FFA64
:1030180005E0786800F081FA786800F092FA7B6839
:1030280000221A767B681B681B6903F00403042BD3
:1030380022D17B681B68DB6803F00403042B1BD1D7
:103048007B681B686FF004021A617B6802221A769B
:103058007B681B689B6903F44073002B03D0786876
:1030680000F065FA05E0786800F057FA786800F033
:1030780068FA7B6800221A767B681B681B6903F074
:103088000803082B22D17B681B68DB6803F0080360
:10309800082B1BD17B681B686FF008021A617B68DC
:1030A80004221A767B681B68DB6903F00303002B94
:1030B80003D0786800F03BFA05E0786800F02DFA54
:1030C800786800F03EFA7B6800221A767B681B68F5
:1030D8001B6903F01003102B22D17B681B68DB6887
:1030E80003F01003102B1BD17B681B686FF01002D4
:1030F8001A617B6808221A767B681B68DB6903F40F
:103108004073002B03D0786800F011FA05E0786866
:1031180000F003FA786800F014FA7B6800221A7647
:103128007B681B681B6903F00103012B0ED17B68C8
:103138001B68DB6803F00103012B07D17B681B6860
:103148006FF001021A61786802F012FE7B681B6852
:103158001B6903F08003802B0ED17B681B68DB683A
:1031680003F08003802B07D17B681B686FF0800217
:103178001A61786800F084FD7B681B681B6903F09E
:103188004003402B0ED17B681B68DB6803F04003CB
:10319800402B07D17B681B686FF040021A61786882
:1031A80000F0D9F97B681B681B6903F02003202B0A
:1031B8000ED17B681B68DB6803F02003202B07D146
:1031C8007B681B686FF020021A61786800F04EFD7A
:1031D80000BF0837BD4680BD80B584B000AFF86039
:1031E800B9607A60FB6893F83830012B01D102236B
:1031F800B4E0FB68012283F83820FB68022283F8D8
:1032080039207B680C2B00F29F8001A252F823F032
:103218004D3200085133000851330008513300087B
:103228008D3200085133000851330008513300082B
:10323800CF320008513300085133000851330008D9
:103248000F330008FB681B68B968184600F0D4FA09
:10325800FB681B68FA681268926942F008029A6172
:10326800FB681B68FA681268926922F004029A6186
:10327800FB681B68FA6812689169BA6812690A43A0
:103288009A6162E0FB681B68B968184600F018FA92
:10329800FB681B68FA681268926942F400629A61D6
:1032A800FB681B68FA681268926922F480629A6166
:1032B800FB681B68FA6812689169BA681269120299
:1032C8000A439A6141E0FB681B68B968184600F038
:1032D80007FBFB681B68FA681268D26942F00802AB
:1032E800DA61FB681B68FA681268D26922F0040286
:1032F800DA61FB681B68FA681268D169BA681269F2
:103308000A43DA6121E0FB681B68B968184600F0D7
:103318005FFBFB681B68FA681268D26942F40062B6
:10332800DA61FB681B68FA681268D26922F4806265
:10333800DA61FB681B68FA681268D169BA681269B1
:1033480012020A43DA6100E000BFFB68012283F839
:103358003920FB68002283F83820002318461037EC
:10336800BD4680BD80B584B000AF78603960002369
:10337800FB607B6893F83830012B01D10223C8E049
:103388007B68012283F838207B68022283F8392081
:103398007B681B689B68FB60FB6823F07703FB6016
:1033A800FB6823F47F43FB607B681B68FA689A60BC
:1033B8003B681B68402B77D0402B0ED8102B00F0B1
:1033C8008A80102B02D8002B7ED099E0202B00F0A9
:1033D8008980302B00F08D8092E0702B16D0702BF6
:1033E80004D8502B40D0602B4ED089E0B3F5805FD5
:1033F80003D0B3F5005F24D082E07B681B687A684D
:103408001268926822F007029A6079E07B6818686F
:103418003B6899683B685A683B68DB6800F0BFFB0B
:103428007B681B689B68FB60FB6823F07703FB6085
:10343800FB6843F07703FB607B681B68FA689A6057
:103448005EE07B6818683B6899683B685A683B6827
:10345800DB6800F0A4FB7B681B687A6812689268D6
:1034680042F480429A604BE07B6818683B68596870
:103478003B68DB681A4600F00BFB7B681B68502131
:10348800184600F06CFB3BE07B6818683B6859689D
:103498003B68DB681A4600F02EFB7B681B686021DE
:1034A800184600F05CFB2BE07B6818683B6859689D
:1034B8003B68DB681A4600F0EBFA7B681B68402122
:1034C800184600F04CFB1BE07B681B68002118467F
:1034D80000F045FB14E07B681B681021184600F0DB
:1034E8003EFB0DE07B681B682021184600F037FB87
:1034F80006E07B681B683021184600F030FB00BFEF
:103508007B68012283F839207B68002283F8382001
:10351800002318461037BD4680BD80B483B000AF85
:10352800786000BF0C37BD465DF8047B704780B4F7
:1035380083B000AF786000BF0C37BD465DF8047BF0
:10354800704780B483B000AF786000BF0C37BD46C9
:103558005DF8047B704780B483B000AF786000BF2B
:103568000C37BD465DF8047B7047000080B485B019
:1035780000AF786039600023FB607B681B68FB60E4
:103588007B68444A934213D07B68B3F1804F0FD0D5
:103598007B68414A93420BD07B68404A934207D0EC
:1035A8007B683F4A934203D07B683E4A934201D1ED
:1035B800012300E00023002B08D0FB6823F07003F0
:1035C800FB603B685B68FA681343FB607B68314AC1
:1035D80093422BD07B68B3F1804F27D07B682E4A6B
:1035E800934223D07B682D4A93421FD07B682C4A94
:1035F80093421BD07B682B4A934217D07B682A4A98
:10360800934213D07B68294A93420FD07B68284A9B
:1036180093420BD07B68274A934207D07B68264A9F
:10362800934203D07B68254A934201D1012300E0ED
:103638000023002B08D0FB6823F44073FB603B6831
:10364800DB68FA681343FB607B68FA681A603B68BA
:103658009A687B68DA623B681A687B689A627B685A
:103668000C4A934203D07B680E4A934201D101234E
:1036780000E00023002B03D03B681A697B681A63BB
:103688007B6801225A6100BF1437BD465DF8047B90
:10369800704700BF000001400004004000080040DF
:1036A800000C00400004014000400140004401407B
:1036B8000048014000180040001C00400020004065
:1036C80080B487B000AF786039600023FB600023C6
:1036D8007B6100233B617B681B6A23F010027B68D7
:1036E8001A627B681B6A7B617B685B683B617B68ED
:1036F8009B69FB60FB6823F4E043FB60FB6823F4F1
:103708004073FB603B681B681B02FA681343FB604D
:103718007B6923F020037B613B689B681B017A6906
:1037280013437B617B68204A934203D07B681F4A1E
:10373800934201D1012300E00023002B21D07B69B3
:1037480023F080037B613B68DB681B017A691343C4
:103758007B617B6923F040037B613B6923F48063D1
:103768003B613B6923F400633B613B685B699B00F9
:103778003A6913433B613B689B699B003A69134371
:103788003B617B683A695A607B68FA689A613B6872
:103798005A687B689A637B687A691A6200BF1C372B
:1037A800BD465DF8047B70470000014000040140FD
:1037B80080B487B000AFF860B9607A6000237B619D
:1037C8000122BB6802FA03F37B61FB681A6A7B6912
:1037D800DB431A40FB681A62FB681A6A7968BB689F
:1037E80001FA03F31A43FB681A6200BF1C37BD468F
:1037F8005DF8047B7047000080B487B000AF786044
:1038080039600023FB6000237B6100233B617B68F8
:103818001B6A23F001027B681A627B681B6A7B6162
:103828007B685B683B617B689B69FB60FB6823F096
:103838007003FB60FB6823F00303FB603B681B68B5
:10384800FA681343FB607B6923F002037B613B68E2
:103858009B687A6913437B617B681F4A934203D054
:103868007B681E4A934201D1012300E00023002B0C
:103878001ED07B6923F008037B613B68DB687A69AB
:1038880013437B617B6923F004037B613B6923F469
:1038980080733B613B6923F400733B613B685B6960
:1038A8003A6913433B613B689B693A6913433B613F
:1038B8007B683A695A607B68FA689A613B685A681B
:1038C8007B685A637B687A691A6200BF1C37BD46F9
:1038D8005DF8047B704700BF000001400004014010
:1038E80080B487B000AF786039600023FB600023A4
:1038F8007B6100233B617B681B6A23F480727B68D1
:103908001A627B681B6A7B617B685B683B617B68CA
:10391800DB69FB60FB6823F07003FB60FB6823F046
:103928000303FB603B681B68FA681343FB607B6911
:1039380023F400737B613B689B681B027A6913431D
:103948007B617B68204A934203D07B681F4A93427D
:1039580001D1012300E00023002B21D07B6923F44F
:1039680000637B613B68DB681B027A6913437B61F8
:103978007B6923F480637B613B6923F480533B615B
:103988003B6923F400533B613B685B691B013A695F
:1039980013433B613B689B691B013A6913433B61D5
:1039A8007B683A695A607B68FA68DA613B685A68EA
:1039B8007B68DA637B687A691A6200BF1C37BD4688
:1039C8005DF8047B704700BF00000140000401401F
:1039D80080B487B000AF7860396000233B61002372
:1039E800FB6000237B617B681B6A23F480527B6841
:1039F8001A627B681B6AFB607B685B687B617B681B
:103A0800DB693B613B6923F4E0433B613B6923F499
:103A180040733B613B681B681B023A6913433B6177
:103A2800FB6823F40053FB603B689B681B03FA6840
:103A38001343FB607B68144A934203D07B68134AA4
:103A4800934201D1012300E00023002B09D07B69B8
:103A580023F480437B613B685B699B017A6913436C
:103A68007B617B687A695A607B683A69DA613B688E
:103A78005A687B681A647B68FA681A6200BF1C3748
:103A8800BD465DF8047B704700000140000401401A
:103A980080B487B000AFF860B9607A6000237B61BA
:103AA80000233B61FB681B6A3B61FB681B6A23F0D0
:103AB8000102FB681A62FB689B697B617B6923F0E2
:103AC800F0037B617B681B017A6913437B613B6967
:103AD80023F00A033B613A69BB6813433B61FB6807
:103AE8007A699A61FB683A691A6200BF1C37BD4659
:103AF8005DF8047B704780B487B000AFF860B960A8
:103B08007A6000237B6100233B61FB681B6A23F01A
:103B18001002FB681A62FB689B697B61FB681B6A81
:103B28003B617B6923F470437B617B681B037A6983
:103B380013437B613B6923F0A0033B61BB681B0116
:103B48003A6913433B61FB687A699A61FB683A6991
:103B58001A6200BF1C37BD465DF8047B704780B40D
:103B680085B000AF78600B467B800023FB607B68E4
:103B78009B68FB60FB6823F07003FB607B8843F065
:103B880007039BB21A46FB681343FB607B68FA681D
:103B98009A6000BF1437BD465DF8047B704780B457
:103BA80087B000AFF860B9607A603B6000237B6142
:103BB800FB689B687B617B6923F47F437B613B687F
:103BC8001A027B681A43BB6813437A6913437B6103
:103BD800FB687A699A6000BF1C37BD465DF8047BB4
:103BE800704780B483B000AF786039607B6893F821
:103BF8003830012B01D1022332E07B68012283F89F
:103C080038207B68022283F839207B681B687A6831
:103C18001268526822F070025A607B681B687A68E2
:103C2800126851683A6812680A435A607B681B68D0
:103C38007A681268926822F080029A607B681B6832
:103C48007A68126891683A6852680A439A607B6891
:103C5800012283F839207B68002283F8382000236A
:103C680018460C37BD465DF8047B704780B483B0B6
:103C780000AF786000BF0C37BD465DF8047B704725
:103C880080B483B000AF786000BF0C37BD465DF8E4
:103C9800047B704780B582B000AF78607B68002BEA
:103CA80001D101233FE07B6893F83930DBB2002B68
:103CB80006D17B68002283F83820786802F09EFDE0
:103CC8007B68242283F839207B681B687A6812682D
:103CD800D26822F40052DA60786800F07FFB7B68D3
:103CE8001B687A681268126922F490421A617B682C
:103CF8001B687A681268526922F02A025A617B6846
:103D08001B687A681268D26842F40052DA607B68ED
:103D18000022DA637B68202283F839207B6820221E
:103D280083F83A20002318460837BD4680BD80B581
:103D380088B002AFF860B9603B601346FB8000238F
:103D48007B61FB6893F83930DBB2202B40F082802E
:103D5800BB68002B02D0FB88002B01D101237AE03D
:103D6800FB6893F83830012B01D1022373E0FB681C
:103D7800012283F83820FB680022DA63FB682122DD
:103D880083F83920FDF7A2F87861FB68FA889A84ED
:103D9800FB68FA88DA8441E0FB68DB8C9BB2013B64
:103DA8009AB2FB68DA84FB689B68B3F5805F21D11F
:103DB8003B6800937B6900228021F86800F0ACF929
:103DC8000346002B01D0032345E0BB683B61FB6839
:103DD8001B683A691288C2F308025A60FB681B69BB
:103DE800002B03D1BB680233BB6017E0BB6801330B
:103DF800BB6013E03B6800937B6900228021F86870
:103E080000F08AF90346002B01D0032323E0FB6866
:103E18001A68BB68591CB9601B785360FB68DB8C57
:103E28009BB2002BB8D13B6800937B6900224021EC
:103E3800F86800F071F90346002B01D003230AE06B
:103E4800FB68202283F83920FB68002283F8382099
:103E5800002300E0022318461837BD4680BD80B411
:103E680085B000AFF860B9601346FB80FB6893F833
:103E78003A30DBB2202B38D1BB68002B02D0FB884C
:103E8800002B01D1012331E0FB6893F83830012B76
:103E980001D102232AE0FB68012283F83820FB685D
:103EA800BA689A62FB68FA889A85FB68FA88DA85A4
:103EB800FB680022DA63FB68222283F83A20FB6859
:103EC800002283F83820FB681B68FA681268526978
:103ED80042F001025A61FB681B68FA681268D268EE
:103EE80042F49072DA60002300E002231846143787
:103EF800BD465DF8047B704780B588B000AF786038
:103F08007B681B681B68FB617B681B68DB68BB619F
:103F18007B681B685B697B6100233B610023FB6056
:103F2800FB6903F00F033B613B69002B0DD1FB6973
:103F380003F02003002B08D0BB6903F02003002BFB
:103F480003D0786800F0D1F9CCE03B69002B00F091
:103F5800AB807B6903F00103002B05D1BB6903F437
:103F68009073002B00F0A080FB6903F00103002B85
:103F78000AD0BB6903F48073002B05D07B68DB6B28
:103F880043F001027B68DA63FB6903F00403002B4A
:103F98000AD07B6903F00103002B05D07B68DB6B3B
:103FA80043F002027B68DA63FB6903F00203002B2B
:103FB8000AD07B6903F00103002B05D07B68DB6B1B
:103FC80043F004027B68DA63FB6903F00803002B03
:103FD8000AD07B6903F00103002B05D07B68DB6BFB
:103FE80043F008027B68DA637B68DB6B002B78D0D0
:103FF800FB6903F02003002B07D0BB6903F0200303
:10400800002B02D0786800F070F97B681B685B6948
:1040180003F04003002B14BF01230023DBB2FB6035
:104028007B68DB6B03F00803002B02D1FB68002BD5
:1040380031D0786800F0BAF87B681B685B6903F0D8
:104048004003002B23D07B681B687A68126852698A
:1040580022F040025A617B685B6B002B13D07B68AF
:104068005B6B224A1A657B685B6B1846FDF764FE3A
:104078000346002B16D07B685B6B1B6D7A68526B0E
:10408800104698470EE0786800F03CF80AE0786837
:1040980000F038F806E0786800F034F87B68002211
:1040A800DA631EE000BF1CE0FB6903F08003002B0D
:1040B80008D0BB6903F08003002B03D0786800F0B8
:1040C800A7F80FE0FB6903F04003002B0AD0BB6997
:1040D80003F04003002B05D0786800F0EEF800BF2D
:1040E80000E000BF2037BD4680BD00BFF141000899
:1040F80080B483B000AF786000BF0C37BD465DF870
:10410800047B704780B483B000AF786000BF0C3781
:10411800BD465DF8047B704780B584B000AFF86099
:10412800B9603B601346FB712CE0BB69B3F1FF3FFC
:1041380028D0BB69002B07D0FCF7C8FE02463B68B5
:10414800D21ABB699A421DD9FB681B68FA681268C3
:10415800D26822F4D072DA60FB681B68FA681268C9
:10416800526922F001025A61FB68202283F8392043
:10417800FB68202283F83A20FB68002283F8382065
:1041880003230FE0FB681B681A68BB681A40BB680A
:104198009A420CBF01230023DBB21A46FB799A42EC
:1041A800C3D0002318461037BD4680BD80B483B005
:1041B80000AF78607B681B687A681268D26822F45E
:1041C8009072DA607B681B687A681268526922F01C
:1041D80001025A617B68202283F83A2000BF0C371D
:1041E800BD465DF8047B704780B584B000AF786049
:1041F8007B689B6BFB60FB680022DA85FB6800220A
:10420800DA84F868FFF77EFF00BF1037BD4680BD2F
:1042180080B485B000AF78607B6893F83930DBB242
:10422800212B43D17B689B68B3F5805F19D17B68EC
:104238001B6AFB607B681B68FA681288C2F3080275
:104248005A607B681B69002B05D17B681B6A9A1C26
:104258007B681A620EE07B681B6A5A1C7B681A62CC
:1042680008E07B681A687B681B6A581C79680862D2
:104278001B7853607B68DB8C9BB2013B9BB27A68EE
:104288001946D184002B0FD17B681B687A681268A5
:10429800D26822F08002DA607B681B687A6812684C
:1042A800D26842F04002DA60002300E00223184698
:1042B8001437BD465DF8047B704780B582B000AF07
:1042C80078607B681B687A681268D26822F04002BE
:1042D800DA607B68202283F839207868FFF708FFC6
:1042E800002318460837BD4680BD80B584B000AFAE
:1042F80078607B6893F83A30DBB2222B69D17B680F
:104308009B68B3F5805F23D17B689B6AFB607B6801
:104318001B69002B0ED17B681B685B689BB2C3F3DB
:1043280008039AB2FB681A807B689B6A9A1C7B68B0
:104338009A6229E07B681B685B689BB2DBB29AB221
:10434800FB681A807B689B6A5A1C7B689A621BE030
:104358007B681B69002B0AD17B689B6A591C7A68A9
:1043680091627A6812685268D2B21A700CE07B685F
:104378009B6A591C7A6891627A6812685268D2B24C
:1043880002F07F02D2B21A707B68DB8D9BB2013BD0
:104398009BB27A681946D185002B18D17B681B68B7
:1043A8007A681268D26822F49072DA607B681B68B7
:1043B8007A681268526922F001025A617B682022E9
:1043C80083F83A20786801F0B5FC002302E0002366
:1043D80000E0022318461037BD4680BDF0B585B011
:1043E80000AF78600023FB607B681B681B69FB607B
:1043F800FB6823F44053FB607B68DB68FA6813436F
:10440800FB607B681B68FA681A617B681B68DB685D
:10441800FB60FB6823F4164323F00C03FB607B6806
:104428009A687B681B691A437B685B691A437B68D7
:10443800DB691343FA681343FB607B681B68FA68FF
:10444800DA607B681B685B69FB60FB6823F4407378
:10445800FB607B689B69FA681343FB607B681B6899
:10446800FA685A617B68DB69B3F5004F40F0E48075
:104478007B681B68AB4A934204D07B681B68AA4AD6
:1044880093426CD17B681C68FEF7DAFC024613463F
:104498009B0013449A001A447B685B685B00B2FB7C
:1044A800F3F3A24AA2FB03235B091D01FEF7C8FC34
:1044B800024613469B0013449A001A447B685B68C3
:1044C8005B00B2FBF3F6FEF7BBFC024613469B000B
:1044D80013449A001A447B685B685B00B2FBF3F3F1
:1044E800924AA2FB03235B09642202FB03F3F31A3B
:1044F800DB0032338D4AA2FB03235B095B0003F424
:10450800F8731D44FEF79CFC024613469B001344B7
:104518009A001A447B685B685B00B2FBF3F6FEF70F
:104528008FFC024613469B0013449A001A447B688A
:104538005B685B00B2FBF3F37C4AA2FB03235B09D5
:10454800642202FB03F3F31ADB003233774AA2FB3F
:1045580003235B0903F007032B44A36054E17B6842
:104568001C68FEF759FC024613469B0013449A0048
:104578001A447B685B685B00B2FBF3F36B4AA2FBEF
:1045880003235B091D01FEF747FC024613469B0007
:1045980013449A001A447B685B685B00B2FBF3F62D
:1045A800FEF73AFC024613469B0013449A001A444D
:1045B8007B685B685B00B2FBF3F35C4AA2FB0323F6
:1045C8005B09642202FB03F3F31ADB003233574A18
:1045D800A2FB03235B095B0003F4F8731D44FEF799
:1045E8001BFC024613469B0013449A001A447B683E
:1045F8005B685B00B2FBF3F6FEF70EFC024613465F
:104608009B0013449A001A447B685B685B00B2FB0A
:10461800F3F3464AA2FB03235B09642202FB03F37C
:10462800F31ADB003233414AA2FB03235B0903F090
:1046380007032B44A360E7E07B681B68394A934271
:1046480004D07B681B68384A934271D17B681C6828
:10465800FEF7F6FB024613469B0013449A001A44E1
:104668007B685B689B00B2FBF3F3304AA2FB032331
:104678005B091D01FEF7E4FB024613469B00134449
:104688009A001A447B685B689B00B2FBF3F6FEF75E
:10469800D7FB024613469B0013449A001A447B68D2
:1046A8005B689B00B2FBF3F3204AA2FB03235B0980
:1046B800642202FB03F3F31A1B0132331B4AA2FBE9
:1046C80003235B0903F0F0031D44FEF7B9FB024620
:1046D80013469B0013449A001A447B685B689B004E
:1046E800B2FBF3F6FEF7ACFB024613469B001344FD
:1046F8009A001A447B685B689B00B2FBF3F30B4A91
:10470800A2FB03235B09642202FB03F3F31A1B01D8
:104718003233064AA2FB03235B0903F00F032B4441
:10472800A36071E000100140001401401F85EB51A7
:104738007B681C68FEF770FB024613469B00134417
:104748009A001A447B685B689B00B2FBF3F3304A1B
:10475800A2FB03235B091D01FEF75EFB024613461D
:104768009B0013449A001A447B685B689B00B2FB69
:10477800F3F6FEF751FB024613469B0013449A00DA
:104788001A447B685B689B00B2FBF3F3204AA2FBE8
:1047980003235B09642202FB03F3F31A1B01323380
:1047A8001B4AA2FB03235B0903F0F0031D44FEF739
:1047B80033FB024613469B0013449A001A447B6855
:1047C8005B689B00B2FBF3F6FEF726FB0246134636
:1047D8009B0013449A001A447B685B689B00B2FBF9
:1047E800F3F30B4AA2FB03235B09642202FB03F3E6
:1047F800F31A1B013233064AA2FB03235B0903F0B9
:104808000F032B44A360FFE700BF1437BD46F0BD7C
:104818001F85EB5180B58AB000AF00233B616B4A1E
:104828006A4B1B6B43F001031363684B1B6B03F06C
:1048380001033B613B690023FB60644A634B1B6BCC
:1048480043F004031363614B1B6B03F00403FB6029
:10485800FB680023BB605D4A5C4B1B6B43F008039D
:1048680013635A4B1B6B03F00803BB60BB68002340
:104878007B60564A554B1B6B43F010031363534B35
:104888001B6B03F010037B607B684FF400637B6154
:104898000123BB610023FB6100233B6207F1140382
:1048A80019464B48FDF7D2FC4FF480737B6107F142
:1048B800140319464748FDF7C9FC40237B6107F1FB
:1048C800140319464248FDF7C1FC20237B6107F118
:1048D800140319463E48FDF7B9FC4FF480437B6149
:1048E80007F1140319463C48FDF7B0FC4FF4005398
:1048F8007B6107F1140319463748FDF7A7FC4FF40D
:1049080000437B6107F1140319463148FDF79EFC0B
:1049180080237B6107F1140319462D48FDF796FCA7
:104928004FF400737B6107F1140319462B48FDF718
:104938008DFC4FF480637B6107F114031946274807
:10494800FDF784FC4FF480537B6107F1140319468B
:104958002248FDF77BFC4FF480437B6107F1140389
:1049680019461E48FDF772FC4FF400437B6107F1BE
:10497800140319461948FDF769FC4FF480737B61ED
:1049880007F1140319461548FDF760FC4FF400536E
:104998007B6107F1140319461048FDF757FC4FF4E3
:1049A80000637B6107F1140319460C48FDF74EFCC0
:1049B80001220021002000F013F80122002101202B
:1049C80000F00EF800BF2837BD4680BD0038024011
:1049D800000C0240000002400008024000100240A3
:1049E80080B584B000AFF860B9607A60FB68002BCE
:1049F80040F0DC81B968CB4B83FB01239A10CB17BD
:104A0800D21A13469B0013445B00CA1A092A00F203
:104A1800BA8101A353F822F0494A00089B4A0008CA
:104A2800ED4A00083F4B0008914B0008E34B000893
:104A3800354C0008874C0008D94C00083D4D00084B
:104A480000224FF40061B848FDF79AFD00224FF4A8
:104A58008071B648FDF794FD00224021B248FDF769
:104A68008FFD00222021B048FDF78AFD00224FF477
:104A78008041AF48FDF784FD00224FF40051AC4857
:104A8800FDF77EFD01224FF40041A748FDF778FDB0
:104A980079E100224FF48071A448FDF771FD0022EE
:104AA8004021A148FDF76CFD01224FF400619E48AA
:104AB800FDF766FD012220219B48FDF761FD0122DB
:104AC8004FF480419A48FDF75BFD01224FF40051F5
:104AD8009748FDF755FD01224FF400419248FDF734
:104AE8004FFD50E100224FF400618F48FDF748FD6B
:104AF80000224FF480718D48FDF742FD00224FF4EB
:104B080000418948FDF73CFD00224FF48041884868
:104B1800FDF736FD002220218348FDF731FD0122F3
:104B280040218148FDF72CFD01224FF400518048B7
:104B3800FDF726FD27E100224FF400617A48FDF7D2
:104B48001FFD00224FF480717848FDF719FD0022FF
:104B580040217548FDF714FD002220217248FDF719
:104B68000FFD00224FF400416F48FDF709FD0122B7
:104B78004FF480416E48FDF703FD01224FF40051C8
:104B88006B48FDF7FDFCFEE000224FF40051684839
:104B9800FDF7F6FC00224FF400416348FDF7F0FCF6
:104BA80000224FF480716148FDF7EAFC00224021A1
:104BB8005D48FDF7E5FC01224FF400615A48FDF716
:104BC800DFFC012220215848FDF7DAFC01224FF4CE
:104BD80080415748FDF7D4FCD5E000224FF400612E
:104BE8005148FDF7CDFC00224FF400515048FDF725
:104BF800C7FC00224FF400414B48FDF7C1FC0022DE
:104C080040214948FDF7BCFC002220214648FDF719
:104C1800B7FC01224FF480714448FDF7B1FC012232
:104C28004FF480414248FDF7ABFCACE000224FF462
:104C380000613D48FDF7A4FC002240213A48FDF7F9
:104C48009FFC002220213848FDF79AFC00224FF4EF
:104C580080413748FDF794FC00224FF40051344856
:104C6800FDF78EFC00224FF400412F48FDF788FC29
:104C780001224FF480712D48FDF782FC83E0002269
:104C88004FF400512A48FDF77BFC00224FF40061E5
:104C98002548FDF775FC00224FF480712348FDF785
:104CA8006FFC002240212048FDF76AFC01222021E8
:104CB8001D48FDF765FC01224FF480411C48FDF7B3
:104CC8005FFC01224FF400411748FDF759FC5AE0F8
:104CD80000224FF400611448FDF752FC00224FF403
:104CE80080711248FDF74CFC002240210E48FDF768
:104CF80047FC002220210C48FDF742FC00224FF41B
:104D080080410B48FDF73CFC00224FF40051084855
:104D1800FDF736FC00224FF400410348FDF730FC54
:104D280031E000BF67666666000C02400000024082
:104D38000008024000224FF40061C848FDF720FC3B
:104D480000224FF48071C648FDF71AFC002240216A
:104D5800C248FDF715FC00222021C048FDF710FCD1
:104D680000224FF40051BF48FDF70AFC00224FF41F
:104D78000041BA48FDF704FC01224FF48041B948CC
:104D8800FDF7FEFB00BF7B68012B05D100228021C7
:104D9800B248FDF7F5FBFFE17B68002B40F0FC8192
:104DA80001228021AD48FDF7EBFBF5E1FB68012B03
:104DB80040F0F281B968AC4B83FB01239A10CB1702
:104DC800D21A13469B0013445B00CA1A092A00F240
:104DD800D08101A353F822F0094E00085F4E000865
:104DE800B54E00080B4F0008614F0008B74F000888
:104DF8000D50000879500008CF50000825510008D0
:104E080000224FF400719948FDF7BAFB00224FF4D5
:104E180080619648FDF7B4FB00224FF48051934817
:104E2800FDF7AEFB00224FF480419048FDF7A8FB48
:104E380000224FF400418D48FDF7A2FB00224FF4F9
:104E480080718A48FDF79CFB01224FF40051874886
:104E5800FDF796FB8DE100224FF480618348FDF752
:104E68008FFB00224FF480518048FDF789FB012217
:104E78004FF400717D48FDF783FB01224FF4804118
:104E88007A48FDF77DFB01224FF400417748FDF792
:104E980077FB01224FF480717448FDF771FB012202
:104EA8004FF400517148FDF76BFB62E100224FF4AB
:104EB80000716E48FDF764FB00224FF480616B4877
:104EC800FDF75EFB00224FF400516848FDF758FBE0
:104ED80000224FF400416548FDF752FB00224FF4D1
:104EE80080416248FDF74CFB01224FF480515F4836
:104EF800FDF746FB01224FF480715C48FDF740FB4B
:104F080037E100224FF400715848FDF739FB0022C1
:104F18004FF480615548FDF733FB00224FF4805170
:104F28005248FDF72DFB00224FF480414F48FDF712
:104F380027FB00224FF400514C48FDF721FB0122CA
:104F48004FF400414948FDF71BFB01224FF48071E3
:104F58004648FDF715FB0CE100224FF480714348E9
:104F6800FDF70EFB00224FF400514048FDF708FB07
:104F780000224FF480613D48FDF702FB00224FF408
:104F880080513A48FDF7FCFA01224FF40071374886
:104F9800FDF7F6FA01224FF480413448FDF7F0FAA4
:104FA80001224FF400413148FDF7EAFAE1E000221E
:104FB8004FF400712D48FDF7E3FA00224FF4807199
:104FC8002A48FDF7DDFA00224FF400512748FDF783
:104FD800D7FA00224FF480512448FDF7D1FA002275
:104FE8004FF480412148FDF7CBFA01224FF480614C
:104FF8001E48FDF7C5FA01224FF400411B48FDF792
:10500800BFFAB6E000224FF400711848FDF7B8FA6D
:1050180000224FF480511548FDF7B2FA00224FF4F0
:1050280080411248FDF7ACFA00224FF400410F48C6
:10503800FDF7A6FA00224FF480710C48FDF7A0FA9C
:1050480000224FF400510948FDF79AFA01224FF463
:1050580080610648FDF794FA8BE000BF000C02401F
:1050680000000240000802406766666600100240C1
:1050780000224FF480714A48FDF782FA00224FF46B
:1050880000714748FDF77CFA00224FF480614448DC
:10509800FDF776FA00224FF480514148FDF770FA87
:1050A80001224FF480413E48FDF76AFA01224FF48D
:1050B80000413B48FDF764FA01224FF4005138489B
:1050C800FDF75EFA55E000224FF400713448FDF711
:1050D80057FA00224FF480613148FDF751FA002257
:1050E8004FF480512E48FDF74BFA00224FF48041CF
:1050F8002B48FDF745FA00224FF400412848FDF7F8
:105108003FFA00224FF480712548FDF739FA002252
:105118004FF400512248FDF733FA2AE000224FF4F9
:1051280000711F48FDF72CFA00224FF480611C48DB
:10513800FDF726FA00224FF480511948FDF720FAAE
:1051480000224FF480411648FDF71AFA00224FF466
:1051580080711348FDF714FA00224FF400511048EB
:10516800FDF70EFA01224FF400410D48FDF708FA49
:1051780000BF7B68012B06D100224FF4006108486C
:10518800FDF7FEF908E07B68002B05D101224FF4FA
:1051980000610348FDF7F4F900BF1037BD4680BD34
:1051A8000010024080B586B000AF00233B60234A60
:1051B800224B1B6B43F010031363204B1B6B03F054
:1051C80010033B603B6801237B600123BB60002325
:1051D800FB6000233B613B1D19461948FDF736F873
:1051E80002237B603B1D19461548FDF72FF8042361
:1051F8007B603B1D19461248FDF728F810237B6099
:105208003B1D19460E48FDF721F820237B603B1D06
:1052180019460B48FDF71AF840237B603B1D1946D9
:105228000748FDF713F880237B603B1D19460448A7
:10523800FDF70CF800BF1837BD4680BD00380240A6
:105248000010024080B582B000AF0346FB71614A8E
:1052580097F90730002B04DA5E4B5B6943F0800353
:1052680003E05C4B5B6923F080035361594AFB7987
:1052780003F04003002B04D0564B5B6943F0400316
:1052880003E0544B5B6923F040035361514AFB79B7
:1052980003F02003002B04D04E4B5B6943F020033E
:1052A80003E04C4B5B6923F020035361494AFB79C7
:1052B80003F01003002B04D0464B5B6943F0100346
:1052C80003E0444B5B6923F010035361414A414BAF
:1052D8005B6923F0010353613E4A3E4B5B6923F04F
:1052E800020353613B4A3B4B5B6923F00403536160
:1052F800384A384B5B6943F004035361354A354BF0
:105308005B6923F004035361324AFB7903F0080315
:10531800002B04D02F4B5B6943F0800303E02D4B37
:105328005B6923F0800353612A4AFB7903F0040385
:10533800002B04D0274B5B6943F0400303E0254B67
:105348005B6923F040035361224AFB7903F00203AF
:10535800002B04D01F4B5B6943F0200303E01D4B77
:105368005B6923F0200353611A4AFB7903F00103B8
:10537800002B04D0174B5B6943F0100303E0154B77
:105388005B6923F010035361124A124B5B6923F0E7
:10539800010353610F4A0F4B5B6923F0020353610A
:1053A8000C4A0C4B5B6923F004035361094A094B0F
:1053B8005B6943F004035361064A064B5B6923F0BB
:1053C800040353610120FBF78DFD00BF0837BD467C
:1053D80080BD00BF0010024080B582B000AF034618
:1053E800FB71614A97F90730002B04DA5E4B5B6961
:1053F80043F0800303E05C4B5B6923F08003536157
:10540800594AFB7903F04003002B04D0564B5B69E3
:1054180043F0400303E0544B5B6923F040035361BE
:10542800514AFB7903F02003002B04D04E4B5B69F3
:1054380043F0200303E04C4B5B6923F020035361E6
:10544800494AFB7903F01003002B04D0464B5B69F3
:1054580043F0100303E0444B5B6923F010035361EE
:10546800414A414B5B6943F0010353613E4A3E4B5D
:105478005B6923F0020353613B4A3B4B5B6923F0B2
:1054880004035361384A384B5B6943F004035361A2
:10549800354A354B5B6923F004035361324AFB7983
:1054A80003F00803002B04D02F4B5B6943F0800303
:1054B80003E02D4B5B6923F0800353612A4AFB7993
:1054C80003F00403002B04D0274B5B6943F040032F
:1054D80003E0254B5B6923F040035361224AFB79C3
:1054E80003F00203002B04D01F4B5B6943F0200339
:1054F80003E01D4B5B6923F0200353611A4AFB79D3
:1055080003F00103002B04D0174B5B6943F0100331
:1055180003E0154B5B6923F010035361124A124BE9
:105528005B6943F0010353610F4A0F4B5B6923F03A
:10553800020353610C4A0C4B5B6923F0040353616B
:10554800094A094B5B6943F004035361064A064B59
:105558005B6923F0040353610120FBF7C3FC00BF20
:105568000837BD4680BD00BF0010024080B582B03C
:1055780000AF03460A46FB711346BB71BB79002B8B
:1055880002D0012B07D00DE0FB79803BDBB2184637
:10559800FFF758FE06E0FB79403BDBB21846FFF701
:1055A80051FE00BF00BF0837BD4680BD80B584B03E
:1055B80000AF03463A60FB710B46BB710023FB60EA
:1055C800BA79FB7911461846FFF7D0FF3A68FB68AD
:1055D80013441B781846FFF7FFFEFB680133FB6096
:1055E8003A68FB6813441B78002BEFD100BF1037D3
:1055F800BD4680BD80B500AF6420FBF773FC282052
:10560800FFF720FE0A20FBF76DFC2820FFF71AFEA3
:105618000A20FBF767FC0C20FFF714FE0620FFF7B3
:1056280011FE0220FFF70EFE0120FFF70BFE0120FE
:10563800FFF708FE00BF80BD80B500AF0120FFF76F
:1056480001FE0A20FBF74EFC00BF80BD80B584B088
:1056580000AF3A4B3A4A1A60384B4FF480325A60DE
:10566800364B00229A60354B01221A61334B0122D6
:105678009A61324B00221A62304B0022DA622F4BB9
:10568800304A9A622D4B0022DA602C4B0422DA61F0
:105698002A4B01221A63294B01225A612748FBF73A
:1056A80043FC0346002B03D04A21274800F0DAFBCD
:1056B8000A233B6001237B600423BB603B461946F9
:1056C8001E48FBF765FD0346002B03D054211E48F6
:1056D80000F0C8FB0C233B6002237B603B46194665
:1056E8001648FBF755FD0346002B03D05D211648ED
:1056F80000F0B8FB0D233B6003237B603B46194653
:105708000E48FBF745FD0346002B03D066210E48E3
:1057180000F0A8FB09233B6004237B603B46194645
:105728000648FBF735FD0346002B03D06F210648DA
:1057380000F098FB00BF1037BD4680BD0C0200206A
:10574800002001400100000F088E000880B588B0D5
:1057580000AF78607B681B682F4A934257D10023BB
:10576800BB602E4A2D4B5B6C43F4807353642B4B08
:105778005B6C03F48073BB60BB680D23FB60032381
:105788003B6100237B6107F10C0319462448FCF7B1
:105798005DFD0223FB6003233B6100237B6107F16E
:1057A8000C0319461F48FCF751FD1F4B1F4A1A608E
:1057B8001D4B00225A601C4B00229A601A4B002293
:1057C800DA60194B4FF480621A61174B4FF400628C
:1057D8005A61154B4FF400529A61134B4FF4807283
:1057E800DA61114B00221A620F4B00225A620E48EE
:1057F800FCF794F90346002B03D09E210C4800F0D7
:1058080031FB7B68084A9A63074A7B68936300BF49
:105818002037BD4680BD00BF00200140003802404F
:1058280000080240000402405402002010640240B4
:10583800088E000880B582B000AF114B114A1A607B
:105848000F48FCF770F80346002B03D03D210E48A3
:1058580000F008FB00233B6000237B603B460022EE
:1058680019460748FCF7E8F80346002B03D0462101
:10587800054800F0F7FA00BF0837BD4680BD00BFF5
:10588800B402002000740040188E000880B588B06B
:1058980000AF78607B681B68104A934219D10023D7
:1058A800BB600F4A0E4B1B6C43F0005313640C4B48
:1058B8001B6C03F00053BB60BB681023FB60032321
:1058C8003B6100237B6107F10C0319460548FCF78F
:1058D800BDFC00BF2037BD4680BD00BF007400403E
:1058E800003802400000024080B582B000AF0023BB
:1058F8007B600C4A0B4B1B6B43F480031363094B0F
:105908001B6B03F480037B607B6800220021382036
:10591800FBF7A9FF3820FBF7C2FF00BF0837BD46D9
:1059280080BD00BF0038024080B58CB000AF0023B6
:10593800BB61474A464B1B6B43F010031363444B50
:105948001B6B03F01003BB61BB6900237B61404AFA
:105958003F4B1B6B43F0040313633D4B1B6B03F07E
:1059680004037B617B6900233B61394A384B1B6B1D
:1059780043F080031363364B1B6B03F080033B61DA
:105988003B690023FB60324A314B1B6B43F0010338
:1059980013632F4B1B6B03F00103FB60FB680023B1
:1059A800BB602B4A2A4B1B6B43F002031363284B43
:1059B8001B6B03F00203BB60BB6800237B60244AB7
:1059C800234B1B6B43F008031363214B1B6B03F042
:1059D80008037B607B680022F7211E48FCF7D0FD96
:1059E800F723FB6101233B6200237B620023BB6238
:1059F80007F11C0319461748FCF728FC0823FB612C
:105A0800154B3B6200237B6207F11C0319461148C2
:105A1800FCF71CFC4FF40043FB610F4B3B62002377
:105A28007B6207F11C0319460C48FCF70FFC4FF486
:105A38008263FB61084B3B6200237B6207F11C0316
:105A480019460748FCF702FC00BF3037BD4680BD49
:105A58000038024000100240000011100008024007
:105A6800000C024080B58CB000AFFBF7C9F900F01C
:105A7800BFF8FFF759FFFFF737FF00F091FE00F07E
:105A8800E5FC00F04FFB00F0D9FB00F015FD00F03D
:105A9800DFFA00F05FFCFFF7D9FDFFF7CBFE00F05F
:105AA8001DF9012240214148FCF76AFD012201212C
:105AB8003F48FCF765FD012220213D48FCF760FDC9
:105AC80001224FF480513B48FCF75AFD01224FF464
