:020000040800F2
:1000000000500020511C0008E5160008E916000801
:10001000ED160008F1160008F516000800000000B3
:10002000000000000000000000000000F9160008B9
:10003000FD1600080000000001170008F518000870
:1000400005170008091700080D1700081117000808
:100050001517000819170008911800082D18000836
:100060001D1700082117000825170008E1170008D0
:10007000291700082D170008311700083517000848
:10008000391700083D1700084117000845170008F8
:10009000A9170008491700084D1700085117000854
:1000A00055170008591700085D1700086117000868
:1000B00065170008691700086D1700087117000818
:1000C00075170008791700087D17000881170008C8
:1000D00085170008891700088D1700089117000878
:1000E00095170008991700089D17000800000000E8
:1000F0000000000000000000000000000000000000
:0C01000000000000000000005FF808F1A3
:10010C000FB400B583B004AA08CA0493019200206E
:10011C00191C00F089FB03B008BC04B01847C0469A
:10012C0070B5051C0C1C101C002A03D00E22835E1B
:10013C00013302D0002C14D11CE0828982239B0055
:10014C001A42F7D00668002909D0311C221C2B78E2
:10015C000B7001310135013A002AF8D136190660CD
:10016C0008E0287801350006001600F0FFFE013C7F
:10017C00002CF6D170BC01BC0047000030B581B03A
:10018C00041C00F0A3FB051C201C291C0022FFF7FB
:10019C00C7FF0A2000F0EAFE281C01B030BC02BCEC
:1001AC000847C046F0B55F4656464D464446F0B447
:1001BC00AFB002908A461E1C904600220492089210
:1001CC0000E0099E42461378002B09D0252B07D05E
:1001DC00444601342378002B03D0252B01D0F8E7BB
:1001EC0044464346E51A002D07D04046291C52468A
:1001FC00FFF796FF049A521904920023E356002B42
:10020C0000D1FEE20134A04600226B46B7331A70CF
:10021C000392059201235B42069300E01E1C4246AA
:10022C0012781206121693460123984400E00591A9
:10023C005B46203B582B00D930E29B00C74A9B58A9
:10024C009F46C74A08928FE16A46B7320023D356BD
:10025C00002BE4D120231370E1E70123039A1A4306
:10026C000392DCE7331D36680596002ED6DA72420F
:10027C0005921E1C0423039A1A430392CFE72B22E8
:10028C006B46B7331A70CAE7424613780122904482
:10029C001B061B162A2B06D09B461A1C303A092A21
:1002AC000DD900211AE0331D36680696002E04DAAB
:1002BC001E1C01235B420693B1E71E1CAFE7002115
:1002CC008B005B185B0099184246127812061216C6
:1002DC00934601239844303A092AF1D90029069112
:1002EC00A6DA012252420692A2E78023039A1A430D
:1002FC00039294E700215B46303B8A00521852006F
:10030C00991843461B781B061B169B4601229044EA
:10031C00303B092B8BD8EEE74023039A1A43039208
:10032C007DE742460023D3566C2B06D1012398441B
:10033C001023039A1A43039271E71023039A1A436A
:10034C0003926CE71023039A1A43039267E75B4608
:10035C00432B02D0039AD20610D500230C930D9395
:10036C003268029869463F310CAB00F0C9FA071CA1
:10037C00431C00D145E20436099606E0321D099271
:10038C0032686B463F331A70012700226B46B73335
:10039C001A703F236B4499462DE21023039A1A439B
:1003AC000392039BDB0603D5321D099234680BE0E4
:1003BC00039B5B0605D5321D099233681B041C1484
:1003CC0002E0331D09933468002C01DB0121ECE0C1
:1003DC0064422D226B46B7331A700121E5E0039A73
:1003EC00D20605D5331D09933368049A1A60E8E6E2
:1003FC00039B5B0606D5321D099233686A46128A46
:10040C001A80DEE6331D09933368049A1A60D8E625
:10041C001023039A1A430392039BDB0603D5321D68
:10042C000992346809E0039B5B0603D5321D0992DF
:10043C00348802E0331D099334680021B1E0321D89
:10044C00099234680223039A1A43039278239B4639
:10045C000221434A0892A4E0069C00226B46B73363
:10046C001A70331D09933668B146002E00D1BFE1D6
:10047C005A46532A02D0039BDB0643D54D460E95B4
:10048C0000230A930B93002C18DB002700250E9BEE
:10049C005A59002A1FD0029869463F310AAB00F026
:1004AC002FFA421C00D1ACE1C019A04213DC043578
:1004BC00844201D1271C0EE0071CE8E70AAB00932D
:1004CC00029800210EAA002300F040FA071C431CDE
:1004DC0000D196E10E95002F00D1EEE000250A9593
:1004EC000B956C4667340AAB00930298211C0EAA3C
:1004FC003B1C00F02BFA874200D082E1E555A14667
:10050C000795E0E0002C0CDB301C0021221C00F0D5
:10051C009DF9002800D1D3E0871BA74200DDCFE076
:10052C00CBE0301C00F0D2F9071C64E11023039AD5
:10053C001A430392039BDB0603D5321D09923468E0
:10054C0009E0039B5B0603D5321D0992348802E057
:10055C00331D09933468012123E000005832000850
:10056C0004390008AC4A0892039BDB0603D5321D04
:10057C000992346809E0039B5B0603D5321D09928E
:10058C00348802E0331D09933468039AD20707D5E7
:10059C00002C05D00223039A1A430392022100E097
:1005AC00022100226B46B7331A70069B002B03DB2B
:1005BC008023039A9A430392002C02D1069B002BB2
:1005CC0050D0012909D001290CD302293AD0069A1E
:1005DC000792924B9946192775E0092C1CD86D4649
:1005EC00673529E067226A44914601235B429944AE
:1005FC000723234030334A461370E408002CF4D10F
:10060C00039AD20743D5302B41D001235B42994446
:10061C0030234A4613703AE06D466735013D201C85
:10062C000A2100F00FFC30312970201C0A2100F047
:10063C00CDFB041C0928F1D8013DA946231C3033FD
:10064C002B7024E067236B4499460122524291445B
:10065C000F232340089A9B5C4A4613702409002CF4
:10066C0015D0F2E7002903D067236B4499460EE0BE
:10067C00039AD20703D467236B44994607E03021D1
:10068C006A463F322723D15466226A4491466B4610
:10069C0067334A469F1A069B079314E05A46002A72
:1006AC0000D1AEE069463F310A7000226B46B73389
:1006BC001A700996894601279DE00023079302E0F2
:1006CC00069F002207923E1C079B9F4200DA1E1CCD
:1006DC006B46B7331B781B061B16002B01D001365B
:1006EC0003E0039A920700D502368423039D1D4034
:1006FC0012D1059B9C1B002C0EDD102C07DD4848ED
:10070C0010215246FFF70CFD103C102CF7DC44482E
:10071C00211C5246FFF704FD6846B7300023C35630
:10072C00002B04D001215246FFF7FAFC0CE0039A8F
:10073C00920709D568463D30302303705B46437001
:10074C0002215246FFF7ECFC802D16D1059A941B22
:10075C00002C12DD102C0ADD314B1D1C1035281C11
:10076C0010215246FFF7DCFC103C102CF7DC2C4817
:10077C001030211C5246FFF7D3FC079BDC1B002CCE
:10078C0012DD102C0ADD264B1D1C1035281C1021E7
:10079C005246FFF7C5FC103C102CF7DC20481030FB
:1007AC00211C5246FFF7BCFC4846391C5246FFF749
:1007BC00B7FC039A520712D5059B9C1B002C0EDD2F
:1007CC00102C07DD164810215246FFF7A9FC103CEF
:1007DC00102CF7DC1248211C5246FFF7A1FC331CED
:1007EC00059A964200DA131C049AD2180492E8E493
:1007FC000C4B994606273E1E00DA00260022079273
:10080C006FE704982FB03CBC90469946A246AB4685
:10081C00F0BC02BC08470000183900082C3900084D
:10082C00BC3300084839000830B581B0041C0D1CDD
:10083C00131C054A1068211C2A1CFFF7B3FC01B0DD
:10084C0030BC02BC08470000C8000020032A8446C4
:10085C0030B4C9B2144627D91CF0030325D11D4668
:10086C001A462B0201325D18042AFAD1604603683D
:10087C0085EA0303A3F10132DB431A4012F0803FF7
:10088C000ED003788B421ED04378421C8B421BD077
:10089C008378821C8B4217D0C378C21C8B4213D036
:1008AC00043C0430032CE2D85CB103788B4206D0B4
:1008BC00621E32B110F8013F013A8B42F9D130BCC3
:1008CC0070470020FBE702461046F8E710F0030FD4
:1008DC00014618BF00460BD108460B6801E050F8E2
:1008EC00043FA3F10132DB431A4012F0803FF6D0F3
:1008FC0003781BB110F8013F002BFBD1401A704755
:10090C0030B5054685B01C468E4651B100F096F8C0
:10091C00B0F1FF3F03D100238A2223602A6005B087
:10092C0030BD0DF10601724600F088F8F0E7C046C4
:10093C00134640F2C802C2F2000270B504460D46DE
:10094C00106821462A46FFF7DBFF70BD2DE9F04FFA
:10095C0089B0984602900092129F0191002952D0C2
:10096C001368B8F1000F54D003930025019C2E4658
:10097C000DF1160B039B59460298D7F800A09A5913
:10098C003B46D7F80490FFF7BBFFB0F1FF3F2BD0ED
:10099C00C0EB080240458CBF00230123AA4234BFA0
:1009AC00002303F00103BBB1019B2D186BB1002890
:1009BC0007DD00221BF80230A35401329042F9DC0F
:1009CC002418009A136804331360039A935993B153
:1009DC0004364545CED303E0C7F800A0C7F8049011
:1009EC00284609B0BDE8F08F029A8A2305461360A9
:1009FC0000223A60F4E7019A0AB1009A13600023CE
:100A0C00013D3B60ECE7009B4FF0FF381B68039304
:100A1C00ABE74546E4E7C04670B5164640F2C8025F
:100A2C0082B0C2F2000204460D46214610682A46E6
:100A3C0000933346FFF78AFF02B070BD40F2C0103E
:100A4C0070B5C2F200000C4615461E46FFF73EFF7D
:100A5C00012824D940F2C01043F65411C2F2000010
:100A6C00C0F6000100F08AF9F0B9002C44D07F2DBB
:100A7C003FD9A5F18003B3F5F06F3FD205F4F863CD
:100A8C0005F03F0202209B096FEA42626FEA836322
:100A9C006FEA526262706FEA9363237003E0002C7A
:100AAC002AD00120257070BD40F2C01043F65C11B5
:100ABC00C2F20000C0F6000100F060F9002840F01E
:100ACC009180CCB12B0AD9B20029EAD001F12003D4
:100ADC0001F17F02DBB2D2B20F2B8CBF00230123BA
:100AEC001E2A98BF43F00103002B67D14FF0FF3053
:100AFC00D9E725700130D6E70020D4E7A5F50063CF
:100B0C00B3F5784FC0F0BB80A5F58033B3F5F81F73
:100B1C0022D205F4E01205F47C3321460420920C19
:100B2C001B0B6FEA02726FEA43636FEA127201F8F1
:100B3C00012B05F47C626FEA5363637005F03F038D
:100B4C0092096FEA43636FEA42626FEA53638B70F8
:100B5C006FEA52624A70A6E7A5F50013B3F1787FED
:100B6C0080F0B08005F0407205F47C032146120E33
:100B7C009B0C6FEA42726FEA43636FEA52726FEA40
:100B8C00536301F8012B05F47C62637005F47C332C
:100B9C009209481C1B0B6FEA42626FEA43636FEACF
:100BAC0052626FEA53634B7005F03F0342706FEA79
:100BBC0043636FEA53638370052074E7E8B2A0F1D6
:100BCC00400280F080037C2B8CBF00230123D2B227
:100BDC003E2A98BF43F00103002B87D0607002209F
:100BEC00217060E740F2C01043F66411C2F20000BD
:100BFC00C0F6000100F0C2F8C0B9002C3FF47CAF85
:100C0C002B0AD9B200293FF44CAF01F15F03DBB2E0
:100C1C005D2B3FF66BAFEAB202F15F03DBB25D2BEB
:100C2C003FF664AF2170023062703CE740F2C010B6
:100C3C0043F66C11C2F20000C0F6000100F09EF801
:100C4C0000287FF42CAF002C3AD02B0A5FFA85FEDB
:100C5C00DDB2002D71D133686BB1214635601B2399
:100C6C00282201F8013B042062708C1C27334B7046
:100C7C0084F800E017E7012084F800E013E7A5F5FD
:100C8C005843B3F5006FFFF431AF05F470422146C1
:100C9C0005F47C630320120B9B096FEAC2626FEAB6
:100CAC0043636FEAD26201F8012B05F03F026FEA51
:100CBC00536363706FEA42626FEA52624A70F2E603
:100CCC000130F0E605F17C43B3F1F84FBFF40EAF01
:100CDC0005F0804205F07C532146920F1B0E6FEA03
:100CEC0082726FEA43636FEA92726FEA536301F8A0
:100CFC00012B05F47C62637005F47C03481C92099B
:100D0C009B0C441C6FEA42626FEA43636FEA5262C7
:100D1C006FEA53634B7005F47C331B0B6FEA436330
:100D2C006FEA5363437005F03F03627006206FEA6D
:100D3C0043636FEA5363A370B5E6A5F12103DBB2FD
:100D4C005D2B3FF6D3AEAEF12103DBB25D2B3FF64C
:100D5C00CDAE33687BB921460123242233600520B4
:100D6C001A3301F8013B273362708C1C4B702570D1
:100D7C0084F801E097E60220F9E7C04641EA000357
:100D8C00024613F0030F04D102680B689A4212D08A
:100D9C000246107820B917E012F8010F013198B112
:100DAC000B788342F8D0C01A704750F8042F51F8D2
:100DBC00043F9A42ECD1A2F10133D243134013F019
:100DCC00803FF2D00020EFE70B78ECE7002934D01D
:100DDC000123002210B488422CD301242407A14201
:100DEC0004D2814202D209011B01F8E7E400A142BE
:100DFC0004D2814202D249005B00F8E7884201D359
:100E0C00401A1A434C08A04202D3001B5C08224330
:100E1C008C08A04202D3001B9C082243CC08A042A1
:100E2C0002D3001BDC082243002803D01B0901D08D
:100E3C000909E3E7101C10BC704708B14FF0FF30F4
:100E4C0000F00AB80029F8D003B5FFF7C1FF0EBCBB
:100E5C004243891A1847C0467047C04606490123C9
:100E6C000B60064B002008601860054B4FF4E052F5
:100E7C001A800A607047C046405C0040445C0040E9
:100E8C007002002003460A4610B502481946FFF7C7
:100E9C0037F9FEE7DC330008124B10B51968043340
:100EAC00186804331C68D9B10F4AC1F307231371B6
:100EBC00C1F3074393710B0E1372C0F30723137323
:100ECC00C0F307439373030E1374C4F30723137512
:100EDC00C4F307439375230E917090729474137638
:100EEC0010BDC046E8F7FF1F0000002082B0019043
:100EFC00019A044B1A60034B1B68002BFBD102B008
:100F0C007047C046D001002010B56420FFF7EEFFFB
:100F1C0010BDC04610B54FF47A70FFF7E7FF10BD57
:100F2C00034A136813B11368013B13607047C04642
:100F3C00D001002070B505462846202100F0C6FFE0
:100F4C000028F9D0284601F013F8C4B221462846EF
:100F5C0001F030F82846802100F0B8FF0028F9D0C5
:100F6C000D2C14BF20460A2070BDC0460A2810B5AF
:100F7C0004460CD10C480D2101F01CF80A488021C4
:100F8C0000F0A4FF0028F9D007480A2101E0064828
:100F9C00E1B201F00FF80448802100F097FF00281F
:100FAC00F9D0204610BDC046003801402DE97741EC
:100FBC000020014601F0A2FA012500244FF00C0894
:100FCC00684600958DF804408DF805808DF8065024
:100FDC0001F034FA2046294601F090FA02236846C3
:100FEC006E4600938DF804408DF805808DF8065000
:100FFC0001F024FABDE87E812DE97747254D01AE3D
:10100C004FF003084FF4007A4FF018092846314688
:10101C000424ADF804A08DF806808DF8079001F03B
:10102C00FBFB4FF4806328463146ADF804308DF855
:10103C00074001F0F1FB284631468DF80740ADF82A
:10104C000480FC3401F0E8FB142328463146ADF84B
:10105C0004408DF807308DF8068001F0DDFBADF80B
:10106C0004400D4C4823204631468DF8073001F0E2
:10107C00D3FB20463146ADF804A08DF807908DF8CF
:10108C00068001F0C9FB4FF4EA10012101F062FA6D
:10109C00BDE87E8700080140000C014010B528B166
:1010AC0005484FF4807101F0FDFA04E002484FF45A
:1010BC00807101F027FB10BD0008014073B54FF49F
:1010CC00A06001AD01F0F8F8002401261423284695
:1010DC008DF804308DF805608DF806408DF80760AA
:1010EC0001F0A2F82A2328468DF804308DF805402B
:1010FC008DF806408DF8076001F096F80B23284612
:10110C008DF804308DF805408DF806408DF8076099
:10111C0001F08AF87CBDC046002010B501F0D2FC6D
:10112C004FF40000012101F081FC10BD73B50021CA
:10113C004FF0006001F056F801AE4FF4E06001F0A2
:10114C00BBF800240125062330468DF804308DF8B9
:10115C0005408DF806408DF8075001F065F807231F
:10116C0030468DF804308DF805408DF806508DF81A
:10117C00075001F059F8142330468DF804308DF8DF
:10118C0005408DF806408DF8075001F04DF87CBDF8
:10119C0010B500F0D7FC0420012101F06DFC0820F3
:1011AC00012101F069FC1020012101F065FC2020D7
:1011BC00012101F061FC01214FF4804001F05CFC45
:1011CC000120014601F058FC4FF00070012101F0A4
:1011DC002DFC10BD1FB50D4C4FF4E1330093A3F55E
:1011EC00E133ADF80430ADF80630ADF80830ADF8A9
:1011FC000C3020464FF00C036946ADF80A3000F075
:10120C0039FF2046012100F001FF1FBD00380140CD
:10121C0010B500F041F80024FFF776FE04F001034E
:10122C00013413B900F040F801E000F019F8012185
:10123C000A4801F097FA012802D100F047F801E0C2
:10124C0000F020F80221054801F08CFA012802D1A7
:10125C0000F034F8E0E700F00DF8DDE7000801409D
:10126C0010B503484FF4807101F04CFA10BDC04624
:10127C00000C014010B50248202101F043FA10BDCA
:10128C00000C014010B503484FF4007101F03AFA1C
:10129C0010BDC046000C014010B5FFF7F3FFFFF77F
:1012AC00E9FFFFF7DDFF10BD10B503484FF4807167
:1012BC0001F0F8F910BDC046000C014010B5024811
:1012CC00202101F0EFF910BD000C014010B50348CE
:1012DC004FF4007101F0E6F910BDC046000C01405E
:1012EC0010B5044618E0FFF7CDFFFFF7E7FFFFF757
:1012FC00DBFFFFF70FFEFFF7E9FFFFF7BBFFFFF781
:10130C00D3FFFFF707FEFFF7E1FFFFF7D7FFFFF76C
:10131C00A7FFFFF7FFFD013C002CE4D110BDC04638
:10132C0010B5FFF7D3FFFFF7C9FFFFF7BDFF10BDE7
:10133C0010B5FFF7F5FFFFF7EDFDFFF7ADFFFFF77A
:10134C00E9FD0320FFF7CCFF10BDC04670B5194E68
:10135C00194C304601F0C0FE204601F0C3FB0223BD
:10136C002371DB18002563714FF00A03238021469B
:10137C00A571E57125726572A572E572A570E570AF
:10138C00304601F0CFFD0D4801248572C5720473FF
:10139C00058045808580C5800581447301F022FD60
:1013AC00074B40F221321A605C605D721D729C72B8
:1013BC0070BDC04600640040F40100200002002013
:1013CC001002002010B50D48FEF7D8FEFFF7BEFF47
:1013DC000B480221012201F0B9FC0A48FFF7AAFDD3
:1013EC0004464FF4FA70FFF781FD0748FEF7C6FE7E
:1013FC0006490348CC7201F007FCEEE749340008BB
:10140C0000640040003801405B34000810020020EA
:10141C0010B5FFF753FEFFF77FFE00F021FD10BD66
:10142C0010B50B4C0B482168FEF76AFE61680A4840
:10143C00FEF766FEA1680948FEF762FEE1680848FF
:10144C00FEF75EFE21690748FEF75AFE10BDC04646
:10145C00E0010020683400087F3400089434000850
:10146C00AA340008C034000870B53E4CFFF790FE5B
:10147C00204601F069FAFFF759FEFFF7BDFDFFF7B3
:10148C0095FDFFF7A7FE23684FF47A72B3FBF2F3D6
:10149C0023F07F43344A013B5360344B6FF00F0110
:1014AC0083F823100020072390601360FFF7F6FDEC
:1014BC004FF4FA70FFF71AFD2D48FEF75FFE2D482A
:1014CC00FEF75CFE2C48FEF759FE2C48FEF756FE44
:1014DC002B48FEF753FE2948FEF750FE2948FEF72D
:1014EC004DFE2948FEF74AFE2848FEF747FE2848DD
:1014FC00FEF744FE2748FEF741FE2048FEF73EFE6D
:10150C002548FEF73BFE2548FFF714FD0546244809
:10151C00FEF734FE6BB2303B052B1FD8DFE803F02F
:10152C000306090C0F1CFFF77BFF17E0FFF700FF0A
:10153C0014E0FFF76DFE11E000F078F80EE0194BA7
:10154C0001241C70FFF764FF4FF4FA70FFF7CEFC18
:10155C002046FFF7A3FD01E0FFF734FF782DABD158
:10156C00002070BDE001002010E000E000ED00E084
:10157C00D7340008EE34000806350008D8340008CB
:10158C00153500082B3500083735000843350008A1
:10159C0055350008653500087835000800380140DD
:1015AC0081350008DC010020024A536943F4807342
:1015BC005361704700100140024B5A691043586147
:1015CC007047C04600100140024B1A691043186165
:1015DC007047C0460010014010B5FF20FFF7F4FF24
:1015EC0010BDC04610B50446FFF7F6FF092C1BD8FA
:1015FC00DFE804F00507090B0D0F111315173F2039
:10160C0010E006200EE09B200CE08F200AE0A620C4
:10161C0008E0AD2006E0BD2004E0272002E0BF205A
:10162C0000E0AF20FFF7C8FF10BDC04613B5274838
:10163C00FEF7A4FD264A01A99369264843F010033E
:10164C00936140F2FF131024ADF8043003238DF89E
:10165C0006308DF8074001F0DFF8FFF7A5FFFFF724
:10166C0059FCFFF7B9FF0120FFF7A6FFFFF752FC6B
:10167C000220FFF7A1FFFFF74DFC0420FFF79CFFB2
:10168C00FFF748FC0820FFF797FFFFF743FC2046C5
:10169C00FFF792FFFFF73EFC2020FFF78DFFFFF7CF
:1016AC0039FC8020FFF788FFFFF734FC4020FFF760
:1016BC0083FFFFF72FFC002420460134FFF792FF35
:1016CC00FFF728FC0A2CF7D11CBDC0468F3500084B
:1016DC0000100240001001407047C046FEE7C046B3
:1016EC00FEE7C046FEE7C046FEE7C0467047C04670
:1016FC007047C0467047C0467047C0467047C046EA
:10170C007047C0467047C0467047C0467047C046D9
:10171C007047C0467047C0467047C0467047C046C9
:10172C007047C0467047C0467047C0467047C046B9
:10173C007047C0467047C0467047C0467047C046A9
:10174C007047C0467047C0467047C0467047C04699
:10175C007047C0467047C0467047C0467047C04689
:10176C007047C0467047C0467047C0467047C04679
:10177C007047C0467047C0467047C0467047C04669
:10178C007047C0467047C0467047C0467047C04659
:10179C0010B54FF4802000F0F7FD10BD10B50A4CC9
:1017AC0000212246094801F0D1F9226840F2213388
:1017BC009A4208D1237A33B9A37A012B03D1044876
:1017CC00E17AFEF79DFC10BD280200200064004069
:1017DC00A235000870B50F480F4D072303700F4C4E
:1017EC002B681A092368A2EB1313042B0ED9427031
:1017FC004FF48071022200F04FFB0120022100F017
:10180C00CDFA012000F082FA2B682360022000F050
:10181C009BFD70BD24020020D4010020D8010020C3
:10182C0010B5022000F0C2FD10B31248FEF7A6FC62
:10183C00114B1978012918D11048114A062303704D
:10184C0013781BB100231370417001E011704370C9
:10185C000A484FF48071022200F01EFB0120022185
:10186C0000F09CFA012000F051FA022000F08CFDEF
:10187C0010BDC046BA350008DC010020240200204F
:10188C00DD01002010B5012000F090FD10B31248CE
:10189C00FEF774FC114B1978012918D11048114A24
:1018AC000523037053781BB100235370417001E082
:1018BC00517043700A484FF48071022200F0ECFA28
:1018CC000120022100F06AFA012000F01FFA012029
:1018DC0000F05AFD10BDC046D2350008DC010020D6
:1018EC0024020020DD01002010B5FFF719FB10BD0C
:1018FC00014B04221A607047CC0100207047C0468F
:10190C007047C046062810B511D1144B1A681378CD
:10191C0003F07F03012B0AD1537943B99378222B1F
:10192C0001D10F4A0DE0212B15D10E4A09E00B4BCA
:10193C001B681B7803F07F03212B0CD103280AD1E1
:10194C00094A064B4FF000011B6800209A6159822E
:10195C009047002000E0022010BDC0466C02002021
:10196C00E9190008D9190008BD19000801B900B11E
:10197C0002207047034B00201B68DA78024B1A6078
:10198C007047C0466C0200203C02002010B5074B8B
:10199C001B681B7803F07F03212B04D10B2802D189
:1019AC00FFF7E8FF00E0022010BDC0466C020020EB
:1019BC0028B9044B4FF001011B68198200E0024862
:1019CC007047C0466C0200203C02002010B5024952
:1019DC0000F012FA10BDC0461C00002010B50249E0
:1019EC0000F00AFA10BDC0462400002010B5064BCA
:1019FC001B68DB78042B01D9002004E0034901EBC0
:101A0C00C30100F0F9F910BD6C0200202C0000207D
:101A1C0010B5024900F0F0F910BDC0464C00002092
:101A2C0010B5024900F0E8F910BDC0465400002082
:101A3C0010B5064B1B689B7A33B1054B05221A6017
:101A4C000448012100F058FC10BDC0466C02002077
:101A5C00CC01002000240140274B10B51A68274BFD
:101A6C000024DB799472D4725372204600F00AF988
:101A7C0020464FF4007100F00FF92046102100F0C1
:101A8C0019F92046182100F079F95821204600F068
:101A9C0065F9204600F056F9194B204693F86C1066
:101AAC0000F08AF9204600F03FF901204FF4C061A4
:101ABC0000F0F2F801204FF4807100F04FF9012092
:101ACC004FF4827100F05AF90120022100F066F9FE
:101ADC000120022100F070F901204FF4405100F078
:101AEC00FFF80120202100F0E5F8064B01221A60D6
:101AFC00204600F091F910BD6C0200204231000824
:101B0C001C000020CC01002010B5FFF7C5F9084BD4
:101B1C0000241B689C72FFF7A1F9064B4FF43F425F
:101B2C001C60054B1A80054B1A60054B1C6010BDE0
:101B3C006C020020445C004070020020405C0040BD
:101B4C00CC0100203C4A82B0136843F001031360BF
:101B5C0051683A4B01EA03035360136823F0847312
:101B6C0023F480331360136823F4802313605368C9
:101B7C0023F4FE0353604FF41F039360A3F51F037C
:101B8C0001930093136843F4803313602A4B1B6852
:101B9C0003F400330093019B01330193009B1BB9A9
:101BAC00019BB3F5A06FF1D1234B1B6813F40033E9
:101BBC0018BF01230093009B012B3AD1204A1368D4
:101BCC0043F010031360136823F0030313601368CE
:101BDC0043F002031360A2F58052536853605368BC
:101BEC005360536843F480635360536843F4004379
:101BFC005360536823F47C135360536843F4881385
:101C0C005360136843F0807313600B4A136813F02E
:101C1C00007FFAD0536823F003035360536843F0FA
:101C2C0002035360044B5B6803F00C03082BF9D1DF
:101C3C0000E0FEE702B07047001002400000FFF821
:101C4C0000200240002103E0094B5B584350043153
:101C5C000848094B42189A42F6D3084A02E000237E
:101C6C0042F8043B064B9A42F9D3FFF7FDFB704751
:101C7C007439000800000020CC010020CC010020A9
:101C8C00740200204FF6F873024A00EA0303136053
:101C9C007047C046505C004010B5054C48F68F1399
:101CAC0054F8202002EA03030B4344F8203010BD03
:101CBC00005C0040800000F1804000F5B8400368F3
:101CCC0048F6BF7203EA020211F0100F18BF82F03F
:101CDC00100211F0200F18BF82F020020260704732
:101CEC00800000F1804000F5B84003684BF68F721D
:101CFC0003EA020211F4805F18BF82F4805211F4DF
:101D0C00005F18BF82F4005202607047054948F624
:101D1C00BF7351F8202002EA030383F0300341F82B
:101D2C0020307047005C004005494BF68F7351F82A
:101D3C00202002EA030383F4405341F8203070471B
:101D4C00005C0040044948F68F6351F8202002EAF9
:101D5C00030341F820307047005C0040064B4908F3
:101D6C001B6849009BB203EBC00303F1005303F55E
:101D7C0040535B0019607047505C0040054B064AAD
:101D8C001B6849089BB203EBC0039A185200490028
:101D9C0011607047505C004004300020044B1A68FE
:101DAC00044B92B202EBC002D3185B00196070476F
:101DBC00505C0040023000200D4B1A680D4B92B263
:101DCC00D31803EBC0035A003E2909D94B0911F073
:101DDC001F0F01D1013B9BB29B0243F4004305E072
:101DEC004B0811F0010F18BF01339B0213607047B1
:101DFC00505C004006300020064B10B51A680C46AB
:101E0C00518A18B9A3885B1A138201E02368581809
:101E1C0010BDC0466C02002030B50E4B05461C7838
:101E2C004FF0000C0FE05FFA8CF0820002F1804260
:101E3C0002F5B842116848F68F7301EA03030343B5
:101E4C0013600CF1010CA445EDD3034B45F080025B
:101E5C001A6030BD8C0000204C5C00407047C046BE
:101E6C00074A084B08491A60022310B51372074B36
:101E7C00074A1960074B1A600B68984710BDC0469B
:101E8C004C0200206C0200205C0000204402002068
:101E9C00900000206802002001F1005101F5405132
:101EAC00013210B54FF0000C4C0051080BE000EB68
:101EBC000C035A7810F80C30013943EA022324F849
:101ECC001C300CF1020C0029F1D110BD254B70B562
:101EDC00984205460C4614D0A3F57443984210D092
:101EEC0003F5806398420CD003F58063984208D0C8
:101EFC0003F58063984204D01B4840F21331FEF77F
:101F0C00C1FF012C23D0802C21D0402C1FD0202CA1
:101F1C001DD0102C1BD0B4F5807F18D0B4F5007FE9
:101F2C001BD0082C13D0042C11D0022C0FD00E482F
:101F3C004FF4457109E00D4B9D4208D003F58063C9
:101F4C009D4204D008484FF44671FEF79BFF2B8846
:101F5C001C420CBF0020012070BD024B9D42EAD1F7
:101F6C00F5E7C04600380140E93500080044004060
:101F7C000E4B10B59842044614D0A3F57443984206
:101F8C0010D003F5806398420CD003F5806398421F
:101F9C0008D003F58063984204D0054840F24321F1
:101FAC00FEF770FFA088C005C00D10BD00380140C1
:101FBC00E9350008134B70B5984204460D4614D011
:101FCC00A3F57443984210D003F5806398420CD06B
:101FDC0003F58063984208D003F58063984204D0DF
:101FEC00094840F23221FEF74DFFB5F5007F04D3CE
:101FFC00054840F23321FEF745FFEB05DB0DA380CE
:10200C0070BDC04600380140E9350008174B70B56B
:10201C00984204460D4614D0A3F57443984210D050
:10202C0003F5806398420CD003F58063984208D086
:10203C0003F58063984204D00D484FF4A171FEF76C
:10204C0021FF012D04D90A4840F24311FEF71AFF73
:10205C0025B1A3899BB243F4005304E0A38923F474
:10206C0000531B041B0CA38170BDC04600380140FB
:10207C00E935000830B5584B87B0984204460D46F8
:10208C0013D0A3F5744398420FD003F580639842A4
:10209C000BD003F58063984207D003F58063984218
:1020AC0003D04E48AD21FEF7EDFE2B684C4A013BA8
:1020BC00934203D94948AE21FEF7E4FEAB8833B115
:1020CC00B3F5805F03D04548AF21FEF7DBFEEB880C
:1020DC0063B1B3F5805F09D0B3F5005F06D0B3F5FB
:1020EC00405F03D03D48B021FEF7CCFE2B894BB1AD
:1020FC00B3F5806F06D0B3F5C06F03D03748B1216C
:10210C00FEF7C0FE6A894FF6F37302EA030303B9C4
:10211C001AB93248B221FEF7B5FEAB8963B1B3F5FB
:10212C00807F09D0B3F5007F06D0B3F5407F03D094
:10213C002A48B321FEF7A6FEAB8973B1264B9C420D
:10214C000BD0A3F574439C4207D003F580639C42EB
:10215C0003D02248B721FEF795FE238AEA8823F4A0
:10216C0040531B041B0C13432382A289A9882B897F
:10217C0022F4B0520B43698922F00C020B43120477
:10218C00120C9BB21343A381A38AAA8923F4407334
:10219C001B041B0C1343A38201A800F0D5FB0E4BB0
:1021AC009C420CBF049B039B19225A432B6864204E
:1021BC009B00B2FBF3F2B2FBF0F109010B0900FB3F
:1021CC0013231B013233B3FBF0F303F00F030B4368
:1021DC009BB2238107B030BD00380140E9350008BF
:1021EC001FAA4400B0F1005F70B504460D4606D03E
:1021FC00B0F1006F03D009489D21FEF743FE084B58
:10220C009D4203D905489E21FEF73CFE25F0604314
:10221C0023F07F03034A2343936070BD4F360008BD
:10222C00FEFF070000ED00E0C37810B5012B04465B
:10223C0003D91E487421FEF725FE63780F2B03D9B2
:10224C001A487521FEF71EFEA3780F2B03D91748E9
:10225C007621FEF717FEE37894F800C0D3B1144B47
:10226C006178DA68D243C2F30222C2F104039940C6
:10227C000F23D340A27813400B430E4A1B01DBB251
:10228C00624482F800330CF01F0201234FEA5C1108
:10229C00934006E00CF01F02012393404FEA5C11BF
:1022AC002031044A42F8213010BDC0464F36000898
:1022BC0000ED00E000E100E0B0F5E06F10B5044681
:1022CC000FD0B0F5C06F0CD0B0F5A06F09D0B0F541
:1022DC00806F06D0B0F5407F03D005486221FEF731
:1022EC00D1FD44F0BE63034A43F42023D36010BDF8
:1022FC004F36000800ED00E0114B70B598420446D3
:10230C000D460CD003F58063984208D003F5A0531A
:10231C00984204D00B4840F2CB11FEF7B3FD012DCF
:10232C0004D908484FF4E671FEF7ACFD1DB1A36863
:10233C0043F4A00302E0A36823F4A003A36070BDE0
:10234C0000240140AA36000810F0704F10B5044666
:10235C0004D0094B00EA03030BB905E020B9074888
:10236C004FF4FD71FEF78EFD14F0805F14BF044B2B
:10237C00044B5C6010BDC0460000F0EF0E37000847
:10238C000004024000000240030D1B0510B504467A
:10239C0003B918B90348FB21FEF774FD024B5C61CD
:1023AC0010BDC0467237000800040140431E012BCB
:1023BC0010B5044633D9042831D008282FD0102862
:1023CC002DD020282BD0402829D0802827D0B0F51C
:1023DC00807F24D0B0F5007F21D0B0F5806F1ED067
:1023EC00B0F5006F1BD0B0F5805F18D0B0F5005F72
:1023FC0015D0B0F5804F12D0B0F5004F0FD0B0F51E
:10240C00803F0CD0B0F5003F09D0B0F5802F06D03E
:10241C00B0F5002F03D00748E421FEF733FD064B3F
:10242C001A685B6914EA030003D014420CBF002045
:10243C00012010BD7237000800040140037970B50B
:10244C0005462BB1042B03D02A486921FEF71AFD4F
:10245C006B79082B07D00C2B05D0102B03D02548FB
:10246C006A21FEF70FFD2A68130D1B0503B91AB973
:10247C0020486B21FEF706FDAB79012B03D91D48D3
:10248C006C21FEF7FFFCAB792C7928684BB31A4909
:10249C00C2430B6802EA03030B604B681A404A60A4
:1024AC0004F1804202F582321368034313602C68F6
:1024BC008B68E24302EA03038B60CB6868791A40AD
:1024CC001028CA6006D18B6823438B60CB682343EA
:1024DC00CB600EE000F1804202F582321368234398
:1024EC0006E004F1804202F58232136823EA00030D
:1024FC00136070BD7237000800040140062870B5E7
:10250C0005460C4604D911484FF41171FEF7BAFC7C
:10251C000F2C04D90D4840F24521FEF7B3FC04F012
:10252C00030292000F23934015FA02F2A008084C04
:10253C00023054F8201021EA030144F8201054F81A
:10254C0020301A4344F8202070BDC046D73700080D
:10255C0000000140431E012B70B504460D465CD9AA
:10256C0004285AD0082858D0454B984255D02033CF
:10257C00984252D0434B98424FD0803398424CD023
:10258C00414B984249D003F58073984245D003F5EE
:10259C008073984241D03D4B98423ED003F5806306
:1025AC0098423AD0B0F5805F37D0B0F5EA1F34D0FE
:1025BC00B0F5EB1F31D0B0F5004F2ED0344B984214
:1025CC002BD00133984228D00233984225D00433C3
:1025DC00984222D0083398421FD0B0F1201F1CD053
:1025EC003033984219D02B4B984216D003F5807398
:1025FC00984212D003F5007398420ED0264B9842A5
:10260C000BD003F58053984207D0B0F5011F04D0CE
:10261C00224840F21721FEF735FC012D04D91F4842
:10262C004FF40671FEF72EFC1D4804F440134FEADC
:10263C00044CB3F5401F41684FEA1C4C06D143686B
:10264C0021F0706223F0706343600FE014F4801F7C
:10265C0004D0C4F303420323934003E0630D1B0136
:10266C000CFA03F321EA030343F0706225B1630D06
:10267C001B010CFA03F31A43094B5A6070BDC04698
:10268C0010001400400016000001180000081A0089
:10269C00010020000001300000102000D737000896
:1026AC0000000140154B70B5984204460D461CD0F5
:1026BC0003F58063984218D003F58063984214D0D8
:1026CC0003F58063984210D003F5806398420CD0D8
:1026DC0003F58063984208D003F58063984204D0D8
:1026EC0007484FF4BC71FEF7CDFB25B9044840F206
:1026FC007911FEF7C7FB656170BDC046000801404B
:10270C00D7370008154B70B5984204460D461CD0BF
:10271C0003F58063984218D003F58063984214D077
:10272C0003F58063984210D003F5806398420CD077
:10273C0003F58063984208D003F58063984204D077
:10274C0007484FF4B471FEF79DFB25B9044840F2DD
:10275C006911FEF797FB256170BDC046000801406A
:10276C00D73700082A4B70B5984205460C461CD04A
:10277C0003F58063984218D003F58063984214D017
:10278C0003F58063984210D003F5806398420CD017
:10279C0003F58063984208D003F58063984204D017
:1027AC001C4840F21D11FEF76DFB631E9BB2012B02
:1027BC0028D9042C26D0082C24D0102C22D0202C44
:1027CC0020D0402C1ED0802C1CD0B4F5807F19D08A
:1027DC00B4F5007F16D0B4F5806F13D0B4F5006F4C
:1027EC0010D0B4F5805F0DD0B4F5005F0AD0B4F50D
:1027FC00804F07D0B4F5004F04D006484FF48F71CA
:10280C00FEF740FBAB681C420CBF0020012070BDE2
:10281C0000080140D7370008494B2DE9F041984298
:10282C0004460D461BD003F58063984217D003F580
:10283C008063984213D003F5806398420FD003F560
:10284C00806398420BD003F58063984207D003F560
:10285C008063984203D03B48B121FEF713FBEB7821
:10286C008BB1042B0FD0282B0DD0482B0BD0142B55
:10287C0009D0102B07D01C2B05D0182B03D03148B6
:10288C00B221FEF7FFFA2B881BB92E48B321FEF7B5
:10289C00F9FAEB7813F0100F03F00F070AD0AB78AE
:1028AC00013BDBB2022B03D92648BA21FEF7EAFA28
:1028BC00AB781F432B78EBB12668002001238340B3
:1028CC002A8803EA0201994210D182000F23934017
:1028DC0017FA02F226EA030343EA0206EB78282BE6
:1028EC0001D1616102E0482B08BF21610130082849
:1028FC00E4D126602B88FF2B20D9666800200123A9
:10290C0000F1080213FA02F12B8801EA03038B424F
:10291C0010D183000F229A4017FA03F326EA020221
:10292C0042EA0306EB78282BEB7808BF6161482B51
:10293C0008BF216101300828E1D16660BDE8F08153
:10294C0000080140D737000810B504461E484368FC
:10295C0003F00C03042B02D0082B14D101E01B4B09
:10296C0012E043684268C3F38343991C12F4803F1E
:10297C0001D1174B05E0436813F4003F14BF154B0E
:10298C00124B4B4300E0144B0F4823604368134930
:10299C00C3F30313CB5C2268DA4062604368C3F371
:1029AC000223CB5C32FA03F3A3604368C3F3C22364
:1029BC00CB5CDA40E2604368C3F38133C9180B7C0B
:1029CC00B2FBF3F2226110BD00100240001BB700F5
:1029DC0000093D00808D5B0000127A00B4000020DD
:1029EC000F4B70B500EA030304460D4603B920B93A
:1029FC000C4840F2AC41FEF745FA012D04D90948C8
:102A0C0040F2AD41FEF73EFA25B1074A136944EA9C
:102A1C00030303E0044A136923EA0403136170BD42
:102A2C00C03701C13C380008001002400F4B70B594
:102A3C0000EA030304460D4603B920B90C4840F2E2
:102A4C005541FEF71FFA012D04D9094840F25641B1
:102A5C00FEF718FA25B1074AD36944EA030303E0E9
:102A6C00044AD36923EA0403D36170BDC03701C1A2
:102A7C003C380008001002400F4B70B500EA03030D
:102A8C0004460D4603B920B90C4840F23741FEF715
:102A9C00F9F9012D04D909484FF48761FEF7F2F9D1
:102AAC0025B1074A936944EA030303E0044A936996
:102ABC0023EA0403936170BD0200FFFF3C38000859
:102ACC0000100240012810B5044604D9034840F216
:102ADC00D721FEF7D7F9024B1C6010BD3C3800081B
:102AEC00D800424200238371C37103724372837214
:102AFC00C3728370C37003330371013B43714FF096
:102B0C00010303807047C0460E4B70B598420446D3
:102B1C000D4608D003F58063984204D00A4840F271
:102B2C007921FEF7AFF9012D04D9074840F27A213B
:102B3C00FEF7A8F915B92023E36001E020232361F7
:102B4C0070BDC04600640040A03800082C4B70B526
:102B5C00984205460E46144608D003F58063984209
:102B6C0004D0284840F2AD21FEF78CF9012E04D98F
:102B7C00244840F2AE21FEF785F906F11B031A0139
:102B8C00AB5803F0040323721BB9AB585B0D2360E5
:102B9C0002E0AB58DB08636006F11B031B01EA186B
:102BAC00EB58284603F0020363725368314603F076
:102BBC000F03A372536805EB06121B0AE374D2F8D9
:102BCC00B831E372D2F8B8311B0A2373D2F8B8319A
:102BDC001B0C6373D2F8B8311B0EA373D2F8BC3143
:102BEC00E373D2F8BC311B0A2374D2F8BC311B0C32
:102BFC006374D2F8BC311B0EA374FFF785FF70BD54
:102C0C0000640040A03800084E4B70B59842054651
:102C1C000C4608D003F58063984204D04A484FF420
:102C2C00F571FEF72FF9237A33B1042B04D0464803
:102C3C0040F2EB11FEF726F9637A33B1022B04D084
:102C4C0041484FF4F671FEF71DF9A37A082B04D90D
:102C5C003D4840F2ED11FEF715F9AB6813F0806FAB
:102C6C0001D000260CE0AB6813F0006F01D00126F8
:102C7C0006E0AB6813F0805F01D1042660E0022609
:102C8C0006F118031B01EA5802F00102EA50237AFC
:102C9C009BB92368B3F5006F04D32B4840F207218E
:102CAC00FEF7F0F806F1180212012168637AA858B1
:102CBC0043EA41530343AB5014E06368B3F1005F44
:102CCC0004D321484FF40371FEF7DCF806F1180128
:102CDC0062680901237A685843EAC203627A0343A3
:102CEC0013436B50A37A06F11800000103F00F0395
:102CFC00A3722A18536823F00F0353605168A37A08
:102D0C000B435360637BA27B1B0443EA0263E27AAE
:102D1C0005EB06111343227B43EA0223C1F88831E9
:102D2C00637CA27C1B0443EA0263E27B1343227C98
:102D3C0043EA0223C1F88C312B5843F001032B508A
:102D4C00304670BD00640040A0380008234B70B5BD
:102D5C00984205460C46164608D003F58063984207
:102D6C0004D01F484FF4E771FEF78CF8631E012B5B
:102D7C0023D9042C21D0082C1FD0102C1DD0202C92
:102D8C001BD0402C19D0B4F5807F16D0B4F5007F41
:102D9C0013D0B4F5806F10D0B4F5006F0DD0B4F52E
:102DAC00004F0AD0B4F5803F07D0B4F5003F04D0F3
:102DBC000B4840F2CF11FEF765F8012E04D90848F4
:102DCC004FF4E871FEF75EF81EB16B6944EA030339
:102DDC0002E06B6923EA04036B6170BD0064004080
:102DEC00A038000870B5837A04460D2B04D94B48E3
:102DFC004FF49C71FEF746F8E37A012B04D947484F
:102E0C0040F23911FEF73EF8237B012B04D94348DD
:102E1C004FF49D71FEF736F82389012B04D93F48F6
:102E2C0040F23B11FEF72EF8637B012B04D93B4893
:102E3C004FF49E71FEF726F8A07A012313FA00F5E1
:102E4C0037496FEA050CD1F8003243F00103C1F8A1
:102E5C000032D1F81C320CEA0303C1F81C32237B7C
:102E6C0083B9D1F80C3262880CEA0303C1F80C3236
:102E7C00E38842EA034200F1480341F83320A18879
:102E8C00228811E0012B17D1D1F80C32628845EA67
:102E9C000303C1F80C32238842EA034200F14803D1
:102EAC0041F83320A188E288DB0003F1804342EA39
:102EBC00014203F5C8435A60E37A2BB9184AD2F899
:102ECC0004320CEA030304E0154AD2F8043245EA52
:102EDC000303C2F8043223892BB9114AD2F81432F5
:102EEC000CEA030306E0012B06D10D4AD2F814328A
:102EFC0045EA0303C2F81432637B012B06D1084A5E
:102F0C00D2F81C3245EA0303C2F81C32044AD2F848
:102F1C00003223F00103C2F8003270BDA038000863
:102F2C00006400406A4B70B5984204460D4607D0C9
:102F3C0003F58063984203D06648B221FDF7A2FFE7
:102F4C00AB79012B03D96348B321FDF79BFFEB79D8
:102F5C00012B03D95F48B421FDF794FF2B7A012B89
:102F6C0003D95C48B521FDF78DFF6B7A012B03D992
:102F7C005848B621FDF786FFAB7A012B03D955488B
:102F8C00B721FDF77FFFEB7A012B03D95148B8210C
:102F9C00FDF778FFAB78032B03D94E48B921FDF729
:102FAC0071FFEB78032B03D94A48BA21FDF76AFF6E
:102FBC002B790F2B03D94748BB21FDF763FF6B79A6
:102FCC00072B03D94348BC21FDF75CFF2B88013B41
:102FDC009BB2B3F5806F03D33E48BD21FDF752FF82
:102FEC002368002223F002032360236843F00103CB
:102FFC00236000E00132636813F0010F03D14FF638
:10300C00FF739A42F6D1636813F001005ED0AB797E
:10301C00012B0BBF2368236843F0800323F080034C
:10302C002360EB79012B0BBF2368236843F040032B
:10303C0023F0400323602B7A012B0BBF23682368FA
:10304C0043F0200323F0200323606B7A012B0BBF8A
:10305C002368236843F0100323F010032360AB7A3A
:10306C00012B0BBF2368236843F0080323F00803EC
:10307C002360EB7A012B0BBF2368236843F0040316
:10308C0023F004032360AA78EB78920742EA0362E8
:10309C002B7942EA03426B7942EA03522B88013BBB
:1030AC001A43E2612368002223F00103236000E04D
:1030BC000132636813F0010F03D04FF6FF739A428D
:1030CC00F6D1636883F0010303F0010070BDC046C4
:1030DC0000640040A03800080F4B10B5984208D08F
:1030EC0003F5806398420CD00C489221FDF7CAFE80
:1030FC0007E04FF000700121FFF772FC4FF00070F9
:10310C0006E04FF080600121FFF76AFC4FF0806011
:10311C000021FFF765FC10BD00640040A0380008DA
:10312C00101C70471201000200000040830450572D
:10313C0000020102030109022900010100C0320949
:10314C00040000020300000009211001000122A26A
:10315C00000705810302002007050103020020057A
:10316C008C0901A10185010901150025017508953E
:10317C0001B18285010901918285020902150025A0
:10318C000175089501B182850209029182850309B6
:10319C00031500250175089501B18285030903917A
:1031AC0082850409041500250175089501B18285F5
:1031BC000409049182850509051500250175018115
:1031CC008209057501B1827507818385057507B183
:1031DC00838506090615002501750181820906758E
:1031EC0001B1827507818385067507B1838507094F
:1031FC0007150026FF007508818285070907B18233
:10320C00C0040309042603530054004D00690063F5
:10321C000072006F0065006C006500630074007242
:10322C00006F006E006900630073002003530054AC
:10323C00004D003300320020004300750073007411
:10324C00006D0020004800490044000054020008B2
:10325C00A8060008A806000866020008A8060008D0
:10326C00A8060008A8060008A8060008A80600087A
:10327C00A8060008700200088A020008A8060008C8
:10328C008002000894020008A8060008F602000854
:10329C0000030008000300080003000800030008F6
:1032AC0000030008000300080003000800030008E6
:1032BC0000030008A8060008A8060008A8060008D5
:1032CC00A8060008A8060008A8060008A80600081A
:1032DC00A8060008A80600085A030008A603000860
:1032EC00A8060008A8060008A8060008A8060008FA
:1032FC00A8060008A8060008A8060008A8060008EA
:10330C00A8060008A80600081C040008A806000867
:10331C00A8060008A806000864040008A80600080F
:10332C0038050008A8060008A80600087005000863
:10333C00A8060008A8060008A8060008A8060008A9
:10334C00A8060008A8060008A8060008A806000899
:10335C00A8060008A80600085A030008AE030008D7
:10336C00A8060008A8060008A80600082403000800
:10337C00AE030008A8060008A80600082E030008E3
:10338C00A8060008EA030008240400084A04000800
:10339C0050030008A806000864040008A8060008EA
:1033AC0040050008A8060008A80600084E02000800
:1033BC002020202020202020202020202020202001
:1033CC0030303030303030303030303030303030F1
:1033DC0057726F6E6720706172616D657465727380
:1033EC002076616C75653A2066696C6520257320C2
:1033FC006F6E206C696E652025640D0A00212121F9
:10340C0020415353455254204641494C45442021B8
:10341C00212120257328292025640A005B4552525E
:10342C004F525D20257328292025640A0025732816
:10343C002920450A002573282920530A0043414EB0
:10344C005F4E6F726D616C5F546573742829002038
:10345C0069732073656C65637465640053595343D9
:10346C004C4B5F4672657175656E6379203D202506
:10347C00640A0048434C4B5F4672657175656E6318
:10348C0079203D2025640A0050434C4B315F467235
:10349C00657175656E6379203D2025640A00504383
:1034AC004C4B325F4672657175656E6379203D20B9
:1034BC0025640A00414443434C4B5F467265717569
:1034CC00656E6379203D2025640A000A2D2D2D2D73
:1034DC002D2D2D2D2D2D2D2D2D2D2D2D2D2D2D2D10
:1034EC002D004D616E676F204D33322074657374FF
:1034FC002073746172742E2E2E00507265737320BB
:10350C006D656E75206B657900303E205379737450
:10351C00656D20496E666F726D6174696F6E0031F6
:10352C003E204C4544205465737400323E204B457C
:10353C0059205465737400333E20372D5365676DE5
:10354C00656E74205465737400343E2055534220CC
:10355C00484944205465737400353E2043414E2045
:10356C004E6F726D616C205465737400783E2071DF
:10357C007569740A002069732073656C65637465E2
:10358C00640A00536576656E5F5365676D656E748E
:10359C005F546573740052784D6573736167652E63
:1035AC00446174615B305D203D2025630A005269E3
:1035BC006768742D5553455220427574746F6E2094
:1035CC005072657373004C6566742D574B555020C3
:1035DC00427574746F6E20507265737300433A5C5D
:1035EC0055736572735C41646D696E697374726155
:1035FC00746F725C446F776E6C6F6164735C4D5367
:10360C00746F7279332E305C4C69627261726965C9
:10361C00735C53544D3332463130785F537464507D
:10362C0065726970685F4472697665725C73726307
:10363C005C73746D3332663130785F75736172749C
:10364C002E6300433A5C55736572735C41646D691B
:10365C006E6973747261746F725C446F776E6C6FA9
:10366C006164735C4D53746F7279332E305C4C69AA
:10367C00627261726965735C53544D3332463130FA
:10368C00785F5374645065726970685F44726976D0
:10369C0065725C7372635C6D6973632E6300433A8D
:1036AC005C55736572735C41646D696E6973747299
:1036BC0061746F725C446F776E6C6F6164735C4D98
:1036CC0053746F7279332E305C4C6962726172691B
:1036DC0065735C53544D3332463130785F537464A8
:1036EC005065726970685F4472697665725C73725A
:1036FC00635C73746D3332663130785F6164632E52
:10370C006300433A5C55736572735C41646D696E1A
:10371C006973747261746F725C446F776E6C6F61F5
:10372C0064735C4D53746F7279332E305C4C6962E8
:10373C007261726965735C53544D33324631307823
:10374C005F5374645065726970685F447269766522
:10375C00725C7372635C73746D3332663130785F94
:10376C00646D612E6300433A5C55736572735C4102
:10377C00646D696E6973747261746F725C446F7797
:10378C006E6C6F6164735C4D53746F7279332E3051
:10379C005C4C69627261726965735C53544D33326F
:1037AC00463130785F5374645065726970685F4459
:1037BC0072697665725C7372635C73746D333266B6
:1037CC003130785F657874692E6300433A5C5573C9
:1037DC006572735C41646D696E6973747261746F48
:1037EC00725C446F776E6C6F6164735C4D53746F75
:1037FC007279332E305C4C69627261726965735CEC
:10380C0053544D3332463130785F53746450657283
:10381C006970685F4472697665725C7372635C731D
:10382C00746D3332663130785F6770696F2E630068
:10383C00433A5C55736572735C41646D696E697370
:10384C00747261746F725C446F776E6C6F616473C9
:10385C005C4D53746F7279332E305C4C69627261BB
:10386C00726965735C53544D3332463130785F5313
:10387C0074645065726970685F4472697665725CD5
:10388C007372635C73746D3332663130785F72635C
:10389C00632E6300433A5C55736572735C41646DCF
:1038AC00696E6973747261746F725C446F776E6C5D
:1038BC006F6164735C4D53746F7279332E305C4C52
:1038CC0069627261726965735C53544D333246316F
:1038DC0030785F5374645065726970685F447269C4
:1038EC007665725C7372635C73746D3332663130FF
:1038FC00785F63616E2E6300303132333435363786
:10390C00383961626364656600000000303132331F
:10391C0034353637383941424344454600000000BF
:10392C0062756720696E2076667072696E74663A8D
:10393C00206261642062617365000000286E756C02
:10394C006C29000043000000432D5554462D3800CF
:10395C00432D534A49530000432D4555434A5000CB
:08396C00432D4A4953000000FD
:103974001A03530054004D0033003200310030006C
:1039840000000000000000000000000054310008A6
:10399400090000006B310008A20000000D3200088D
:1039A400040000001132000826000000373200082D
:1039B40020000000000000201A000000423100082E
:1039C400290000003031000812000000151B000817
:1039D400651A0008091900080D19000811190008D2
:1039E40099190008791900082D1A00081D1A0008F1
:1039F400F919000800000000400000000201000066
:103A0400691E00083D1A0008691E0008691E0008A6
:103A1400691E0008691E0008691E0008691E000866
:103A2400FD18000800000000010203040102030461
:103A34000607080902040608CC0000200000000064
:103A44000000000000000000000000000000000072
:103A540000000000000000000000000050390008D1
:103A64000000000000000000000000000000000052
:103A74000000000000000000000000000000000042
:103A84000000000000000000000000000000000032
:103A94000000000000000000000000000000000022
:103AA4000000000000000000000000000000000012
:103AB4000000000000000000000000000000000002
:103AC40000000000000000000000000000000000F2
:103AD40000000000000000000000000000000000E2
:103AE40000000000000000000000000000000000D2
:103AF40000000000000000000000000000000000C2
:103B040000000000000000000000000000000000B1
:103B140000000000000000000000000000000000A1
:103B24000000000000000000000000000100000090
:0C3B340043000000000000000000000042
:040000050800010CE2
:00000001FF
