:020000040800F2
:10000000000002206D2E0008CD2C0008DB2C00081B
:10001000E12C0008E72C0008ED2C0008000000008F
:10002000000000000000000000000000F32C0008A9
:10003000012D0008000000000F2D00081D2D0008F4
:10004000BD2E0008BD2E0008BD2E0008BD2E0008E4
:10005000BD2E0008BD2E0008BD2E0008BD2E0008D4
:10006000BD2E0008BD2E0008BD2E0008BD2E0008C4
:10007000BD2E0008BD2E0008BD2E0008BD2E0008B4
:10008000BD2E0008BD2E0008BD2E0008BD2E0008A4
:10009000BD2E0008BD2E0008BD2E0008BD2E000894
:1000A000BD2E0008BD2E0008BD2E0008BD2E000884
:1000B000BD2E0008BD2E0008BD2E0008BD2E000874
:1000C000BD2E0008BD2E0008BD2E0008BD2E000864
:1000D000BD2E0008BD2E0008BD2E00082D2D0008E5
:1000E000BD2E0008BD2E0008BD2E0008BD2E000844
:1000F000BD2E0008BD2E0008BD2E0008BD2E000834
:10010000BD2E0008BD2E0008BD2E0008BD2E000823
:10011000BD2E0008BD2E0008BD2E0008BD2E000813
:10012000BD2E0008BD2E0008BD2E0008BD2E000803
:10013000BD2E0008BD2E0008BD2E0008BD2E0008F3
:10014000BD2E0008BD2E0008BD2E0008BD2E0008E3
:10015000BD2E0008BD2E0008BD2E0008BD2E0008D3
:10016000BD2E0008BD2E0008BD2E0008BD2E0008C3
:10017000BD2E0008BD2E0008BD2E000800000000A6
:08018000BD2E0008BD2E000891
:1001880010B5054C237833B9044B13B10448AFF3C9
:1001980000800123237010BDDC0100200000000056
:1001A800A049000808B5034B1BB103490348AFF346
:1001B800008008BD00000000E0010020A049000800
:1001C800034613F8012B002AFBD1181A013870478F
:1001D80081F0004102E000BF83F0004330B54FEAF0
:1001E80041044FEA430594EA050F08BF90EA020F5D
:1001F8001FBF54EA000C55EA020C7FEA645C7FEAF0
:10020800655C00F0E2804FEA5454D4EB5555B8BF12
:100218006D420CDD2C4480EA020281EA030382EA83
:10022800000083EA010180EA020281EA0303362D15
:1002380088BF30BD11F0004F4FEA01314FF4801CE8
:100248004CEA113102D0404261EB410113F0004FFA
:100258004FEA03334CEA133302D0524263EB4303B1
:1002680094EA050F00F0A780A4F10104D5F1200E4F
:100278000DDB02FA0EFC22FA05F2801841F10001AA
:1002880003FA0EF2801843FA05F359410EE0A5F17E
:1002980020050EF1200E012A03FA0EFC28BF4CF0AF
:1002A800020C43FA05F3C01851EBE37101F0004565
:1002B80007D54FF0000EDCF1000C7EEB00006EEB72
:1002C8000101B1F5801F1BD3B1F5001F0CD34908FC
:1002D8005FEA30004FEA3C0C04F101044FEA445253
:1002E80012F5800F80F09A80BCF1004F08BF5FEADA
:1002F800500C50F1000041EB045141EA050130BDBA
:100308005FEA4C0C404141EB010111F4801FA4F15C
:100318000104E9D191F0000F04BF01460020B1FAB1
:1003280081F308BF2033A3F10B03B3F120020CDAE9
:100338000C3208DD02F1140CC2F10C0201FA0CF0C7
:1003480021FA02F10CE002F11402D8BFC2F1200C2C
:1003580001FA02F120FA0CFCDCBF41EA0C019040E2
:10036800E41AA2BF01EB0451294330BD6FEA04042B
:100378001F3C1CDA0C340EDC04F11404C4F1200216
:1003880020FA04F001FA02F340EA030021FA04F328
:1003980045EA030130BDC4F10C04C4F1200220FA7F
:1003A80002F001FA04F340EA0300294630BD21FABD
:1003B80004F0294630BD94F0000F83F4801306BF83
:1003C80081F480110134013D4EE77FEA645C18BF77
:1003D8007FEA655C29D094EA050F08BF90EA020F0E
:1003E80005D054EA000C04BF1946104630BD91EA06
:1003F800030F1EBF0021002030BD5FEA545C05D109
:100408004000494128BF41F0004130BD14F5800447
:100418003CBF01F5801130BD01F0004545F0FE41BB
:1004280041F470014FF0000030BD7FEA645C1ABFF0
:10043800194610467FEA655C1CBF0B46024650EA27
:10044800013406BF52EA033591EA030F41F4002153
:1004580030BD00BF90F0000F04BF0021704730B5D9
:100468004FF4806404F132044FF000054FF00001AE
:1004780050E700BF90F0000F04BF0021704730B56F
:100488004FF4806404F1320410F0004548BF404244
:100498004FF000013EE700BF42004FEAE2014FEA99
:1004A80031014FEA02701FBF12F07F4393F07F4F74
:1004B80081F06051704792F0000F14BF93F07F4FA6
:1004C800704730B54FF4607401F0004521F00041E9
:1004D80020E700BF50EA010208BF704730B54FF06F
:1004E80000050AE050EA010208BF704730B511F074
:1004F800004502D5404261EB41014FF4806404F1AC
:1005080032045FEA915C3FF4DCAE4FF003025FEA2D
:10051800DC0C18BF03325FEADC0C18BF033202EBB5
:10052800DC02C2F1200300FA03FC20FA02F001FA0F
:1005380003FE40EA0E0021FA02F11444C1E600BFAE
:1005480070B54FF0FF0C4CF4E06C1CEA11541DBF61
:100558001CEA135594EA0C0F95EA0C0F00F0DEF82C
:100568002C4481EA030621EA4C5123EA4C5350EA11
:10057800013518BF52EA033541F4801143F4801362
:1005880038D0A0FB02CE4FF00005E1FB02E506F0F3
:100598000042E0FB03E54FF00006E1FB03569CF048
:1005A800000F18BF4EF0010EA4F1FF04B6F5007F4E
:1005B80064F5407404D25FEA4E0E6D4146EB0606C0
:1005C80042EAC62141EA55514FEAC52040EA5E5049
:1005D8004FEACE2EB4F1FD0C88BFBCF5E06F1ED8F3
:1005E800BEF1004F08BF5FEA500E50F1000041EB2A
:1005F800045170BD06F0004646EA010140EA0200D7
:1006080081EA0301B4EB5C04C2BFD4EB0C0541EAF8
:10061800045170BD41F480114FF0000E013C00F30D
:10062800AB8014F1360FDEBF002001F0004170BD31
:10063800C4F10004203C35DA0C341BDC04F114044A
:10064800C4F1200500FA05F320FA04F001FA05F2D6
:1006580040EA020001F0004221F0004110EBD370A3
:1006680021FA04F642EB06015EEA430E08BF20EACF
:10067800D37070BDC4F10C04C4F1200500FA04F372
:1006880020FA05F001FA04F240EA020001F0004104
:1006980010EBD37041F100015EEA430E08BF20EA77
:1006A800D37070BDC4F1200500FA05F24EEA020EBF
:1006B80020FA04F301FA05F243EA020321FA04F0EE
:1006C80001F0004121FA04F220EA020000EBD370A5
:1006D8005EEA430E08BF20EAD37070BD94F0000FA5
:1006E8000FD101F00046400041EB010111F4801FD9
:1006F80008BF013CF7D041EA060195F0000F18BF8A
:10070800704703F00046520043EB030313F4801FC5
:1007180008BF013DF7D043EA0603704794EA0C0F7F
:100728000CEA135518BF95EA0C0F0CD050EA410695
:1007380018BF52EA4306D1D181EA030101F0004112
:100748004FF0000070BD50EA410606BF104619463A
:1007580052EA430619D094EA0C0F02D150EA013646
:1007680013D195EA0C0F05D152EA03361CBF104687
:1007780019460AD181EA030101F0004141F0FE4126
:1007880041F470014FF0000070BD41F0FE4141F4AA
:10079800780170BD70B54FF0FF0C4CF4E06C1CEAAA
:1007A80011541DBF1CEA135594EA0C0F95EA0C0F5F
:1007B80000F0A7F8A4EB050481EA030E52EA03351A
:1007C8004FEA013100F088804FEA03334FF080553B
:1007D80045EA131343EA12634FEA022245EA111568
:1007E80045EA10654FEA00260EF000419D4208BF19
:1007F800964244F1FD0404F5407402D25B084FEAC6
:100808003202B61A65EB03055B084FEA32024FF471
:1008180080104FF4002CB6EB020E75EB030E22BFCE
:10082800B61A754640EA0C005B084FEA3202B6EB8E
:10083800020E75EB030E22BFB61A754640EA5C003D
:100848005B084FEA3202B6EB020E75EB030E22BFCD
:10085800B61A754640EA9C005B084FEA3202B6EBCE
:10086800020E75EB030E22BFB61A754640EADC008D
:1008780055EA060E18D04FEA051545EA16754FEAEF
:1008880006164FEAC30343EA52734FEAC2025FEA0D
:100898001C1CC0D111F4801F0BD141EA00014FF09C
:1008A80000004FF0004CB6E711F4801F04BF01436D
:1008B8000020B4F1FD0C88BFBCF5E06F3FF6AFAE89
:1008C800B5EB030C04BFB6EB020C5FEA500C50F119
:1008D800000041EB045170BD0EF0004E4EEA11319C
:1008E80014EB5C04C2BFD4EB0C0541EA045170BDA3
:1008F80041F480114FF0000E013C90E645EA060EE7
:100908008DE60CEA135594EA0C0F08BF95EA0C0F14
:100918003FF43BAF94EA0C0F0AD150EA01347FF45C
:1009280034AF95EA0C0F7FF425AF104619462CE733
:1009380095EA0C0F06D152EA03353FF4FDAE104696
:10094800194622E750EA410618BF52EA43067FF4E7
:10095800C5AE50EA41047FF40DAF52EA43057FF477
:10096800EBAE12E74FF0FF3C06E000BF4FF0010C82
:1009780002E000BF4FF0010C4DF804CD4FEA410CE6
:100988007FEA6C5C4FEA430C18BF7FEA6C5C1BD0B3
:1009980001B050EA410C0CBF52EA430C91EA030F34
:1009A80002BF90EA020F0020704710F1000F91EA91
:1009B800030F58BF994208BF90422CBFD8176FEA5F
:1009C800E37040F0010070474FEA410C7FEA6C5C2D
:1009D80002D150EA013C07D14FEA430C7FEA6C5C34
:1009E800D6D152EA033CD3D05DF8040B704700BF60
:1009F8008446104662468C461946634600E000BFAE
:100A080001B5FFF7B7FF002848BF10F1000F01BD7F
:100A18004DF808EDFFF7F4FF0CBF012000205DF84A
:100A280008FB00BF4DF808EDFFF7EAFF34BF0120CF
:100A380000205DF808FB00BF4DF808EDFFF7E0FF68
:100A480094BF012000205DF808FB00BF4DF808EDB9
:100A5800FFF7CEFF94BF012000205DF808FB00BF20
:100A68004DF808EDFFF7C4FF34BF012000205DF802
:100A780008FB00BF4FEA410C7FEA6C5C02D150EAE8
:100A8800013C0AD14FEA430C7FEA6C5C02D152EA7E
:100A9800033C02D14FF0000070474FF0010070474F
:100AA8004FEA410212F5001215D211D56FF478738E
:100AB800B3EB625212D94FEAC12343F0004343EA31
:100AC800505311F0004F23FA02F018BF404270470C
:100AD8004FF00000704750EA013005D111F0004096
:100AE80008BF6FF0004070474FF00000704700BF2C
:100AF80053B94AB9002908BF00281CBF4FF0FF317D
:100B08004FF0FF3000F07AB9ADF1080C6DE904CE72
:100B180000F006F8DDF804E0DDE9022304B07047D0
:100B28002DE9F0478C460D460446089E002B51D10E
:100B38008A4217466DD9B2FA82FEBEF1000F0BD079
:100B4800CEF1200C01FA0EF520FA0CFC02FA0EF791
:100B58004CEA050C00FA0EF44FEA174A250CBCFBC8
:100B6800FAF81FFA87F90AFB18CC45EA0C4508FB86
:100B780009F3AB420AD9ED1908F1FF3280F023815D
:100B8800AB4240F22081A8F102083D44ED1AA4B21C
:100B9800B5FBFAF00AFB105544EA054400FB09F9D5
:100BA800A14509D9E41900F1FF3380F00A81A14574
:100BB80040F2078102383C44A4EB090440EA0840AB
:100BC8000021002E61D024FA0EF4002334607360F3
:100BD800BDE8F0878B4207D9002E54D0002186E863
:100BE80021000846BDE8F087B3FA83F1002940F0F8
:100BF8008E80AB4202D3824200F2FA80841A65EBFF
:100C080003050120AC46002E3FD086E81010BDE851
:100C1800F08712B90127B7FBF2F7B7FA87FEBEF1E2
:100C2800000F34D1EB1B3A0C1FFA87FC0121B3FBF0
:100C3800F2F8250C02FB183345EA03450CFB08F3D0
:100C4800AB4207D9ED1908F1FF3002D2AB4200F2EE
:100C5800D1808046ED1AA3B2B5FBF2F002FB105525
:100C680043EA05440CFB00FCA44507D9E41900F14C
:100C7800FF3302D2A44500F2B8801846A4EB0C0456
:100C880040EA08409DE731463046BDE8F087CEF19E
:100C9800200405FA0EF307FA0EF720FA04F83A0CC6
:100CA80025FA04F448EA0308B4FBF2F14FEA1845C0
:100CB80002FB11441FFA87FC45EA044501FB0CF3CB
:100CC800AB4200FA0EF409D9ED1901F1FF3080F0BA
:100CD8008A80AB4240F2878002393D44EB1A1FFA02
:100CE80088F5B3FBF2F002FB103345EA034500FB3D
:100CF8000CF3AB4207D9ED1900F1FF386FD2AB42C4
:100D08006DD902383D44EB1A40EA01418FE7C1F141
:100D1800200722FA07F88B4005FA01F448EA030392
:100D280020FA07FE4FEA134CFD404EEA040EB5FBCD
:100D3800FCF94FEA1E440CFB19551FFA83F844EAE4
:100D4800054509FB08F4AC4202FA01F200FA01FA7F
:100D580008D9ED1809F1FF3043D2AC4241D9A9F1C5
:100D680002091D442D1B1FFA8EFEB5FBFCF00CFB7F
:100D780010554EEA054400FB08F8A04507D9E418C9
:100D880000F1FF3529D2A04527D902381C4440EA92
:100D98000940A4EB0804A0FB02894C45C6464D4611
:100DA80015D312D056B1BAEB0E0364EB050404FA5E
:100DB80007F7CB401F43CC40376074600021BDE883
:100DC800F0871846F8E69046E0E6C245EAD2B8EB66
:100DD800020E69EB03050138E4E72846D7E74046E9
:100DE80091E78146BEE7014678E702383C4445E78B
:100DF800084608E7A8F102083D442BE7704700BF02
:100E080080B500AF0E4A0E4B1B6843F400731360A5
:100E18000B4A0B4B1B6843F480631360084A084B6A
:100E28001B6843F480731360032000F025F9002049
:100E380000F008F801F0F4FE0023184680BD00BF5A
:100E4800003C024080B582B000AF7860124B1A684F
:100E5800124B1B7819464FF47A73B3FBF1F3B2FBCC
:100E6800F3F3184600F03DF90346002B01D00123A7
:100E78000EE07B680F2B0AD8002279684FF0FF300C
:100E880000F005F9064A7B681360002300E001239F
:100E980018460837BD4680BD080000200400002021
:100EA8000000002080B400AF064B1B781A46064BA2
:100EB8001B681344044A136000BFBD465DF8047BF9
:100EC800704700BF040000200402002080B400AF77
:100ED800034B1B681846BD465DF8047B704700BF8E
:100EE8000402002080B485B000AF78607B6803F00E
:100EF8000703FB600C4BDB68BB60BA684FF6FF0367
:100F08001340BB60FB681A02BB68134343F0BF631E
:100F180043F40033BB60044ABB68D36000BF143796
:100F2800BD465DF8047B704700ED00E080B400AF7B
:100F3800044BDB681B0A03F007031846BD465DF83F
:100F4800047B704700ED00E080B483B000AF034637
:100F5800FB71094997F907305B09FA7902F01F021A
:100F6800012000FA02F241F8232000BF0C37BD46E9
:100F78005DF8047B704700BF00E100E080B483B0F7
:100F880000AF03463960FB7197F90730002B0BDA85
:100F98000D49FB7903F00F03043B3A68D2B2120102
:100FA800D2B20B441A7609E0084997F907303A6833
:100FB800D2B21201D2B20B4483F8002300BF0C371F
:100FC800BD465DF8047B704700ED00E000E100E0FD
:100FD80080B489B000AFF860B9607A60FB6803F04C
:100FE8000703FB61FB69C3F10703042B28BF042334
:100FF800BB61FB690433062B02D9FB69033B00E0A4
:1010080000237B610122BB6902FA03F35A1EBB6805
:101018001A407B699A4001217B6901FA03F3591E42
:101028007B680B40134318462437BD465DF8047BA4
:101038007047000080B582B000AF78607B68013BE4
:10104800B3F1807F01D301230FE00A4A7B68013B9B
:1010580053600F214FF0FF30FFF790FF054B002240
:101068009A60044B07221A60002318460837BD46C9
:1010780080BD00BF10E000E080B582B000AF7860AE
:101088007868FFF72FFF00BF0837BD4680BD80B5E1
:1010980086B000AF0346B9607A60FB7300237B61BA
:1010A800FFF744FF78617A68B9687869FFF790FFBD
:1010B800024697F90F3011461846FFF75FFF00BF49
:1010C8001837BD4680BD80B582B000AF0346FB71BE
:1010D80097F907301846FFF737FF00BF0837BD46B6
:1010E80080BD80B582B000AF78607868FFF7A2FF56
:1010F800034618460837BD4680BD000080B483B05B
:1011080000AF78607B68042B06D1094A084B1B683E
:1011180043F00403136005E0054A054B1B6823F000
:101128000403136000BF0C37BD465DF8047B7047AD
:1011380010E000E080B500AF00F002F800BF80BD0D
:1011480080B400AF00BFBD465DF8047B704780B433
:1011580083B000AF78607B6893F83530DBB2022B40
:1011680004D07B6880225A6501230CE07B68052245
:1011780083F835207B681B687A681268126822F049
:1011880001021A60002318460C37BD465DF8047B3F
:101198007047000080B489B000AF786039600023E0
:1011A8007B6100233B610023BB610023FB616BE192
:1011B8000122FB6902FA03F37B613B681A687B69C9
:1011C80013403B613A697B699A4240F05A813B6817
:1011D8005B68022B03D03B685B68122B23D1FB6949
:1011E800DA087B68083253F82230BB61FB6903F0E8
:1011F80007039B000F2202FA03F3DB43BA6913408B
:10120800BB613B681A69FB6903F007039B0002FA9C
:1012180003F3BA691343BB61FB69DA087B680832D8
:10122800B96943F822107B681B68BB61FB695B00E6
:10123800032202FA03F3DB43BA691340BB613B683C
:101248005B6803F00302FB695B0002FA03F3BA6907
:101258001343BB617B68BA691A603B685B68012B02
:101268000BD03B685B68022B07D03B685B68112B8F
:1012780003D03B685B68122B30D17B689B68BB61ED
:10128800FB695B00032202FA03F3DB43BA691340EC
:10129800BB613B68DA68FB695B0002FA03F3BA6971
:1012A8001343BB617B68BA699A607B685B68BB6102
:1012B8000122FB6902FA03F3DB43BA691340BB61FD
:1012C8003B685B681B0903F00102FB6902FA03F340
:1012D800BA691343BB617B68BA695A607B68DB688B
:1012E800BB61FB695B00032202FA03F3DB43BA69C3
:1012F8001340BB613B689A68FB695B0002FA03F321
:10130800BA691343BB617B68BA69DA603B685B689A
:1013180003F08053002B00F0B4800023FB605F4A89
:101328005E4B5B6C43F4804353645C4B5B6C03F42F
:101338008043FB60FB685A4AFB699B08023352F8FA
:101348002330BB61FB6903F003039B000F2202FA01
:1013580003F3DB43BA691340BB617B68514A93428C
:101368002BD07B68504A934225D07B684F4A9342E2
:101378001FD07B684E4A934219D07B684D4A9342EE
:1013880013D07B684C4A93420DD07B684B4A9342FA
:1013980007D07B684A4A934201D107230EE008230D
:1013A8000CE006230AE0052308E0042306E00323F3
:1013B80004E0022302E0012300E00023FA6902F0BE
:1013C800030292009340BA691343BB613449FB6935
:1013D8009B080233BA6941F823203A4B1B68BB616A
:1013E8003B69DB43BA691340BB613B685B6803F444
:1013F8008033002B03D0BA693B691343BB61314A80
:10140800BB6913602F4B5B68BB613B69DB43BA69FF
:101418001340BB613B685B6803F40033002B03D0C7
:10142800BA693B691343BB61264ABB695360254BC4
:101438009B68BB613B69DB43BA691340BB613B688E
:101448005B6803F48013002B03D0BA693B6913432C
:10145800BB611C4ABB6993601A4BDB68BB613B6983
:10146800DB43BA691340BB613B685B6803F4001354
:10147800002B03D0BA693B691343BB61114ABB69AE
:10148800D360FB690133FB61FB690F2B7FF690AEDC
:1014980000BF2437BD465DF8047B70470038024022
:1014A80000380140000002400004024000080240E9
:1014B800000C0240001002400014024000180240D4
:1014C800001C0240003C014080B483B000AF78604B
:1014D8000B467B8013467B707B78002B03D07A8881
:1014E8007B689A6103E07B881A047B689A6100BF75
:1014F8000C37BD465DF8047B7047000080B586B0A8
:1015080000AF78607B68002B01D101232DE27B6856
:101518001B6803F00103002B75D0A34B9B6803F0F5
:101528000C03042B0CD0A04B9B6803F00C03082B76
:1015380012D19D4B5B6803F48003B3F5800F0BD188
:10154800994B1B6803F40033002B5BD07B685B6806
:10155800002B57D1012308E27B685B68B3F5803F15
:1015680006D1914A904B1B6843F4803313601DE009
:101578007B685B68B3F5A02F0CD18B4A8A4B1B683C
:1015880043F480231360884A874B1B6843F48033F5
:1015980013600BE0844A844B1B6823F48033136088
:1015A800814A814B1B6823F4802313607B685B6846
:1015B800002B13D0FFF78AFC386108E0FFF786FCA0
:1015C80002463B69D31A642B01D90323CDE1764B3C
:1015D8001B6803F40033002BF0D014E0FFF776FC0F
:1015E800386108E0FFF772FC02463B69D31A642BA6
:1015F80001D90323B9E16C4B1B6803F40033002BBA
:10160800F0D100E000BF7B681B6803F00203002BE9
:1016180063D0654B9B6803F00C03002B0BD0624B27
:101628009B6803F00C03082B1CD15F4B5B6803F429
:101638008003002B16D15C4B1B6803F00203002BC0
:1016480005D07B68DB68012B01D001238DE1564969
:10165800554B1B6823F0F8027B681B69DB001343BA
:101668000B603AE07B68DB68002B20D04F4B0122EF
:101678001A60FFF72BFC386108E0FFF727FC0246E9
:101688003B69D31A022B01D903236EE1464B1B6831
:1016980003F00203002BF0D04349434B1B6823F0AF
:1016A800F8027B681B69DB0013430B6015E03F4BB6
:1016B80000221A60FFF70AFC386108E0FFF706FC11
:1016C80002463B69D31A022B01D903234DE1364B5D
:1016D8001B6803F00203002BF0D17B681B6803F042
:1016E8000803002B30D07B685B69002B16D0304B89
:1016F80001221A60FFF7EAFB386108E0FFF7E6FB12
:1017080002463B69D31A022B01D903232DE1264B4C
:101718005B6F03F00203002BF0D015E0244B00228E
:101728001A60FFF7D3FB386108E0FFF7CFFB0246EA
:101738003B69D31A022B01D9032316E11A4B5B6FBD
:1017480003F00203002BF0D17B681B6803F004034D
:10175800002B00F0A0800023FB75134B1B6C03F0DB
:101768008053002B0FD10023FB600F4A0E4B1B6CDC
:1017780043F0805313640C4B1B6C03F08053FB60E5
:10178800FB680123FB750B4B1B6803F48073002B6C
:1017980021D1084A074B1B6843F480731360FFF795
:1017A80095FB386111E000BF003802400000474255
:1017B800800E474200700040FFF788FB02463B69F5
:1017C800D31A022B01D90323CFE06A4B1B6803F419
:1017D8008073002BF0D07B689B68012B06D1664A8A
:1017E800654B1B6F43F0010313671CE07B689B6824
:1017F800052B0CD1604A604B1B6F43F00403136741
:101808005D4A5D4B1B6F43F0010313670BE05A4AB7
:10181800594B1B6F23F001031367574A564B1B6F35
:1018280023F0040313677B689B68002B15D0FFF730
:101838004DFB38610AE0FFF749FB02463B69D31AC2
:1018480041F28832934201D903238EE04A4B1B6F41
:1018580003F00203002BEED014E0FFF737FB3861EA
:101868000AE0FFF733FB02463B69D31A41F288329C
:10187800934201D9032378E03F4B1B6F03F0020327
:10188800002BEED1FB7D012B05D13B4A3A4B1B6C5B
:1018980023F0805313647B689B69002B64D0364B1C
:1018A8009B6803F00C03082B5CD07B689B69022BB8
:1018B80041D1324B00221A60FFF708FB386108E07B
:1018C800FFF704FB02463B69D31A022B01D9032315
:1018D8004BE0294B1B6803F00073002BF0D126491D
:1018E8007B68DA697B681B6A1A437B685B6A9B01C1
:1018F8001A437B689B6A5B08013B1B041A437B689D
:10190800DB6A1B0613434B601C4B01221A60FFF76E
:10191800DDFA386108E0FFF7D9FA02463B69D31AC5
:10192800022B01D9032320E0134B1B6803F000733B
:10193800002BF0D018E0114B00221A60FFF7C6FA0E
:10194800386108E0FFF7C2FA02463B69D31A022B56
:1019580001D9032309E0084B1B6803F00073002B2F
:10196800F0D101E0012300E0002318461837BD46F6
:1019780080BD00BF00700040003802406000474250
:1019880080B584B000AF786039607B68002B01D1E6
:101998000123CAE0674B1B6803F00F023B689A42B9
:1019A8000CD2644B3A68D2B21A70624B1B6803F0CF
:1019B8000F023B689A4201D00123B6E07B681B689E
:1019C80003F00203002B20D07B681B6803F004039C
:1019D800002B05D0584A584B9B6843F4E05393605A
:1019E8007B681B6803F00803002B05D0524A524B52
:1019F8009B6843F4604393604F494F4B9B6823F0C7
:101A0800F0027B689B6813438B607B681B6803F05C
:101A18000103002B44D07B685B68012B07D1464B40
:101A28001B6803F40033002B19D101237DE07B6888
:101A38005B68022B03D07B685B68032B07D13E4BA6
:101A48001B6803F00073002B09D101236DE03A4BAA
:101A58001B6803F00203002B01D1012365E036491E
:101A6800354B9B6823F003027B685B6813438B60EC
:101A7800FFF72CFAF8600AE0FFF728FA0246FB683D
:101A8800D31A41F28832934201D903234DE02A4BFD
:101A98009B6803F00C027B685B689B009A42EBD161
:101AA800244B1B6803F00F023B689A420CD9214B68
:101AB8003A68D2B21A701F4B1B6803F00F023B68DA
:101AC8009A4201D0012330E07B681B6803F00403CD
:101AD800002B08D01849184B9B6823F4E0527B6808
:101AE800DB6813438B607B681B6803F00803002BDB
:101AF80009D01149104B9B6823F460427B681B692D
:101B0800DB0013438B6000F01DF801460A4B9B680D
:101B18001B0903F00F03094AD35C21FA03F3084AAF
:101B280013600020FFF78EF9002318461037BD46D2
:101B380080BD00BF003C024000380240D849000880
:101B4800080000202DE9F04F8FB000AF0023FB62A2
:101B580000237B630023BB6200233B63624B9B68CB
:101B680003F00C03042B07D0082B08D0002B40F0FF
:101B7800B2805E4B3B63B1E05D4B3B63AEE05A4BDA
:101B88005B6803F03F03FB62574B5B6803F4800319
:101B9800002B4ED0544B5B689B094FF0000440F279
:101BA800FF114FF0000201EA030102EA04020B46AA
:101BB800144660017862786A40EAD36078625B0113
:101BC8003B62D7E908345B1A64EB02044FEA8419D4
:101BD80049EA93694FEA8318B8EB030869EB0409EB
:101BE8004FEAC903FB61FB6943EA5873FB614FEA9B
:101BF800C803BB61D7E9068918EB010849EB02095C
:101C08004FEA49237B617B6943EAD8537B614FEAFA
:101C180048233B61D7E9048940464946FB6A4FF0AF
:101C280000041A462346FEF763FF03460C467B630F
:101C380043E02D4B5B689B094FF0000440F2FF1115
:101C48004FF0000201EA030102EA04020B461446BF
:101C58006001F860F86840EAD360F8605B01BB6037
:101C6800D7E902345B1A64EB0204A60146EA9366DC
:101C78009D01ED1A66EB0406F3007B607B6843EA7E
:101C880055737B60EB003B6097E860006D1846EB8E
:101C980002064FEA862B4BEA955B4FEA852A5546A2
:101CA8005E4628463146FB6A4FF000041A46234632
:101CB800FEF71EFF03460C467B630B4B5B681B0C51
:101CC80003F0030301335B00BB627A6BBB6AB2FBB0
:101CD800F3F33B6302E0054B3B6300BF3B6B1846E5
:101CE8003C37BD46BDE8F08F003802400024F400C0
:101CF80000127A0080B400AF034B1B681846BD463B
:101D08005DF8047B704700BF0800002080B500AF75
:101D1800FFF7F0FF0146054B9B689B0A03F007039A
:101D2800034AD35C21FA03F3184680BD0038024009
:101D3800E849000880B500AFFFF7DCFF0146054B16
:101D48009B685B0B03F00703034AD35C21FA03F398
:101D5800184680BD00380240E849000880B582B0C6
:101D680000AF78607B68002B01D101233FE07B68DE
:101D780093F83930DBB2002B06D17B68002283F858
:101D88003820786801F03CF87B68242283F83920F1
:101D98007B681B687A681268D26822F40052DA609D
:101DA800786800F07FFB7B681B687A6812681269A4
:101DB80022F490421A617B681B687A68126852693B
:101DC80022F02A025A617B681B687A681268D26816
:101DD80042F40052DA607B680022DA637B682022D2
:101DE80083F839207B68202283F83A20002318469C
:101DF8000837BD4680BD80B588B002AFF860B960CD
:101E08003B601346FB8000237B61FB6893F8393005
:101E1800DBB2202B40F08280BB68002B02D0FB880D
:101E2800002B01D101237AE0FB6893F83830012BAD
:101E380001D1022373E0FB68012283F83820FB6894
:101E48000022DA63FB68212283F83920FFF73EF885
:101E58007861FB68FA889A84FB68FA88DA8441E03A
:101E6800FB68DB8C9BB2013B9AB2FB68DA84FB68A7
:101E78009B68B3F5805F21D13B6800937B690022A2
:101E88008021F86800F0ACF90346002B01D0032349
:101E980045E0BB683B61FB681B683A691288C2F37E
:101EA80008025A60FB681B69002B03D1BB68023328
:101EB800BB6017E0BB680133BB6013E03B6800936D
:101EC8007B6900228021F86800F08AF90346002B1C
:101ED80001D0032323E0FB681A68BB68591CB9606A
:101EE8001B785360FB68DB8C9BB2002BB8D13B6836
:101EF80000937B6900224021F86800F071F90346DD
:101F0800002B01D003230AE0FB68202283F8392044
:101F1800FB68002283F83820002300E002231846DB
:101F28001837BD4680BD80B485B000AFF860B96091
:101F38001346FB80FB6893F83A30DBB2202B38D18C
:101F4800BB68002B02D0FB88002B01D1012331E0B4
:101F5800FB6893F83830012B01D102232AE0FB6893
:101F6800012283F83820FB68BA689A62FB68FA880D
:101F78009A85FB68FA88DA85FB680022DA63FB68D1
:101F8800222283F83A20FB68002283F83820FB6875
:101F98001B68FA681268526942F001025A61FB68CC
:101FA8001B68FA681268D26842F49072DA600023FB
:101FB80000E0022318461437BD465DF8047B7047DD
:101FC80080B588B000AF78607B681B681B68FB61D0
:101FD8007B681B68DB68BB617B681B685B697B612E
:101FE80000233B610023FB60FB6903F00F033B61A7
:101FF8003B69002B0DD1FB6903F02003002B08D0AF
:10200800BB6903F02003002B03D0786800F0D1F9F6
:10201800CCE03B69002B00F0AB807B6903F0010347
:10202800002B05D1BB6903F49073002B00F0A0804E
:10203800FB6903F00103002B0AD0BB6903F480732A
:10204800002B05D07B68DB6B43F001027B68DA6309
:10205800FB6903F00403002B0AD07B6903F001033A
:10206800002B05D07B68DB6B43F002027B68DA63E8
:10207800FB6903F00203002B0AD07B6903F001031C
:10208800002B05D07B68DB6B43F004027B68DA63C6
:10209800FB6903F00803002B0AD07B6903F00103F6
:1020A800002B05D07B68DB6B43F008027B68DA63A2
:1020B8007B68DB6B002B78D0FB6903F02003002BD7
:1020C80007D0BB6903F02003002B02D0786800F02A
:1020D80070F97B681B685B6903F04003002B14BF31
:1020E80001230023DBB2FB607B68DB6B03F0080392
:1020F800002B02D1FB68002B31D0786800F0BAF8C9
:102108007B681B685B6903F04003002B23D07B6866
:102118001B687A681268526922F040025A617B682B
:102128005B6B002B13D07B685B6B224A1A657B685C
:102138005B6B1846FFF70BF80346002B16D07B683D
:102148005B6B1B6D7A68526B104698470EE0786897
:1021580000F03CF80AE0786800F038F806E07868A3
:1021680000F034F87B680022DA631EE000BF1CE050
:10217800FB6903F08003002B08D0BB6903F08003E0
:10218800002B03D0786800F0A7F80FE0FB6903F094
:102198004003002B0AD0BB6903F04003002B05D095
:1021A800786800F0EEF800BF00E000BF2037BD46B9
:1021B80080BD00BFB922000880B483B000AF78604A
:1021C80000BF0C37BD465DF8047B704780B483B010
:1021D80000AF786000BF0C37BD465DF8047B7047E0
:1021E80080B584B000AFF860B9603B601346FB71FE
:1021F8002CE0BB69B3F1FF3F28D0BB69002B07D0A7
:10220800FEF764FE02463B68D21ABB699A421DD9A2
:10221800FB681B68FA681268D26822F4D072DA6028
:10222800FB681B68FA681268526922F001025A6159
:10223800FB68202283F83920FB68202283F83A20A3
:10224800FB68002283F8382003230FE0FB681B6833
:102258001A68BB681A40BB689A420CBF0123002366
:10226800DBB21A46FB799A42C3D0002318461037CE
:10227800BD4680BD80B483B000AF78607B681B68C2
:102288007A681268D26822F49072DA607B681B68F8
:102298007A681268526922F001025A617B6820222A
:1022A80083F83A2000BF0C37BD465DF8047B7047C1
:1022B80080B584B000AF78607B689B6BFB60FB687F
:1022C8000022DA85FB680022DA84F868FFF77EFFCF
:1022D80000BF1037BD4680BD80B485B000AF7860C0
:1022E8007B6893F83930DBB2212B43D17B689B683C
:1022F800B3F5805F19D17B681B6AFB607B681B683C
:10230800FA681288C2F308025A607B681B69002BBE
:1023180005D17B681B6A9A1C7B681A620EE07B6891
:102328001B6A5A1C7B681A6208E07B681A687B681B
:102338001B6A581C796808621B7853607B68DB8CC1
:102348009BB2013B9BB27A681946D184002B0FD10E
:102358007B681B687A681268D26822F08002DA60AB
:102368007B681B687A681268D26842F04002DA60BB
:10237800002300E0022318461437BD465DF8047BAD
:10238800704780B582B000AF78607B681B687A6858
:102398001268D26822F04002DA607B68202283F853
:1023A80039207868FFF708FF002318460837BD462C
:1023B80080BD80B584B000AF78607B6893F83A3010
:1023C800DBB2222B69D17B689B68B3F5805F23D190
:1023D8007B689B6AFB607B681B69002B0ED17B685E
:1023E8001B685B689BB2C3F308039AB2FB681A8048
:1023F8007B689B6A9A1C7B689A6229E07B681B68E9
:102408005B689BB2DBB29AB2FB681A807B689B6AF6
:102418005A1C7B689A621BE07B681B69002B0AD1F7
:102428007B689B6A591C7A6891627A68126852685C
:10243800D2B21A700CE07B689B6A591C7A68916268
:102448007A6812685268D2B202F07F02D2B21A7069
:102458007B68DB8D9BB2013B9BB27A681946D185BC
:10246800002B18D17B681B687A681268D26822F43E
:102478009072DA607B681B687A681268526922F089
:1024880001025A617B68202283F83A20786800F0BC
:10249800A3FB002302E0002300E0022318461037C4
:1024A800BD4680BDF0B585B000AF78600023FB6005
:1024B8007B681B681B69FB60FB6823F44053FB6067
:1024C8007B68DB68FA681343FB607B681B68FA6803
:1024D8001A617B681B68DB68FB60FB6823F41643A2
:1024E80023F00C03FB607B689A687B681B691A43BE
:1024F8007B685B691A437B68DB691343FA6813439B
:10250800FB607B681B68FA68DA607B681B685B693C
:10251800FB60FB6823F44073FB607B689B69FA6887
:102528001343FB607B681B68FA685A617B68DB6948
:10253800B3F5004F40F0E4807B681B68AB4A9342D8
:1025480004D07B681B68AA4A93426CD17B681C68DC
:10255800FFF7F0FB024613469B0013449A001A4407
:102568007B685B685B00B2FBF3F3A24AA2FB032320
:102578005B091D01FFF7DEFB024613469B0013446F
:102588009A001A447B685B685B00B2FBF3F6FFF7BE
:10259800D1FB024613469B0013449A001A447B68F9
:1025A8005B685B00B2FBF3F3924AA2FB03235B096F
:1025B800642202FB03F3F31ADB0032338D4AA2FBD9
:1025C80003235B095B0003F4F8731D44FFF7B2FBB8
:1025D800024613469B0013449A001A447B685B68C2
:1025E8005B00B2FBF3F6FFF7A5FB024613469B0020
:1025F80013449A001A447B685B685B00B2FBF3F3F0
:102608007C4AA2FB03235B09642202FB03F3F31A4F
:10261800DB003233774AA2FB03235B0903F007038D
:102628002B44A36054E17B681C68FFF76FFB0246EC
:1026380013469B0013449A001A447B685B685B004E
:10264800B2FBF3F36B4AA2FB03235B091D01FFF7FF
:102658005DFB024613469B0013449A001A447B68AC
:102668005B685B00B2FBF3F6FFF750FB02461346CC
:102678009B0013449A001A447B685B685B00B2FBBA
:10268800F3F35C4AA2FB03235B09642202FB03F316
:10269800F31ADB003233574AA2FB03235B095B00C2
:1026A80003F4F8731D44FFF731FB024613469B0001
:1026B80013449A001A447B685B685B00B2FBF3F62C
:1026C800FFF724FB024613469B0013449A001A4462
:1026D8007B685B685B00B2FBF3F3464AA2FB03230B
:1026E8005B09642202FB03F3F31ADB003233414A2D
:1026F800A2FB03235B0903F007032B44A360E7E075
:102708007B681B68394A934204D07B681B68384A47
:10271800934271D17B681C68FFF70CFB0246134695
:102728009B0013449A001A447B685B689B00B2FBC9
:10273800F3F3304AA2FB03235B091D01FFF7FAFA02
:10274800024613469B0013449A001A447B685B6850
:102758009B00B2FBF3F6FFF7EDFA024613469B0027
:1027680013449A001A447B685B689B00B2FBF3F33E
:10277800204AA2FB03235B09642202FB03F3F31A3A
:102788001B0132331B4AA2FB03235B0903F0F0034E
:102798001D44FFF7CFFA024613469B0013449A00E4
:1027A8001A447B685B689B00B2FBF3F6FFF7C2FA3A
:1027B800024613469B0013449A001A447B685B68E0
:1027C8009B00B2FBF3F30B4AA2FB03235B096422D1
:1027D80002FB03F3F31A1B013233064AA2FB03235D
:1027E8005B0903F00F032B44A36071E00010014064
:1027F800001401401F85EB517B681C68FFF786FABF
:10280800024613469B0013449A001A447B685B688F
:102818009B00B2FBF3F3304AA2FB03235B091D01C3
:10282800FFF774FA024613469B0013449A001A44B1
:102838007B685B689B00B2FBF3F6FFF767FA02461A
:1028480013469B0013449A001A447B685B689B00FC
:10285800B2FBF3F3204AA2FB03235B09642202FBC9
:1028680003F3F31A1B0132331B4AA2FB03235B0950
:1028780003F0F0031D44FFF749FA024613469B0094
:1028880013449A001A447B685B689B00B2FBF3F61A
:10289800FFF73CFA024613469B0013449A001A4479
:1028A8007B685B689B00B2FBF3F30B4AA2FB032334
:1028B8005B09642202FB03F3F31A1B013233064A55
:1028C800A2FB03235B0903F00F032B44A360FFE77C
:1028D80000BF1437BD46F0BD1F85EB5180B58AB0E7
:1028E80000AF00233B61544A534B1B6B43F010036A
:1028F8001363514B1B6B03F010033B613B690023CF
:10290800FB604D4A4C4B1B6B43F0040313634A4B6B
:102918001B6B03F00403FB60FB680023BB60464AA3
:10292800454B1B6B43F080031363434B1B6B03F056
:102938008003BB60BB6800237B603F4A3E4B1B6B38
:1029480043F0020313633C4B1B6B03F002037B60F1
:102958007B6800233B60384A374B1B6B43F0080306
:102968001363354B1B6B03F008033B603B68002285
:1029780021213248FEF7A8FD00224FF4E0413048FB
:10298800FEF7A2FD002240212E48FEF79DFD0823F8
:102998007B610023BB610023FB6107F11403194627
:1029A8002948FEF7F7FB4FF400437B610023BB6126
:1029B8000023FB6107F1140319462248FEF7EAFBDE
:1029C80021237B610123BB610023FB6100233B6260
:1029D80007F1140319461948FEF7DCFB4FF482632C
:1029E8007B610023BB610023FB6107F114031946D7
:1029F8001348FEF7CFFB4FF4E0437B610123BB6133
:102A08000023FB6100233B6207F1140319460C48BD
:102A1800FEF7C0FB40237B610123BB610023FB6100
:102A280000233B6207F1140319460648FEF7B2FB80
:102A380000BF2837BD4680BD003802400004024070
:102A4800000C0240000802400010024080B582B02D
:102A580000AFFEF7D5F900F03DF8FFF73FFF00F0B3
:102A6800A1F900F0ADF8012240211448FEF72CFD31
:102A7800012201211248FEF727FD012220211048DA
:102A8800FEF722FD01224FF480510E48FEF71CFD8F
:102A980001224FF400510B48FEF716FD01224FF4B6
:102AA80080410848FEF710FD012207490748FFF753
:102AB8003AFA0023FB71064B3B60FEE70008024030
:102AC80000040240000C0240080200200C02002012
:102AD800B6F39D3F80B594B000AF0023BB60344A85
:102AE800334B1B6C43F080531364314B1B6C03F066
:102AF8008053BB60BB6800237B602E4A2D4B1B684C
:102B080043F4804313602B4B1B6803F480437B60C2
:102B18007B6801233B624FF480337B620223BB63F3
:102B28004FF48003FB6304233B64A8237B640223E4
:102B3800BB640423FB6407F120031846FEF7DEFCA0
:102B48000346002B03D0A2211B4800F063F80F2393
:102B5800FB6002233B6100237B614FF4A053BB6100
:102B68004FF48053FB6107F10C0305211846FEF76B
:102B780007FF0346002B03D0B0210F4800F04AF8A6
:102B8800FFF7B8F802460D4BA3FB02239B09184632
:102B9800FEF7A7FA0420FEF7B1FA002200214FF051
:102BA800FF30FEF774FA00BF5037BD4680BD00BF46
:102BB8000038024000700040B8490008D34D621048
:102BC80080B500AF002200212720FEF760FA2720F9
:102BD800FEF779FA00BF80BD80B582B000AF78609B
:102BE8007B681B68084A93420AD1012207490848B2
:102BF800FFF799F90A23012204490548FFF7FBF872
:102C080000BF0837BD4680BD0048004008020020CC
:102C18000C02002080B483B000AF78603960FEE712
:102C280080B582B000AF00237B60254A244B5B6CE3
:102C380043F480435364224B5B6C03F480437B6012
:102C48007B6800233B601E4A1D4B1B6C43F080537E
:102C580013641B4B1B6C03F080533B603B680320E1
:102C6800FEF70AFA002200216FF00B00FEF70FFAB8
:102C7800002200216FF00A00FEF709FA0022002165
:102C88006FF00900FEF703FA002200216FF004003C
:102C9800FEF7FDF9002200216FF00300FEF7F7F9B7
:102CA800002200216FF00100FEF7F1F90022002157
:102CB8004FF0FF30FEF7EBF900BF0837BD4680BD87
:102CC8000038024080B400AF00BFBD465DF8047B09
:102CD800704780B400AFFEE780B400AFFEE780B471
:102CE80000AFFEE780B400AFFEE780B400AF00BFDE
:102CF800BD465DF8047B704780B400AF00BFBD4699
:102D08005DF8047B704780B400AF00BFBD465DF836
:102D1800047B704780B500AFFEF7C4F8FEF70AFAE7
:102D280000BF80BD80B500AF0248FFF749F900BF7A
:102D380080BD00BF0C02002080B400AF164A164BBD
:102D4800D3F8883043F47003C2F88830134A134B21
:102D58001B6843F001031360104B00229A600F4A6E
:102D68000E4B1B6823F0847323F4803313600B4BE2
:102D78000B4A5A60094A094B1B6823F480231360E5
:102D8800064B0022DA60044B4FF000629A6000BFE5
:102D9800BD465DF8047B704700ED00E00038024056
:102DA8001030002480B500AF124B134A1A60114B43
:102DB8004FF4E1325A600F4B00229A600D4B00220B
:102DC800DA600C4B00221A610A4B0C225A61094B3B
:102DD80000229A61074B0022DA610648FEF7BEFF1F
:102DE8000346002B03D042210448FFF713FF00BF1E
:102DF80080BD00BF0C02002000480040C849000800
:102E080080B588B000AF78607B681B68124A93422F
:102E18001ED10023BB60114A104B1B6C43F4802366
:102E280013640E4B1B6C03F48023BB60BB684FF428
:102E38004073FB6002233B6101237B610323BB6179
:102E48000723FB6107F10C0319460548FEF7A2F9B1
:102E580000BF2037BD4680BD004800400038024012
:102E6800000C0240DFF834D0002103E00C4B5B5823
:102E7800435004310B480C4B42189A42F6D30B4A84
:102E880002E0002342F8043B094B9A42F9D3FFF7CA
:102E980053FF00F011F8FFF7D9FD7047000002203A
:102EA800284C000800000020DC010020DC01002084
:102EB80050020020FEE7000070B50D4E0D4CA41B1B
:102EC800A4100025A54209D10B4E0C4C01F064FD5D
:102ED800A41BA4100025A54205D170BD56F82530C5
:102EE80098470135EEE756F8253098470135F2E75F
:102EF800204C0008204C0008204C0008244C0008F6
:102F08002DE9FF4755EC104B0D9FDDF830A0002D43
:102F18000E4691461946B8BF22462B4627F0200791
:102F2800BBBF05F100431D4600232D23B8BF14463F
:102F3800462F0B7004D0452F00D10136022100E046
:102F4800032103AB019302AB00933246534645EC91
:102F5800104B00F0ADFB472F804602D119F0010F4E
:102F680026D0462F08EB060911D198F80030302BEF
:102F78000AD10022002320462946FDF749FD18B949
:102F8800C6F10106CAF80060DAF800309944002258
:102F9800002320462946FDF73BFD38B93022039B24
:102FA800994505D9591C03911A70F8E7CDF80C908A
:102FB800039B0E9AA3EB08034046136004B0BDE8D8
:102FC800F087F7B503460029B8BF494203F8022B3A
:102FD800B4BF2D222B220929427020DD0DF10702F2
:102FE80017460A2691FBF6F506FB15113031092D17
:102FF80002F8011C02F1FF34294609DC3031023A9B
:1030080004F8011CBA421C4604D3201A03B0F0BDD0
:103018002246E7E712F8011B03F8011BF2E730220A
:103028001C46114404F8022B5970EEE72DE9F04FC5
:103038008DB00C46DDF8588016461F46054601F04F
:1030480005F9036804931846FDF7BAF800230A93B4
:10305800D8F800300590073323F0070303F108027E
:1030680094F818A0D4F800B0C8F80020D3E90023D9
:10307800C4E91223D4E9128929F000430793CDF853
:1030880018804FF0FF32A54BDDE90601FDF7F2FC91
:10309800002840F0FB814FF0FF32A04BDDE906012C
:1030A800FDF7CAFC002840F0F181002200234046C9
:1030B8004946FDF7B7FC10B12D2384F84330984BEF
:1030C800984ABAF1470F8CBF9046984603232BF0D5
:1030D8000402236122604FF00009009733460BAACF
:1030E8002146284600F0E2F9013040F093804FF085
:1030F800FF300DB0BDE8F08F61684B1C4BF4806267
:103108003FD106236360002303930AAB029309AB04
:10311800009349EC108B0DF123032260CDF804A035
:1031280061682846FFF7ECFE0AF0DF03472B80466C
:1031380009D1099BD81C02DB6268934257DDAAF1CA
:10314800020A5FFA8AFABAF1650F099934D8013987
:10315800524604F150000991FFF733FF0A9A831889
:10316800012A8146236102DC2268D10701D5013397
:1031780023619DF82330002BAFD02D2384F84330F2
:10318800ABE7BAF1670F02D0BAF1470FBBD189B1EB
:10319800002303930AAB029309AB009349EC108B0D
:1031A8002260CDF804A00DF123032846FFF7A8FEFE
:1031B8008046BEE70123A5E7BAF1660F19D10029B9
:1031C80063680CDD216113B92268D20702D5013387
:1031D8000B442361099BA3654FF00009C9E713B9A4
:1031E8002268D00701D50233F3E70123F1E74FF056
:1031F800670A099B0A9A934205DB22682361D10773
:10320800E8D50133E5E7002BD4BFC3F1020301235E
:103218001344DEE723685A0507D42369424631463A
:103228002846B84701302BD161E7BAF1650F40F263
:10323800E28000220023D4E91201FDF7E9FB00280F
:103248003CD00123384A31462846B84701303FF47C
:103258004EAF0A9B099A9A4202DB2368D8070FD51A
:10326800059B049A31462846B84701303FF43FAFE2
:103278004FF0000804F11A090A9B013B984512DB3C
:1032880023689B0709D54FF0000804F11909E36882
:103298000B9A9B1A9845C0F2EE80E0680B9B984207
:1032A800B8BF184625E701234A4631462846B8479D
:1032B80001303FF41CAF08F10108DDE7099B002B42
:1032C80034DC0123184A31462846B84701303FF418
:1032D8000EAF099B23B90A9B13B92368D907CFD529
:1032E800059B049A31462846B84701303FF4FFAEA3
:1032F8004FF0000904F11A0A099B5B42994501DB6A
:103308000A9B8BE70123524631462846B8470130CD
:103318003FF4EDAE09F10109EEE700BFFFFFEF7FD3
:10332800F0490008F4490008004A00080A9AA36D09
:103338009A42A8BF1A46002A914638DC04F11A03BB
:103348004FF0000B29EAE9790693D4F858A0AAEBC4
:1033580009039B4533DB0A9B099A9A423ADB2368A7
:10336800DA0737D40A9B0999A3EB0A02A3EB0109F0
:103378009145A8BF9146B9F1000F33DC4FF0000822
:1033880029EAE97904F11A0A099A0A9B9B1AA3EB1C
:1033980009039845BFF674AF0123524631462846C3
:1033A800B84701303FF4A3AE08F10108ECE7134633
:1033B800314642462846B8470130BFD197E6012337
:1033C800069A31462846B84701303FF490AE0BF1D3
:1033D800010BBAE7059B049A31462846B8470130E5
:1033E800C0D184E64B4608EB0A0231462846B84766
:1033F8000130C3D17BE60A9A012A01DCDB0737D505
:103408000123424631462846B84701303FF46FAEA3
:10341800059B049A31462846B84701303FF467AE09
:1034280000220023D4E91201FDF7F2FA58B14FF057
:10343800000804F11A0A0A9B013B98450DDB4B462C
:1034480004F15002EBE60A9B08F10102013B314608
:103458002846B8470130F2D149E6012352463146A1
:103468002846B84701303FF442AE08F10108E2E7C8
:1034780001234246EBE701234A4631462846B8472E
:1034880001303FF434AE08F1010800E742464B46EC
:1034980040464946FDF7EEFA00283FF42DAE014BB1
:1034A800014A0EE6F8490008FC4900082DE9F047F2
:1034B80091461F468A680B69DDF820809342B8BFA1
:1034C8001346C9F8003091F8432006460C4612B15D
:1034D8000133C9F800302368990642BFD9F8003093
:1034E8000233C9F80030256815F0060507D104F144
:1034F800190AE368D9F800209B1A9D4229DB94F841
:1035080043302268003318BF012392062ED404F1F9
:10351800430239463046C047013021D02368E56868
:10352800D9F8002003F00603042B08BFAD1AA368DE
:1035380022690CBF25EAE57500259342C4BF9B1A92
:10354800ED184FF000091A344D451BD10020BDE895
:10355800F0870123524639463046C047013003D12F
:103568004FF0FF30BDE8F0870135C2E7E1185A1C7B
:10357800302081F84300224494F8451082F8431023
:103588000233C4E70123224639463046C04701309A
:10359800E6D009F10109D7E72DE9F74F03690C696E
:1035A8009C42804600F38280013C01F114074FEAF7
:1035B800840E00F1140657F8245056F8240006EB40
:1035C8000E03013507EB0E090193B0FBF5F595B332
:1035D8004FF0000A3846B446D34650F8042B93B24D
:1035E80005FB03A34FEA134A9BB2ABEB0303120C90
:1035F800BCF800B005FB02A213FA8BF34FEA124A9B
:103608001FFA82FBDCF80020CBEB124202EB2342CC
:103618009BB243EA024381454FEA224B4CF8043BF4
:10362800DBD256F80E3033B9019B043B9E421A4652
:1036380030D3C8F81040404601F033F8002825DBA5
:10364800013530464FF0000E57F8042BD0F800C073
:1036580093B2AEEB0303120C13FA8CF3C2EB1C42C9
:1036680002EB23429BB243EA0243B9454FEA224E9A
:1036780040F8043BE8D256F8242006EB84032AB924
:10368800043B9E421A460BD3C8F81040284603B0A4
:10369800BDE8F08F1268043B002ACAD1013CC5E797
:1036A8001268043B002AEFD1013CEAE70020EEE76C
:1036B8002DE9F04F57EC106B97B0CDE90067466ADB
:1036C800079104460A920F93209D3EB9102000F0FE
:1036D800CBFD6062466086600660C660636A1968F2
:1036E80051B15A684A60012393408B60204600F02C
:1036F80002FE636A00221A60019B002BBFBF0123F0
:103708002B60019B23F00043B2BF019300232B6081
:10371800DDF80480A84B33EA08031BD10F9A42F264
:103728000F731360009B23B9C8F31300002800F03F
:103738007885219B53B9A14B21E0A14B0293083313
:10374800219A1360029817B0BDE8F08F9B4B029343
:103758000333F5E7DDE900670022002330463946E8
:10376800FDF756F9814660B10F9A01231360219B3A
:10377800002B00F05385934B219A1360013B029371
:10378800E0E714AA15A947EC106B204601F001F8F0
:10379800C8F30A558246002D7ED0C7F3130343F0C1
:1037A8007F51304641F44011A5F2FF35CDF84890DD
:1037B8000022854BFCF710FD79A3D3E90023FCF721
:1037C800BFFE79A3D3E90023FCF708FD0646284687
:1037D8000F46FCF74FFE76A3D3E90023FCF7B0FEB3
:1037E80002460B4630463946FCF7F8FC06460F46BB
:1037F800FDF756F900228346002330463946FDF787
:1038080011F958B15846FCF735FE02460B463046CA
:103818003946FDF7FDF808B90BF1FF3BBBF1160F70
:1038280059D86A4901EBCB01DDE90023D1E9000150
:10383800FDF716F9002850D00BF1FF3B00230E933B
:10384800149B5D1B6B1E069345BFC5F101030593D1
:10385800002300234CBF06930593BBF1000F3EDB0A
:10386800069BCDF82CB05B44069300230893079B76
:10387800092B00F2AF80052BC4BF043B0793079BBD
:10388800A3F10203CCBF00260126032B00F2AE8071
:10389800DFE803F082842F77159B149D1D4405F201
:1038A8003243202B11DD009A05F21240C3F1400388
:1038B80022FA00F008FA03F31843FCF7CBFD0123C2
:1038C800A1F1F871013D129372E7C3F12000009B4A
:1038D80003FA00F0F1E70123B1E70E90B0E7059B8A
:1038E800A3EB0B030593CBF10003089300230B9381
:1038F800BDE7012309930A9B002B7ADD0493039308
:10390800656A00226A60042101F114029A4275D99D
:103918006968204600F0BBFC636A28601B68029354
:10392800039B0E2B00F2E580002E00F0E2809DED57
:10393800007BBBF1000F8DED0C7B74DD234A0BF08F
:103948000F034FEA2B1602EBC303F006D3E90089F5
:1039580059D51F4B51EC170BD3E90823FCF71AFF75
:10396800CDE9000106F00F060325194F002E4CD1B2
:1039780042464B46DDE90001FCF70CFFCDE90001AA
:103988006AE0012309930A9B5B4404930133012BEA
:103998000393B8BF0123B3E70023ABE70023F1E7A4
:1039A80061436F63A787D23FB3C8608B288AC63F3D
:1039B800FB799F501344D33F0000F07F0B4A000867
:1039C800024A0008014A00080000F83F384A000887
:1039D800104A000801260023079309964FF0FF3389
:1039E80004930393002212230A9289E7012309937F
:1039F800F4E70123049303931A46F5E76A68013252
:103A08006A60490080E70225AFE7F10708D540461C
:103A18004946D7E90023FCF793FD013580468946DE
:103A280076100837A2E700F09D80CBF100069F4B87
:103A38009F4F06F00F0203EBC203D3E90023DDE931
:103A48000C01FCF77DFDCDE90001361100230225AC
:103A5800002E7CD1002B91D10E9B002B00F084808E
:103A6800DDE900890022934B40464946FCF7DAFF1E
:103A7800002879D0039B002B76D0049B002B34DDE3
:103A880000228D4B40464946FCF75AFDCDE900011E
:103A9800049E0BF1FF3701352846FCF7EBFCDDE906
:103AA8000023FCF74DFD0022844BFCF797FB804672
:103AB800A1F15079002E5AD10022814BDDE9000195
:103AC800FCF78AFB42464B46CDE90001FCF7C8FFEC
:103AD800002840F09B82424609F10043DDE90001DD
:103AE800FCF7A0FF002840F08F82DDE90C23CDE928
:103AF8000023159B002BC0F25081BBF10E0F00F381
:103B08004C816A4B03EBCB03D3E900890A9B002B5A
:103B180080F2DA80039B002B00F3D68040F073829A
:103B28000022674B40464946FCF70AFDDDE90023C1
:103B3800FCF78CFF039E3746002840F04A82029B20
:103B4800029A5D1C312313700BF1010B45E2F20759
:103B580005D5D7E90023FCF7F3FC013501237610DE
:103B6800083775E7022577E75F46039E94E7029AD0
:103B78004E4B32441392099A711E002A48D003EB27
:103B8800C103D3E9002300204E49FCF703FE424657
:103B98004B46FCF721FB029D80468946DDE9000182
:103BA800FCF77EFF0646FCF765FC02460B46DDE99E
:103BB8000001FCF711FB303605F8016B42464B4615
:103BC800CDE90001FCF72EFF002865D1DDE90023CF
:103BD80000203849FCF700FB42464B46FCF722FF21
:103BE800002840F0BA80139B9D423FF47EAF00222C
:103BF800314B40464946FCF7A3FC002280468946E3
:103C08002D4BDDE90001FCF79BFCCDE90001C5E780
:103C180003EBC10142464B46D1E90001FCF790FC99
:103C2800CDE91001029DDDE90001FCF739FF0646E8
:103C3800FCF720FC303602460B46DDE90001FCF7B4
:103C4800CBFA05F8016B139BAB42804689464FF0CF
:103C5800000225D11B4BDDE91001FCF7BFFA024633
:103C68000B4640464946FCF7FBFE002875D1DDE9C6
:103C7800102300201349FCF7AFFA02460B464046D2
:103C88004946FCF7CFFE00283FF42FAF15F8013C5A
:103C9800302B05F1FF3201D0BB464DE01546F5E764
:103CA800054BFCF74DFCCDE90001BCE7384A00089C
:103CB800104A00080000F03F0000244000001C40AB
:103CC800000014400000E03FDDE90067029D424625
:103CD8004B4630463946FCF75DFDFCF7E1FE0090A7
:103CE800FCF7C8FB42464B46FCF72AFC02460B464B
:103CF80030463946FCF770FA009E039F303605F8C7
:103D0800016B029EAE1BB74202460B4638D1FCF748
:103D180065FA06460F4602460B4640464946FCF7FA
:103D280081FEC8B932463B4640464946FCF770FE1C
:103D380010B1009BDB070FD45146204600F0DBFA98
:103D480000230F9A2B700BF101031360219B002BAA
:103D58003FF4F8AC1D60F5E45F4615F8012C392AEC
:103D680005F1FF3306D1029A9A4207D13023137026
:103D7800013713461A7801321A708DE71D46ECE7B1
:103D88000022A44BFCF7DCFB0022002306460F466A
:103D9800FCF73EFE00289AD0CEE7099A002A00F0E8
:103DA800CD80079A012A00F3AF80129A002A00F00A
:103DB800A78003F23343089E059D059A1A4405928D
:103DC800069A01211A442046069200F034FB074661
:103DD800002D0CDD069B002B09DDAB42059AA8BF20
:103DE8002B46D21A0592069AED1AD31A0693089B07
:103DF800F3B1099B002B00F0A580002E10DD394699
:103E08003246204600F0AEFB5246014607462046A1
:103E180000F01AFB51468046204600F06CFAC24674
:103E2800089B9A1B04D05146204600F09BFB824613
:103E38000121204600F0FFFA0B9B002B064640F3B9
:103E480083801A460146204600F08CFB079B012B15
:103E580006467CDD4FF00008336906EB83031869DA
:103E680000F09BFAC0F12000069B184410F01F00D8
:103E780000F09680C0F12003042B40F38780059B57
:103E8800C0F11C0003440593069B054403440693B4
:103E9800059B002B05DD51461A46204600F0B0FB75
:103EA8008246069B002B05DD31461A46204600F067
:103EB800A7FB06460E9B002B74D03146504600F0F7
:103EC800F0FB00286EDA002351460A22204600F053
:103ED80029FA099B0BF1FF3B8246002B00F0A881D1
:103EE800002339460A22204600F01CFA049B002BC6
:103EF800074600F3C880079B022B40F3C48059E0B3
:103F0800149BC3F1360356E7039B5E1E089BB3421E
:103F1800BFBF089B0896F21A0B9BB6BF9B189E1B47
:103F28000B93039BB8BF0026002BB9BF059B039AD0
:103F3800059D039BBCBF9D1A00233EE7089E059D77
:103F4800099F45E7089A6EE7079B012B19DC009B40
:103F5800BBB9019BC3F313039BB9019B23F0004337
:103F68001B0D1B0583B1059B01330593069B01338C
:103F780006934FF001080B9B002B7FF46DAF0120D7
:103F880072E74FF00008F6E79846F4E780D0059A04
:103F98001C331A440592069A1A441D44134676E7C0
:103FA8000346F4E7039B002B36DC079B022B33DD2B
:103FB800039B0493049B63B931460522204600F015
:103FC800B1F901460646504600F06BFB00283FF762
:103FD800B6AD0A9B029D6FEA030B0023039331469B
:103FE800204600F088F9002F3FF4A6AE039B2BB1C2
:103FF800BB4203D01946204600F07DF939462046D9
:1040080000F079F998E600263746E2E7BB463746DE
:1040180095E500BF00002440099B93BB039B0493D4
:10402800029D31465046FFF7B7FA00F1300905F80E
:10403800019B029B049AEB1A9A4200F3DC80029BD4
:10404800012AACBF9B1801339846002303935146BD
:104058000122204600F0D4FA3146824600F021FBC6
:10406800002800F38D8003D119F0010F40F08880FB
:10407800454615F8013C302B05F1FF32AFD1154606
:10408800F7E7039B0493002D05DD39462A462046B1
:1040980000F0B6FA0746B8F1000F4CD07968204610
:1040A80000F0F5F83A6902320546920007F10C0172
:1040B8000C3000F0E1F801222946204600F0A0FA71
:1040C800009BDDF80880039703F00103074605937A
:1040D80031465046FFF760FA0399054600F130096A
:1040E800504600F0DEFA3A4600903146204600F08D
:1040F800F2FAC368024603BB01460690504600F038
:10410800D0FA069A034611462046069300F0F3F8C3
:10411800069BA3B9079A92B9059A82B9B9F1390FE2
:1041280029D0009B002B01DD05F1310908F10105BB
:1041380088F8009053E73846C2E70123E3E7009A7E
:10414800002A04DB25D1079A1ABB059A0ABB002B63
:10415800ECDD51460122204600F052FA31468246F3
:1041680000F09FFA002803DCE0D119F0010FDDD040
:10417800B9F1390FD8D1392388F8003008F101088E
:10418800454615F8013C392B05F1FF323BD0013388
:1041980040E0002B08F1010505DDB9F1390FEAD03F
:1041A80009F10109C4E7029B049A05F8019CEB1A7E
:1041B8009342A8463FF44BAF514600230A222046BB
:1041C80000F0B0F8039B0399BB4282464FF000030E
:1041D8004FF00A02204604D100F0A4F803900746E5
:1041E80076E700F09FF8002303900A22394620461C
:1041F80000F098F8F3E7514600230A22204600F021
:1042080091F882460DE7029B934205D1029A0BF181
:10421800010B31231370E2E61546B2E7094BFFF7AD
:10422800AEBA219B002B7FF488AA074BFFF7A7BAE9
:10423800049B002B3FF7F4AE079B022B7FF7F0AEF1
:10424800B8E600BF004A0008024A0008044B1B6891
:10425800186A044B002808BF1846F030704700BFA2
:104268000C00002070000020024B0146186800F086
:10427800EDBA00BF0C00002010B5431E0A4491425D
:1042880000D110BD11F8014B03F8014FF7E770B5E5
:10429800456A04460E463DB91020FFF7E5FF606207
:1042A800456085600560C560656AEB6883B1636ACF
:1042B800DB6853F82600B8B9012101FA06F56A1D32
:1042C8009200204600F0B4FA60B1466085600EE0C6
:1042D80021220421204600F0ABFA636AE860DB681B
:1042E800002BE4D1002070BD026843F8262000238B
:1042F8000361C36070BD70B5446A06460D463CB99B
:104308001020FFF7B1FF7062446084600460C460ED
:104318003DB1736A6A68DB6853F82210296043F874
:10432800225070BD2DE9F0410D691F4606460C4626
:1043380001F1140E0023DEF8000081B202FB0171C6
:104348000F0C000C02FB007089B2013301EB004135
:104358009D424FEA10474EF8041BECDCD7B1A36826
:104368009D4212DB616830460131FFF790FF2269F8
:10437800023204F10C01804692000C30FFF77CFFFA
:1043880021463046FFF7B7FF444604EB8503013565
:104398005F6125612046BDE8F081020C12040346E6
:1043A800B2B90304102013F07F4F04BF1B0208307A
:1043B80013F0704F04BF1B01043013F0404F04BFCB
:1043C8009B000230002B06DB5B0003D501307047F1
:1043D8000020E8E720207047036813F00702014631
:1043E8000BD0DA0723D4980749BF5B089B08012044
:1043F8000B605CBF0B600220704798B2A8B91B0C19
:10440800102013F0FF0F04BF1B0A08301A0704BF5F
:104418001B0904309A0704BF9B080230DA0702D44C
:104428005B0806D001300B6070471046E9E70020B2
:1044380070472020704710B50C460121FFF727FF71
:1044480001224461026110BD2DE9F74F14460A6943
:1044580023699A42B8BF0B468946BCBFA1461C4691
:10446800D9F81070D4F810A0D9F80830D9F8041089
:1044780007EB0A069E42C8BF0131FFF708FF00F1AB
:10448800140505EB86082B460022434516D304F194
:10449800140209F1140102EB8A0301EB8707019367
:1044A800019C944213460CD8002E03DD58F8043DB5
:1044B800002B54D0066103B0BDE8F08F43F8042BFD
:1044C800E3E7B3F800A00432BAF1000F20D0AE46FB
:1044D80089464FF0000C59F8044BBEF800B0A3B25F
:1044E8000AFB03B34FEA144BDEF8004063444FEA7B
:1044F800144C0AFB0BC404EB13449BB243EA044379
:104508004F454FEA144C4EF8043BE4D8CEF800C0AF
:1045180032F8029CB9F1000F1FD02B68AE468C46CA
:104528004FF0000ABCF80040BEF802B009FB04B422
:10453800A2449BB243EA0A434EF8043B5CF8043BAE
:10454800BEF800401B0C09FB034303EB1A43674505
:104558004FEA134AE6D8CEF800300435A0E7013E0A
:10456800A2E700002DE9F843154612F003020646BB
:104578000F4607D0013A214C002354F82220FFF7B8
:10458800D1FE0746AD1035D0746A3CB91020FFF74C
:104598006BFE7062446084600460C460D6F8248056
:1045A800D8F808404CB940F271213046FFF743FF74
:1045B8000023C8F80800044603604FF00008EB0722
:1045C8000AD5394622463046FFF73EFF394681462E
:1045D8003046FFF790FE4F466D100BD0206838B973
:1045E800224621463046FFF72FFF2060C0F80080A2
:1045F8000446E4E73846BDE8F88300BF004B0008EE
:104608002DE9F0470C464FEA621A236949680AEB1C
:104618000309A3680746164609F10105AB4231DBD9
:104628003846FFF734FE0022804600F11403114695
:1046380052452ADB20692AEAEA7A04F1140116F0C5
:104648001F0203EB8A0301EB800E22D0C2F1200C7B
:1046580000200E689640304343F8040B51F8040BD1
:104668008E4520FA0CF0F4D8186008B109F102055B
:10467800013D3846C8F810502146FFF73CFE404639
:10468800BDE8F08701315B00C8E743F8221001322A
:10469800CEE7043B51F8042B43F8042F8E45F9D894
:1046A800E6E703690A699B1A30B50CD19200143009
:1046B80014318418114454F8045D51F8042D9542BE
:1046C80003D005D30123184630BDA042F3D3FAE73F
:1046D8004FF0FF33F7E72DE9F0470D46074611463F
:1046E80028461446FFF7DDFF061E08D13146384636
:1046F800FFF7CDFD012303614661BDE8F087A4BF44
:1047080023462C4638466168A6BF1D46002601266A
:10471800FFF7BDFD2B69C660266905F1140904F190
:10472800140202EB860709EB830800F114054FF029
:10473800000C52F804AB59F8044B1CFA8AF1A3B2E6
:10474800C91A230CC3EB1A4303EB214389B24FEA7E
:10475800234CC84541EA0343964645F8043BE8D84C
:10476800BE4505D355F8043D8BB10661BDE8F08719
:104778005EF8041B1CFA81F31A1402EB11429BB277
:1047880043EA02434FEA224C45F8043BE8E7013E7E
:10479800E8E72DE9F7430E46012159EC108B154641
:1047A800FFF775FDC9F30A540746C9F3130334BB71
:1047B8000193B8F1000F27D002A840F8088DFFF741
:1047C8000BFE0099F0B1019AC0F1200302FA03F33D
:1047D8000B43C2407B610192019BBB61002B14BF5C
:1047E800022101213961C4B1A4F233440444346084
:1047F800C0F135002860384603B0BDE8F08343F4C3
:104808008013D5E77961E7E701A8FFF7E5FD019B8C
:104818007B61012139612030E5E707EB8103A0F2D4
:10482800324030601869FFF7B8FDC0EB4110E1E78E
:1048380038B502FB01F4214600F008F8054618B126
:104848002246002100F082F8284638BD70B5CD1CFC
:1048580025F0030508350C2D38BF0C25002D06461C
:1048680001DBA94203D90C233360002070BD00F09E
:1048780075F8234A1468214691B9224C23681BB95C
:10488800304600F041F820602946304600F03CF8F8
:10489800431C26D10C233360304600F060F8E4E76F
:1048A8000B685B1B1AD40B2B0FD90B60CD50CC189F
:1048B800304600F054F804F10B00231D20F00700E7
:1048C800C31A1BD05A42E25070BD8C420DBF6368B8
:1048D8004B686360136018BF0C46E9E70C464968EB
:1048E800CAE7C41C24F00304A04205D0211A3046AC
:1048F80000F00AF80130CDD02560D9E770BD00BFBF
:10490800F8010020FC01002038B5064C00230546BC
:104918000846236000F032F8431C02D1236803B133
:104928002B6038BD4C02002082B001B901A942B108
:104938004BB113780B601278101C18BF012002B01D
:1049480070471046FBE76FF00100F8E702440346A2
:10495800934200D1704703F8011BF9E7704770478D
:1049680049B1FF2A85BF8A2303600A704FF0FF30E0
:1049780098BF01207047084670470000044B19682B
:10498800024609B903491960186802441A60704759
:104998000002002050020020F8B500BFF8BC08BC97
:1049A8009E467047F8B500BFF8BC08BC9E467047E5
:1049B8002E2E5C5372635C6D61696E2E630000007D
:1049C8002E2E5C5372635C75736172742E630000E3
:1049D80000000000000000000102030406070809A7
:1049E8000000000001020304494E4600696E66009B
:1049F8004E414E006E616E003000496E66696E6908
:104A08007479004E614E00000080E03779C341435D
:104A1800176E05B5B5B89346F5F93FE9034F384D1C
:104A2800321D30F94877825A3CBF737FDD4F1575C8
:104A3800000000000000F03F0000000000002440DB
:104A480000000000000059400000000000408F40B6
:104A5800000000000088C34000000000006AF84021
:104A68000000000080842E4100000000D012634145
:104A78000000000084D797410000000065CDCD41BB
:104A8800000000205FA00242000000E8764837429C
:104A9800000000A2941A6D42000040E59C30A2423A
:104AA8000000901EC4BCD64200003426F56B0C43AF
:104AB8000080E03779C3414300A0D8855734764356
:104AC80000C84E676DC1AB43003D9160E458E143B7
:104AD800408CB5781DAF154450EFE2D6E41A4B442C
:104AE80092D54D06CFF08044F64AE1C7022DB54471
:104AF800B49DD9794378EA44050000001900000004
:104B08007D0000004300504F534958002E000020FC
:104B18002020202020202020282828282820202065
:104B28002020202020202020202020202020208815
:104B38001010101010101010101010101010100479
:104B480004040404040404040410101010101010C9
:104B580041414141414101010101010101010101BD
:104B680001010101010101010101101010101010D3
:104B7800424242424242020202020202020202028D
:104B880002020202020202020202101010102000A9
:104B9800000000000000000000000000000000000D
:104BA80000000000000000000000000000000000FD
:104BB80000000000000000000000000000000000ED
:104BC80000000000000000000000000000000000DD
:104BD80000000000000000000000000000000000CD
:104BE80000000000000000000000000000000000BD
:104BF80000000000000000000000000000000000AD
:104C0800000000000000000000000000000000009C
:084C180010BFFF7F0100000046
:044C2000AD010008DA
:044C240089010008FA
:104C280010000000010000000024F4001000002023
:104C3800000000000000000000000000000000006C
:104C4800000000000000000000000000000000005C
:104C5800000000000000000000000000000000004C
:104C6800000000000000000000000000000000003C
:104C7800000000000000000000000000000000002C
:104C8800000000000000000000000000000000001C
:104C980043000000000000000000000000000000C9
:104CA80000000000000000000000000000000000FC
:104CB80043000000000000000000000000000000A9
:104CC80000000000000000000000000000000000DC
:104CD8004300000000000000000000000000000089
:104CE80000000000000000000000000000000000BC
:104CF8004300000000000000000000000000000069
:104D0800000000000000000000000000000000009B
:104D18004300000000000000000000000000000048
:104D2800000000000000000000000000000000007B
:104D38004300000000000000000000000000000028
:104D4800000000000000000000000000000000005B
:104D58004300000000000000000000000000000008
:104D6800000000000000000000000000000000003B
:104D7800694900083149000800000000164B000886
:104D8800144B0008154B0008154B0008154B00087C
:104D9800154B0008154B0008154B0008154B00086B
:104DA800154B0008154B0008FFFFFFFFFFFFFFFF33
:104DB800FFFFFFFFFFFF0000010041534349490087
:104DC80000000000000000000000000000000000DB
:104DD8000000000000000000000041534349490062
:104DE80000000000000000000000000000000000BB
:0C4DF800000000000000000000000000AF
:0400000508002E6D54
:00000001FF
