:020000040800F2
:10000000000400208D680008313C0008353C0008E1
:10001000393C00083D3C0008413C0008000000005D
:10002000000000000000000000000000453C000847
:10003000493C0008000000004D3C0008513C00080D
:10004000593C00085D3C0008613C0008653C000824
:10005000693C00086D3C0008713C0008DD3C00086C
:100060004D3D0008513D0008553D0008593D000830
:10007000B53D0008B93D0008BD3D0008C13D000880
:10008000C53D0008C93D0008CD3D0008D13D000830
:10009000D53D0008153E0008193E00081D3E000829
:1000A000393E00083D3E0008413E0008453E00083C
:1000B000493E00084D3E0008513E0008553E0008EC
:1000C000593E00085D3E0008613E0008653E00089C
:1000D000693E00086D3E0008713E0008753E00084C
:0C00E000793E00087D3E0008813E0008CB
:1000EC002DE9F04FA5B016001C00DFF83426D2E93C
:1000FC000023CDE91223049004AD69600020A862AE
:10010C000DF150096FF0004B00E0BE190020ADF866
:10011C00020012AB4FF0FF3231000DF1020006F07D
:10012C0015FA0700012804DA3078471EBF41FF4357
:10013C00FF0FBDF80200252801D17A1E00E03A001D
:10014C00012A0ADB310002A801F04AF8002804D584
:10015C004FF0FF3025B0BDE8F08FBDF80200252828
:10016C0007D1002028616861A861E8612862686293
:10017C0005E00028C9D1A86AECE740F0010016F8A8
:10018C00011F2029F9D023290DD02B2904D02D298A
:10019C0006D030290BD00DE040F0020080B2EEE723
:1001AC0040F00400FAE740F0080080B2E7E740F0C6
:1001BC001000F3E72A290DD12268111D2160116866
:1001CC002963002904D54A422A6340F0040080B216
:1001DC00761C10E0002129630A2307E0296B59459E
:1001EC0003D001FB032130392963761C3278302A85
:1001FC0001D33A2AF2D331782E2903D04FF0FF31B4
:10020C00E9621BE016F8011F2A2906D12268111D8C
:10021C0021601168E962761C10E00021E9620A2372
:10022C0007E0E96A594503D001FB03213039E96243
:10023C00761C3278302A01D33A2AF2D3A886317848
:10024C00DFF8E00406F028FB08B116F8010B8DF876
:10025C0046009DF84600682806D1307868280CD1F5
:10026C0062208DF8460007E06C2806D130786C28A7
:10027C0003D171208DF84600761C14A8E86096F81E
:10028C0000C06046413800F0F080001F022840F2A8
:10029C00EC80133800F0A080093800F0E680801E56
:1002AC001AD0401E3DD0401E022840F2DE80001FB6
:1002BC0037D0401F00F01B81401E00F08D80401E87
:1002CC0000F05481C01E00F05F81801E00F084801D
:1002DC00C01E00F0818079E19DF846006C2809D0A1
:1002EC002869411C29612268111D2160116800F8E0
:1002FC00091075E12168081D2060086880B2ADF80E
:10030C0004000020ADF806004FF0FF30E86201A9B0
:10031C0002A800F009FA002840F162814FF0FF308A
:10032C005FE19DF846006C281BD071280BD120682A
:10033C00C01D072188432060014601F108002060A0
:10034C00D1E9002312E06A280BD12068C01D0721D7
:10035C0088432060014601F108002060D1E90023A8
:10036C0004E02168081D20600A68D3179DF8460038
:10037C00682801D112B207E0622801D152B203E021
:10038C00742801D07A2800D1D317002B06DC00DBAF
:10039C0004D228692D2100F809100FE0A88E10F066
:1003AC00020F04D028692B2100F8091006E010F088
:1003BC00010F06D02869202100F809102869401C7B
:1003CC002861286914A94018A860CDE90223614668
:1003DC0002A800F01BFB03E19DF846006C281BD023
:1003EC0071280BD12068C01D07218843206001466D
:1003FC0001F108002060D1E9002312E06A280BD13A
:10040C002068C01D072188432060014601F10800C7
:10041C002060D1E9002304E02168081D20600A68EF
:10042C0000239DF84600682801D192B207E06228AB
:10043C0001D1D2B203E0742801D07A2800D1002374
:10044C00A88E10F0080FBCD00BB9002AB9D04CF014
:10045C0020007828B5D12869302100F809102869C6
:10046C00401C286100F809C0A8E79DF846004C28FC
:10047C0020680AD1C01D072188432060014601F184
:10048C0008002060D1E9000109E0C01D0721884364
:10049C002060014601F108002060D1E90001CDE99E
:1004AC000201BDF80E0010F4004F04D028692D2174
:1004BC0000F809100FE0A88E10F0020F04D0286984
:1004CC002B2100F8091006E010F0010F06D0286966
:1004DC00202100F809102869401C2861286914A9FA
:1004EC004018A860614602A800F02AFB78E09DF84D
:1004FC00460062280CD068282AD06A2818D06C28AC
:10050C001FD071280BD074281BD07A2819D026E064
:10051C00A86A2268111D21601168087060E0A86A41
:10052C00C11723681A1D22601A68C2E9000157E03E
:10053C00A86AC11723681A1D22601A68C2E9000153
:10054C004EE02168081D20600868A96A016047E038
:10055C00A86A2268111D21601168088040E021689A
:10056C00081D20600868A96A016039E02168081D2F
:10057C0020600A6814A8A8604FF0FF3000211040DA
:10058C00CDE90201782123E79DF846006C2821680B
:10059C0013D0081D20600868A860EA6A002A02D5FA
:1005AC0005F034FE07E0002105F08EFA10B1A968C1
:1005BC00401A00E0E86A686112E0081D20600968D2
:1005CC0002A800F0B1F800280AD5A7E62869411C5A
:1005DC002961BCF1000F08BF4FF0250C00F809C0D1
:1005EC000020761C00287FF4B3AD286B2969401AD3
:1005FC00E969401A6969401A296A401AA969401ABE
:10060C00696A471AA88E10F0040F12D120208DF8B9
:10061C0000004FF00008012F0BDB012200A902A8FB
:10062C0000F0DEFD00287FF493AD08F10108B84519
:10063C00F3DB2A6914A902A800F0D2FD00287FF48C
:10064C0087AD30208DF80000D5F81CA04FF00008C5
:10065C00BAF1010F0BDB012200A902A800F0C0FDCA
:10066C0000287FF475AD08F10108D045F3DB6A6909
:10067C00A96802A800F0B4FD00287FF469AD302011
:10068C008DF80000D5F820A04FF00008BAF1010F4A
:10069C000BDB012200A902A800F0A2FD00287FF4C8
:1006AC0057AD08F10108D045F3DBAA696869A96860
:1006BC00411802A800F094FD00287FF449AD3020C9
:1006CC008DF80000D5F824A04FF00008BAF1010F06
:1006DC000BDB012200A902A800F082FD00287FF4A8
:1006EC0037AD08F10108D045F3DBA88E10F0040FEC
:1006FC003FF40CAD20208DF800004FF00008012FC6
:10070C00FFF604AD012200A902A800F069FD002843
:10071C007FF41EAD08F10108B845BFF6F7ACF1E760
:10072C0090700008987000082DE9F04F95B0050006
:10073C008B466E6B002E48BF6FF0004606F004FD32
:10074C00A96B40180190B048D0E90001CDE9030134
:10075C00A88F10F0040F02D10198412806D20DF198
:10076C001409402001900020029009E004F016FFCB
:10077C008146B9F1000FF6D14FF0FF3041E1361B45
:10078C00012EC0F2B88003AABBF800100DF10100D5
:10079C0005F06AFF040004D4BBF8000028B9641EFD
:1007AC0003D54FF0FF300290A5E0A642C0F2A38023
:1007BC00A86901992218914280F08E800021A963CA
:1007CC004142686A081AE969401AA96A401A296AFA
:1007DC00401AE96A471AA88F10F0040F11D1202093
:1007EC008DF800004FF00008012F0ADB012200A950
:1007FC00280000F0F5FC00286CD108F10108B84580
:10080C00F4DBAA694946280000F0EAFC002861D113
:10081C0030208DF80000D5F824A04FF00008BAF174
:10082C00010F0ADB012200A9280000F0D9FC0028E6
:10083C0050D108F10108D045F4DBEA692969280098
:10084C0000F0CEFC002845D130208DF80000D5F802
:10085C0028A04FF00008BAF1010F0ADB012200A911
:10086C00280000F0BDFC002834D108F10108D04567
:10087C00F4DB2A6AE86929694118280000F0B0FC09
:10088C0040BB30208DF80000D5F82CA04FF00008AC
:10089C00BAF1010F09DB012200A9280000F0A0FC2D
:1008AC00C0B908F10108D045F5DBA88F10F0040F92
:1008BC0010D020208DF800004FF00008012F09DB2C
:1008CC00012200A9280000F08BFC18B908F10108DE
:1008DC00B845F5DB0020A86122000DF10101A869E3
:1008EC00484405F089F8A8692018A8613BF8020B68
:1008FC0000287FF444AFA86BA969401A696A401AB2
:10090C00E969401AA96A401A296A401AE96A441A24
:10091C00A88F10F0040F0FD120208DF800000026B6
:10092C00012C09DB012200A9280000F059FC002849
:10093C005DD1761CA642F5DBAA694946280000F079
:10094C004FFC002853D130208DF800006E6A002730
:10095C00012E09DB012200A9280000F041FC00282F
:10096C0045D17F1CB742F5DBEA692969280000F004
:10097C0037FC00283BD130208DF80000AE6A0027F0
:10098C00012E09DB012200A9280000F029FC002817
:10099C002DD17F1CB742F5DB2A6AE8692969411819
:1009AC00280000F01DFC10BB30208DF80000EE6A12
:1009BC000027012E08DB012200A9280000F010FC02
:1009CC00A8B97F1CB742F6DBA88F10F0040F0ED02D
:1009DC0020208DF800000026012C08DB012200A944
:1009EC00280000F0FDFB10B9761CA642F6DB0020B7
:1009FC00A861A86305A881451CBF484604F0C4FE45
:100A0C00029815B0BDE8F08F707100082DE9FA4717
:100A1C0086B08046D8F8140000909DF818006F2816
:100A2C0002D14FF0080907E040F0200078280CBFF5
:100A3C004FF010094FF00A093C24D8E900010600D8
:100A4C000F009DF81820642A01D0692A09D10029C9
:100A5C0007DC00DB05D200200021801BB941060019
:100A6C000F001FB916B9D8F8340050B3651E2C000E
:100A7C004FEAE97ACDE9029A30003900DDE9022328
:100A8C0004F048FDCDE90401B246DDE90423DDE9BB
:100A9C000201A2FB00675046801B3030C0B23A28DE
:100AAC0003D39DF818105139081800996854DDE9E2
:100ABC00046707B92EB1D8F8100000996118884264
:100ACC00D4D3B9F1080F0CD1B8F83C0010F0080FD2
:100ADC0007D00098205C302803D0641E0098302189
:100AEC002154C4F13C00C8F81C0000996118C8F8E6
:100AFC001010D8F8341088420ADA081AC8F8240002
:100B0C00B8F83C004FF6EF710840A8F83C0014E030
:100B1C00002912D5B8F83C1001F0140110290CD1A1
:100B2C00D8F83810D8F81820891AD8F82420891A3F
:100B3C000C1A012CA8BFC8F8244008B0BDE8F087F7
:100B4C002DE9F24F8EB0060004AFD6E90001CDE9D5
:100B5C0000019DF8380040F020008DF80800612855
:100B6C000BD0706B002801D5062005E005D19DF84F
:100B7C000800672801D101207063F18847F6F070F6
:100B8C000840001140F2FF7290421CD111F00F0F7F
:100B9C0005D1B08818B9708808B9308848B10320DD
:100BAC00F0619DF83800612835D37B2833D2D5A16C
:100BBC0032E00320F0619DF83800612831D37B28A6
:100BCC002FD2D1A128E0012804DA300004F03AFB3E
:100BDC0001281DDAF18848F20F02114043F6E07249
:100BEC001143F180A0F2FE354FF0FF309DF8081054
:100BFC0061291DD13269511C31613021117031696B
:100C0C004A1C32619DF83820612A0CD178220BE005
:100C1C0000250020EAE7CFA10322306904F0ECFEA6
:100C2C0095E1CDA1F8E758220A70B169891CB16130
:100C3C0010B90024002580E19DF80800612840F0DF
:100C4C009980706B002801D5212401E0441C24B24A
:100C5C0004F10108D6E900ABDDE900010022002314
:100C6C0005F056FB2EBFCDE900AB8BF0004BCDE968
:100C7C0000AB2D1F00208DF810000DF11109B8F1FB
:100C8C00010F35DBDDE900010022002305F058FBE4
:100C9C002ED21C2100A804F04FF9DDE9000104F06C
:100CAC003FFF0700A8F10708B8F1010F09DB05F0B9
:100CBC005FFB02000B00DDE9000103F085FECDE9CE
:100CCC00000109F107000721012F0ADB491E08D496
:100CDC0007F00F0200F8012D3F11F5E7002200F894
:100CEC00012D491EFAD500F10709B8F1010FC9DA37
:100CFC000DF11100A9EB00000DF11107A042B8BFD6
:100D0C0004B2002C2FD4844206DA04A820184078B0
:100D1C00082801D30F2000E00020210004AA8A1823
:100D2C0001E0641E24B2491E12F801398342F8D046
:100D3C000F2804D104A808184278521C42700029CC
:100D4C0003D504AF641C24B22D1D200009E0C15D45
:100D5C003031C9B23A2903D39DF838203A3A5118A8
:100D6C00C155401EF3D5706B002840F1E680601E23
:100D7C007063E2E0DDE900010022002305F0C8FA0F
:100D8C003EBFDDE9000181F00041CDE900012DB24B
:100D9C0047F297506843714990FBF1F52DB2C5F1BC
:100DAC0007009046DFF8B89101281BDB0400DDE951
:100DBC0000AB14F0010F07D05046594642464B4643
:100DCC0003F030FD82468B4664104046494642464D
:100DDC004B4603F027FD80468946002CE9D1CDE92E
:100DEC0000AB22E044429246DFF878B113E014F0F5
:100DFC00010F07D05046594642464B4603F012FDB0
:100E0C0082468B4664104046494642464B4603F0A8
:100E1C0009FD80468946002CE9D1DDE900015246E6
:100E2C005B4602F081FCCDE900019DF808006628C4
:100E3C0002D105F10A0000E00620716B4418142C55
:100E4C00A8BF132430208DF810000DF11107012CD0
:100E5C002DDBDFF8149111E0DDE9000104F076FEE2
:100E6C0005F090FA02000B00DDE9000103F0ACFD87
:100E7C0000224B4603F0D6FCCDE90001DDE9000170
:100E8C0004F064FE07F1080108220A23B0FBF3FC0E
:100E9C00E6460EFB1303DBB26046303301F8013D2E
:100EAC00521EF2D101F10807083C012CD4DA0DF1E5
:100EBC001100381A0DF111079DF81110302905D1C8
:100ECC00401E6D1E17F8011F3029F9D09DF808102F
:100EDC00662902D12DB2691C04E0652901D10121DA
:100EEC0000E00021726B8C1824B2A042B8BF04B28F
:100EFC00002C22D4844209DAE05D352806D339204F
:100F0C0005E000BF6E616E00696E66003020210046
:100F1C00CA19521E01E0641E24B2491E12F801398E
:100F2C008342F8D0392802D1C85D401CC85500292D
:100F3C0003D57F1E641C24B26D1C2DB220B523007A
:100F4C003A009DF84010300000F010F802B00FB0DD
:100F5C00BDE8F08F4E414E00494E4600A086010080
:100F6C00000024400000F03F84D797412DE9F04762
:100F7C0086B00400884615001E00BDF9387005F0D7
:100F8C0053FE406A90F800A0D4F83490012E01DA98
:100F9C00012692A548F0200066280AD0672840F068
:100FAC0086806FF003018F42C0F287804F4580F23C
:100FBC0084807F1C66280CD0A08F10F0080F02D103
:100FCC004E45B8BFB1463FB2B9EB070948BF4FF029
:100FDC0000092069E1693FB2012F25DA4A1C302350
:100FEC000B54B9F1010F03DAA18F11F0080F02D0E5
:100FFC0002F800A0521CE26179428945B8BFC9F1E0
:10100C0000073FB27942A162B944B145B8BF4E4620
:10101C0036B2266232002900E369181804F0ECFCA1
:10102C00A9EB0600E062C3E00818BE4218DA3200F1
:10103C00290004F0E1FCE1697118E161B81BA062C0
:10104C00B9F1010F03DAA08F10F0080F05D0206959
:10105C0001F800A0206A401C2062C4F82C90A7E084
:10106C003A00290004F0C8FCE0693818E061F61B6E
:10107C00B9F1010F03DAA18F11F0080F04D0411C54
:10108C00E161216900F801A036B2B145B8BF4E4606
:10109C0036B232007919E0692369C01804F0ACFC4F
:1010AC00E0693018E061A9EB0600A06280E0B8F1BD
:1010BC00610F16D14FF0700818E04E4504DAA18F7D
:1010CC0011F0080F08BFB146B9F1010948BF4FF044
:1010DC000009B8F1670F14BF4FF045084FF06508D1
:1010EC0004E0B8F1410F08BF4FF05008E1694A1C09
:1010FC00206915F8013B0B54B9F1010F03DAA18FEC
:10110C0011F0080F02D002F800A0521CE261B9F1F4
:10111C00010F11DB761E36B2B145B8BF4E4636B262
:10112C0032002900E369181804F066FCE0693018F5
:10113C00E061A9EB0600A062E0692169451805F899
:10114C00018B002F03D42B2005F8010B04E02D207C
:10115C0005F8010B3800474200260DF1080909E09B
:10116C000A22390000A805F055FD019809F8010B79
:10117C00009F761C3FB2012FF2DA022E06DA48F0FD
:10118C002000652802D1302005F8010B4EB9302023
:10119C0005F8010B07E0761E02A8305C303005F82C
:1011AC00010B012EF7DAE06921694018281A206238
:1011BC00A08F00F0140010280DD1A069E169081867
:1011CC00A16A0818216A0818E16A0818A16B8842FC
:1011DC0001DA081A606206B0BDE8F0873000000042
:1011EC00F8B505000E00140000208CB14FF0FF374D
:1011FC0005E0286B401C28630020641E08D016F8FC
:10120C00011BE868AA689047E8600028F1D1380013
:10121C00F2BD000010B50400DFF8D007844208D0FE
:10122C00DFF8CC07844204D09221DFF8C80704F021
:10123C0041FCDFF8B80784420AD101215FF000704D
:10124C0003F024F800215FF0007003F01FF809E0B0
:10125C0001215FF0806003F019F800215FF08060DD
:10126C0003F014F810BD000070B504000D00002050
:10127C000026DFF878178C4208D0DFF87407844218
:10128C0004D0B221DFF86C0704F014FCA879002814
:10129C0007D0A879012804D0B321DFF8580704F04F
:1012AC0009FCE879002807D0E879012804D0B4219A
:1012BC00DFF8400704F0FEFB287A002807D0287AD4
:1012CC00012804D0B521DFF82C0704F0F3FB687A71
:1012DC00002807D0687A012804D0B621DFF814075B
:1012EC0004F0E8FBA87A002807D0A87A012804D0DB
:1012FC00B721DFF8000704F0DDFBE87A002807D0FF
:10130C00E87A012804D0B821DFF8E80604F0D2FB13
:10131C00A87800280DD0A87801280AD0A87802282F
:10132C0007D0A878032804D0B921DFF8C80604F048
:10133C00C1FBE87800280DD0E87801280AD0E878BD
:10134C00022807D0E878032804D0BA21DFF8A406D5
:10135C0004F0B0FB2879102804D3BB21DFF89406E5
:10136C0004F0A8FB6879082804D3BC21DFF88406B4
:10137C0004F0A0FB2888012804D3288840F20141FE
:10138C00884204D3BD21DFF86C0604F093FB20687F
:10139C00022188432060206850F00100206000E0AA
:1013AC00761C606810F0010F03D14FF6FF70864277
:1013BC00F6D1606810F0010F01D100206BE0A87924
:1013CC00012804D1206850F08000206003E02068E0
:1013DC00802188432060E879012804D1206850F0EE
:1013EC004000206003E02068402188432060287A78
:1013FC00012804D1206850F02000206003E0206810
:10140C00202188432060687A012804D1206850F09C
:10141C001000206003E02068102188432060A87A27
:10142C00012804D1206850F00800206003E02068F7
:10143C00082188432060E87A012804D1206850F004
:10144C000400206003E02068042188432060A87811
:10145C00E978090651EA8070297950EA01406979E6
:10146C0050EA01502988491E0843E0612068012197
:10147C0088432060002600E0761C606810F0010FA5
:10148C0003D04FF6FF708642F6D1606810F0010071
:10149C00401E8041C00FC0B270BD000010B50400EA
:1014AC000020A17A0E2905D34FF49C71DFF8440576
:1014BC0004F000FBE07A002808D0E07A012805D07F
:1014CC0040F23911DFF82C0504F0F4FA207B0028E7
:1014DC0008D0207B012805D04FF49D71DFF814054E
:1014EC0004F0E8FA2089002808D02089012805D0CA
:1014FC0040F23B11DFF8FC0404F0DCFA607B0028BE
:10150C0008D0607B012805D04FF49E71DFF8E4040D
:10151C0004F0D0FA0120A17A88404849096851F0BA
:10152C000101464A116034490968C2431140324AEC
:10153C001160217B002916D130490968C243114042
:10154C002E4A1160E188628852EA0141A27A2C4B42
:10155C0043F83210A17A2A4A12EBC101A2882388DF
:10156C0053EA02424A60217B012915D123490968BB
:10157C000143224A11602188628852EA0141A27A11
:10158C001F4B43F83210A17A1D4A12EBC101A288FD
:10159C00E38853EA02424A60E17A002906D11949EC
:1015AC000968C2431140174A116004E015490968E3
:1015BC000143144A11602189002905D11249096897
:1015CC00C2431140104A11602189012904D10E49EE
:1015DC00096801430C4A1160617B012904D1064959
:1015EC0009680843044908601448006801218843CD
:1015FC001249086010BD00BF1C6600400C6600401C
:10160C004066004004660040146600400021817171
:10161C000021C171002101720021417200218172EF
:10162C000021C172002181700021C1700321017160
:10163C0002214171012101807047000000660040C9
:10164C0070B505000E001400DFF8A003854209D028
:10165C00DFF89C03854205D04FF4E771DFF8940363
:10166C0004F028FA012E26D0022E24D0042E22D0EB
:10167C00082E20D0102E1ED0202E1CD0402E1AD07A
:10168C00B6F5807F17D0B6F5007F14D0B6F5806F15
:10169C0011D0B6F5006F0ED0B6F5004F0BD0B6F5E5
:1016AC00803F08D0B6F5003F05D040F2CF11DFF8EF
:1016BC00440304F0FFF9E4B2002C08D0E4B2012C8E
:1016CC0005D04FF4E871DFF82C0304F0F3F9E4B221
:1016DC00002C03D068693043686103E06869F1430A
:1016EC000840686170BD000070B504000D00002654
:1016FC00DFF8F802844209D0DFF8F402844205D006
:10170C004FF4F571DFF8EC0204F0D4F9287A0028D4
:10171C0008D0287A042805D040F2EB11DFF8D40267
:10172C0004F0C8F9687A002808D0687A022805D035
:10173C004FF4F671DFF8BC0204F0BCF9A87A092862
:10174C0005D340F2ED11DFF8AC0204F0B3F9A06858
:10175C0010F0806F01D000260CE0A06810F0006F34
:10176C0001D0012606E0A06810F0805F01D00226AF
:10177C0000E00426F6B2042E00F08A80F6B214EBD8
:10178C000610D0F8800110F00100F6B214EB06112F
:10179C00C1F88001287A002819D12868B0F5006FAB
:1017AC0005D340F20721DFF84C0204F083F9F6B2BE
:1017BC0014EB0610D0F8800129686A7A52EA41517C
:1017CC000843F6B214EB0611C1F880011AE0686800
:1017DC00B0F1005F05D34FF40371DFF8180204F089
:1017EC0069F9F6B214EB0610D0F8800169682A7A10
:1017FC0052EAC1016A7A11430843F6B214EB06119E
:10180C00C1F88001A87A10F00F00A872F6B214EBA0
:10181C000610D0F884010F218843F6B214EB0611A0
:10182C00C1F88401F6B214EB0610D0F88401A97A41
:10183C000843F6B214EB0611C1F88401A87B697B4E
:10184C00090451EA0060297B50EA0120E97A084337
:10185C00F6B214EB0611C1F88801A87C697C090466
:10186C0051EA0060297C50EA0120E97B0843F6B27A
:10187C0014EB0611C1F88C01F6B214EB0610D0F87B
:10188C00800150F00100F6B214EB0611C1F8800192
:10189C003000C0B270BD000038B504000D005348D4
:1018AC00844207D05248844204D040F279215148F6
:1018BC0004F000F9EDB2002D07D0EDB2012D04D0EB
:1018CC0040F27A214B4804F0F5F8EDB2002D02D12C
:1018DC002020E06001E02020206131BD70B50500C2
:1018EC000E0014004148854207D04148854204D07F
:1018FC0040F2AD213F4804F0DDF8F6B2002E07D0DF
:10190C00F6B2012E04D040F2AE213A4804F0D2F8DF
:10191C00F6B215EB0610D0F8B00110F004002072EE
:10192C00207A002807D1F6B215EB0610D0F8B001DA
:10193C00400D206006E0F6B215EB0610D0F8B001B1
:10194C00C0086060F6B215EB0610D0F8B00110F0CC
:10195C0002006072F6B215EB0610D0F8B40110F06C
:10196C000F00A072F6B215EB0610D0F8B401000A05
:10197C00E074F6B215EB0610D0F8B801E072F6B2CE
:10198C0015EB0610D0F8B801000A2073F6B215EB6F
:10199C000610D0F8B801000C6073F6B215EB061007
:1019AC00D0F8B801000EA073F6B215EB0610D0F803
:1019BC00BC01E073F6B215EB0610D0F8BC01000ABE
:1019CC002074F6B215EB0610D0F8BC01000C607454
:1019DC00F6B215EB0610D0F8BC01000EA074310065
:1019EC00C9B22800FFF758FF70BD0000006400402A
:1019FC0000680040785D000880B503F0C7FC03F078
:101A0C00ABFC322000F09CFF03F0AEFC322000F067
:101A1C0097FF03F0A1FC322000F092FF03F0A4FC2E
:101A2C00322000F08DFF03F097FC01BD80B503F070
:101A3C00ADFC03F085FC322000F082FF03F086FC45
:101A4C00322000F07DFF03F07BFC322000F078FFA9
:101A5C0003F07CFC322000F073FF03F071FC01BD3D
:101A6C0080B503F093FC03F05BFC322000F068FFC0
:101A7C0003F05EFC322000F063FF03F051FC3220D7
:101A8C0000F05EFF03F054FC322000F059FF03F02D
:101A9C0047FC01BD10B5094C0BE0207880B202F078
:101AAC0031FA80B20300626821780F4804F03EFDE1
:101ABC0008342078FF28F0D110BD00BF6C0C00203A
:101ACC0010B5084C0AE0207802F0CCFA80B2030082
:101ADC0062682178044804F029FD08342078FF2836
:101AEC00F1D110BDC40A0020B467000880B52048AD
:101AFC0003F0BAFFDFF834054BF6EF610180DFF835
:101B0C002C0501F05BFA012804D14FF48F711848B1
:101B1C0003F0C6FF01F012FB4FF49171144803F06F
:101B2C00ABFF0DE013480178134804F0FFFC01F003
:101B3C00FBFA40B20100114804F0F8FCFFF776FF05
:101B4C0001F0C6FA0028FBD04FF49471084803F05A
:101B5C0093FF00220121074801F0BEFA0128E1D2CF
:101B6C0040F23311024803F091FFFFF779FFE7E7EA
:101B7C000C710008C00A0020207000089465000851
:101B8C0080B5234803F070FFDFF8A00442F2205127
:101B9C000180DFF8980401F011FA012804D14FF408
:101BAC00A8711B4803F07CFF01F0D4FAF721302018
:101BBC0002F070FA17486021017006E040F26B11D8
:101BCC00134803F063FFFFF74BFF4FF4FA7000F07C
:101BDC00B7FE104800787A2803D10E4861210170B5
:101BEC0004E00C480078401C0A4908700948017848
:101BFC00094804F09BFC012206494BF6EF6001F00A
:101C0C0009FAC0B20028D9D1FFF7F6FEDDE700BF14
:101C1C0018710008BF0A0020D06B000870B596B090
:101C2C000025002605A8402105F0BCFA002400A8D8
:101C3C00102105F0B7FADFF8F4034BF6EF610180E1
:101C4C00DFF8E80301F0BAF9012804D14FF4CF71A1
:101C5C003A4803F025FF01F071FA31E0701C009056
:101C6C0000200190002002900198401C0190280057
:101C7C0010F00F0F24D1FFF7D9FEBDF90C00202175
:101C8C0090FBF1F004F068FA04F01EF803B4049829
:101C9C0004F06CFA060004980399081804F066FA2C
:101CAC000100300002F050FF254903F0D5F904F093
:101CBC000BF803B4069A0599224804F037FC04B0DB
:101CCC006D1C01F005FA0028FBD004AA68211E48FF
:101CDC0001F002FA0128CAD31B480668BDF80C00B3
:101CEC00E4B205A931F81410401AADF80C00E4B2B6
:101CFC0005A8BDF8101020F81410BDF80C00E4B2C3
:101D0C0005A931F814100818ADF80C00601C04007B
:101D1C00C0B2202800D100240098B04203D1009812
:101D2C00401C0090A0E70098B04297D2029830185F
:101D3C000099401A0290701C009095E7E46B000823
:101D4C000000C842886200082409002070B50026F3
:101D5C0000240025B54842F220510180B34801F01F
:101D6C002DF9012804D140F2F511384803F098FE02
:101D7C00F721302002F08EF96821354804F0D6FBAB
:101D8C00344804F0D3FB344804F0D0FB334804F05F
:101D9C00CDFB334804F0CAFB324804F0C7FBA4481F
:101DAC0000F076FE0600A34804F0C0FBF6B2312E1C
:101DBC0006D0322E07D0332E08D0342E08D009E0AE
:101DCC004FF47A7608E042F2107605E0264E03E0F6
:101DDC00264E01E04FF47A763100254804F0A6FB3C
:101DEC0001F0B8F9234800210160002004E0C0B2E2
:101DFC00204941180871401CC0B26428F7D31E4812
:101E0C0004F094FB8A4800F043FE16E0682219495E
:101E1C004BF6EF6001F0FEF816480068401C1549BF
:101E2C000860280010F00F0F06D1FFF7E5FD1148F0
:101E3C000168124804F07AFB641C6D1CB442E5D3B3
:101E4C00002500240B4800210160D8E7CC6700086E
:101E5C00D8630008F86B00080C6C0008E4670008F5
:101E6C00FC67000814680008A086010040420F00BF
:101E7C00B0650008BC080020046400082471000848
:101E8C0010B5544803F0F0FD534804F04FFB534891
:101E9C0004F04CFB524804F049FB524804F046FB5A
:101EAC00514804F043FB624800F0F2FD0400614825
:101EBC0004F03CFBE4B2563C21004C4804F036FBE9
:101ECC000B2C04DB1B2C02DA5848047106E0192198
:101EDC00474804F02BFB5548192101714FF41B6244
:101EEC0040F66511434804F021FB50480079052168
:101EFC0040F62E1200FB01213F4804F017FB4B4823
:101F0C0042F20701418049480121417100F030FD46
:101F1C0002F0EAF902F01CFAC0B20100374804F0F2
:101F2C0005FB02F01BFAC0B20100354804F0FEFAC2
:101F3C00344804F0FBFA344804F0F8FA334804F05F
:101F4C00F5FA334804F0F2FA324804F0EFFA2F486D
:101F5C0004F0ECFA304804F0E9FA304804F0E6FA00
:101F6C002A4804F0E3FA2E4804F0E0FA2D4804F075
:101F7C00DDFA264804F0DAFA2B4804F0D7FA2C489C
:101F8C0000F086FD04002B4804F0D0FAE4B22000E7
:101F9C0031280AD032280BD033280CD034280DD05D
:101FAC0035280ED036280FD010E0FFF789FD0DE054
:101FBC00FFF770FD0AE0FFF799FD07E0FFF7E0FD82
:101FCC0004E0FFF72BFE01E0FFF7C0FEE4B2782C33
:101FDC00AED110BD307100082C680008E45F000819
:101FEC002460000864600008A460000844680008CD
:101FFC005C68000830640008186500084070000830
:10200C0050700008CC650008607000087468000807
:10201C00E86500080466000870700008807000080D
:10202C00206600083C6600083C7100086C0A002021
:10203C00003801403070000870B504000D00002617
:10204C0000220020002300215FF0000CDFF800E3E9
:10205C0074451CD0DFF8FC02844218D0DFF8F8027B
:10206C00844214D0DFF8F402844210D0DFF8F0027E
:10207C0084420CD0DFF8EC02844208D0DFF8E8028E
:10208C00844204D0B121DFF8700503F013FDE87829
:10209C00002819D0E878042816D0E878282813D01E
:1020AC00E878482810D0E87814280DD0E878102863
:1020BC000AD0E8781C2807D0E878182804D0B22178
:1020CC00DFF8340503F0F6FC2888002804D1B3218E
:1020DC00DFF8240503F0EEFCE87810F00F06E87842
:1020EC0010F0100F0FD0A87801280AD0A878022879
:1020FC0007D0A878032804D0BA21DFF8FC0403F039
:10210C00D9FCA87806432888000624D02168002032
:10211C0006E0EA78482A02D1012282402261401C62
:10212C00082817D2012383402A881A409A42F6D1F4
:10213C0083005FF00F0C1CFA03FC7FEA0C021140C9
:10214C0016FA03F21143EA78282AE2D101228240DE
:10215C006261E4E7216028884FF4807188422AD3B9
:10216C006168002024E001220300083312FA03F313
:10217C002A881A409A421AD183005FF00F0C1CFA7D
:10218C0003FC7FEA0C02114016FA03F21143EA78C1
:10219C00282A04D10122030008339A406261EA78AC
:1021AC00482A04D10122030008339A402261401CC2
:1021BC000828D8D3616070BD38B504000D0000202C
:1021CC00DFF88C118C421DD0DFF88801844219D0C5
:1021DC00DFF88401844215D0DFF88001844211D0ED
:1021EC00DFF87C0184420DD0DFF87801844209D0FD
:1021FC00DFF87401844205D040F21D11DFF8F803BA
:10220C0003F058FCADB2012D42D0ADB2022D3FD03F
:10221C00ADB2042D3CD0ADB2082D39D0ADB2102DDD
:10222C0036D0ADB2202D33D0ADB2402D30D0ADB2C2
:10223C00802D2DD04FF48070ADB2854228D04FF454
:10224C000070ADB2854223D04FF48060ADB28542B0
:10225C001ED04FF40060ADB2854219D04FF48050BF
:10226C00ADB2854214D04FF40050ADB285420FD0C0
:10227C004FF48040ADB285420AD04FF40040ADB26D
:10228C00854205D04FF48F71DFF86C0303F012FC1C
:10229C00A06815EA0001080080B2401E8041C043CE
:1022AC00C00FC0B232BD000038B504000D00284884
:1022BC00844217D02748844214D02748844211D036
:1022CC00264884420ED0264884420BD025488442AE
:1022DC0008D02548844205D04FF4B471DFF81803B8
:1022EC0003F0E8FBADB2002D05D140F26911DFF827
:1022FC00080303F0DFFBADB2256131BD38B5040036
:10230C000D001348844217D01248844214D012484E
:10231C00844211D0114884420ED0114884420BD013
:10232C001048844208D01048844205D04FF4BC7148
:10233C00DFF8C40203F0BEFBADB2002D05D140F2B4
:10234C007911DFF8B40203F0B5FBADB2656131BDB4
:10235C0000080140000C0140001001400014014035
:10236C0000180140001C01400020014038B5040059
:10237C000D000021002200200023012C58D0022C3B
:10238C0056D0042C54D0082C52D0494884424FD0FB
:10239C00484884424CD04848844249D047488442FB
:1023AC0046D04748844243D04648844240D04648B1
:1023BC0084423DD0454884423AD04548844237D087
:1023CC00B4F5805F34D0B4F5EA1F31D0B4F5EB1F0F
:1023DC002ED0B4F5004F2BD03E48844228D03E4836
:1023EC00844225D03D48844222D03D4884421FD0AF
:1023FC003C4884421CD0B4F1201F19D03A48844286
:10240C0016D03A48844213D03948844210D0394807
:10241C0084420DD0384884420AD03848844207D0D0
:10242C00B4F5011F04D040F21721734803F042FBAE
:10243C00EDB2002D07D0EDB2012D04D04FF4067192
:10244C006D4803F037FB2E48006814F470210B0C18
:10245C00A1B214F44012B2F5401F0AD17FF07062A1
:10246C001040274A12687FF070631A40244B1A60A0
:10247C0012E014F4801F06D003229A40D24310407D
:10248C0050F0706008E0620DD2B2120111FA02F243
:10249C00D243104050F07060EDB2002D04D0620DAC
:1024AC00D2B21201914008431549086031BD00BFFA
:1024BC00100014003000140040001600C00016007C
:1024CC0000011800000218000003180000081A0090
:1024DC00000C1A0001002000020020000400200063
:1024EC0008002000100020004000200000013000F7
:1024FC0000023000000430000010200000202000FA
:10250C000400014038B504000D000020E4B2002C9A
:10251C0016D0E4B2012C13D0E4B2022C10D0E4B2E9
:10252C00032C0DD0E4B2042C0AD0E4B2052C07D055
:10253C00E4B2062C04D04FF411712F4803F0BAFA10
:10254C00EDB2002D31D0EDB2012D2ED0EDB2022D19
:10255C002BD0EDB2032D28D0EDB2042D25D0EDB249
:10256C00052D22D0EDB2062D1FD0EDB2072D1CD0BB
:10257C00EDB2082D19D0EDB2092D16D0EDB20A2D01
:10258C0013D0EDB20B2D10D0EDB20C2D0DD0EDB251
:10259C000D2D0AD0EDB20E2D07D0EDB20F2D04D0BB
:1025AC0040F24521144803F085FA0F2015F0030181
:1025BC00C9B289008840EDB2A9100E4A52F8211018
:1025CC00C0430840EDB2A9100A4A42F82100EDB20E
:1025DC00A810084951F82000E4B215F00301C9B263
:1025EC00890014FA01F10843EDB2A910014A42F82E
:1025FC00210031BD08000140D85B000880B54FF4C4
:10260C007A7000F09DF901BD80B5642000F098F956
:10261C0001BD000000B585B05FF4E13000900020F2
:10262C00ADF804000020ADF806000020ADF808005D
:10263C000020ADF80C000C20ADF80A0000A9DFF862
:10264C004C0400F045FA0121DFF8400400F01CFBBB
:10265C0005B000BD80B502F02DFB0121042001F076
:10266C00BFFD0121082001F0BBFD0121102001F06C
:10267C00B7FD0121202001F0B3FD01214FF4804072
:10268C0001F0AEFD0121012001F0AAFD01215FF056
:10269C00007001F0CFFD01BD80B500215FF000603E
:1026AC0002F028FC4FF4E06002F0B6FB06208DF837
:1026BC00000000208DF8010000208DF802000120A0
:1026CC008DF8030000A802F0C3FB07208DF8000072
:1026DC0000208DF8010001208DF8020001208DF8FA
:1026EC00030000A802F0B4FB14208DF800000020B9
:1026FC008DF8010000208DF8020001208DF80300F8
:10270C0000A802F0A5FB01BD80B5002001F0DAFCA9
:10271C0001215FF4000001F08DFD01BD80B54FF487
:10272C00A06002F079FB14208DF8000001208DF8D8
:10273C00010000208DF8020001208DF8030000A894
:10274C0002F086FB2A208DF8000000208DF8010095
:10275C0000208DF8020001208DF8030000A802F083
:10276C0077FB0B208DF8000000208DF80100002075
:10277C008DF8020001208DF8030000A802F068FB20
:10278C0001BD000080B5C0B2002805D04FF48071A7
:10279C00AB48FFF7B3FD04E04FF48071A848FFF796
:1027AC0083FD01BD80B54FF40070ADF8000003202F
:1027BC008DF8020018208DF8030000A9A048FFF73F
:1027CC003BFC4FF48060ADF8000004208DF8030052
:1027DC0000A99B48FFF730FC0320ADF80000042053
:1027EC008DF8030000A99648FFF726FC4FF4807083
:1027FC00ADF8000003208DF8020014208DF80300C2
:10280C0000A98F48FFF718FC4FF4F850ADF8000002
:10281C0003208DF8020004208DF8030000A98948DC
:10282C00FFF70AFC0420ADF8000003208DF802002D
:10283C0004208DF8030000A91048FFF7FDFB4FF4AE
:10284C008070ADF8000048208DF8030000A90C48FA
:10285C00FFF7F2FB4FF40070ADF8000018208DF874
:10286C00030003208DF8020000A90548FFF7E4FBE4
:10287C0001215FF4EA10FFF779FD01BD001401405E
:10288C00000C014000B583B000210020FFF73AFE98
:10289C000120009000208DF804000C208DF805001C
:1028AC0001208DF8060000A801F0FEFD012100209A
:1028BC00FFF728FE0220009000208DF804000C2069
:1028CC008DF8050001208DF8060000A801F0ECFD44
:1028DC0007BD0000164802681648006816490968CA
:1028EC00002A24D0154B9A70130ADFF850C08CF8CC
:1028FC000430130CDFF844C08CF80630120E0F4B6A
:10290C001A720E4A9072020A0C4B1A73020C0B4B81
:10291C009A73000E094A107408488174080A074A11
:10292C001075080C054A9075080E04490876704716
:10293C00E8F7FF1FECF7FF1FF0F7FF1F100F002049
:10294C0001B481B009480199016008480068002869
:10295C00FBD102B07047000004480068002804D086
:10296C0002480068401E014908607047880A002030
:10297C0000B587B0304803F077F8012141F204002C
:10298C0001F02EFC0121102001F02AFCE020ADF812
:10299C00000003208DF8020018208DF8030000A918
:1029AC002748FFF749FB1020ADF8000003208DF8F5
:1029BC00020010208DF8030000A92148FFF73CFB12
:1029CC00C020ADF8000003208DF8020010208DF817
:1029DC00030000A91B48FFF72FFB0020ADF80400F3
:1029EC004FF48270ADF806000020ADF8080000200E
:1029FC00ADF80A000020ADF80C004FF40070ADF8F3
:102A0C000E001820ADF810000020ADF812000720C1
:102A1C00ADF8140001A9094800F030FD0121074868
:102A2C0000F0E2FD40210748FFF73EFC80210548FD
:102A3C00FFF73AFC07B000BDE87000080030014019
:102A4C00000801400010014010B504000A2C0ED102
:102A5C000D210E4800F050F980210C4800F098F937
:102A6C000028F9D00A21094800F046F905E02100B8
:102A7C00C9B289B2054800F03FF98021034800F043
:102A8C0087F90028F9D0200010BD00000038014063
:102A9C0038B504002021200000F07AF90028F9D084
:102AAC00200000F04FF90500EDB2290089B220009A
:102ABC0000F022F98021200000F06AF90028F9D0FA
:102ACC00EDB20D2D01D10A2001E02800C0B232BDBB
:102ADC0070B586B004000D000020002100220023F8
:102AEC000026DFF894C2644514D0DFF890028442CB
:102AFC0010D0DFF88C0284420CD0DFF888028442BC
:102B0C0008D0DFF88402844204D0AD21DFF87C02C7
:102B1C0002F0D0FF2868002803D028685949884261
:102B2C0004D3AE21DFF8640202F0C4FFA8880028A9
:102B3C0009D0A8884FF48051884204D0AF21DFF827
:102B4C004C0202F0B7FFE888002813D0E8884FF455
:102B5C00805188420ED0E8884FF40051884209D049
:102B6C00E8884FF44051884204D0B021DFF81C02B1
:102B7C0002F0A0FF288900280ED028894FF480612C
:102B8C00884209D028894FF4C061884204D0B12111
:102B9C00DFF8F80102F08EFF68894FF6F3710842F6
:102BAC0002D16889002804D1B221DFF8E00102F0DB
:102BBC0081FFA889002813D0A8894FF4807188421E
:102BCC000ED0A8894FF40071884209D0A8894FF41F
:102BDC004071884204D0B321DFF8B00102F06AFFE3
:102BEC00A889002810D0DFF8900184420CD0DFF8BF
:102BFC008C01844208D0DFF88801844204D0B721CC
:102C0C00DFF8880102F056FF2600208A4CF6FF718F
:102C1C000840E98808432082A0894EF6F311084049
:102C2C00A9882A8911436A8911430843A081A08A83
:102C3C004FF6FF410840A9890843A08200A801F083
:102C4C0053FADFF83401864201D1039900E002996E
:102C5C001920484329688900B0FBF1F26420B2FBCB
:102C6C00F0F000010109642301FB13231901323137
:102C7C006422B1FBF2F111F00F010843208106B080
:102C8C0070BD00BF21AA440038B504000D00DFF868
:102C9C00E800844215D0DFF8E400844211D0DFF85C
:102CAC00E00084420DD0DFF8DC00844209D0DFF86C
:102CBC00D800844205D04FF4A171DFF8D00002F0A7
:102CCC00F9FEEDB2002D08D0EDB2012D05D040F289
:102CDC004311DFF8B80002F0EDFEEDB2002D04D088
:102CEC00A08950F40050A08104E0A0894DF6FF713A
:102CFC000840A08131BD000038B504000D001E480D
:102D0C00844210D01D4884420DD01D4884420AD004
:102D1C001C48844207D01C48844204D040F2322123
:102D2C001A4802F0C7FE4FF40070ADB2854204D3CE
:102D3C0040F23321154802F0BDFEE805C00DA0801D
:102D4C0031BD000010B504000B48844210D00B4874
:102D5C0084420DD00A4884420AD00A48844207D0E3
:102D6C000948844204D040F24321084802F0A2FEF4
:102D7C00A088C005C00D10BD0038014000440040C3
:102D8C0000480040004C0040005000402C5C000803
:102D9C0038B504000D0000202C498C4210D02C4872
:102DAC0084420DD02B4884420AD02B48844207D051
:102DBC002A48844204D040F21331294802F07AFEAA
:102DCC00ADB2012D23D0ADB2802D20D0ADB2402DAF
:102DDC001DD0ADB2202D1AD0ADB2102D17D04FF49E
:102DEC008070ADB2854212D04FF40070ADB2854206
:102DFC000DD0ADB2082D0AD0ADB2042D07D0ADB2B6
:102E0C00022D04D04FF44571154802F053FE4FF4D7
:102E1C000070ADB285420DD10C4884420AD00C48EA
:102E2C00844207D00B48844204D04FF446710C48BE
:102E3C0002F040FE208815EA0001080080B2401E16
:102E4C008041C043C00FC0B232BD00BF003801404A
:102E5C000044004000480040004C0040005000403E
:102E6C002C5C00080B320270984A12685279002AC6
:102E7C0002D048F6610201E048F64102427092B27B
:102E8C00120A8270B94A1278C270904A126852883B
:102E9C008280C1808D490968098801810A207047A8
:102EAC0038B50D0014002200D2B2010089B2864858
:102EBC00FFF7D8FF002109E0C0B2C9B20A18824B53
:102ECC00C9B211F805C002F803C0491CC9B2E4B27A
:102EDC00A142F1D32018C0B232BD000010B5334C62
:102EEC0001F0C4FA04F05AF90121200001F066FA4D
:102EFC00207810F07F002070207805281AD12178D6
:102F0C002B4801F05BFA607810F02001481E8041DC
:102F1C00C043C00F884908732648407810F0800FD2
:102F2C003ED0E07891490978884239D18F48012107
:102F3C00417035E094F900000B387F498871217895
:102F4C001B4801F03BFA607810F02001481E8041CC
:102F5C00C043C00F7849087377482189418076486F
:102F6C0015498160744890F90600734989684018C6
:102F7C00714990F900204A73407810F0800F0CD002
:102F8C006D480078E178884207D0607810F0DF0057
:102F9C00412802D1684801218173E07866490870A4
:102FAC0004F0FEF801F06EFA10BD00BF48080020D6
:102FBC00490800204C0800205208002010B50400DD
:102FCC0001F092F9012801D1012022E004F0E8F887
:102FDC003E4804605848002181606448012181709A
:102FEC0062480021416039480068007901F0C0F95D
:102FFC0036480068008801F0C7F9344800684088FA
:10300C0001F0CAF9882001F015F8012002F0F4F95A
:10301C00002010BD70B505000E00140053488078D8
:10302C00002801D100F08AF867212000C0B204F01A
:10303C0031F8040001F02CFA01F018FA2200D2B297
:10304C003100280080B2FFF72BFF0100C9B21E48E7
:10305C0001F0ACF901F016FA01F0B8F9002805D02E
:10306C004FF4E771174802F011FD0124174800686E
:10307C00407900280BD03D4800214170C820FFF753
:10308C005FFC3A484078441EA441E40F00E0002461
:10309C00E4B2012C04D140F2E7110A4802F0F6FC2C
:1030AC0032488078002801D100F054F8E4B2002CAA
:1030BC0004D12E480078401C2C4908702000C0B266
:1030CC0070BD00BFEC680008D40700207C0A00200B
:1030DC001948807B7047000070B505000C00160085
:1030EC0004F05EF82100C9B2134890F90600C0B292
:1030FC0003F0D0FFC0B202000F488168280003F033
:10310C00D1FF002E02D000F00FF830800A480021C9
:10311C00817304F043F82100C9B2074890F9060006
:10312C00C0B203F0B7FF70BD80B501F01DF90249C4
:10313C00497B081A40B202BD2C0F002080B5044810
:10314C0002F092FC09480121817001F083F901BD64
:10315C000069000880B5044802F086FC0348002191
:10316C00817001F07DF901BD14690008640A00202A
:10317C0040B2002809D540B210F00F00064A801862
:10318C00C9B2090100F8041C04E040B2034AC9B2F8
:10319C0009018154704700BF18ED00E000E400E025
:1031AC0080B5B0F1807F01D3012010E00002000A4D
:1031BC00401E074908600F215FF0FF30FFF7D8FF72
:1031CC00044800210160044807210160002002BD71
:1031DC0014E000E018E000E010E000E080B5A54845
:1031EC0001680C4803F0A2F9A24841680A4803F0B0
:1031FC009DF9A0488168094803F098F99D48C16879
:10320C00074803F093F99B480169064803F08EF9CF
:10321C0001BD00BFAC660008C4660008DC6600088F
:10322C00F46600080C67000880B5FFF777FAFFF723
:10323C006BFA02F071FF01BD80B54148FDF7EAFF62
:10324C002B48FEF7E3F92A48002181712848002118
:10325C00C171274800210172254800214172244880
:10326C000021817222480021C17221480021817005
:10327C001F480021C1701E48022101711C48042105
:10328C0041711B480A21018019492D48FDF7ECFFBB
:10329C0018480021817217480021C172154801217C
:1032AC00017314480021018012480021418011480B
:1032BC00002181800F480021C1800E48002101812E
:1032CC000C48012141730B48FEF7E8F81B4840F20B
:1032DC0021310160194801214160184800214172D7
:1032EC0016480021017215480121817201BD00BFF1
:1032FC00580A0020480A002010B500240D4803F09D
:10330C0015F9FFF799FF012202210D48FEF798F9F4
:10331C005948FFF7BDFB04004FF4FA70FFF710FBA0
:10332C00054803F003F90548C47204490448FEF744
:10333C00DBF9EDE73C690008806C00080C0A002002
:10334C000064004010B5FFF785F94A4800F0CCFE48
:10335C00FFF7A2F9FFF726FAFFF794FAFFF75AF9ED
:10336C00444800684FF47A71B0FBF1F0FFF718FF96
:10337C00002800D0FEE70020FFF704FA4FF4FA70A3
:10338C00FFF7DEFA2E4803F0D1F82E4803F0CEF802
:10339C002D4803F0CBF82D4803F0C8F82C4803F067
:1033AC00C5F82A4803F0C2F82A4803F0BFF82A48A7
:1033BC0003F0BCF8294803F0B9F8294803F0B6F833
:1033CC00284803F0B3F8214803F0B0F8264803F07E
:1033DC00ADF82948FFF75CFB0400244803F0A6F87D
:1033EC00E4B2200030280AD031280BD032280CD07F
:1033FC0033280DD034280ED0352819D01AE0FFF719
:10340C00EDFE17E001F0EAFF14E002F033FC11E0EE
:10341C00FEF736FD0EE0164801210170FFF704FFA0
:10342C004FF4FA70FFF78CFA0120FFF7ABF901E0CB
:10343C00FFF762FFE4B2782CA4D1002010BD00BFCE
:10344C00246700083C670008906C0008546700086B
:10345C006C670008A06C0008B06C0008C06C000819
:10346C005069000864690008F4700008D06C00080A
:10347C00BC0A0020F80900200038014038B50400CF
:10348C000D000020DFF890128C420CD0DFF88C027B
:10349C00844208D0DFF88802844204D0A221DFF8ED
:1034AC00840202F007FB2888002813D028884FF4E8
:1034BC00806188420ED028884FF40041884209D0A0
:1034CC0028884FF44041884204D0A521DFF85402EB
:1034DC0002F0F0FA68884FF48271884207D068884D
:1034EC00002804D0A621DFF83C0202F0E3FAA888F9
:1034FC004FF40061884207D0A888002804D0A72187
:10350C00DFF8200202F0D6FAE888002807D0E88815
:10351C00022804D0A821DFF80C0202F0CBFA28898B
:10352C00002807D02889012804D0A921DFF8F4014C
:10353C0002F0C0FA68894FF40071884207D068899C
:10354C00002804D0AA21DFF8DC0102F0B3FAA88924
:10355C00002819D0A889082816D0A889102813D0BB
:10356C00A889182810D0A88920280DD0A889282827
:10357C000AD0A889302807D0A889382804D0AB21D4
:10358C00DFF8A00102F096FAE889002807D0E88954
:10359C00802804D0AC21DFF88C0102F08BFA288A49
:1035AC00012804D2AD21DFF87C0102F083FA2088D7
:1035BC0010F4415029886A881143AA881143EA887B
:1035CC0011432A8911436A891143AA891143EA8953
:1035DC00114308432080A08B4FF2FF710840A08359
:1035EC00288A208231BD000038B504000D00DFF8B8
:1035FC00280184420DD0DFF82401844209D0DFF881
:10360C002001844205D040F2AD11DFF8180102F020
:10361C0051FAEDB2002D08D0EDB2012D05D04FF4CA
:10362C00D771DFF8000102F045FAEDB2002D04D09D
:10363C00208850F04000208004E020884FF6BF71B5
:10364C000840208031BD000038B504000D00DFF8C3
:10365C00C80084420DD0DFF8C400844209D0DFF8E2
:10366C00C000844205D040F22521DFF8B80002F0FA
:10367C0021FAA58131BD000010B50400DFF89800D7
:10368C0084420DD0DFF89400844209D0DFF890001A
:10369C00844205D040F23521DFF8880002F00AFAA6
:1036AC00A08910BD38B504000D0000201A498C42C9
:1036BC000AD01A48844207D01948844204D040F2F8
:1036CC000131184802F0F6F9ADB2802D19D0ADB227
:1036DC00402D16D0ADB2202D13D0ADB2102D10D080
:1036EC00ADB2082D0DD0ADB2042D0AD0ADB2022D65
:1036FC0007D0ADB2012D04D040F20231094802F0DE
:10370C00D9F9208915EA0001080080B2401E8041D9
:10371C00C043C00FC0B232BD003001400038004081
:10372C00003C0040685E00084FF4001C1CEB410F8D
:10373C0038BF1CEB430F17D31CEB410F09D31CEB09
:10374C00430F28BF6FF000011B4248BF81F00041BE
:10375C0070471CEB430F18BF6FF0000102BF5940BC
:10376C0001F0004100207047BCEB410F98BFBCEB4F
:10377C00430F39D950EA410C18BF52EA430C13D10C
:10378C0050EA410C81EA030101F000414FF00000C6
:10379C001EBF41F0E04141F07F61704752EA430C9B
:1037AC0008BF6FF000017047F0B475464FF4001479
:1037BC00B4EB410F11D9B4EB430F07D902F050FD14
:1037CC0002F040FDE41B7608AE4614E002F03AFD30
:1037DC005F00A4EB5754AE460DE002F041FD4C00E7
:1037EC00C7EB5454AE4606E0F0B44C007641640D81
:1037FC005F00A4EB575446F1000C04F580646FF0A5
:10380C00404606EA812545EA9055800206EA832364
:10381C0043EA92530221920227D0861A9D4143F02B
:10382C00804304D2641E76006D41B6185D4176006B
:10383C006D41964275EB030724BFB61A3D464941CC
:10384C00F5D34FF4006076006D41964275EB03079B
:10385C0024BFB61A3D464041F5D376006D41B61AE9
:10386C0075EB030708BF364249E0ED1A43F080437D
:10387C0003D2641E400043EB45055B4200421AD064
:10388C0041F48061001853EB450538BFED1A4941EE
:10389C00001853EB450538BFED1A4941001853EB9E
:1038AC00450538BFED1A4941001853EB450538BFA3
:1038BC00ED1A4941ECD313EB450538BFED1A4941DC
:1038CC0013EB450538BFED1A494113EB450538BFDD
:1038DC00ED1A4941F4D34FF4006013EB450538BFA2
:1038EC00ED1A404113EB450538BFED1A404113EB7F
:1038FC00450538BFED1A4041EFD313EB45052CBFFE
:10390C004FF00045002518BF45F0804540EA415076
:10391C00C90A641E2FDC41F48011D4F10104202C5F
:10392C0010DAC4F120072D4225FA04F518BF45F032
:10393C00010500FA07F63543E04001FA07F630437B
:10394C00E14026E0342C12DC203C2D4208BF5FEA1B
:10395C004007C4F1200720FA04F518BF45F0010513
:10396C0001FA07F6354331FA04F0002111E000208A
:10397C005FEACC711AE021F4801111EB04515CBFA9
:10398C0011F5801F05E000204FF07F6141F0E04110
:10399C000AE06D0008BF10F0010F98BF5FEA350513
:1039AC0050F1000041F1000141EACC71F0BC7047CC
:1039BC0080B5FEF78FFF994800680021817202F0F4
:1039CC00EBFB07480021016006484FF43F410180A2
:1039DC0005480449098801603B480021016001BD8C
:1039EC00445C0040BA0A0020405C004080B58B4823
:1039FC00006800218172894800680021C1728748E3
:103A0C0000682549C9794172002000F02DFE4FF461
:103A1C000071002000F030FE1021002000F03CFE70
:103A2C001821002000F0B2FE5821002000F09EFE6C
:103A3C00002000F08DFE194890F82C1089B200205F
:103A4C0000F0C2FE002000F06FFE4FF4C0610120B8
:103A5C0000F012FE4FF48071012000F087FE4FF44D
:103A6C008271012000F092FE0221012000F09EFEE6
:103A7C000221012000F0A8FE4FF44051012000F07B
:103A8C0025FE2021012000F007FE0F4801210160D6
:103A9C00002001F0D1FE01BDAC630008740E0020C3
:103AAC0080B55E480068807A002806D0064805215B
:103ABC0001600121014801F067FF01BD00240140B4
:103ACC0001480421016070479C0A002070470000E7
:103ADC007047000080B50021C0B2062819D14F4AAA
:103AEC001268127812F07F02012A12D14B4A126826
:103AFC005279002A0DD1494800688078222801D1DA
:103B0C00114911E045480068807821280CD10F49F3
:103B1C000AE0424A1268127812F07F02212A03D17D
:103B2C00C0B2032800D10A490800002801D10220A4
:103B3C0009E03A48006881613848006800224282F6
:103B4C0000208847002002BDC93B0008D93B000873
:103B5C00113C000880B531490968097811F07F01E2
:103B6C00212905D1C0B20B2802D100F043F800E0A6
:103B7C00022002BD80B5024980B201F049FE02BDAF
:103B8C004C0F002080B5024980B201F041FE02BD0D
:103B9C00540F002080B521490968C978C9B205299C
:103BAC0001D3002006E0C9B2034A12EBC10180B276
:103BBC0001F02EFE02BD00BFF00E002080B50249C0
:103BCC0080B201F025FE02BD5C0F002080B50249D9
:103BDC0080B201F01DFE02BD640F0020C9B20129A4
:103BEC0001D3022005E0C0B2012801D3022000E07D
:103BFC000020704709480068C0780949C0B20860C5
:103C0C000020704780B2002805D1044800680121CB
:103C1C000182002000E00248704700008C0A00205E
:103C2C00980A002070470000FEE70000FEE7000045
:103C3C00FEE70000FEE70000704700007047000040
:103C4C007047000080B5FEF787FE01BD704700008D
:103C5C00704700007047000070470000704700007C
:103C6C007047000080B5012000F09AFC00282AD093
:103C7C00154802F05BFC31480078012820D14948F6
:103C8C000521017011480078002806D00F4800214A
:103C9C00017044480121417005E00C48012101707C
:103CAC0040480021417002224FF480713D4802F0DF
:103CBC0017FB0221012000F079FD012000F020FD0E
:103CCC00012000F0BDFC01BD84670008BD0A002086
:103CDC0080B5022000F064FC00282AD0154802F0C0
:103CEC0025FC16480078012820D12E4806210170A9
:103CFC0011480078002806D00F480021017029488F
:103D0C000121417005E00C4801210170254800217A
:103D1C00417002224FF48071224802F0E1FA022134
:103D2C00012000F043FD012000F0EAFC022000F02D
:103D3C0087FC01BD78650008BE0A0020BC0A002083
:103D4C0070470000704700007047000080B51548B0
:103D5C000721017011480068000911490968B0EB8E
:103D6C001110052815D30D48006800090D4948703D
:103D7C0002224FF480710B4802F0B2FA02210120AA
:103D8C0000F014FD012000F0BBFC05480349096854
:103D9C000160022002F0A0F901BD00BF800A0020E2
:103DAC00840A0020B80A0020704700007047000009
:103DBC00704700007047000070470000704700001B
:103DCC00704700007047000080B50C4A00210C4879
:103DDC00FDF784FD0948006840F2213188420CD17E
:103DEC000648007A002808D10448807A012804D1BA
:103DFC000248C17A034802F099FB01BD200A002059
:103E0C00006400409C670008704700007047000089
:103E1C0080B54FF4807000F0C3FB002805D0FFF78D
:103E2C005DF84FF4807000F00BFC01BD7047000092
:103E3C00704700007047000070470000704700009A
:103E4C00704700007047000070470000704700008A
:103E5C00704700007047000070470000704700007A
:103E6C00704700007047000070470000704700006A
:103E7C007047000080B55FF4802000F0E1FB01BDCD
:103E8C0080B5C0B201F002FB01F016FB01F00EFB95
:103E9C0002BD000038B505000C0008E0002001F060
:103EAC00F5FA01F009FB01F001FB2070641C2800FD
:103EBC00451E80B20028F1D131BD000038B5050097
:103ECC000C0005E0207801F0E1FA641C01F0F4FA32
:103EDC002800451E80B20028F4D131BD10B5040075
:103EEC001021DFF8AC01FEF709FA2000C0B2FFF791
:103EFC00C7FF04001021DFF89801FEF7D5F9200068
:103F0C00C0B210BD10B504001021DFF88401FEF71B
:103F1C00F5F9A4B2200A50F01000C0B2FFF7B0FFC0
:103F2C002000C0B2FFF7ACFF0020FFF7A9FF040090
:103F3C001021DFF85C01FEF7B7F92000C0B210BD0C
:103F4C0070B504000D001021DFF84401FEF7D6F91E
:103F5C00A4B2200A50F02000C0B2FFF791FF060077
:103F6C002000C0B2FFF78CFF2800C0B2FFF788FF1B
:103F7C001021DFF81C01FEF797F93000C0B270BDBC
:103F8C0070B504000D001021DFF80401FEF7B6F93E
:103F9C00A4B2200A50F02000C0B2FFF771FF060057
:103FAC002000C0B2FFF76CFF2800C0B2FFF768FF1B
:103FBC00ADB2280AC0B2FFF763FF1021DFF8D000C2
:103FCC00FEF772F93000C0B270BD000070B504008D
:103FDC000D001021DFF8B800FEF790F93020FFF744
:103FEC004FFF06002900E4B2200080B2FFF752FF19
:103FFC001021DFF89C00FEF757F93000C0B270BDFD
:10400C0070B504000D001021DFF88400FEF776F97E
:10401C003A20FFF735FF06002900E4B2200080B2F9
:10402C00FFF74CFF1021DFF86800FEF73DF9300078
:10403C00C0B270BD38B504001021DFF85400FEF793
:10404C005DF95820FFF71CFF05002000C0B2FFF7F8
:10405C0017FF1021DFF83800FEF726F92800C0B250
:10406C0032BD000010B5040010210948FEF746F9D6
:10407C0054F08000C0B2FFF703FF0020FFF700FFF1
:10408C00040010210248FEF70FF92000C0B210BD49
:10409C000008014038B504000D0010210848FEF757
:1040AC002DF954F0C000C0B2FFF7EAFE2800C0B2F0
:1040BC00FFF7E6FE10210248FEF7F6F831BD00BF0F
:1040CC000008014010B50400002C07D0012C05D0CD
:1040DC0040F2D721DFF80C0201F0ECFC014804603F
:1040EC0010BD00BFD800424210B5002200210023B1
:1040FC005FF0000CDFF8E4E0DEF800E01EF00C0EE0
:10410C007246002A04D0042A05D0082A06D025E0DD
:10411C002C49016024E02C49016021E02F490968F9
:10412C0011F470112D4A126812F48033890C891C19
:10413C00002B04D1254A01FB02F1016010E0274A53
:10414C00126812F4003F04D0214A01FB02F1016015
:10415C0006E01D4A01FB02F1016001E01949016012
:10416C001E49096811F0F00212091A4912F801C02F
:10417C00016831FA0CF141601849096811F4E062E8
:10418C00120A144912F801C0416831FA0CF181602D
:10419C001249096811F46052D20A0E4912F801C092
:1041AC00416831FA0CF1C1600C49096811F44042C4
:1041BC00920B094912F801C0C168B1FBFCF1016115
:1041CC0010BD00BF00127A00001BB70000093D00B3
:1041DC00808D5B003C0F00206C0F0020041002400F
:1041EC0038B504000D002848204201D1002C04D120
:1041FC0040F237413B4801F05DFCEDB2002D07D099
:10420C00EDB2012D04D04FF48761364801F052FC19
:10421C00EDB2002D05D00648006820430449086023
:10422C0005E003480068E14308400149086031BDDE
:10423C001810024038B504000D002948204201D165
:10424C00002C04D140F25541264801F033FCEDB26C
:10425C00002D07D0EDB2012D04D040F2564121487B
:10426C0001F028FCEDB2002D05D006480068204373
:10427C000449086005E003480068E143084001492F
:10428C00086031BD1C1002400200FFFF38B504006D
:10429C000D001348204201D1002C04D140F2AC4156
:1042AC00104801F007FCEDB2002D07D0EDB2012D46
:1042BC0004D040F2AD410B4801F0FCFBEDB2002DF7
:1042CC0005D00648006820430449086005E003480F
:1042DC000068E14308400149086031BD10100240FC
:1042EC00C03701C1185E000810B5164801F0BCFBC0
:1042FC00002001F081F8002001F0AAF810211248EA
:10430C00FDF7D2FF002001F0B1F86E20FEF718FB8C
:10431C00012001F0ABF8C820FEF712FB012001F0E0
:10432C0097F8C820FEF70CFB084C05E06178207864
:10433C0080B2FFF705FEA41C20780028F6D10020DF
:10434C0010BD00BFDC70000800080140A40E002066
:10435C0080B54020FFF7D6FD02BD000080B542209D
:10436C00FFF7D0FD02BD00000F4800787047000039
:10437C0080B5C0B205217FF02B0200FB0121C9B230
:10438C002E20FFF787FE01BD80B5010089B24FF4E6
:10439C007D70FFF7F5FD01BD80B5010089B240F2DB
:1043AC00F230FFF7EDFD01BD780F002080B50A005B
:1043BC0001001000C0B2FFF723FE01BD80B50A005A
:1043CC0001001000C0B2FFF701FE01BD38B540F688
:1043DC00C41400254FF480613248FDF7EDFE00282F
:1043EC00F8D002212220FFF755FE02E01420FEF740
:1043FC00A7FA641E200080B2012809D34420FFF7DD
:10440C006DFD4FF400712748FDF7D6FE0028EDD066
:10441C00A4B2002C09D140F2D3110D4801F036FBA7
:10442C0001254820FFF75AFD0AE000254FF4806172
:10443C001C48FDF7C1FE0028F8D08120FFF7FAFDDB
:10444C002C212220FFF726FE2800C0B232BD00BF6F
:10445C00706C000880B54220FFF740FD01BD0000E4
:10446C0080B54520FFF73AFD01BD000080B58820DE
:10447C00FFF7E0FD4FF4807000F0E2F8002000F050
:10448C00BBFF01BD80B5012000F0B6FF01BD0000EF
:10449C0080B54FF400610348FDF78EFE0028F8D17B
:1044AC0001BD00000010014010B50400002021796E
:1044BC00002906D02079042803D06921684801F02E
:1044CC00F9FA6079082809D060790C2806D060794F
:1044DC00102803D06A21624801F0ECFA2068000D24
:1044EC000005002802D12068002803D16B215C480C
:1044FC0001F0E0FAA079002806D0A079012803D0B9
:10450C006C21574801F0D6FA4C48A179002939D0D2
:10451C004A4909682268D2431140484A11601D4932
:10452C0009682268D24311401A4A1160217908188F
:10453C000168226811430160174800682168C9436B
:10454C00084015490860154800682168C9430840AF
:10455C0012490860607910280CD10F480068216856
:10456C0008430D4908600D480068216808430B4951
:10457C0008600EE03148617908180168226811431F
:10458C00016006E02179081801682268D2431140C5
:10459C00016010BD04040140080401400C040140FA
:1045AC0010B5040000200021012C35D0022C33D092
:1045BC00042C31D0082C2FD0102C2DD0202C2BD00B
:1045CC00402C29D0802C27D0B4F5807F24D0B4F592
:1045DC00007F21D0B4F5806F1ED0B4F5006F1BD0D6
:1045EC00B4F5805F18D0B4F5005F15D0B4F5804FEA
:1045FC0012D0B4F5004F0FD0B4F5803F0CD0B4F509
:10460C00003F09D0B4F5802F06D0B4F5002F03D0AD
:10461C00E421134801F04EFA0848006814EA00013E
:10462C0010480068044205D00800401E8041C04379
:10463C00C00F00E00020C0B210BD0000000401401B
:10464C0010B50400200D0005002801D1002C03D169
:10465C00FB21034801F02EFA0248046010BD000053
:10466C00845B0008140401404FF6F8710840DFF831
:10467C00A811086070470000C0B2DFF8A42152F8FE
:10468C00202048F68F131A40114389B2C0B2DFF8CC
:10469C00902142F820107047C0B2DFF8842152F804
:1046AC00202048F6BF731A400B0013F0100F01D0F6
:1046BC0092F0100211F0200F01D092F02002C0B243
:1046CC00DFF85C1192B241F820207047C0B2DFF8DD
:1046DC00502152F820204BF68F731A4011F4805F52
:1046EC0001D092F4805211F4005F01D092F4005288
:1046FC00C0B2DFF82C1192B241F8202070470000B4
:10470C00C0B2DFF81C1151F8201048F6BF721140EE
:10471C0091F0100191F02001C0B2DFF8042189B2B0
:10472C0042F8201070470000C0B2DFF8F41051F8C6
:10473C0020104BF68F72114091F4805191F400517E
:10474C00C0B2DFF8DC2089B242F8201070470000BC
:10475C00C0B2DFF8CC1051F8201048F68F6211402F
:10476C00C0B2DFF8BC2042F820107047DFF8A82058
:10477C00126892B2C0B212EBC000244A89B2490846
:10478C0089B2490042F8101070470000DFF8882009
:10479C00126892B2C0B212EBC0001D4A89B249082D
:1047AC0089B2490042F8101070470000DFF8682009
:1047BC00126892B2C0B212EBC000DFF8602089B26E
:1047CC0042F8101070470000134A126892B2C0B23F
:1047DC0012EBC0000F4A12EB400089B23F290BD3F9
:1047EC0089B24A0911F01F0F00D1521E92B29102E8
:1047FC0051F40041016008E089B24A0811F0010F40
:10480C0000D0521C92B291020160704700600040CF
:10481C00086000400C600040505C004004600040A8
:10482C00005C0040B0B581EA030C0CF0004C40F287
:10483C00FF7515EA11541DBF15EA1357AC42AF4270
:10484C003AE0E41923EA455343F48013C90241F0DA
:10485C00004141EA50574FEAC02E1100AEFB020254
:10486C0000284FF00000E7FB01204FF00001E3FBB4
:10487C000E2118BF42F00102401800214941E3FB10
:10488C000701A4F580640F0302D252004041494154
:10489C0054F101046BDD470872F1004250F1000045
:1048AC0051EB0451A1F580115CBF41EA0C01B0BD84
:1048BC004CEA05510020B0BD05EA1357AC4214BFB9
:1048CC00AF4240E050EA410E1CBF52EA430E02E0F8
:1048DC0061460020B0BD24423C441AD13F42F7D07F
:1048EC00090302BF01460020143FB1FA81FEA7EB79
:1048FC000E0401FA0EF70EF10C0ECEF1200100FAA7
:10490C000EFEC84047EA000723EA455343F48013E0
:10491C00A3E733F00043B3FA83F704BFB2FA82FE85
:10492C0077440B3FE41BB7F1200E2FBF02FA0EF3B6
:10493C00BB40C7F1200E22FA0EFE38BF43EA0E032D
:10494C00BA40641C82E750EA410E14BF52EA430E8F
:10495C006FF000014FF4001717EB430F8ABF194695
:10496C0017EB410FB6E74CEA05510020B0BDD4F16E
:10497C000104B4F120070FDAC4F12007520828BF54
:10498C0042F0010210FA07F501FA07F7E1BF2A43DA
:10499C00E0403843E1400FE0352C99DCC7F12004AE
:1049AC0052EA400220FA07F218BF42F0010231FA33
:1049BC0007F0A1400A43002172F1004250F10000BF
:1049CC0051EB0C01B0BD0000F0B44FF0004591EA82
:1049DC00030F44BF6B4000F0CABB8B4208BF82423E
:1049EC0005D98446100062464C19591923004FF41E
:1049FC00001C1CEB410F06D308BF1CEB430F28BF58
:104A0C006FF0000162E0BCEB430F14D9AB4352EAE8
:104A1C0043060BD04FEA4C0CBCEB410F04D80C0DE9
:104A2C00661E342E57DD51E0801A994150EA41063A
:104A3C0008BF00214AE00C0DA4EB1356362E45DCC2
:104A4C00012E45DC4FEA045445EAC32343EA525392
:104A5C0012BFD20292025B0845EAC12141EA5051D1
:104A6C00D2EBC020994125D404BF01460020B1FAF5
:104A7C0081F601FA06F1C6F1200220FA02F241EAAF
:104A8C00020100FA06F002BF203609421EE04FEA8E
:104A9C00F474B4EB465434F001064FEA740409D8AC
:104AAC00D6F50016760D2C40F04071FA06F2504007
:104ABC00F1404840C00A40EA415021EA050128BFB4
:104ACC005FEA500550F1000044EBD121F0BC704777
:104ADC0045EAC323DB0A45EAC121C90A202E0DDDB4
:104AEC00203E63FA06F5F3405D40124218BF45F0D4
:104AFC0001056D42984161F100010DE062FA06F585
:104B0C00F24085EA020563FA06FC82EA0C02F340E5
:104B1C005A406D429041994111F4801F05D1641E99
:104B2C00620502D06D004041494121F480116D00B5
:104B3C0008BF10F0010F98BF5FEA350550F1000077
:104B4C0041EB0451F0BC704710B5FF2313EAD0546D
:104B5C001DBF13EAD1529C429A4246E0A41ADA07CE
:104B6C0080EA0103134042EA012142EA0020421A82
:104B7C003CBF641E01EB4202090AB2FBF1F001FBDF
:104B8C0010221202B2FBF1FE01FB1E224EEA0020A3
:104B9C001202B2FBF1FE01FB1E224EEA00207F3412
:104BAC0010DDE40552EAC07272F1004154EB500082
:104BBC0058BF10F5000F5CBF184310BDFF2043EA2F
:104BCC00C05010BDD4F1020440F08070192C0ADCE6
:104BDC00C4F1200110FA01F10A4372F1004120FAEC
:104BEC0004F0584110BD180010BD4FF0807212EB4C
:104BFC00400F3CBF12EB410F14E012EB400F08D3F7
:104C0C0012EB410F28BF6FF0000001F0004148404B
:104C1C0010BD12EB410F12BF6FF00000484000F0C6
:104C2C00004010BD44001CBF5FEA41040DE044008D
:104C3C0080EA010000F000401CBF40EAC35010BDE8
:104C4C004A0008BF6FF0000010BD4FF08072B2EB4D
:104C5C00400F20D9B2EB410F0DD980EA010303F0CC
:104C6C00004340024902B0FA80F2B1FA81F490405C
:104C7C00A140A41A7BE703EAD15490EA010303F0A4
:104C8C0000434002B0FA80F290406442A41A090238
:104C9C0041F000416BE703EAD05490EA010303F0C2
:104CAC0000434902B1FA81F29140A418000240F08D
:104CBC0000405CE780B55648006850F0010054494C
:104CCC000860544800680F49084052490860504831
:104CDC0000680D4908404E4908604D4800687FF453
:104CEC00802108404A4908604A4800687FF4FE0168
:104CFC0008404849086005485FF41F01016000F056
:104D0C0007F801BD0000FFF8FFFFF6FE0810024097
:104D1C0080B500F001F801BD82B0002001900020A8
:104D2C0000903B48006850F480303949086038489E
:104D3C00006810F4003000900198401C019000981D
:104D4C00002803D10198B0F5A06FF0D1304800686D
:104D5C0010F40030401E8041C043C00F00900098FA
:104D6C00012851D12948006850F0100027490860EB
:104D7C0026480068032188432449086023480068BA
:104D8C0050F002002149086022482249096801605C
:104D9C0020482049096801601E48006850F4806072
:104DAC001C4908601B48006850F400401949086011
:104DBC00184800687FF47C110840164908601548B3
:104DCC00006850F48810134908601148006850F0CE
:104DDC0080700F4908600E48006810F0007FFAD010
:104DEC000C480068032188430A4908600948006898
:104DFC0050F00200074908600648006810F00C00EB
:104E0C000828F9D102B07047FEE700BF002002402D
:104E1C00001002400410024010B50400B4F5E06F1D
:104E2C000FD0B4F5C06F0CD0B4F5A06F09D0B4F5A9
:104E3C00806F06D0B4F5407F03D062213D4800F06E
:104E4C0039FE024820432A49086010BD0000FA05CB
:104E5C0038B50400002000210F25E278002A06D086
:104E6C00E078012803D07421324800F023FE6078EA
:104E7C00102803D375212F4800F01CFEA0781028B1
:104E8C0003D376212B4800F015FEE07800281DD0C6
:104E9C001748006810F4E060D0F5E060000AD0F12B
:104EAC000401C54060788840A1782940084300017E
:104EBC0021780C4A8854207840110B490122237820
:104ECC0013F01F039A4041F8202009E0207840118C
:104EDC0006490122237813F01F039A4041F8202041
:104EEC0031BD00BF00E400E000E100E080E100E043
:104EFC000CED00E038B504000D00B4F1005F06D0F5
:104F0C00B4F1006F03D09D210A4800F0D3FD064890
:104F1C00854203D39E21074800F0CCFD034828406E
:104F2C0020430349086031BDFFFF070080FFFF1FCE
:104F3C0008ED00E0545F000870B505000C00E8882F
:104F4C0047F6F0710840001140F2FF76B0420DD1E7
:104F5C00E88810F00F0F05D1A88818B9688808B92F
:104F6C00288808B1022070BD012070BD30B928001E
:104F7C0000F068F9012801DB002070BD0419B4426F
:104F8C000BDBE88810F4004F02D00020304901E020
:104F9C0000203049C5E90001E6E7012CE88809DB6F
:104FAC0048F20F010840A4B240EA0410E8804FF028
:104FBC00FF3070BD00F40040E98801F00F0141F0B2
:104FCC001001E980641E6FF033018C4205DAE88031
:104FDC000020A8806880288070BD24B26FF00E017C
:104FEC008C420BDA6A882A80AA886A80EA88AA80AE
:104FFC000022EA80103424B28C42F3DB614209B205
:10500C000A001FD0C2F110022B880B41B5F802C068
:10501C000CFA02FC4CEA03032B806B880B41B5F8AD
:10502C0004C00CFA02FC4CEA03036B80AB880B4106
:10503C00B5F806C00CFA02F21A43AA80EA8822FAE2
:10504C0001F1E980E9880843E8804FF0FF3070BD3A
:10505C000000F0FF0000F07FA446FF2212EAD054BB
:10506C001DBF12EAD1539442934222E0E418D307B5
:10507C0080EA01021A4043EA012143EA0020A1FB25
:10508C00003000424CBF641C4000803C51DB5B088C
:10509C00E40553EA006373F1004154EB10206446BD
:1050AC005EBF10F5000F10437047FF2042EAC0505E
:1050BC00704702EAD153944214BF934223E042005A
:1050CC001CBF5FEA410204E0484000F00040644627
:1050DC00704780EA010202F0004224420AD11B42CE
:1050EC0038D04002B0FA80F4A0401C1B090241F0F9
:1050FC000041C4E74902B1FA81F39940E41A000275
:10510C0040F00040BBE7430014BF5FEA41036FF07F
:10511C0000004FF0807313EB410F64468ABF0846C2
:10512C0013EB400F7047484000F0004040EAC2507B
:10513C007047D4F10804202C0CDCC4F120015B086E
:10514C0010FA01F10B4373F1004120FA04F05041C5
:10515C00644670471046644670470000F0B44FF048
:10516C00004591EA030C44BF6B40FFF736BC8B4201
:10517C0008BF824205D98446100062468C4619004D
:10518C0063464FF4001C1CEB410F01D3F0BC70477D
:10519C00BCEB430F0FD952EA430648D0BCEB410F8E
:1051AC0005D80C0DAB43661E342E0CDD3FE0AB4333
:1051BC00801859413BE00C0DA4EB1356352E36DC10
:1051CC0045EAC323DB0A45EAC121C912202E11DBB3
:1051DC00203E18BF5FEA020263FA06F523FA06F3D3
:1051EC0085EA030518BF45F00105C01851F100010F
:1051FC000CD213E072FA06F5F2405540F3415A40D6
:10520C00B340F3405A408018594107D349085FEA2C
:10521C0030005FEA350528BF45F0010501F5801126
:10522C00420875F1004250F1000041EB0451F0BC12
:10523C004FF4001C1CEB410F38BF70470020090DC8
:10524C000905704710B50100C88800F40042012020
:10525C00CB8803F00F03CB80C3B98B8823B94B8861
:10526C0013B90B88002B57D08B88CB80B1F802C0B8
:10527C00A1F804C0B1F800C0A1F802C04FF0000CB6
:10528C00A1F800C0103800B2002BEDD0CB88102B49
:10529C001ED28B88B1F806C04FEAD33E4EEA4C0CB6
:1052AC00A1F806C0B1F802E04FEADE3444EA430349
:1052BC008B800B88DC0B44EA4E0EA1F802E05B00FD
:1052CC000B80401E00B21FFA8CFCBCF1100FE0D317
:1052DC00CB88202B1CD34B88B1F800C04FEAC33EBF
:1052EC004EEA5C0CA1F800C0B1F804C04FEACC3E09
:1052FC004EEA53034B80CB884FEAC33E4EEA5C0C1C
:10530C00A1F804C05B08CB80401C00B2202BE2D279
:10531C00CB8803F00F03CB80CB881A43CA8010BD17
:10532C0080B54FF400711448FCF7E8FF01BD000094
:10533C0080B54FF400711048FCF7B6FF01BD0000BA
:10534C0080B520210C48FCF7D9FF01BD80B5202188
:10535C000948FCF7A9FF01BD80B54FF480710648E0
:10536C00FCF7CCFF01BD000080B54FF48071024802
:10537C00FCF79AFF01BD0000000C014080B5FFF75F
:10538C00CFFFFFF7DDFFFFF7E7FF01BD80B5FFF7AC
:10539C00CFFFFFF7DBFFFFF7E7FF01BD10B5040000
:1053AC0018E0FFF7C5FFFFF7CBFFFFF7D5FFFDF7C1
:1053BC0025F9FFF7B5FFFFF7C9FFFFF7CDFFFDF7A5
:1053CC001DF9FFF7ADFFFFF7BBFFFFF7CDFFFDF7B3
:1053DC0015F9641E002CE4D110BD000080B5FFF758
:1053EC00CDFFFDF70BF9FFF7D1FFFDF707F9032010
:1053FC00FFF7D4FF01BD000010B584B004004FF4DA
:10540C00C060FFF709FD17208DF8000000208DF813
:10541C00010000208DF802008DF8034000A8FFF772
:10542C0017FD08210220FDF76DF84FF48070FFF78F
:10543C0007F94FF48070019000208DF808000820C7
:10544C008DF809008DF80A4001A8FFF72DF81FBD53
:10545C0080B5C0B2002804D140210B48FCF74EFFA8
:10546C0003E040210848FCF71FFF01BD80B5C0B226
:10547C00002804D180210448FCF740FF03E0802180
:10548C000148FCF711FF01BD0010014010B50400EC
:10549C0002210D48FEF706F90028F9D0E4B22100EC
:1054AC0089B20948FEF7D0F810BD000080B5064857
:1054BC00FEF7E2F8C0B202BD80B501210248FEF74A
:1054CC00F1F80028F9D001BD003001402DE9005061
:1054DC0003D34942404261F1000100F01BF8BDE8E2
:1054EC0000505FEA4C0C05D34942404261F1000187
:1054FC001CEA0C0F03D55B42524263F10003704768
:10550C0013F0004C03D55B42524263F100039CEA5A
:10551C00210CDBD151EA030C0ED1002A1FBF8446AB
:10552C00B0FBF2F002FB10C2704701F045BE0B005D
:10553C00020000210020704752EA030CF5D02DE93F
:10554C00F041002400250F00060052EA03081FD08A
:10555C005FF0000892185B4108D2BB4208BFB24210
:10556C0098BF08F10108F5D918F100085FEA330378
:10557C004FEA3202B01A77EB030124BF0F460646FE
:10558C0064416D415B084FEA3202B8F10108F1DA6F
:10559C002000290032003B00BDE8F08170B5050009
:1055AC0005F10F0407208443012000F0BBF8A5424D
:1055BC0004D3012000F0DCF8002070BD082C04D2CC
:1055CC00082402E0083000F0DFF8224D28680100C2
:1055DC000CD1291D00E0011D0868A0B10268A2428F
:1055EC00F9D315E01368A34212D2111D0A68002AE0
:1055FC00F8D10068291D03E01368A34208D2111DDD
:10560C000A688242F8D100F037FF0028DAD1002175
:10561C000029CED00E6830680838A04202D27068DB
:10562C00086008E0A0190860726842603068001BCE
:10563C000A6810603460086818B1416809B1001D2F
:10564C0000E000202860012000F092F806F108002C
:10565C0070BD00BF740A0020058C0901A1018501F1
:10566C0009011500250175089501B1828501090113
:10567C009182850209021500250175089501B182F8
:10568C00850209029182850309031500250175081D
:10569C009501B182850309039182850409041500E3
:1056AC00250175089501B18285040904918285054F
:1056BC000905150025017501818209057501B18265
:1056CC007507818385057507B18385060906150065
:1056DC0025017501818209067501B18275078183E7
:1056EC0085067507B18385070907150026FF007528
:1056FC0008818285070907B182C0000010B5214CD2
:10570C00201D00F0DBFB04F1080000F0D7FB04F1D6
:10571C000C0000F0D3FB04F11000BDE8104000F0C9
:10572C00CDBB000038B50400164D286898B9281D6B
:10573C0000F0BCFB05F1080000F0B8FB05F10C0013
:10574C0000F0B4FB05F1100000F0B0FB00220021CA
:10575C00064800F09FF801202860042C04D205EBC9
:10576C008400001D00F0B2FB31BD00BF09570008DA
:10577C0080B5042805D2034901EB8000001D00F020
:10578C00ADFB01BD340A002010B5F0B1A0F1080446
:10579C002068082819D310F0070F16D10120FFF745
:1057AC00C1FF1A48416809B18C4203D26160446060
:1057BC001BE019004B680BB1A342FAD30A685318CB
:1057CC009C4203D20120FFF7D3FF10BDA34204D1AA
:1057DC0023689A180A600C0007E04A681AB123681B
:1057EC001B199A42EED362604C6061680029E9D0C3
:1057FC00226812198A42E5D1002101606068216893
:10580C0002685118216040686060DBE7740A002070
:10581C00DFF820201268528A80B2002807D18888CD
:10582C00801ADFF8101009680882002001E008686F
:10583C00101870478C0A002080B512490A78002194
:10584C0017E00B00DBB2DFF840C05CF823309BB2F2
:10585C0048F68F7C1CEA03038C465FFA8CFC5CEAEE
:10586C0003038C465FFA8CFCDFF81CE04EF82C30FE
:10587C00491C9142E5D3C0B250F080000349086046
:10588C0001BD00BF700F0020005C00404C5C00406C
:10589C007047000080B51D4BD3F800C0DFF828E03E
:1058AC00F44506D20CF10C0EC3F800E0BCF1000F6D
:1058BC0001D1012002BDCCF80010CCF80400CCF8CA
:1058CC000820002002BD00BFD4070020002000BF2C
:1058DC00F8B50E4C27683E0014D00B4D00E08847FD
:1058EC00AE420FD02068874201D0060007000C3E64
:1058FC0071680800F4D00020706030680028EED188
:10590C008847EDE7F1BD00BF00060020740F0020B2
:10591C0070B500F10801026801EBC202406802EBAD
:10592C00C00000239C469E4601E0AC4207D1824257
:10593C0000D170BD52F8044B52F8045B2D1963452D
:10594C0002BF51F8043B51F804CB9C446345ECD0A6
:10595C00AC42EAD0BEF1000F08BF13F901EB0026F0
:10596C0001E004F8016BBEF1000FEFD0AC42EDD0BA
:10597C006345EBD0BEF1000F52BFAEF1010E13F830
:10598C00016B0EF1010EECE738B504000D00DFF8E9
:10599C00580084420DD0DFF85400844209D0DFF85F
:1059AC005000844205D040F2CB11DFF8480000F0E3
:1059BC0081F8EDB2002D08D0EDB2012D05D04FF4D9
:1059CC00E671DFF8300000F075F8EDB2002D04D070
:1059DC00A06850F4A000A06004E0A0687FF4A001CF
:1059EC000840A06031BD00000024014000280140A7
:1059FC00003C0140285D00088B0707D0521E24BFD5
:105A0C0011F8013B00F8013BF6D8704783071ED113
:105A1C00103A07D330B4B1E83810103AA0E8381077
:105A2C00F9D230BC530724BFB1E80810A0E8081025
:105A3C0044BF51F8043B40F8043BD20724BF31F873
:105A4C00022B20F8022B44BF0B7803707047083AE6
:105A5C0007D3B1E80810083A40F8043B40F804CBEF
:105A6C00F7D25307E4E7000080B50100014800F0CD
:105A7C005DFD01BD6071000880B50A00010002489F
:105A8C0000F054FD01BD00BFD070000880B50A00C5
:105A9C000100024800F04AFD01BD00BF2869000862
:105AAC0080B50A000100024800F040FD01BD00BFB6
:105ABC00D864000880B50A000100024800F036FDE9
:105ACC00FEE700BFBC620008C9B2830706D0521EB5
