:020000040800F2
:100000000000022049750008F96B0008076C000821
:100010000D6C0008136C0008196C0008000000004B
:100020000000000000000000000000001F6C00083D
:100030002D6C0008000000003B6C0008496C0008B3
:100040009975000899750008997500089975000858
:100050009975000899750008997500089975000848
:1000600099750008596C0008676C000899750008BC
:100070009975000899750008997500089975000828
:100080009975000899750008997500089975000818
:100090009975000899750008997500089975000808
:1000A00099750008997500089975000899750008F8
:1000B00099750008997500089975000899750008E8
:1000C00099750008997500089975000899750008D8
:1000D000997500089975000899750008756C0008F5
:1000E000896C0008997500089975000899750008D1
:1000F00099750008997500089975000899750008A8
:100100009975000899750008997500089975000897
:10011000997500089975000899750008A16C000888
:10012000B56C000899750008997500089975000864
:100130009975000899750008997500089975000867
:100140009975000899750008997500089975000857
:100150009975000899750008997500089975000847
:100160009975000899750008997500089975000837
:10017000997500089975000899750008000000003D
:0801800099750008997500084B
:1001900010B5054C237833B9044B13B10448AFF3C1
:1001A00000800123237010BDDC010020000000004E
:1001B00024A1000808B5034B1BB103490348AFF362
:1001C000008008BD00000000E001002024A100081C
:1001D000034613F8012B002AFBD1181A0138704787
:1001E00001F0FF01102A2BDB10F0070F08D010F8E8
:1001F000013B013A8B422DD010F0070F42B3F6D1EC
:10020000F0B441EA012141EA014122F007047FF004
:1002100000070023F0E80256083C85EA010586EA5B
:10022000010685FA47F5A3FA87F586FA47F6A5FA97
:1002300087F68EB9EED1F0BC01F0FF0102F00702A3
:1002400032B110F8013B013A83EA010313B1F8D14E
:100250000020704701387047002D06BF354603382F
:10026000073815F0010F07D1013015F4807F02BF68
:10027000013015F4C03F0130F0BC0138704700BFB9
:1002800081F0004102E000BF83F0004330B54FEA47
:1002900041044FEA430594EA050F08BF90EA020FB4
:1002A0001FBF54EA000C55EA020C7FEA645C7FEA47
:1002B000655C00F0E2804FEA5454D4EB5555B8BF6A
:1002C0006D420CDD2C4480EA020281EA030382EADB
:1002D000000083EA010180EA020281EA0303362D6D
:1002E00088BF30BD11F0004F4FEA01314FF4801C40
:1002F0004CEA113102D0404261EB410113F0004F52
:100300004FEA03334CEA133302D0524263EB430308
:1003100094EA050F00F0A780A4F10104D5F1200EA6
:100320000DDB02FA0EFC22FA05F2801841F1000101
:1003300003FA0EF2801843FA05F359410EE0A5F1D5
:1003400020050EF1200E012A03FA0EFC28BF4CF006
:10035000020C43FA05F3C01851EBE37101F00045BC
:1003600007D54FF0000EDCF1000C7EEB00006EEBC9
:100370000101B1F5801F1BD3B1F5001F0CD3490853
:100380005FEA30004FEA3C0C04F101044FEA4452AA
:1003900012F5800F80F09A80BCF1004F08BF5FEA31
:1003A000500C50F1000041EB045141EA050130BD11
:1003B0005FEA4C0C404141EB010111F4801FA4F1B4
:1003C0000104E9D191F0000F04BF01460020B1FA09
:1003D00081F308BF2033A3F10B03B3F120020CDA41
:1003E0000C3208DD02F1140CC2F10C0201FA0CF01F
:1003F00021FA02F10CE002F11402D8BFC2F1200C84
:1004000001FA02F120FA0CFCDCBF41EA0C01904039
:10041000E41AA2BF01EB0451294330BD6FEA040482
:100420001F3C1CDA0C340EDC04F11404C4F120026D
:1004300020FA04F001FA02F340EA030021FA04F37F
:1004400045EA030130BDC4F10C04C4F1200220FAD6
:1004500002F001FA04F340EA0300294630BD21FA14
:1004600004F0294630BD94F0000F83F4801306BFDA
:1004700081F480110134013D4EE77FEA645C18BFCE
:100480007FEA655C29D094EA050F08BF90EA020F65
:1004900005D054EA000C04BF1946104630BD91EA5D
:1004A000030F1EBF0021002030BD5FEA545C05D160
:1004B0004000494128BF41F0004130BD14F580049F
:1004C0003CBF01F5801130BD01F0004545F0FE4113
:1004D00041F470014FF0000030BD7FEA645C1ABF48
:1004E000194610467FEA655C1CBF0B46024650EA7F
:1004F000013406BF52EA033591EA030F41F40021AB
:1005000030BD00BF90F0000F04BF0021704730B530
:100510004FF4806404F132044FF000054FF0000105
:1005200050E700BF90F0000F04BF0021704730B5C6
:100530004FF4806404F1320410F0004548BF40429B
:100540004FF000013EE700BF42004FEAE2014FEAF0
:1005500031014FEA02701FBF12F07F4393F07F4FCB
:1005600081F06051704792F0000F14BF93F07F4FFD
:10057000704730B54FF4607401F0004521F0004140
:1005800020E700BF50EA010208BF704730B54FF0C6
:1005900000050AE050EA010208BF704730B511F0CB
:1005A000004502D5404261EB41014FF4806404F103
:1005B00032045FEA915C3FF4DCAE4FF003025FEA85
:1005C000DC0C18BF03325FEADC0C18BF033202EB0D
:1005D000DC02C2F1200300FA03FC20FA02F001FA67
:1005E00003FE40EA0E0021FA02F11444C1E600BF06
:1005F00070B54FF0FF0C4CF4E06C1CEA11541DBFB9
:100600001CEA135594EA0C0F95EA0C0F00F0DEF883
:100610002C4481EA030621EA4C5123EA4C5350EA68
:10062000013518BF52EA033541F4801143F48013B9
:1006300038D0A0FB02CE4FF00005E1FB02E506F04A
:100640000042E0FB03E54FF00006E1FB03569CF09F
:10065000000F18BF4EF0010EA4F1FF04B6F5007FA5
:1006600064F5407404D25FEA4E0E6D4146EB060617
:1006700042EAC62141EA55514FEAC52040EA5E50A0
:100680004FEACE2EB4F1FD0C88BFBCF5E06F1ED84A
:10069000BEF1004F08BF5FEA500E50F1000041EB81
:1006A000045170BD06F0004646EA010140EA02002E
:1006B00081EA0301B4EB5C04C2BFD4EB0C0541EA50
:1006C000045170BD41F480114FF0000E013C00F365
:1006D000AB8014F1360FDEBF002001F0004170BD89
:1006E000C4F10004203C35DA0C341BDC04F11404A2
:1006F000C4F1200500FA05F320FA04F001FA05F22E
:1007000040EA020001F0004221F0004110EBD370FA
:1007100021FA04F642EB06015EEA430E08BF20EA26
:10072000D37070BDC4F10C04C4F1200500FA04F3C9
:1007300020FA05F001FA04F240EA020001F000415B
:1007400010EBD37041F100015EEA430E08BF20EACE
:10075000D37070BDC4F1200500FA05F24EEA020E16
:1007600020FA04F301FA05F243EA020321FA04F045
:1007700001F0004121FA04F220EA020000EBD370FC
:100780005EEA430E08BF20EAD37070BD94F0000FFC
:100790000FD101F00046400041EB010111F4801F30
:1007A00008BF013CF7D041EA060195F0000F18BFE1
:1007B000704703F00046520043EB030313F4801F1D
:1007C00008BF013DF7D043EA0603704794EA0C0FD7
:1007D0000CEA135518BF95EA0C0F0CD050EA4106ED
:1007E00018BF52EA4306D1D181EA030101F000416A
:1007F0004FF0000070BD50EA410606BF1046194692
:1008000052EA430619D094EA0C0F02D150EA01369D
:1008100013D195EA0C0F05D152EA03361CBF1046DE
:1008200019460AD181EA030101F0004141F0FE417D
:1008300041F470014FF0000070BD41F0FE4141F401
:10084000780170BD70B54FF0FF0C4CF4E06C1CEA01
:1008500011541DBF1CEA135594EA0C0F95EA0C0FB6
:1008600000F0A7F8A4EB050481EA030E52EA033571
:100870004FEA013100F088804FEA03334FF0805592
:1008800045EA131343EA12634FEA022245EA1115BF
:1008900045EA10654FEA00260EF000419D4208BF70
:1008A000964244F1FD0404F5407402D25B084FEA1D
:1008B0003202B61A65EB03055B084FEA32024FF4C9
:1008C00080104FF4002CB6EB020E75EB030E22BF26
:1008D000B61A754640EA0C005B084FEA3202B6EBE6
:1008E000020E75EB030E22BFB61A754640EA5C0095
:1008F0005B084FEA3202B6EB020E75EB030E22BF25
:10090000B61A754640EA9C005B084FEA3202B6EB25
:10091000020E75EB030E22BFB61A754640EADC00E4
:1009200055EA060E18D04FEA051545EA16754FEA46
:1009300006164FEAC30343EA52734FEAC2025FEA64
:100940001C1CC0D111F4801F0BD141EA00014FF0F3
:1009500000004FF0004CB6E711F4801F04BF0143C4
:100960000020B4F1FD0C88BFBCF5E06F3FF6AFAEE0
:10097000B5EB030C04BFB6EB020C5FEA500C50F170
:10098000000041EB045170BD0EF0004E4EEA1131F3
:1009900014EB5C04C2BFD4EB0C0541EA045170BDFA
:1009A00041F480114FF0000E013C90E645EA060E3E
:1009B0008DE60CEA135594EA0C0F08BF95EA0C0F6C
:1009C0003FF43BAF94EA0C0F0AD150EA01347FF4B4
:1009D00034AF95EA0C0F7FF425AF104619462CE78B
:1009E00095EA0C0F06D152EA03353FF4FDAE1046EE
:1009F000194622E750EA410618BF52EA43067FF43F
:100A0000C5AE50EA41047FF40DAF52EA43057FF4CE
:100A1000EBAE12E74FF0FF3C06E000BF4FF0010CD9
:100A200002E000BF4FF0010C4DF804CD4FEA410C3D
:100A30007FEA6C5C4FEA430C18BF7FEA6C5C1BD00A
:100A400001B050EA410C0CBF52EA430C91EA030F8B
:100A500002BF90EA020F0020704710F1000F91EAE8
:100A6000030F58BF994208BF90422CBFD8176FEAB6
:100A7000E37040F0010070474FEA410C7FEA6C5C84
:100A800002D150EA013C07D14FEA430C7FEA6C5C8B
:100A9000D6D152EA033CD3D05DF8040B704700BFB7
:100AA0008446104662468C461946634600E000BF05
:100AB00001B5FFF7B7FF002848BF10F1000F01BDD7
:100AC0004DF808EDFFF7F4FF0CBF012000205DF8A2
:100AD00008FB00BF4DF808EDFFF7EAFF34BF012027
:100AE00000205DF808FB00BF4DF808EDFFF7E0FFC0
:100AF00094BF012000205DF808FB00BF4DF808ED11
:100B0000FFF7CEFF94BF012000205DF808FB00BF77
:100B10004DF808EDFFF7C4FF34BF012000205DF859
:100B200008FB00BF4FEA410C7FEA6C5C02D150EA3F
:100B3000013C0AD14FEA430C7FEA6C5C02D152EAD5
:100B4000033C02D14FF0000070474FF001007047A6
:100B50004FEA410212F5001215D211D56FF47873E5
:100B6000B3EB625212D94FEAC12343F0004343EA88
:100B7000505311F0004F23FA02F018BF4042704763
:100B80004FF00000704750EA013005D111F00040ED
:100B900008BF6FF0004070474FF00000704700BF83
:100BA00053B94AB9002908BF00281CBF4FF0FF31D4
:100BB0004FF0FF3000F07AB9ADF1080C6DE904CECA
:100BC00000F006F8DDF804E0DDE9022304B0704728
:100BD0002DE9F0478C460D460446089E002B51D166
:100BE0008A4217466DD9B2FA82FEBEF1000F0BD0D1
:100BF000CEF1200C01FA0EF520FA0CFC02FA0EF7E9
:100C00004CEA050C00FA0EF44FEA174A250CBCFB1F
:100C1000FAF81FFA87F90AFB18CC45EA0C4508FBDD
:100C200009F3AB420AD9ED1908F1FF3280F02381B4
:100C3000AB4240F22081A8F102083D44ED1AA4B273
:100C4000B5FBFAF00AFB105544EA054400FB09F92C
:100C5000A14509D9E41900F1FF3380F00A81A145CB
:100C600040F2078102383C44A4EB090440EA084002
:100C70000021002E61D024FA0EF40023346073604A
:100C8000BDE8F0878B4207D9002E54D0002186E8BA
:100C900021000846BDE8F087B3FA83F1002940F04F
:100CA0008E80AB4202D3824200F2FA80841A65EB56
:100CB00003050120AC46002E3FD086E81010BDE8A9
:100CC000F08712B90127B7FBF2F7B7FA87FEBEF13A
:100CD000000F34D1EB1B3A0C1FFA87FC0121B3FB48
:100CE000F2F8250C02FB183345EA03450CFB08F328
:100CF000AB4207D9ED1908F1FF3002D2AB4200F246
:100D0000D1808046ED1AA3B2B5FBF2F002FB10557C
:100D100043EA05440CFB00FCA44507D9E41900F1A3
:100D2000FF3302D2A44500F2B8801846A4EB0C04AD
:100D300040EA08409DE731463046BDE8F087CEF1F5
:100D4000200405FA0EF307FA0EF720FA04F83A0C1D
:100D500025FA04F448EA0308B4FBF2F14FEA184517
:100D600002FB11441FFA87FC45EA044501FB0CF322
:100D7000AB4200FA0EF409D9ED1901F1FF3080F011
:100D80008A80AB4240F2878002393D44EB1A1FFA59
:100D900088F5B3FBF2F002FB103345EA034500FB94
:100DA0000CF3AB4207D9ED1900F1FF386FD2AB421B
:100DB0006DD902383D44EB1A40EA01418FE7C1F199
:100DC000200722FA07F88B4005FA01F448EA0303EA
:100DD00020FA07FE4FEA134CFD404EEA040EB5FB25
:100DE000FCF94FEA1E440CFB19551FFA83F844EA3C
:100DF000054509FB08F4AC4202FA01F200FA01FAD7
:100E000008D9ED1809F1FF3043D2AC4241D9A9F11C
:100E100002091D442D1B1FFA8EFEB5FBFCF00CFBD6
:100E200010554EEA054400FB08F8A04507D9E41820
:100E300000F1FF3529D2A04527D902381C4440EAE9
:100E40000940A4EB0804A0FB02894C45C6464D4668
:100E500015D312D056B1BAEB0E0364EB050404FAB5
:100E600007F7CB401F43CC40376074600021BDE8DA
:100E7000F0871846F8E69046E0E6C245EAD2B8EBBD
:100E8000020E69EB03050138E4E72846D7E7404640
:100E900091E78146BEE7014678E702383C4445E7E2
:100EA000084608E7A8F102083D442BE7704700BF59
:100EB00080B500AF0E4A0E4B1B6843F400731360FD
:100EC0000B4A0B4B1B6843F480631360084A084BC2
:100ED0001B6843F480731360032000F011FD0020B1
:100EE00000F008F805F036FE0023184680BD00BF6C
:100EF000003C024080B582B000AF7860124B1A68A7
:100F0000124B1B7819464FF47A73B3FBF1F3B2FB23
:100F1000F3F3184600F029FD0346002B01D001230E
:100F20000EE07B680F2B0AD8002279684FF0FF3063
:100F300000F0F1FC064A7B681360002300E0012307
:100F400018460837BD4680BD080000200400002078
:100F50000000002080B400AF064B1B781A46064BF9
:100F60001B681344044A136000BFBD465DF8047B50
:100F7000704700BF040000200802002080B400AFCA
:100F8000034B1B681846BD465DF8047B704700BFE5
:100F90000802002080B584B000AF7860FFF7EEFF54
:100FA000B8607B68FB60FB68B3F1FF3F05D0094B7D
:100FB0001B781A46FB681344FB6000BFFFF7DEFF97
:100FC0000246BB68D21AFB689A42F7D300BF1037BB
:100FD000BD4680BD0400002080B584B000AF7860BD
:100FE0000023FB737B68002B01D1012333E07B6876
:100FF0001B6C002B09D17B6800225A647B6800229D
:1010000083F83C20786805F05BF97B681B6C03F083
:101010001003002B18D17B681B6C23F4885323F03A
:10102000020343F002027B681A64786800F02CFA2D
:101030007B6800225A647B681B6C23F0030343F037
:1010400001027B681A6401E00123FB737B680022C4
:1010500083F83C20FB7B18461037BD4680BD00005E
:1010600080B586B000AFF860B9607A6000233B615C
:10107000FB6893F83C30012B01D10223B0E0FB6800
:10108000012283F83C20FB681B689B6803F0010386
:10109000012B18D0FB681B68FA681268926842F04E
:1010A00001029A60504B1B68504AA2FB03239A0C22
:1010B00013465B0013443B6102E03B69013B3B612B
:1010C0003B69002BF9D1FB681B689B6803F00103A7
:1010D000002B00F08480FB681B6C23F4E06323F09A
:1010E000010343F48072FB681A64FB681B685B6849
:1010F00003F48063002B07D0FB681B6C23F4405380
:1011000043F48052FB681A64FB681B6C03F4805341
:10111000002B06D0FB685B6C23F00602FB685A6468
:1011200002E0FB6800225A64FB68002283F83C203E
:101130002F4B7B61FB689B6B2E4ADA63FB689B6BD2
:101140002D4A1A64FB689B6B2C4ADA64FB681B68A7
:101150006FF022021A60FB681B68FA681268526816
:1011600042F080625A60FB681B68FA6812689268F5
:1011700042F480729A60FB68986BFB681B684C3382
:101180001946BA687B6800F0CFFD7B695B6803F0A5
:101190001F03002B0FD1FB681B689B6803F04053B3
:1011A000002B1CD1FB681B68FA681268926842F039
:1011B00080429A6013E0FB681B68114A93420ED18B
:1011C000FB681B689B6803F04053002B07D1FB684A
:1011D0001B68FA681268926842F080429A600023A5
:1011E00018461837BD4680BD0800002083DE1B432B
:1011F000002301407D160008231700083F17000850
:101200000020014080B483B000AF786000BF0C378D
:10121000BD465DF8047B704780B483B000AF786052
:1012200000BF0C37BD465DF8047B704780B483B0C7
:1012300000AF786000BF0C37BD465DF8047B704797
:1012400090B484B000AF786039600023BB607B68E5
:1012500093F83C30012B01D1022307E17B68012286
:1012600083F83C203B681B68092B26D97B681A68E9
:101270007B681B68D9683B681B689BB218460346AD
:101280005B0003441E3B072000FA03F3DB430B40E3
:10129000D3607B681A687B681B68D9683B6898686C
:1012A0003B681B689BB21C4623465B0023441E3BE5
:1012B00000FA03F30B43D36023E07B681A687B6872
:1012C0001B6819693B681B689BB2184603465B00A4
:1012D0000344072000FA03F3DB430B4013617B68F0
:1012E0001A687B681B6819693B6898683B681B68CB
:1012F0009BB21C4623465B00234400FA03F30B43D6
:1013000013613B685B68062B24D87B6819687B688F
:101310001B68586B3B685A6813469B001344053B97
:101320001F2202FA03F3DB4303404B637B68196817
:101330007B681B68586B3B681B689BB21C463B680C
:101340005A6813469B001344053B04FA03F3034316
:101350004B634CE03B685B680C2B24D87B681968B6
:101360007B681B68186B3B685A6813469B001344E4
:10137000233B1F2202FA03F3DB4303400B637B682A
:1013800019687B681B68186B3B681B689BB21C461E
:101390003B685A6813469B001344233B04FA03F34B
:1013A00003430B6323E07B6819687B681B68D86A7A
:1013B0003B685A6813469B001344413B1F2202FAC4
:1013C00003F3DB430340CB627B6819687B681B68CF
:1013D000D86A3B681B689BB21C463B685A68134638
:1013E0009B001344413B04FA03F30343CB62224BBB
:1013F000FB607B681B68214A934209D13B681B68EC
:10140000122B05D1FB685B6843F48002FB685A60CD
:101410007B681B68194A934223D13B681B68102BD9
:1014200003D03B681B68112B1BD1FB685B6843F43E
:101430000002FB685A603B681B68102B11D1104BEF
:101440001B68104AA2FB03239A0C13469B0013440B
:101450005B00BB6002E0BB68013BBB60BB68002B6C
:10146000F9D17B68002283F83C200023184610370E
:10147000BD4690BC704700BF0023014000200140E2
:101480000800002083DE1B4380B485B000AF786085
:10149000784BFB60FB685B6823F44032FB685A6062
:1014A000FB685A687B685B681A43FB685A607B6814
:1014B0001B687A681268526822F480725A607B68EE
:1014C0001B687A68126851687A68126912020A43C6
:1014D0005A607B681B687A681268526822F0407212
:1014E0005A607B681B687A68126851687A689268EB
:1014F0000A435A607B681B687A681268926822F413
:1015000000629A607B681B687A68126891687A68E2
:10151000D2680A439A607B689B6A574A934222D0FA
:101520007B681B687A681268926822F070629A6021
:101530007B681B687A68126891687A68926A0A43C5
:101540009A607B681B687A681268926822F0405241
:101550009A607B681B687A68126891687A68D26AB8
:101560000A439A600FE07B681B687A681268926889
:1015700022F070629A607B681B687A6812689268D1
:1015800022F040529A607B681B687A681268926801
:1015900022F002029A607B681B687A681268916880
:1015A0007A68926952000A439A607B681B6A002B32
:1015B0001BD07B681B687A681268526842F400622C
:1015C0005A607B681B687A681268526822F460422D
:1015D0005A607B681B687A68126851687A68526A38
:1015E000013A52030A435A6007E07B681B687A6835
:1015F0001268526822F400625A607B681B687A683D
:101600001268D26A22F47002DA627B681B687A6818
:101610001268D16A7A68D269013A12050A43DA621D
:101620007B681B687A681268926822F400729A607C
:101630007B681B687A68126891687A68126B52023C
:101640000A439A607B681B687A681268926822F481
:1016500080629A607B681B687A68126891687A6811
:10166000526992020A439A6000BF1437BD465DF882
:10167000047B7047002301400100000F80B584B057
:1016800000AF78607B689B6BFB60FB681B6C03F0B2
:101690005003002B3CD1FB681B6C43F40072FB68C9
:1016A0001A64FB681B689B6803F04053002B2BD126
:1016B000FB689B69002B27D1FB681B68DB6A03F47E
:1016C0007003002B06D0FB681B689B6803F48063E3
:1016D000002B19D1FB681B68FA681268526822F067
:1016E00020025A60FB681B6C23F48072FB681A644A
:1016F000FB681B6C03F48053002B05D1FB681B6C4B
:1017000043F00102FB681A64F868FFF77BFD04E010
:10171000FB689B6BDB6C7868984700BF1037BD4651
:1017200080BD80B584B000AF78607B689B6BFB6048
:10173000F868FFF771FD00BF1037BD4680BD80B56A
:1017400084B000AF78607B689B6BFB60FB684022D5
:101750001A64FB685B6C43F00402FB685A64F86827
:10176000FFF764FD00BF1037BD4680BD80B485B073
:1017700000AF78607B6803F00703FB600C4BDB680D
:10178000BB60BA684FF6FF031340BB60FB681A02E8
:10179000BB68134343F0BF6343F40033BB60044AA8
:1017A000BB68D36000BF1437BD465DF8047B70474B
:1017B00000ED00E080B400AF044BDB681B0A03F0CF
:1017C00007031846BD465DF8047B704700ED00E056
:1017D00080B483B000AF0346FB71094997F9073025
:1017E0005B09FA7902F01F02012000FA02F241F8C7
:1017F000232000BF0C37BD465DF8047B704700BF57
:1018000000E100E080B483B000AF03463960FB71B3
:1018100097F90730002B0BDA0D49FB7903F00F0322
:10182000043B3A68D2B21201D2B20B441A7609E0F4
:10183000084997F907303A68D2B21201D2B20B4484
:1018400083F8002300BF0C37BD465DF8047B70476A
:1018500000ED00E000E100E080B489B000AFF86086
:10186000B9607A60FB6803F00703FB61FB69C3F1B1
:101870000703042B28BF0423BB61FB690433062B39
:1018800002D9FB69033B00E000237B610122BB69B5
:1018900002FA03F35A1EBB681A407B699A40012181
:1018A0007B6901FA03F3591E7B680B40134318460A
:1018B0002437BD465DF8047B7047000080B582B0D8
:1018C00000AF78607B68013BB3F1807F01D30123D7
:1018D0000FE00A4A7B68013B53600F214FF0FF3055
:1018E000FFF790FF054B00229A60044B07221A6015
:1018F000002318460837BD4680BD00BF10E000E059
:1019000080B582B000AF78607868FFF72FFF00BF26
:101910000837BD4680BD80B586B000AF0346B960CC
:101920007A60FB7300237B61FFF744FF78617A687C
:10193000B9687869FFF790FF024697F90F301146B2
:101940001846FFF75FFF00BF1837BD4680BD80B562
:1019500082B000AF0346FB7197F907301846FFF7D6
:1019600037FF00BF0837BD4680BD80B582B000AFED
:1019700078607868FFF7A2FF034618460837BD462F
:1019800080BD000080B483B000AF78607B68042B1A
:1019900006D1094A084B1B6843F00403136005E0B5
:1019A000054A054B1B6823F00403136000BF0C3786
:1019B000BD465DF8047B704710E000E080B500AFE5
:1019C00000F002F800BF80BD80B400AF00BFBD468C
:1019D0005DF8047B704780B582B000AF78607B68AB
:1019E000002B01D1012314E07B681B79DBB2002BB3
:1019F00005D17B6800225A71786804F001FD7B688C
:101A000002221A717B6800221A617B6801221A7116
:101A1000002318460837BD4680BD80B485B000AFAE
:101A2000786039600023FB600023BB607B685B79D2
:101A3000012B01D1022351E07B6801225A717B689E
:101A400002221A717B681B687A681268116801208B
:101A50003A6800FA02F20A431A603B68002B1AD176
:101A60007B681B681B6803F00403FB607B681B68D2
:101A70001B6803F03803BB60FB68042B27D1BB68ED
:101A8000382B24D17B681B687A681268526842F050
:101A900001025A601BE07B681B681B6803F480230B
:101AA000FB607B681B681B6803F46013BB60FB680A
:101AB000B3F5802F0BD1BB68B3F5601F07D17B68EE
:101AC0001B687A681268526842F002025A607B68AA
:101AD00001221A717B6800225A71002318461437BC
:101AE000BD465DF8047B704780B487B000AFF860F6
:101AF000B9607A6000237B6100233B61FB685B79FE
:101B0000012B01D1022336E0FB6801225A71FB68E8
:101B100002221A71FB681B681B687B6140F6FE722B
:101B20007B6802FA03F3DB437A6913407B61BB688D
:101B30001A68BB685B6813433B613A697B6802FAC9
:101B400003F37A6913437B61FB681B687A691A6047
:101B5000FB681B68FA6812681168C0207A6800FA8E
:101B600002F2D2430A401A60FB6801221A71FB6834
:101B700000225A71002318461C37BD465DF8047BCD
:101B8000704780B487B000AFF860B9607A603B609E
:101B900000237B61FB681B687B61BB68002B05D160
:101BA0007A697B68134408337B6104E07A697B6857
:101BB000134414337B617B691A463B68136000232E
:101BC00018461C37BD465DF8047B704780B586B06B
:101BD00000AF786000237B61FFF7D0F938617B6844
:101BE000002B01D1012399E07B68002283F8342087
:101BF0007B68022283F835207B681B687A6812684C
:101C0000126822F001021A600FE0FFF7B7F90246EE
:101C10003B69D31A052B08D97B6820225A657B685B
:101C2000032283F83520032378E07B681B681B6858
:101C300003F00103002BE8D17B681B681B687B6104
:101C40007A69384B13407B617B685A687B689B6874
:101C50001A437B68DB681A437B681B691A437B68FD
:101C60005B691A437B689B691A437B68DB691A438B
:101C70007B681B6A13437A6913437B617B685B6AE9
:101C8000042B07D17B68DA6A7B681B6B13437A6984
:101C900013437B617B681B687A691A607B681B68E9
:101CA0005B697B617B6923F007037B617B685B6A0F
:101CB0007A6913437B617B685B6A042B17D17B686D
:101CC0009B6A7A6913437B617B68DB6A002B0ED0C9
:101CD000786800F099FA0346002B08D07B68402210
:101CE0005A657B68012283F83520012316E07B6862
:101CF0001B687A695A61786800F050FA0346FB6005
:101D00007B68DB6D3F229A40FB689A607B6800220B
:101D10005A657B68012283F835200023184618375E
:101D2000BD4680BD3F8010F080B586B000AFF86042
:101D3000B9607A603B600023FB75FB689B6D3B617B
:101D4000FB6893F83430012B01D1022348E0FB6893
:101D5000012283F83420FB6893F83530DBB2012B85
:101D600037D1FB68022283F83520FB6800225A65D0
:101D70003B687A68B968F86800F0E2F9FB68DB6DE7
:101D80003F229A403B699A60FB681B68FA681268B8
:101D9000126842F016021A60FB681B68FA68126843
:101DA000526942F080025A61FB681B6C002B07D01D
:101DB000FB681B68FA681268126842F008021A6031
:101DC000FB681B68FA681268126842F001021A6028
:101DD00005E0FB68002283F834200223FB75FB7DBD
:101DE00018461837BD4680BD80B483B000AF786018
:101DF0007B6893F83530DBB2022B04D07B688022FD
:101E00005A6501230CE07B68052283F835207B6846
:101E10001B687A681268126822F001021A600023B7
:101E200018460C37BD465DF8047B704780B586B018
:101E300000AF78600023BB60924B1B68924AA2FB04
:101E400003239B0A7B617B689B6D3B613B691B683D
:101E5000FB607B68DB6D08229A40FB681340002B17
:101E60001AD07B681B681B6803F00403002B13D097
:101E70007B681B687A681268126822F004021A6094
:101E80007B68DB6D08229A403B699A607B685B6DDA
:101E900043F001027B685A657B68DB6D01229A4042
:101EA000FB681340002B12D07B681B685B6903F052
:101EB0008003002B0BD07B68DB6D01229A403B69CD
:101EC0009A607B685B6D43F002027B685A657B68B1
:101ED000DB6D04229A40FB681340002B12D07B6814
:101EE0001B681B6803F00203002B0BD07B68DB6DC3
:101EF00004229A403B699A607B685B6D43F0040260
:101F00007B685A657B68DB6D10229A40FB68134042
:101F1000002B43D07B681B681B6803F00803002B71
:101F20003CD07B68DB6D10229A403B699A607B68ED
:101F30001B681B6803F48023002B18D07B681B6888
:101F40001B6803F40023002B08D17B681B6C002B5B
:101F500024D07B681B6C786898471FE07B689B6C7B
:101F6000002B1BD07B689B6C7868984716E07B68D9
:101F70001B681B6803F48073002B07D17B681B6808
:101F80007A681268126822F008021A607B681B6C7B
:101F9000002B03D07B681B6C786898477B68DB6DEF
:101FA00020229A40FB681340002B00F08E807B6853
:101FB0001B681B6803F01003002B00F086807B6811
:101FC000DB6D20229A403B699A607B6893F835303C
:101FD000DBB2052B36D17B681B687A681268126801
:101FE00022F016021A607B681B687A6812685269D0
:101FF00022F080025A617B681B6C002B03D17B6846
:102000009B6C002B07D07B681B687A68126812688B
:1020100022F008021A607B68DB6D3F229A403B6920
:102020009A607B68002283F834207B68012283F861
:1020300035207B681B6D002B7DD07B681B6D78681D
:10204000984778E07B681B681B6803F48023002BAB
:102050001CD07B681B681B6803F40023002B08D18D
:102060007B685B6C002B30D07B685B6C7868984732
:102070002BE07B68DB6B002B27D07B68DB6B786801
:10208000984722E008000020B5814E1B7B681B6842
:102090001B6803F48073002B0FD17B681B687A6880
:1020A0001268126822F010021A607B68002283F81E
:1020B00034207B68012283F835207B68DB6B002BA2
:1020C00003D07B68DB6B786898477B685B6D002B7F
:1020D00032D07B685B6D03F00103002B22D07B685C
:1020E000052283F835207B681B687A6812681268BD
:1020F00022F001021A60BB680133BB607A69934227
:1021000007D87B681B681B6803F00103002BF2D122
:1021100000E000BF7B68002283F834207B68012246
:1021200083F835207B68DB6C002B05D07B68DB6C8B
:102130007868984700E000BF1837BD4680BD00BFF3
:1021400080B485B000AFF860B9607A603B60FB682E
:102150001B68FA681268126822F480221A60FB6811
:102160001B683A685A60FB689B68402B08D1FB6883
:102170001B687A689A60FB681B68BA68DA6007E0D7
:10218000FB681B68BA689A60FB681B687A68DA604B
:1021900000BF1437BD465DF8047B704780B485B03E
:1021A00000AF78607B681B68DBB2103B144AA2FB6F
:1021B00003231B09FB60134AFB6813441B781A4670
:1021C0007B68DA65FB68032B09D97B681B6823F4FD
:1021D0007F7323F003031A1D7B689A6507E07B6811
:1021E0001B6823F47F7323F003037A6893657B688D
:1021F0009B6D18461437BD465DF8047B704700BFE1
:10220000ABAAAAAAD0A1000880B485B000AF7860BC
:102210000023FB737B689B6ABB607B689B69002B18
:102220001FD1BB68032B55D801A252F823F000BF81
:10223000412200085322000841220008D52200084C
:102240007B68DB6A03F08073002B45D00123FB73AE
:1022500042E07B68DB6AB3F1C07F3FD10123FB73AF
:102260003CE07B689B69B3F5005F21D1BB68032B21
:1022700036D801A252F823F0892200088F220008E4
:1022800089220008A12200080123FB732FE07B684C
:10229000DB6A03F08073002B24D00123FB7321E061
:1022A0007B68DB6AB3F1C07F1ED10123FB731BE0A7
:1022B000BB68022B02D9032B03D018E00123FB7368
:1022C00015E07B68DB6A03F08073002B0ED00123DE
:1022D000FB730BE000BF0AE000BF08E000BF06E0B0
:1022E00000BF04E000BF02E000BF00E000BFFB7BD6
:1022F00018461437BD465DF8047B704780B489B03A
:1023000000AF7860396000237B6100233B610023CC
:10231000BB610023FB616BE10122FB6902FA03F35D
:102320007B613B681A687B6913403B613A697B6952
:102330009A4240F05A813B685B68022B03D03B68AD
:102340005B68122B23D1FB69DA087B68083253F8EB
:102350002230BB61FB6903F007039B000F2202FAE6
:1023600003F3DB43BA691340BB613B681A69FB693D
:1023700003F007039B0002FA03F3BA691343BB613E
:10238000FB69DA087B680832B96943F822107B6878
:102390001B68BB61FB695B00032202FA03F3DB43AA
:1023A000BA691340BB613B685B6803F00302FB69D9
:1023B0005B0002FA03F3BA691343BB617B68BA6935
:1023C0001A603B685B68012B0BD03B685B68022B93
:1023D00007D03B685B68112B03D03B685B68122B0E
:1023E00030D17B689B68BB61FB695B00032202FA0A
:1023F00003F3DB43BA691340BB613B68DA68FB69EE
:102400005B0002FA03F3BA691343BB617B68BA69E4
:102410009A607B685B68BB610122FB6902FA03F387
:10242000DB43BA691340BB613B685B681B0903F07F
:102430000102FB6902FA03F3BA691343BB617B68CB
:10244000BA695A607B68DB68BB61FB695B00032289
:1024500002FA03F3DB43BA691340BB613B689A6835
:10246000FB695B0002FA03F3BA691343BB617B6843
:10247000BA69DA603B685B6803F08053002B00F0B8
:10248000B4800023FB605F4A5E4B5B6C43F4804387
:1024900053645C4B5B6C03F48043FB60FB685A4AFB
:1024A000FB699B08023352F82330BB61FB6903F0E0
:1024B00003039B000F2202FA03F3DB43BA691340C4
:1024C000BB617B68514A93422BD07B68504A934250
:1024D00025D07B684F4A93421FD07B684E4A934277
:1024E00019D07B684D4A934213D07B684C4A934283
:1024F0000DD07B684B4A934207D07B684A4A93428F
:1025000001D107230EE008230CE006230AE005238F
:1025100008E0042306E0032304E0022302E0012391
:1025200000E00023FA6902F0030292009340BA69C6
:102530001343BB613449FB699B080233BA6941F814
:1025400023203A4B1B68BB613B69DB43BA691340EC
:10255000BB613B685B6803F48033002B03D0BA692E
:102560003B691343BB61314ABB6913602F4B5B6806
:10257000BB613B69DB43BA691340BB613B685B6885
:1025800003F40033002B03D0BA693B691343BB61EA
:10259000264ABB695360254B9B68BB613B69DB43A3
:1025A000BA691340BB613B685B6803F48013002B7E
:1025B00003D0BA693B691343BB611C4ABB69936092
:1025C0001A4BDB68BB613B69DB43BA691340BB61F3
:1025D0003B685B6803F40013002B03D0BA693B69C6
:1025E0001343BB61114ABB69D360FB690133FB61D3
:1025F000FB690F2B7FF690AE00BF2437BD465DF818
:10260000047B70470038024000380140000002405F
:102610000004024000080240000C0240001002408A
:102620000014024000180240001C0240003C01401F
:1026300080B483B000AF78600B467B8013467B701C
:102640007B78002B03D07A887B689A6103E07B88D3
:102650001A047B689A6100BF0C37BD465DF8047BA5
:10266000704780B483B000AF78600B467B807B6896
:102670005A697B885A407B685A6100BF0C37BD4657
:102680005DF8047B7047000080B582B000AF034660
:10269000FB80084B5A69FB881340002B06D0054A83
:1026A000FB885361FB88184604F020FA00BF083706
:1026B000BD4680BD003C014080B584B000AF78606D
:1026C0000023FB600023BB607B68002B01D101234A
:1026D000C8E07B6893F83D30DBB2002B06D17B6805
:1026E000002283F83C20786803F0A8FF7B6824224E
:1026F00083F83D207B681B687A681268126822F0B4
:1027000001021A6001F042F9B860BB68574AA2FBA7
:1027100003239B0CFB607B681B68FA685A607B682C
:102720001A687B685B6852498B4202D8FB680133A8
:1027300009E0FB684FF4967101FB03F34D49A1FBDF
:1027400003139B09013313627B6819687B685B681C
:10275000474A934212D87B685B685B00BA68B2FB59
:10276000F3F3C3F30B03032B06D97B685B685B00B1
:10277000BA68B2FBF3F345E0042343E07B689B684F
:10278000002B0FD17B685A6813465B001344BA686C
:10279000B2FBF3F3C3F30B03002B0CBF01230023A5
:1027A000DBB210E07B685A6813469B0013449A0022
:1027B0001344BA68B2FBF3F3C3F30B03002B0CBF53
:1027C00001230023DBB2002B01D001231AE07B6838
:1027D0009B68002B0AD17B685A6813465B00134440
:1027E000BA68B2FBF3F343F400430BE07B685A682A
:1027F00013469B0013449A001344BA68B2FBF3F3E8
:1028000043F44043CB617B681B687A68D1697A687E
:10281000126A0A431A607B681B687A6811697A68D1
:10282000D2680A439A607B681B687A6851697A6843
:1028300092690A43DA607B681B687A6812681268DA
:1028400042F001021A607B6800221A647B68202231
:1028500083F83D207B6800221A637B68002283F89E
:102860003E20002318461037BD4680BD83DE1B4343
:10287000A0860100D34D621080B58CB002AFF86025
:10288000084611461A4603467B810B463B81134698
:10289000FB8000237B62FEF771FB7862FB6893F894
:1028A0003D30DBB2202B40F012827B6A009319236B
:1028B00001228449F86800F0F3FA0346002B01D0A6
:1028C000022305E2FB6893F83C30012B01D102237F
:1028D000FEE1FB68012283F83C20FB681B681B6853
:1028E00003F00103012B07D0FB681B68FA6812682C
:1028F000126842F001021A60FB681B68FA681268ED
:10290000126822F400621A60FB68222283F83D20DC
:10291000FB68402283F83E20FB6800221A64FB68B3
:102920003A6B5A62FB68BA8E5A85FB68664ADA626D
:10293000FB685B8D9AB2FB681A85F8883A897989B9
:102940007B6A0193BB6B00930346F86800F0C6F9FD
:102950000346002B0FD0FB681B6C042B05D1FB68D2
:10296000002283F83C200123B2E1FB68002283F8B7
:102970003C200323ACE1FB681B8D002B13D100230B
:102980003B62FB681B685B693B62FB681B689B6979
:102990003B623B6AFB681B68FA681268126842F483
:1029A00000721A6080E1FB681B8D012B1BD1FB6854
:1029B0001B68FA681268126822F480621A600023A9
:1029C000FB61FB681B685B69FB61FB681B689B69BB
:1029D000FB61FB69FB681B68FA681268126842F4C5
:1029E00000721A6060E1FB681B8D022B1BD1FB6833
:1029F0001B68FA681268126822F480621A60FB6829
:102A00001B68FA681268126842F400621A600023B8
:102A1000BB61FB681B685B69BB61FB681B689B69EA
:102A2000BB61BB6940E100237B61FB681B685B699C
:102A30007B61FB681B689B697B617B6934E1FB6898
:102A40001B8D032B00F2EB80FB681B8D012B27D124
:102A50007A6AB96BF86800F01FFB0346002B07D0B9
:102A6000FB681B6C202B01D1032331E101232FE1F3
:102A7000FB685B6A591CFA685162FA68126812694D
:102A8000D2B21A70FB681B8D013B9AB2FB681A85A3
:102A9000FB685B8D9BB2013B9AB2FB685A8503E1F0
:102AA000FB681B8D022B4AD17B6A0093BB6B002213
:102AB0000649F86800F0F4F90346002B08D0032318
:102AC00006E100BF020010000000FFFF040001004B
:102AD000FB681B68FA681268126842F400721A6098
:102AE000FB685B6A591CFA685162FA6812681269DD
:102AF000D2B21A70FB681B8D013B9AB2FB681A8533
:102B0000FB685B8D9BB2013B9AB2FB685A85FB6800
:102B10005B6A591CFA685162FA6812681269D2B28B
:102B20001A70FB681B8D013B9AB2FB681A85FB6823
:102B30005B8D9BB2013B9AB2FB685A85B4E07B6A1D
:102B40000093BB6B00226449F86800F0A9F90346C2
:102B5000002B01D00323BBE0FB681B68FA681268F6
:102B6000126822F480621A60FB685B6A591CFA687A
:102B70005162FA6812681269D2B21A70FB681B8D32
:102B8000013B9AB2FB681A85FB685B8D9BB2013BE7
:102B90009AB2FB685A857B6A0093BB6B00224E4950
:102BA000F86800F07DF90346002B01D003238FE085
:102BB000FB681B68FA681268126842F400721A60B7
:102BC000FB685B6A591CFA685162FA6812681269FC
:102BD000D2B21A70FB681B8D013B9AB2FB681A8552
:102BE000FB685B8D9BB2013B9AB2FB685A85FB6820
:102BF0005B6A591CFA685162FA6812681269D2B2AB
:102C00001A70FB681B8D013B9AB2FB681A85FB6842
:102C10005B8D9BB2013B9AB2FB685A8544E07A6AAD
:102C2000B96BF86800F038FA0346002B07D0FB6850
:102C30001B6C202B01D103234AE0012348E0FB68F1
:102C40005B6A591CFA685162FA6812681269D2B25A
:102C50001A70FB681B8D013B9AB2FB681A85FB68F2
:102C60005B8D9BB2013B9AB2FB685A85FB681B687F
:102C70005B6903F00403042B16D1FB685B6A591CE3
:102C8000FA685162FA6812681269D2B21A70FB6867
:102C90001B8D013B9AB2FB681A85FB685B8D9BB26A
:102CA000013B9AB2FB685A85FB681B8D002B7FF4B1
:102CB000C6AEFB68202283F83D20FB68002283F823
:102CC0003E20FB68002283F83C20002300E0022322
:102CD00018462837BD4680BD0400010080B588B085
:102CE00002AFF860084611461A4603467B810B4640
:102CF0003B811346FB80FB681B68FA681268126808
:102D000042F480621A60FB681B68FA6812681268F5
:102D100042F480721A607B6A00933B6A00224FF093
:102D20000111F86800F0BCF80346002B01D0032322
:102D3000AFE0FB681B687A89D2B202F0FE021A612A
:102D40007B6A3A6A5549F86800F0FBF80346002BA5
:102D500007D0FB681B6C042B01D1012399E00323EE
:102D600097E000237B61FB681B685B697B61FB6804
:102D70001B689B697B617B697A6A396AF86800F035
:102D80004EF90346002B0FD0FB681B6C042B09D1B6
:102D9000FB681B68FA681268126842F400721A60D5
:102DA000012376E0032374E0FB88012B05D1FB6847
:102DB0001B683A89D2B21A6123E0FB681B683A8922
:102DC000120A92B2D2B21A617A6A396AF86800F0CD
:102DD00026F90346002B0FD0FB681B6C042B09D18E
:102DE000FB681B68FA681268126842F400721A6085
:102DF00001234EE003234CE0FB681B683A89D2B202
:102E00001A617A6A396AF86800F009F90346002BFA
:102E10000FD0FB681B6C042B09D1FB681B68FA6898
:102E20001268126842F400721A60012331E0032331
:102E30002FE0FB681B68FA681268126842F480721F
:102E40001A607B6A00933B6A00224FF00111F86818
:102E500000F026F80346002B01D0032319E0FB689D
:102E60001B687A89D2B242F00102D2B21A617B6A3F
:102E70003A6A0A49F86800F064F80346002B07D064
:102E8000FB681B6C042B01D1012302E0032300E04B
:102E9000002318461837BD4680BD00BF0200010060
:102EA00080B584B000AFF860B9603B601346FB7139
:102EB0001FE03B68B3F1FF3F1BD03B68002B07D0FE
:102EC000FEF75CF80246BB69D21A3B689A4210D9F9
:102ED000FB6800221A63FB68202283F83D20FB6810
:102EE000002283F83E20FB68002283F83C20032365
:102EF00023E0BB681B0CDBB2012B0DD1FB681B6808
:102F00005B69DA43BB6813409BB2002B0CBF012303
:102F10000023DBB21A460CE0FB681B689B69DA43AE
:102F2000BB6813409BB2002B0CBF01230023DBB214
:102F30001A46FB799A42BCD0002318461037BD468A
:102F400080BD80B584B000AFF860B9607A603B6046
:102F500040E0FB681B685B6903F48063B3F5806F36
:102F60001CD1FB681B68FA681268126842F4007290
:102F70001A60FB681B686FF480625A61FB68042268
:102F80001A64FB6800221A63FB68202283F83D2044
:102F9000FB68002283F83C2001233CE07B68B3F10E
:102FA000FF3F17D07B68002B07D0FDF7E7FF0246F5
:102FB0003B68D21A7B689A420CD9FB6800221A63DC
:102FC000FB68202283F83D20FB68002283F83C2028
:102FD000032320E0BB681B0CDBB2012B0CD1FB6888
:102FE0001B685B69DA43BB6813409BB2002B14BFBC
:102FF00001230023DBB20BE0FB681B689B69DA430B
:10300000BB6813409BB2002B14BF01230023DBB22B
:10301000002B9ED1002318461037BD4680BD80B5D9
:1030200084B000AFF860B9607A6029E0F86800F019
:103030007DF80346002B01D0012329E0BB68B3F1E2
:10304000FF3F1DD0BB68002B07D0FDF797FF02465E
:103050007B68D21ABB689A4212D9FB681B6C43F09A
:103060002002FB681A64FB6800221A63FB682022B6
:1030700083F83D20FB68002283F83C20032307E00F
:10308000FB681B685B6903F08003802BCED10023B3
:1030900018461037BD4680BD80B584B000AFF860DB
:1030A000B9607A6036E0FB681B685B6903F0100367
:1030B000102B14D1FB681B686FF010025A61FB687B
:1030C00000221A64FB6800221A63FB68202283F83E
:1030D0003D20FB68002283F83C20012322E0BB68EE
:1030E000002B07D0FDF74AFF02467B68D21ABB6867
:1030F0009A420FD9FB681B6C43F02002FB681A64EC
:10310000FB68202283F83D20FB68002283F83C20E6
:10311000032307E0FB681B685B6903F04003402B57
:10312000C1D1002318461037BD4680BD80B483B09E
:1031300000AF78607B681B685B6903F48063B3F55C
:10314000806F14D17B681B686FF480625A617B6862
:1031500004221A647B6800221A637B68202283F8A9
:103160003D207B68002283F83C20012300E00023FF
:1031700018460C37BD465DF8047B704780B586B0B5
:1031800000AF78607B68002B01D101232DE27B68C2
:103190001B6803F00103002B75D0A34B9B6803F061
:1031A0000C03042B0CD0A04B9B6803F00C03082BE2
:1031B00012D19D4B5B6803F48003B3F5800F0BD1F4
:1031C000994B1B6803F40033002B5BD07B685B6872
:1031D000002B57D1012308E27B685B68B3F5803F81
:1031E00006D1914A904B1B6843F4803313601DE075
:1031F0007B685B68B3F5A02F0CD18B4A8A4B1B68A8
:1032000043F480231360884A874B1B6843F4803360
:1032100013600BE0844A844B1B6823F480331360F3
:10322000814A814B1B6823F4802313607B685B68B1
:10323000002B13D0FDF7A2FE386108E0FDF79EFEDB
:1032400002463B69D31A642B01D90323CDE1764BA7
:103250001B6803F40033002BF0D014E0FDF78EFE62
:10326000386108E0FDF78AFE02463B69D31A642BF9
:1032700001D90323B9E16C4B1B6803F40033002B25
:10328000F0D100E000BF7B681B6803F00203002B55
:1032900063D0654B9B6803F00C03002B0BD0624B93
:1032A0009B6803F00C03082B1CD15F4B5B6803F495
:1032B0008003002B16D15C4B1B6803F00203002B2C
:1032C00005D07B68DB68012B01D001238DE15649D5
:1032D000554B1B6823F0F8027B681B69DB00134326
:1032E0000B603AE07B68DB68002B20D04F4B01225B
:1032F0001A60FDF743FE386108E0FDF73FFE024625
:103300003B69D31A022B01D903236EE1464B1B689C
:1033100003F00203002BF0D04349434B1B6823F01A
:10332000F8027B681B69DB0013430B6015E03F4B21
:1033300000221A60FDF722FE386108E0FDF71EFE4C
:1033400002463B69D31A022B01D903234DE1364BC8
:103350001B6803F00203002BF0D17B681B6803F0AD
:103360000803002B30D07B685B69002B16D0304BF4
:1033700001221A60FDF702FE386108E0FDF7FEFD4C
:1033800002463B69D31A022B01D903232DE1264BB8
:103390005B6F03F00203002BF0D015E0244B0022FA
:1033A0001A60FDF7EBFD386108E0FDF7E7FD024626
:1033B0003B69D31A022B01D9032316E11A4B5B6F29
:1033C00003F00203002BF0D17B681B6803F00403B9
:1033D000002B00F0A0800023FB75134B1B6C03F047
:1033E0008053002B0FD10023FB600F4A0E4B1B6C48
:1033F00043F0805313640C4B1B6C03F08053FB6051
:10340000FB680123FB750B4B1B6803F48073002BD7
:1034100021D1084A074B1B6843F480731360FDF702
:10342000ADFD386111E000BF0038024000004742A6
:10343000800E474200700040FDF7A0FD02463B6948
:10344000D31A022B01D90323CFE06A4B1B6803F484
:103450008073002BF0D07B689B68012B06D1664AF5
:10346000654B1B6F43F0010313671CE07B689B688F
:10347000052B0CD1604A604B1B6F43F004031367AC
:103480005D4A5D4B1B6F43F0010313670BE05A4A23
:10349000594B1B6F23F001031367574A564B1B6FA1
:1034A00023F0040313677B689B68002B15D0FDF79E
:1034B00065FD38610AE0FDF761FD02463B69D31AFC
:1034C00041F28832934201D903238EE04A4B1B6FAD
:1034D00003F00203002BEED014E0FDF74FFD38613E
:1034E0000AE0FDF74BFD02463B69D31A41F28832F0
:1034F000934201D9032378E03F4B1B6F03F0020393
:10350000002BEED1FB7D012B05D13B4A3A4B1B6CC6
:1035100023F0805313647B689B69002B64D0364B87
:103520009B6803F00C03082B5CD07B689B69022B23
:1035300041D1324B00221A60FDF720FD386108E0CE
:10354000FDF71CFD02463B69D31A022B01D9032368
:103550004BE0294B1B6803F00073002BF0D1264988
:103560007B68DA697B681B6A1A437B685B6A9B012C
:103570001A437B689B6A5B08013B1B041A437B6808
:10358000DB6A1B0613434B601C4B01221A60FDF7DC
:10359000F5FC386108E0FDF7F1FC02463B69D31AFF
:1035A000022B01D9032320E0134B1B6803F00073A7
:1035B000002BF0D018E0114B00221A60FDF7DEFC62
:1035C000386108E0FDF7DAFC02463B69D31A022BAA
:1035D00001D9032309E0084B1B6803F00073002B9B
:1035E000F0D101E0012300E0002318461837BD4662
:1035F00080BD00BF007000400038024060004742BC
:1036000080B584B000AF786039607B68002B01D151
:103610000123CAE0674B1B6803F00F023B689A4224
:103620000CD2644B3A68D2B21A70624B1B6803F03A
:103630000F023B689A4201D00123B6E07B681B6809
:1036400003F00203002B20D07B681B6803F0040307
:10365000002B05D0584A584B9B6843F4E0539360C5
:103660007B681B6803F00803002B05D0524A524BBD
:103670009B6843F4604393604F494F4B9B6823F032
:10368000F0027B689B6813438B607B681B6803F0C8
:103690000103002B44D07B685B68012B07D1464BAC
:1036A0001B6803F40033002B19D101237DE07B68F4
:1036B0005B68022B03D07B685B68032B07D13E4B12
:1036C0001B6803F00073002B09D101236DE03A4B16
:1036D0001B6803F00203002B01D1012365E036498A
:1036E000354B9B6823F003027B685B6813438B6058
:1036F000FDF744FCF8600AE0FDF740FC0246FB6879
:10370000D31A41F28832934201D903234DE02A4B68
:103710009B6803F00C027B685B689B009A42EBD1CC
:10372000244B1B6803F00F023B689A420CD9214BD3
:103730003A68D2B21A701F4B1B6803F00F023B6845
:103740009A4201D0012330E07B681B6803F0040338
:10375000002B08D01849184B9B6823F4E0527B6873
:10376000DB6813438B607B681B6803F00803002B46
:1037700009D01149104B9B6823F460427B681B6998
:10378000DB0013438B6000F01DF801460A4B9B6879
:103790001B0903F00F03094AD35C21FA03F3084A1B
:1037A00013600020FDF7A6FB002318461037BD4626
:1037B00080BD00BF003C024000380240D8A1000894
:1037C000080000202DE9F04F8FB000AF0023FB620E
:1037D00000237B630023BB6200233B63624B9B6837
:1037E00003F00C03042B07D0082B08D0002B40F06B
:1037F000B2805E4B3B63B1E05D4B3B63AEE05A4B46
:103800005B6803F03F03FB62574B5B6803F4800384
:10381000002B4ED0544B5B689B094FF0000440F2E4
:10382000FF114FF0000201EA030102EA04020B4615
:10383000144660017862786A40EAD36078625B017E
:103840003B62D7E908345B1A64EB02044FEA84193F
:1038500049EA93694FEA8318B8EB030869EB040956
:103860004FEAC903FB61FB6943EA5873FB614FEA06
:10387000C803BB61D7E9068918EB010849EB0209C7
:103880004FEA49237B617B6943EAD8537B614FEA66
:1038900048233B61D7E9048940464946FB6A4FF01B
:1038A00000041A462346FDF77BF903460C467B636A
:1038B00043E02D4B5B689B094FF0000440F2FF1181
:1038C0004FF0000201EA030102EA04020B4614462B
:1038D0006001F860F86840EAD360F8605B01BB60A3
:1038E000D7E902345B1A64EB0204A60146EA936648
:1038F0009D01ED1A66EB0406F3007B607B6843EAEA
:1039000055737B60EB003B6097E860006D1846EBF9
:1039100002064FEA862B4BEA955B4FEA852A55460D
:103920005E4628463146FB6A4FF000041A4623469D
:10393000FDF736F903460C467B630B4B5B681B0CAB
:1039400003F0030301335B00BB627A6BBB6AB2FB1B
:10395000F3F33B6302E0054B3B6300BF3B6B184650
:103960003C37BD46BDE8F08F003802400024F4002B
:1039700000127A0080B400AF034B1B681846BD46A6
:103980005DF8047B704700BF0800002080B500AFE1
:10399000FFF7F0FF0146054B9B689B0A03F0070306
:1039A000034AD35C21FA03F3184680BD0038024075
:1039B000E8A1000880B500AFFFF7DCFF0146054B2A
:1039C0009B685B0B03F00703034AD35C21FA03F304
:1039D000184680BD00380240E8A1000880B582B0DA
:1039E00000AF78607B68002B01D101231DE07B686C
:1039F00093F83930DBB2002B06D17B68002283F8C4
:103A00003820786803F01AFC7B68022283F839209A
:103A10007B681A687B6804331946104600F060FB27
:103A20007B68012283F83920002318460837BD46F9
:103A300080BD80B483B000AF78607B681B687A6813
:103A40001268D26842F00102DA607B681B687A680B
:103A50001268126842F001021A60002318460C37FF
:103A6000BD465DF8047B704780B582B000AF7860DA
:103A70007B68002B01D101231DE07B6893F839306E
:103A8000DBB2002B06D17B68002283F838207868EF
:103A900000F015F87B68022283F839207B681A68E9
:103AA0007B6804331946104600F01AFB7B6801223C
:103AB00083F83920002318460837BD4680BD80B4FE
:103AC00083B000AF786000BF0C37BD465DF8047B63
:103AD0007047000080B582B000AF786039607B68C5
:103AE0001B6801223968184600F01CFC7B681B68C3
:103AF000104A934204D07B681B680F4A934201D15D
:103B0000012300E00023002B07D07B681B687A6844
:103B10001268526C42F400425A647B681B687A68EF
:103B20001268126842F001021A6000231846083732
:103B3000BD4680BD000001400004014080B582B058
:103B400000AF78607B681B681B6903F00203022BDF
:103B500022D17B681B68DB6803F00203022B1BD1B8
:103B60007B681B686FF002021A617B6801221A767B
:103B70007B681B689B6903F00303002B03D0786804
:103B800000F08FFA05E0786800F081FA786800F0BC
:103B900092FA7B6800221A767B681B681B6903F027
:103BA0000403042B22D17B681B68DB6803F0040349
:103BB000042B1BD17B681B686FF004021A617B68C1
:103BC00002221A767B681B689B6903F44073002B02
:103BD00003D0786800F065FA05E0786800F057FADD
:103BE000786800F068FA7B6800221A767B681B68A8
:103BF0001B6903F00803082B22D17B681B68DB6874
:103C000003F00803082B1BD17B681B686FF00802C8
:103C10001A617B6804221A767B681B68DB6903F0F3
:103C20000303002B03D0786800F03BFA05E07868C6
:103C300000F02DFA786800F03EFA7B6800221A76D0
:103C40007B681B681B6903F01003102B22D17B6873
:103C50001B68DB6803F01003102B1BD17B681B680B
:103C60006FF010021A617B6808221A767B681B6865
:103C7000DB6903F44073002B03D0786800F011FA7D
:103C800005E0786800F003FA786800F014FA7B68C1
:103C900000221A767B681B681B6903F00103012B65
:103CA0000ED17B681B68DB6803F00103012B07D191
:103CB0007B681B686FF001021A61786802F0CAFE27
:103CC0007B681B681B6903F08003802B0ED17B6827
:103CD0001B68DB6803F08003802B07D17B681B68BF
:103CE0006FF080021A61786800F084FD7B681B68C1
:103CF0001B6903F04003402B0ED17B681B68DB6817
:103D000003F04003402B07D17B681B686FF0400233
:103D10001A61786800F0D9F97B681B681B6903F0A9
:103D20002003202B0ED17B681B68DB6803F0200387
:103D3000202B07D17B681B686FF020021A6178681E
:103D400000F04EFD00BF0837BD4680BD80B584B091
:103D500000AFF860B9607A60FB6893F83830012BE7
:103D600001D10223B4E0FB68012283F83820FB680C
:103D7000022283F839207B680C2B00F29F8001A27D
:103D800052F823F0B93D0008BD3E0008BD3E0008D2
:103D9000BD3E0008F93D0008BD3E0008BD3E0008DC
:103DA000BD3E00083B3E0008BD3E0008BD3E000889
:103DB000BD3E00087B3E0008FB681B68B9681846DA
:103DC00000F0D4FAFB681B68FA681268926942F046
:103DD00008029A61FB681B68FA681268926922F00F
:103DE00004029A61FB681B68FA6812689169BA68F4
:103DF00012690A439A6162E0FB681B68B968184659
:103E000000F018FAFB681B68FA681268926942F4BD
:103E100000629A61FB681B68FA681268926922F472
:103E200080629A61FB681B68FA6812689169BA68D7
:103E3000126912020A439A6141E0FB681B68B96883
:103E4000184600F007FBFB681B68FA681268D26925
:103E500042F00802DA61FB681B68FA681268D269EE
:103E600022F00402DA61FB681B68FA681268D16903
:103E7000BA6812690A43DA6121E0FB681B68B96815
:103E8000184600F05FFBFB681B68FA681268D2698D
:103E900042F40062DA61FB681B68FA681268D26952
:103EA00022F48062DA61FB681B68FA681268D169E3
:103EB000BA68126912020A43DA6100E000BFFB68C7
:103EC000012283F83920FB68002283F83820002380
:103ED00018461037BD4680BD80B584B000AF78600D
:103EE00039600023FB607B6893F83830012B01D1E7
:103EF0000223C8E07B68012283F838207B68022215
:103F000083F839207B681B689B68FB60FB6823F0A3
:103F10007703FB60FB6823F47F43FB607B681B68CF
:103F2000FA689A603B681B68402B77D0402B0ED80C
:103F3000102B00F08A80102B02D8002B7ED099E045
:103F4000202B00F08980302B00F08D8092E0702BC8
:103F500016D0702B04D8502B40D0602B4ED089E067
:103F6000B3F5805F03D0B3F5005F24D082E07B68B7
:103F70001B687A681268926822F007029A6079E0FA
:103F80007B6818683B6899683B685A683B68DB68DF
:103F900000F0BFFB7B681B689B68FB60FB6823F03D
:103FA0007703FB60FB6843F07703FB607B681B686B
:103FB000FA689A605EE07B6818683B6899683B68BD
:103FC0005A683B68DB6800F0A4FB7B681B687A6872
:103FD0001268926842F480429A604BE07B681868ED
:103FE0003B6859683B68DB681A4600F00BFB7B684E
:103FF0001B685021184600F06CFB3BE07B6818689A
:104000003B6859683B68DB681A4600F02EFB7B680A
:104010001B686021184600F05CFB2BE07B68186889
:104020003B6859683B68DB681A4600F0EBFA7B682E
:104030001B684021184600F04CFB1BE07B681B68A6
:104040000021184600F045FB14E07B681B68102136
:10405000184600F03EFB0DE07B681B6820211846E7
:1040600000F037FB06E07B681B683021184600F043
:1040700030FB00BF7B68012283F839207B68002277
:1040800083F83820002318461037BD4680BD80B421
:1040900083B000AF786000BF0C37BD465DF8047B8D
:1040A000704780B483B000AF786000BF0C37BD4666
:1040B0005DF8047B704780B483B000AF786000BFC8
:1040C0000C37BD465DF8047B704780B483B000AF09
:1040D000786000BF0C37BD465DF8047B7047000078
:1040E00080B485B000AF786039600023FB607B68E6
:1040F0001B68FB607B68444A934213D07B68B3F132
:10410000804F0FD07B68414A93420BD07B68404A76
:10411000934207D07B683F4A934203D07B683E4A74
:10412000934201D1012300E00023002B08D0FB685B
:1041300023F07003FB603B685B68FA681343FB6025
:104140007B68314A93422BD07B68B3F1804F27D0F4
:104150007B682E4A934223D07B682D4A93421FD01E
:104160007B682C4A93421BD07B682B4A934217D022
:104170007B682A4A934213D07B68294A93420FD026
:104180007B68284A93420BD07B68274A934207D02A
:104190007B68264A934203D07B68254A934201D12B
:1041A000012300E00023002B08D0FB6823F44073B8
:1041B000FB603B68DB68FA681343FB607B68FA6866
:1041C0001A603B689A687B68DA623B681A687B68A9
:1041D0009A627B680C4A934203D07B680E4A9342F2
:1041E00001D1012300E00023002B03D03B681A69B2
:1041F0007B681A637B6801225A6100BF1437BD4691
:104200005DF8047B704700BF0000014000040040DF
:1042100000080040000C0040000401400040014044
:10422000004401400048014000180040001C0040CC
:104230000020004080B487B000AF78603960002370
:10424000FB6000237B6100233B617B681B6A23F0DA
:1042500010027B681A627B681B6A7B617B685B6803
:104260003B617B689B69FB60FB6823F4E043FB6078
:10427000FB6823F44073FB603B681B681B02FA6811
:104280001343FB607B6923F020037B613B689B68E1
:104290001B017A6913437B617B68204A934203D0F8
:1042A0007B681F4A934201D1012300E00023002BC9
:1042B00021D07B6923F080037B613B68DB681B01B5
:1042C0007A6913437B617B6923F040037B613B691F
:1042D00023F480633B613B6923F400633B613B68EB
:1042E0005B699B003A6913433B613B689B699B0098
:1042F0003A6913433B617B683A695A607B68FA68A4
:104300009A613B685A687B689A637B687A691A622B
:1043100000BF1C37BD465DF8047B704700000140BC
:104320000004014080B487B000AFF860B9607A60E3
:1043300000237B610122BB6802FA03F37B61FB6807
:104340001A6A7B69DB431A40FB681A62FB681A6AC7
:104350007968BB6801FA03F31A43FB681A6200BF6D
:104360001C37BD465DF8047B7047000080B487B001
:1043700000AF786039600023FB6000237B6100237D
:104380003B617B681B6A23F001027B681A627B68D1
:104390001B6A7B617B685B683B617B689B69FB6038
:1043A000FB6823F07003FB60FB6823F00303FB60F2
:1043B0003B681B68FA681343FB607B6923F00203C8
:1043C0007B613B689B687A6913437B617B681F4A0A
:1043D000934203D07B681E4A934201D1012300E03F
:1043E0000023002B1ED07B6923F008037B613B6810
:1043F000DB687A6913437B617B6923F004037B618B
:104400003B6923F480733B613B6923F400733B6198
:104410003B685B693A6913433B613B689B693A6956
:1044200013433B617B683A695A607B68FA689A611A
:104430003B685A687B685A637B687A691A6200BF76
:104440001C37BD465DF8047B704700BF000001408B
:104450000004014080B487B000AF78603960002369
:10446000FB6000237B6100233B617B681B6A23F4B4
:1044700080727B681A627B681B6A7B617B685B6801
:104480003B617B68DB69FB60FB6823F07003FB60CA
:10449000FB6823F00303FB603B681B68FA68134367
:1044A000FB607B6923F400737B613B689B681B02A4
:1044B0007A6913437B617B68204A934203D07B680F
:1044C0001F4A934201D1012300E00023002B21D099
:1044D0007B6923F400637B613B68DB681B027A69BC
:1044E00013437B617B6923F480637B613B6923F425
:1044F00080533B613B6923F400533B613B685B693C
:104500001B013A6913433B613B689B691B013A6994
:1045100013433B617B683A695A607B68FA68DA61E9
:104520003B685A687B68DA637B687A691A6200BF05
:104530001C37BD465DF8047B704700BF000001409A
:104540000004014080B487B000AF78603960002378
:104550003B610023FB6000237B617B681B6A23F4C3
:1045600080527B681A627B681B6AFB607B685B68B1
:104570007B617B68DB693B613B6923F4E0433B6122
:104580003B6923F440733B613B681B681B023A693B
:1045900013433B61FB6823F40053FB603B689B685B
:1045A0001B03FA681343FB607B68144A934203D0F1
:1045B0007B68134A934201D1012300E00023002BC2
:1045C00009D07B6923F480437B613B685B699B0175
:1045D0007A6913437B617B687A695A607B683A69C0
:1045E000DA613B685A687B681A647B68FA681A6209
:1045F00000BF1C37BD465DF8047B704700000140DA
:104600000004014080B487B000AFF860B9607A6000
:1046100000237B6100233B61FB681B6A3B61FB68F5
:104620001B6A23F00102FB681A62FB689B697B61CD
:104630007B6923F0F0037B617B681B017A6913437C
:104640007B613B6923F00A033B613A69BB68134312
:104650003B61FB687A699A61FB683A691A6200BF3C
:104660001C37BD465DF8047B704780B487B000AF4F
:10467000F860B9607A6000237B6100233B61FB68CE
:104680001B6A23F01002FB681A62FB689B697B615E
:10469000FB681B6A3B617B6923F470437B617B6829
:1046A0001B037A6913437B613B6923F0A0033B61E1
:1046B000BB681B013A6913433B61FB687A699A61E5
:1046C000FB683A691A6200BF1C37BD465DF8047B7F
:1046D000704780B485B000AF78600B467B800023C4
:1046E000FB607B689B68FB60FB6823F07003FB60EA
:1046F0007B8843F007039BB21A46FB681343FB60B9
:104700007B68FA689A6000BF1437BD465DF8047B89
:10471000704780B487B000AFF860B9607A603B60E2
:1047200000237B61FB689B687B617B6923F47F438B
:104730007B613B681A027B681A43BB6813437A6942
:1047400013437B61FB687A699A6000BF1C37BD46E2
:104750005DF8047B704780B483B000AF7860396047
:104760007B6893F83830012B01D1022332E07B685B
:10477000012283F838207B68022283F839207B6885
:104780001B687A681268526822F070025A607B686F
:104790001B687A68126851683A6812680A435A605E
:1047A0007B681B687A681268926822F080029A60BF
:1047B0007B681B687A68126891683A6852680A4395
:1047C0009A607B68012283F839207B68002283F895
:1047D0003820002318460C37BD465DF8047B70472F
:1047E00080B483B000AF786000BF0C37BD465DF881
:1047F000047B704780B483B000AF786000BF0C3793
:10480000BD465DF8047B704780B582B000AF78602C
:104810007B68002B01D101233FE07B6893F839309E
:10482000DBB2002B06D17B68002283F83820786841
:1048300002F058FE7B68242283F839207B681B68CD
:104840007A681268D26822F40052DA60786800F060
:104850007FFB7B681B687A681268126922F49042B9
:104860001A617B681B687A681268526922F02A0212
:104870005A617B681B687A681268D26842F40052F9
:10488000DA607B680022DA637B68202283F83920B3
:104890007B68202283F83A20002318460837BD465B
:1048A00080BD80B588B002AFF860B9603B60134648
:1048B000FB8000237B61FB6893F83930DBB2202B4F
:1048C00040F08280BB68002B02D0FB88002B01D116
:1048D00001237AE0FB6893F83830012B01D10223E1
:1048E00073E0FB68012283F83820FB680022DA635A
:1048F000FB68212283F83920FCF740FB7861FB68D4
:10490000FA889A84FB68FA88DA8441E0FB68DB8CD9
:104910009BB2013B9AB2FB68DA84FB689B68B3F5F3
:10492000805F21D13B6800937B6900228021F86879
:1049300000F0ACF90346002B01D0032345E0BB682F
:104940003B61FB681B683A691288C2F308025A602F
:10495000FB681B69002B03D1BB680233BB6017E007
:10496000BB680133BB6013E03B6800937B690022A6
:104970008021F86800F08AF90346002B01D0032358
:1049800023E0FB681A68BB68591CB9601B78536048
:10499000FB68DB8C9BB2002BB8D13B6800937B6932
:1049A00000224021F86800F071F90346002B01D085
:1049B00003230AE0FB68202283F83920FB680022E9
:1049C00083F83820002300E0022318461837BD463C
:1049D00080BD80B485B000AFF860B9601346FB803D
:1049E000FB6893F83A30DBB2202B38D1BB68002B40
:1049F00002D0FB88002B01D1012331E0FB6893F842
:104A00003830012B01D102232AE0FB68012283F810
:104A10003820FB68BA689A62FB68FA889A85FB6856
:104A2000FA88DA85FB680022DA63FB68222283F8C1
:104A30003A20FB68002283F83820FB681B68FA687C
:104A40001268526942F001025A61FB681B68FA68F9
:104A50001268D26842F49072DA60002300E0022308
:104A600018461437BD465DF8047B704780B588B0A2
:104A700000AF78607B681B681B68FB617B681B6804
:104A8000DB68BB617B681B685B697B6100233B6102
:104A90000023FB60FB6903F00F033B613B69002BC4
:104AA0000DD1FB6903F02003002B08D0BB6903F094
:104AB0002003002B03D0786800F0D1F9CCE03B69EB
:104AC000002B00F0AB807B6903F00103002B05D1C4
:104AD000BB6903F49073002B00F0A080FB6903F026
:104AE0000103002B0AD0BB6903F48073002B05D0AF
:104AF0007B68DB6B43F001027B68DA63FB6903F0E0
:104B00000403002B0AD07B6903F00103002B05D0BE
:104B10007B68DB6B43F002027B68DA63FB6903F0BE
:104B20000203002B0AD07B6903F00103002B05D0A0
:104B30007B68DB6B43F004027B68DA63FB6903F09C
:104B40000803002B0AD07B6903F00103002B05D07A
:104B50007B68DB6B43F008027B68DA637B68DB6BA6
:104B6000002B78D0FB6903F02003002B07D0BB6932
:104B700003F02003002B02D0786800F070F97B6806
:104B80001B685B6903F04003002B14BF0123002363
:104B9000DBB2FB607B68DB6B03F00803002B02D108
:104BA000FB68002B31D0786800F0BAF87B681B688E
:104BB0005B6903F04003002B23D07B681B687A6895
:104BC0001268526922F040025A617B685B6B002BCD
:104BD00013D07B685B6B224A1A657B685B6B184657
:104BE000FDF702F90346002B16D07B685B6B1B6D4B
:104BF0007A68526B104698470EE0786800F03CF8EF
:104C00000AE0786800F038F806E0786800F034F8D8
:104C10007B680022DA631EE000BF1CE0FB6903F042
:104C20008003002B08D0BB6903F08003002B03D066
:104C3000786800F0A7F80FE0FB6903F04003002B51
:104C40000AD0BB6903F04003002B05D0786800F060
:104C5000EEF800BF00E000BF2037BD4680BD00BFBA
:104C60005D4D000880B483B000AF786000BF0C37A2
:104C7000BD465DF8047B704780B483B000AF7860B8
:104C800000BF0C37BD465DF8047B704780B584B02B
:104C900000AFF860B9603B601346FB712CE0BB6964
:104CA000B3F1FF3F28D0BB69002B07D0FCF766F9B2
:104CB00002463B68D21ABB699A421DD9FB681B6841
:104CC000FA681268D26822F4D072DA60FB681B6856
:104CD000FA681268526922F001025A61FB682022C8
:104CE00083F83920FB68202283F83A20FB680022F1
:104CF00083F8382003230FE0FB681B681A68BB6841
:104D00001A40BB689A420CBF01230023DBB21A464B
:104D1000FB799A42C3D0002318461037BD4680BDA8
:104D200080B483B000AF78607B681B687A681268D3
:104D3000D26822F49072DA607B681B687A68126825
:104D4000526922F001025A617B68202283F83A20DE
:104D500000BF0C37BD465DF8047B704780B584B05A
:104D600000AF78607B689B6BFB60FB680022DA8594
:104D7000FB680022DA84F868FFF77EFF00BF103777
:104D8000BD4680BD80B485B000AF78607B6893F885
:104D90003930DBB2212B43D17B689B68B3F5805F50
:104DA00019D17B681B6AFB607B681B68FA681288F4
:104DB000C2F308025A607B681B69002B05D17B682F
:104DC0001B6A9A1C7B681A620EE07B681B6A5A1C7D
:104DD0007B681A6208E07B681A687B681B6A581C4B
:104DE000796808621B7853607B68DB8C9BB2013B5F
:104DF0009BB27A681946D184002B0FD17B681B685F
:104E00007A681268D26822F08002DA607B681B68D8
:104E10007A681268D26842F04002DA60002300E04B
:104E2000022318461437BD465DF8047B704780B5F1
:104E300082B000AF78607B681B687A681268D268BD
:104E400022F04002DA607B68202283F839207868FB
:104E5000FFF708FF002318460837BD4680BD80B520
:104E600084B000AF78607B6893F83A30DBB2222BD5
:104E700069D17B689B68B3F5805F23D17B689B6AAF
:104E8000FB607B681B69002B0ED17B681B685B682D
:104E90009BB2C3F308039AB2FB681A807B689B6AD3
:104EA0009A1C7B689A6229E07B681B685B689BB2EE
:104EB000DBB29AB2FB681A807B689B6A5A1C7B68DB
:104EC0009A621BE07B681B69002B0AD17B689B6A96
:104ED000591C7A6891627A6812685268D2B21A7064
:104EE0000CE07B689B6A591C7A6891627A68126848
:104EF0005268D2B202F07F02D2B21A707B68DB8DA8
:104F00009BB2013B9BB27A681946D185002B18D120
:104F10007B681B687A681268D26822F49072DA6043
:104F20007B681B687A681268526922F001025A6134
:104F30007B68202283F83A20786801F06DFD002319
:104F400002E0002300E0022318461037BD4680BD72
:104F5000F0B585B000AF78600023FB607B681B680C
:104F60001B69FB60FB6823F44053FB607B68DB68D4
:104F7000FA681343FB607B681B68FA681A617B68F8
:104F80001B68DB68FB60FB6823F4164323F00C030B
:104F9000FB607B689A687B681B691A437B685B6966
:104FA0001A437B68DB691343FA681343FB607B6831
:104FB0001B68FA68DA607B681B685B69FB60FB68EA
:104FC00023F44073FB607B689B69FA681343FB60C2
:104FD0007B681B68FA685A617B68DB69B3F5004F30
:104FE00040F0E4807B681B68AB4A934204D07B6846
:104FF0001B68AA4A93426CD17B681C68FEF7DAFCF6
:10500000024613469B0013449A001A447B685B686F
:105010005B00B2FBF3F3A24AA2FB03235B091D0171
:10502000FEF7C8FC024613469B0013449A001A443C
:105030007B685B685B00B2FBF3F6FEF7BBFC0246E5
:1050400013469B0013449A001A447B685B685B001C
:10505000B2FBF3F3924AA2FB03235B09642202FB37
:1050600003F3F31ADB0032338D4AA2FB03235B09FF
:105070005B0003F4F8731D44FEF79CFC02461346E4
:105080009B0013449A001A447B685B685B00B2FB88
:10509000F3F6FEF78FFC024613469B0013449A007A
:1050A0001A447B685B685B00B2FBF3F37C4AA2FBAB
:1050B00003235B09642202FB03F3F31ADB003233A0
:1050C000774AA2FB03235B0903F007032B44A36089
:1050D00054E17B681C68FEF759FC024613469B00AE
:1050E00013449A001A447B685B685B00B2FBF3F3DD
:1050F0006B4AA2FB03235B091D01FEF747FC024636
:1051000013469B0013449A001A447B685B685B005B
:10511000B2FBF3F6FEF73AFC024613469B0013443B
:105120009A001A447B685B685B00B2FBF3F35C4A4D
:10513000A2FB03235B09642202FB03F3F31ADB00E7
:105140003233574AA2FB03235B095B0003F4F87375
:105150001D44FEF71BFC024613469B0013449A00B5
:105160001A447B685B685B00B2FBF3F6FEF70EFC4B
:10517000024613469B0013449A001A447B685B68FE
:105180005B00B2FBF3F3464AA2FB03235B096422F4
:1051900002FB03F3F31ADB003233414AA2FB032381
:1051A0005B0903F007032B44A360E7E07B681B68FF
:1051B000394A934204D07B681B68384A934271D1C4
:1051C0007B681C68FEF7F6FB024613469B001344FF
:1051D0009A001A447B685B689B00B2FBF3F3304A89
:1051E000A2FB03235B091D01FEF7E4FB0246134605
:1051F0009B0013449A001A447B685B689B00B2FBD7
:10520000F3F6FEF7D7FB024613469B0013449A00C1
:105210001A447B685B689B00B2FBF3F3204AA2FB55
:1052200003235B09642202FB03F3F31A1B013233ED
:105230001B4AA2FB03235B0903F0F0031D44FEF7A6
:10524000B9FB024613469B0013449A001A447B683C
:105250005B689B00B2FBF3F6FEF7ACFB024613461D
:105260009B0013449A001A447B685B689B00B2FB66
:10527000F3F30B4AA2FB03235B09642202FB03F353
:10528000F31A1B013233064AA2FB03235B0903F026
:105290000F032B44A36071E0001001400014014093
:1052A0001F85EB517B681C68FEF770FB02461346B6
:1052B0009B0013449A001A447B685B689B00B2FB16
:1052C000F3F3304AA2FB03235B091D01FEF75EFBEB
:1052D000024613469B0013449A001A447B685B689D
:1052E0009B00B2FBF3F6FEF751FB024613469B0010
:1052F00013449A001A447B685B689B00B2FBF3F38B
:10530000204AA2FB03235B09642202FB03F3F31A86
:105310001B0132331B4AA2FB03235B0903F0F0039A
:105320001D44FEF733FB024613469B0013449A00CC
:105330001A447B685B689B00B2FBF3F6FEF726FB22
:10534000024613469B0013449A001A447B685B682C
:105350009B00B2FBF3F30B4AA2FB03235B0964221D
:1053600002FB03F3F31A1B013233064AA2FB0323A9
:105370005B0903F00F032B44A360FFE700BF143762
:10538000BD46F0BD1F85EB5180B58AB000AF00234C
:105390003B616B4A6A4B1B6B43F001031363684B21
:1053A0001B6B03F001033B613B690023FB60644A14
:1053B000634B1B6B43F004031363614B1B6B03F0E4
:1053C0000403FB60FB680023BB605D4A5C4B1B6B06
:1053D00043F0080313635A4B1B6B03F00803BB60D5
:1053E000BB6800237B60564A554B1B6B43F0100390
:1053F0001363534B1B6B03F010037B607B684FF40C
:1054000000637B610123BB610023FB6100233B62DE
:1054100007F1140319464B48FCF770FF4FF48073F3
:105420007B6107F1140319464748FCF767FF4023E7
:105430007B6107F1140319464248FCF75FFF202304
:105440007B6107F1140319463E48FCF757FF4FF400
:1054500080437B6107F1140319463C48FCF74EFF7B
:105460004FF400537B6107F1140319463748FCF7EA
:1054700045FF4FF400437B6107F11403194631489F
:10548000FCF73CFF80237B6107F1140319462D488C
:10549000FCF734FF4FF400737B6107F114031946E6
:1054A0002B48FCF72BFF4FF480637B6107F114035B
:1054B00019462748FCF722FF4FF480537B6107F120
:1054C000140319462248FCF719FF4FF480437B610F
:1054D00007F1140319461E48FCF710FF4FF4004370
:1054E0007B6107F1140319461948FCF707FF4FF4D5
:1054F00080737B6107F1140319461548FCF7FEFE23
:105500004FF400537B6107F1140319461048FCF770
:10551000F5FE4FF400637B6107F1140319460C4854
:10552000FCF7ECFE01220021002000F013F801221C
:105530000021012000F00EF800BF2837BD4680BDD5
:1055400000380240000C0240000002400008024007
:105550000010024080B584B000AFF860B9607A6096
:10556000FB68002B40F0DC81B968CB4B83FB012347
:105570009A10CB17D21A13469B0013445B00CA1A29
:10558000092A00F2BA8101A353F822F0B5550008A8
:105590000756000859560008AB560008FD5600088B
:1055A0004F570008A1570008F35700084558000856
:1055B000A958000800224FF40061B848FDF738F8F8
:1055C00000224FF48071B648FDF732F800224021E6
:1055D000B248FDF72DF800222021B048FDF728F849
:1055E00000224FF48041AF48FDF722F800224FF42B
:1055F0000051AC48FDF71CF801224FF40041A748C8
:10560000FDF716F879E100224FF48071A448FDF708
:105610000FF800224021A148FDF70AF801224FF4BB
:1056200000619E48FDF704F8012220219B48FCF709
:10563000FFFF01224FF480419A48FCF7F9FF012255
:105640004FF400519748FCF7F3FF01224FF400415B
:105650009248FCF7EDFF50E100224FF400618F48C3
:10566000FCF7E6FF00224FF480718D48FCF7E0FF65
:1056700000224FF400418948FCF7DAFF00224FF482
:1056800080418848FCF7D4FF002220218348FCF7A2
:10569000CFFF012240218148FCF7CAFF01224FF4CD
:1056A00000518048FCF7C4FF27E100224FF400615D
:1056B0007A48FCF7BDFF00224FF480717848FCF770
:1056C000B7FF002240217548FCF7B2FF00222021DD
:1056D0007248FCF7ADFF00224FF400416F48FCF721
:1056E000A7FF01224FF480416E48FCF7A1FF012281
:1056F0004FF400516B48FCF79BFFFEE000224FF493
:1057000000516848FCF794FF00224FF400416348C1
:10571000FCF78EFF00224FF480716148FCF788FF90
:10572000002240215D48FCF783FF01224FF4006115
:105730005A48FCF77DFF012220215848FCF778FFEA
:1057400001224FF480415748FCF772FFD5E0002258
:105750004FF400615148FCF76BFF00224FF40051F9
:105760005048FCF765FF00224FF400414B48FCF71E
:105770005FFF002240214948FCF75AFF0022202108
:105780004648FCF755FF01224FF480714448FCF76E
:105790004FFF01224FF480414248FCF749FFACE043
:1057A00000224FF400613D48FCF742FF00224021F7
:1057B0003A48FCF73DFF002220213848FCF738FF2B
:1057C00000224FF480413748FCF732FF00224FF4AB
:1057D00000513448FCF72CFF00224FF400412F48C1
:1057E000FCF726FF01224FF480712D48FCF720FFC3
:1057F00083E000224FF400512A48FCF719FF0022F1
:105800004FF400612548FCF713FF00224FF480712C
:105810002348FCF70DFF002240212048FCF708FF39
:10582000012220211D48FCF703FF01224FF4804193
:105830001C48FCF7FDFE01224FF400411748FCF71D
:10584000F7FE5AE000224FF400611448FCF7F0FE26
:1058500000224FF480711248FCF7EAFE002240213A
:105860000E48FCF7E5FE002220210C48FCF7E0FE84
:1058700000224FF480410B48FCF7DAFE00224FF47F
:1058800000510848FCF7D4FE00224FF400410348C1
:10589000FCF7CEFE31E000BF67666666000C024092
:1058A000000002400008024000224FF40061C84896
:1058B000FCF7BEFE00224FF48071C648FCF7B8FE2C
:1058C00000224021C248FCF7B3FE00222021C0483C
:1058D000FCF7AEFE00224FF40051BF48FCF7A8FED3
:1058E00000224FF40041BA48FCF7A2FE01224FF417
:1058F0008041B948FCF79CFE00BF7B68012B05D1B5
:1059000000228021B248FCF793FEFFE17B68002B68
:1059100040F0FC8101228021AD48FCF789FEF5E1D1
:10592000FB68012B40F0F281B968AC4B83FB01238B
:105930009A10CB17D21A13469B0013445B00CA1A65
:10594000092A00F2D08101A353F822F0755900080A
:10595000CB590008215A0008775A0008CD5A000890
:10596000235B0008795B0008E55B00083B5C0008EE
:10597000915C000800224FF400719948FCF758FE32
:1059800000224FF480619648FCF752FE00224FF44B
:1059900080519348FCF74CFE00224FF48041904820
:1059A000FCF746FE00224FF400418D48FCF740FE14
:1059B00000224FF480718A48FCF73AFE01224FF42E
:1059C00000518748FCF734FE8DE100224FF48061DE
:1059D0008348FCF72DFE00224FF480518048FCF7ED
:1059E00027FE01224FF400717D48FCF721FE0122C1
:1059F0004FF480417A48FCF71BFE01224FF400412E
:105A00007748FCF715FE01224FF480717448FCF7CB
:105A10000FFE01224FF400517148FCF709FE62E1CC
:105A200000224FF400716E48FCF702FE00224FF492
:105A300080616B48FCF7FCFD00224FF40051684880
:105A4000FCF7F6FD00224FF400416548FCF7F0FD3D
:105A500000224FF480416248FCF7EAFD01224FF436
:105A600080515F48FCF7E4FD01224FF480715C48EF
:105A7000FCF7DEFD37E100224FF400715848FCF7D7
:105A8000D7FD00224FF480615548FCF7D1FD00227C
:105A90004FF480515248FCF7CBFD00224FF4804177
:105AA0004F48FCF7C5FD00224FF400514C48FCF76D
:105AB000BFFD01224FF400414948FCF7B9FD012226
:105AC0004FF480714648FCF7B3FD0CE100224FF41F
:105AD00080714348FCF7ACFD00224FF40051404870
